{
	"compilerInput": "{\"language\":\"Solidity\",\"sources\":{\"contracts/1_Storage.sol\":{\"content\":\"// SPDX-License-Identifier: MIT\\npragma solidity ^0.8.20;\\n\\n/**\\n * The Big On-Chain Button\\n * - Premi il bottone: incrementa il contatore globale\\n * - Traccia i \\\"taps\\\" per address\\n * - Cooldown anti-spam (default: 15s)\\n * - Tip opzionale al contratto (withdraw da parte dell'owner)\\n */\\ncontract BigButton {\\n    event Pressed(address indexed user, uint256 totalPresses, uint256 userPresses, string message, uint256 tip);\\n\\n    address public owner;\\n    uint256 public totalPresses;\\n    uint256 public cooldownSeconds = 15;\\n\\n    mapping(address => uint256) public presses;       // quante pressioni ha fatto l'utente\\n    mapping(address => uint256) public lastPressAt;   // timestamp ultima pressione per cooldown\\n\\n    modifier onlyOwner() {\\n        require(msg.sender == owner, \\\"Not owner\\\");\\n        _;\\n    }\\n\\n    constructor() {\\n        owner = msg.sender;\\n    }\\n\\n    /// @notice Cambia il cooldown (in secondi)\\n    function setCooldown(uint256 seconds_) external onlyOwner {\\n        require(seconds_ <= 3600, \\\"Cooldown too high\\\");\\n        cooldownSeconds = seconds_;\\n    }\\n\\n    /// @notice Premi il bottone. Puoi includere un messaggio breve e una tip opzionale via msg.value.\\n    function press(string calldata message_) external payable {\\n        uint256 last = lastPressAt[msg.sender];\\n        require(block.timestamp >= last + cooldownSeconds, \\\"Cooldown active\\\");\\n\\n        totalPresses += 1;\\n        presses[msg.sender] += 1;\\n        lastPressAt[msg.sender] = block.timestamp;\\n\\n        emit Pressed(msg.sender, totalPresses, presses[msg.sender], message_, msg.value);\\n        // eventuale tip resta nel contratto finche' l'owner non fa withdraw\\n    }\\n\\n    /// @notice Preleva le tip accumulate\\n    function withdraw(address payable to, uint256 amount) external onlyOwner {\\n        require(amount <= address(this).balance, \\\"Insufficient balance\\\");\\n        to.transfer(amount);\\n    }\\n\\n    /// @notice Saldo accumulato da tip\\n    function tipsBalance() external view returns (uint256) {\\n        return address(this).balance;\\n    }\\n\\n    // =========================\\n    // ===== ABI UTILITIES =====\\n    // =========================\\n\\n    /// @notice Selector delle funzioni (prime 4 bytes di keccak256 della firma)\\n    function selectorPress() external pure returns (bytes4) {\\n        return this.press.selector; // equivalente a bytes4(keccak256(\\\"press(string)\\\"))\\n    }\\n\\n    function selectorSetCooldown() external pure returns (bytes4) {\\n        return this.setCooldown.selector; // \\\"setCooldown(uint256)\\\"\\n    }\\n\\n    function selectorWithdraw() external pure returns (bytes4) {\\n        return this.withdraw.selector; // \\\"withdraw(address,uint256)\\\"\\n    }\\n\\n    /// @notice Calldata completo (selector + params) per press(string)\\n    function calldataPress(string calldata message_) external pure returns (bytes memory) {\\n        return abi.encodeWithSelector(this.press.selector, message_);\\n    }\\n\\n    /// @notice Calldata completo per setCooldown(uint256)\\n    function calldataSetCooldown(uint256 seconds_) external pure returns (bytes memory) {\\n        return abi.encodeWithSelector(this.setCooldown.selector, seconds_);\\n    }\\n\\n    /// @notice Calldata completo per withdraw(address,uint256)\\n    function calldataWithdraw(address to, uint256 amount) external pure returns (bytes memory) {\\n        return abi.encodeWithSelector(this.withdraw.selector, to, amount);\\n    }\\n\\n    /// @notice Calcola selector da una firma arbitraria, es. \\\"transfer(address,uint256)\\\"\\n    function selectorOf(string calldata signature) external pure returns (bytes4) {\\n        return bytes4(keccak256(bytes(signature)));\\n    }\\n\\n    /// @notice Concatena selector (da firma) e parametri già encodati (abi.encode(...))\\n    function makeCalldata(string calldata signature, bytes calldata encodedParams) external pure returns (bytes memory) {\\n        bytes4 sel = bytes4(keccak256(bytes(signature)));\\n        return bytes.concat(sel, encodedParams);\\n    }\\n\\n    /// @notice Decodifica i parametri di press(string) da un calldata (ignora i primi 4 bytes di selector)\\n    function decodePressParams(bytes calldata data) external pure returns (string memory message_) {\\n        require(data.length >= 4, \\\"Bad calldata\\\");\\n        bytes calldata params = data[4:];\\n        (message_) = abi.decode(params, (string));\\n    }\\n\\n    /// @notice Decodifica i parametri di setCooldown(uint256) da un calldata\\n    function decodeSetCooldownParams(bytes calldata data) external pure returns (uint256 seconds_) {\\n        require(data.length >= 4, \\\"Bad calldata\\\");\\n        bytes calldata params = data[4:];\\n        (seconds_) = abi.decode(params, (uint256));\\n    }\\n\\n    /// @notice Decodifica i parametri di withdraw(address,uint256) da un calldata\\n    function decodeWithdrawParams(bytes calldata data) external pure returns (address to, uint256 amount) {\\n        require(data.length >= 4, \\\"Bad calldata\\\");\\n        bytes calldata params = data[4:];\\n        (to, amount) = abi.decode(params, (address, uint256));\\n    }\\n\\n    /// @notice Hash della firma dell'evento Pressed (topic0)\\n    function eventPressedTopic0() external pure returns (bytes32) {\\n        return keccak256(\\\"Pressed(address,uint256,uint256,string,uint256)\\\");\\n    }\\n}\"}},\"settings\":{\"optimizer\":{\"enabled\":false,\"runs\":200},\"outputSelection\":{\"*\":{\"\":[\"ast\"],\"*\":[\"abi\",\"metadata\",\"devdoc\",\"userdoc\",\"storageLayout\",\"evm.legacyAssembly\",\"evm.bytecode\",\"evm.deployedBytecode\",\"evm.methodIdentifiers\",\"evm.gasEstimates\",\"evm.assembly\"]}},\"remappings\":[],\"evmVersion\":\"cancun\"}}",
	"name": "BigButton",
	"bytecode": {
		"linkReferences": {},
		"object": "6080604052600f600255348015610014575f80fd5b50335f806101000a81548173ffffffffffffffffffffffffffffffffffffffff021916908373ffffffffffffffffffffffffffffffffffffffff16021790555061182b806100615f395ff3fe608060405260043610610129575f3560e01c80638da5cb5b116100aa578063d0100f121161006e578063d0100f121461040d578063d698449814610449578063e459dd9014610485578063e72d5e5f146104c1578063f3fef3a3146104dd578063fb50b1601461050557610129565b80638da5cb5b14610317578063b59af73814610341578063b8221bc41461037d578063b921b030146103a7578063c6b08cfb146103e357610129565b80633b44ccd7116100f15780633b44ccd7146102355780634d30e63f146102715780634fc3f41a1461029b5780637a8ed613146102c35780638510331d146102ed57610129565b80631ca1885b1461012d5780631cfee7f1146101695780632741876a146101935780632bd48507146101bd578063355f3176146101f9575b5f80fd5b348015610138575f80fd5b50610153600480360381019061014e9190610d99565b610542565b6040516101609190610e6e565b60405180910390f35b348015610174575f80fd5b5061017d6105c4565b60405161018a9190610ec8565b60405180910390f35b34801561019e575f80fd5b506101a76105d2565b6040516101b49190610ef9565b60405180910390f35b3480156101c8575f80fd5b506101e360048036038101906101de9190610f67565b6105d8565b6040516101f09190610e6e565b60405180910390f35b348015610204575f80fd5b5061021f600480360381019061021a919061100f565b610624565b60405161022c9190610e6e565b60405180910390f35b348015610240575f80fd5b5061025b60048036038101906102569190611094565b6106a3565b6040516102689190610ef9565b60405180910390f35b34801561027c575f80fd5b506102856106b8565b6040516102929190610ec8565b60405180910390f35b3480156102a6575f80fd5b506102c160048036038101906102bc919061100f565b6106c6565b005b3480156102ce575f80fd5b506102d76107a2565b6040516102e49190610ef9565b60405180910390f35b3480156102f8575f80fd5b506103016107a9565b60405161030e9190610ec8565b60405180910390f35b348015610322575f80fd5b5061032b6107b7565b60405161033891906110ce565b60405180910390f35b34801561034c575f80fd5b50610367600480360381019061036291906110e7565b6107da565b6040516103749190610e6e565b60405180910390f35b348015610388575f80fd5b5061039161085c565b60405161039e9190610ef9565b60405180910390f35b3480156103b2575f80fd5b506103cd60048036038101906103c89190610d99565b610862565b6040516103da9190610ec8565b60405180910390f35b3480156103ee575f80fd5b506103f7610883565b604051610404919061113d565b60405180910390f35b348015610418575f80fd5b50610433600480360381019061042e9190611094565b6108aa565b6040516104409190610ef9565b60405180910390f35b348015610454575f80fd5b5061046f600480360381019061046a9190611156565b6108bf565b60405161047c9190610ef9565b60405180910390f35b348015610490575f80fd5b506104ab60048036038101906104a69190611156565b610939565b6040516104b891906111f3565b60405180910390f35b6104db60048036038101906104d69190610d99565b6109b4565b005b3480156104e8575f80fd5b5061050360048036038101906104fe919061124e565b610b8d565b005b348015610510575f80fd5b5061052b60048036038101906105269190611156565b610ca5565b60405161053992919061128c565b60405180910390f35b606063e72d5e5f60e01b838360405160240161055f9291906112ed565b604051602081830303815290604052907bffffffffffffffffffffffffffffffffffffffffffffffffffffffff19166020820180517bffffffffffffffffffffffffffffffffffffffffffffffffffffffff8381831617835250505050905092915050565b5f63f3fef3a360e01b905090565b60015481565b60605f85856040516105eb92919061133d565b6040518091039020905080848460405160200161060a93929190611375565b604051602081830303815290604052915050949350505050565b6060634fc3f41a60e01b8260405160240161063f9190610ef9565b604051602081830303815290604052907bffffffffffffffffffffffffffffffffffffffffffffffffffffffff19166020820180517bffffffffffffffffffffffffffffffffffffffffffffffffffffffff83818316178352505050509050919050565b6004602052805f5260405f205f915090505481565b5f634fc3f41a60e01b905090565b5f8054906101000a900473ffffffffffffffffffffffffffffffffffffffff1673ffffffffffffffffffffffffffffffffffffffff163373ffffffffffffffffffffffffffffffffffffffff1614610753576040517f08c379a000000000000000000000000000000000000000000000000000000000815260040161074a906113e8565b60405180910390fd5b610e10811115610798576040517f08c379a000000000000000000000000000000000000000000000000000000000815260040161078f90611450565b60405180910390fd5b8060028190555050565b5f47905090565b5f63e72d5e5f60e01b905090565b5f8054906101000a900473ffffffffffffffffffffffffffffffffffffffff1681565b606063f3fef3a360e01b83836040516024016107f792919061128c565b604051602081830303815290604052907bffffffffffffffffffffffffffffffffffffffffffffffffffffffff19166020820180517bffffffffffffffffffffffffffffffffffffffffffffffffffffffff8381831617835250505050905092915050565b60025481565b5f828260405161087392919061133d565b6040518091039020905092915050565b5f7fa932e5483a6c4b217a12d84f6f397b68818a21bfa23c1e83c4566267613ccd46905090565b6003602052805f5260405f205f915090505481565b5f6004838390501015610907576040517f08c379a00000000000000000000000000000000000000000000000000000000081526004016108fe906114b8565b60405180910390fd5b365f8484600490809261091c939291906114de565b91509150818181019061092f919061100f565b9250505092915050565b60606004838390501015610982576040517f08c379a0000000000000000000000000000000000000000000000000000000008152600401610979906114b8565b60405180910390fd5b365f84846004908092610997939291906114de565b9150915081818101906109aa9190611632565b9250505092915050565b5f60045f3373ffffffffffffffffffffffffffffffffffffffff1673ffffffffffffffffffffffffffffffffffffffff1681526020019081526020015f2054905060025481610a0391906116a6565b421015610a45576040517f08c379a0000000000000000000000000000000000000000000000000000000008152600401610a3c90611723565b60405180910390fd5b6001805f828254610a5691906116a6565b92505081905550600160035f3373ffffffffffffffffffffffffffffffffffffffff1673ffffffffffffffffffffffffffffffffffffffff1681526020019081526020015f205f828254610aaa91906116a6565b925050819055504260045f3373ffffffffffffffffffffffffffffffffffffffff1673ffffffffffffffffffffffffffffffffffffffff1681526020019081526020015f20819055503373ffffffffffffffffffffffffffffffffffffffff167fa932e5483a6c4b217a12d84f6f397b68818a21bfa23c1e83c4566267613ccd4660015460035f3373ffffffffffffffffffffffffffffffffffffffff1673ffffffffffffffffffffffffffffffffffffffff1681526020019081526020015f2054868634604051610b80959493929190611741565b60405180910390a2505050565b5f8054906101000a900473ffffffffffffffffffffffffffffffffffffffff1673ffffffffffffffffffffffffffffffffffffffff163373ffffffffffffffffffffffffffffffffffffffff1614610c1a576040517f08c379a0000000000000000000000000000000000000000000000000000000008152600401610c11906113e8565b60405180910390fd5b47811115610c5d576040517f08c379a0000000000000000000000000000000000000000000000000000000008152600401610c54906117d7565b60405180910390fd5b8173ffffffffffffffffffffffffffffffffffffffff166108fc8290811502906040515f60405180830381858888f19350505050158015610ca0573d5f803e3d5ffd5b505050565b5f806004848490501015610cee576040517f08c379a0000000000000000000000000000000000000000000000000000000008152600401610ce5906114b8565b60405180910390fd5b365f85856004908092610d03939291906114de565b915091508181810190610d16919061124e565b809450819550505050509250929050565b5f604051905090565b5f80fd5b5f80fd5b5f80fd5b5f80fd5b5f80fd5b5f8083601f840112610d5957610d58610d38565b5b8235905067ffffffffffffffff811115610d7657610d75610d3c565b5b602083019150836001820283011115610d9257610d91610d40565b5b9250929050565b5f8060208385031215610daf57610dae610d30565b5b5f83013567ffffffffffffffff811115610dcc57610dcb610d34565b5b610dd885828601610d44565b92509250509250929050565b5f81519050919050565b5f82825260208201905092915050565b5f5b83811015610e1b578082015181840152602081019050610e00565b5f8484015250505050565b5f601f19601f8301169050919050565b5f610e4082610de4565b610e4a8185610dee565b9350610e5a818560208601610dfe565b610e6381610e26565b840191505092915050565b5f6020820190508181035f830152610e868184610e36565b905092915050565b5f7fffffffff0000000000000000000000000000000000000000000000000000000082169050919050565b610ec281610e8e565b82525050565b5f602082019050610edb5f830184610eb9565b92915050565b5f819050919050565b610ef381610ee1565b82525050565b5f602082019050610f0c5f830184610eea565b92915050565b5f8083601f840112610f2757610f26610d38565b5b8235905067ffffffffffffffff811115610f4457610f43610d3c565b5b602083019150836001820283011115610f6057610f5f610d40565b5b9250929050565b5f805f8060408587031215610f7f57610f7e610d30565b5b5f85013567ffffffffffffffff811115610f9c57610f9b610d34565b5b610fa887828801610d44565b9450945050602085013567ffffffffffffffff811115610fcb57610fca610d34565b5b610fd787828801610f12565b925092505092959194509250565b610fee81610ee1565b8114610ff8575f80fd5b50565b5f8135905061100981610fe5565b92915050565b5f6020828403121561102457611023610d30565b5b5f61103184828501610ffb565b91505092915050565b5f73ffffffffffffffffffffffffffffffffffffffff82169050919050565b5f6110638261103a565b9050919050565b61107381611059565b811461107d575f80fd5b50565b5f8135905061108e8161106a565b92915050565b5f602082840312156110a9576110a8610d30565b5b5f6110b684828501611080565b91505092915050565b6110c881611059565b82525050565b5f6020820190506110e15f8301846110bf565b92915050565b5f80604083850312156110fd576110fc610d30565b5b5f61110a85828601611080565b925050602061111b85828601610ffb565b9150509250929050565b5f819050919050565b61113781611125565b82525050565b5f6020820190506111505f83018461112e565b92915050565b5f806020838503121561116c5761116b610d30565b5b5f83013567ffffffffffffffff81111561118957611188610d34565b5b61119585828601610f12565b92509250509250929050565b5f81519050919050565b5f82825260208201905092915050565b5f6111c5826111a1565b6111cf81856111ab565b93506111df818560208601610dfe565b6111e881610e26565b840191505092915050565b5f6020820190508181035f83015261120b81846111bb565b905092915050565b5f61121d8261103a565b9050919050565b61122d81611213565b8114611237575f80fd5b50565b5f8135905061124881611224565b92915050565b5f806040838503121561126457611263610d30565b5b5f6112718582860161123a565b925050602061128285828601610ffb565b9150509250929050565b5f60408201905061129f5f8301856110bf565b6112ac6020830184610eea565b9392505050565b828183375f83830152505050565b5f6112cc83856111ab565b93506112d98385846112b3565b6112e283610e26565b840190509392505050565b5f6020820190508181035f8301526113068184866112c1565b90509392505050565b5f81905092915050565b5f611324838561130f565b93506113318385846112b3565b82840190509392505050565b5f611349828486611319565b91508190509392505050565b5f819050919050565b61136f61136a82610e8e565b611355565b82525050565b5f611380828661135e565b600482019150611391828486611319565b9150819050949350505050565b7f4e6f74206f776e657200000000000000000000000000000000000000000000005f82015250565b5f6113d26009836111ab565b91506113dd8261139e565b602082019050919050565b5f6020820190508181035f8301526113ff816113c6565b9050919050565b7f436f6f6c646f776e20746f6f20686967680000000000000000000000000000005f82015250565b5f61143a6011836111ab565b915061144582611406565b602082019050919050565b5f6020820190508181035f8301526114678161142e565b9050919050565b7f4261642063616c6c6461746100000000000000000000000000000000000000005f82015250565b5f6114a2600c836111ab565b91506114ad8261146e565b602082019050919050565b5f6020820190508181035f8301526114cf81611496565b9050919050565b5f80fd5b5f80fd5b5f80858511156114f1576114f06114d6565b5b83861115611502576115016114da565b5b6001850283019150848603905094509492505050565b5f80fd5b7f4e487b71000000000000000000000000000000000000000000000000000000005f52604160045260245ffd5b61155282610e26565b810181811067ffffffffffffffff821117156115715761157061151c565b5b80604052505050565b5f611583610d27565b905061158f8282611549565b919050565b5f67ffffffffffffffff8211156115ae576115ad61151c565b5b6115b782610e26565b9050602081019050919050565b5f6115d66115d184611594565b61157a565b9050828152602081018484840111156115f2576115f1611518565b5b6115fd8482856112b3565b509392505050565b5f82601f83011261161957611618610d38565b5b81356116298482602086016115c4565b91505092915050565b5f6020828403121561164757611646610d30565b5b5f82013567ffffffffffffffff81111561166457611663610d34565b5b61167084828501611605565b91505092915050565b7f4e487b71000000000000000000000000000000000000000000000000000000005f52601160045260245ffd5b5f6116b082610ee1565b91506116bb83610ee1565b92508282019050808211156116d3576116d2611679565b5b92915050565b7f436f6f6c646f776e2061637469766500000000000000000000000000000000005f82015250565b5f61170d600f836111ab565b9150611718826116d9565b602082019050919050565b5f6020820190508181035f83015261173a81611701565b9050919050565b5f6080820190506117545f830188610eea565b6117616020830187610eea565b81810360408301526117748185876112c1565b90506117836060830184610eea565b9695505050505050565b7f496e73756666696369656e742062616c616e63650000000000000000000000005f82015250565b5f6117c16014836111ab565b91506117cc8261178d565b602082019050919050565b5f6020820190508181035f8301526117ee816117b5565b905091905056fea26469706673582212205031d0bb532f950a1bee9c2c41c396d51d2113b1d822e3672255e52cb28f28ee64736f6c63430008180033",
		"opcodes": "PUSH1 0x80 PUSH1 0x40 MSTORE PUSH1 0xF PUSH1 0x2 SSTORE CALLVALUE DUP1 ISZERO PUSH2 0x14 JUMPI PUSH0 DUP1 REVERT JUMPDEST POP CALLER PUSH0 DUP1 PUSH2 0x100 EXP DUP2 SLOAD DUP2 PUSH20 0xFFFFFFFFFFFFFFFFFFFFFFFFFFFFFFFFFFFFFFFF MUL NOT AND SWAP1 DUP4 PUSH20 0xFFFFFFFFFFFFFFFFFFFFFFFFFFFFFFFFFFFFFFFF AND MUL OR SWAP1 SSTORE POP PUSH2 0x182B DUP1 PUSH2 0x61 PUSH0 CODECOPY PUSH0 RETURN INVALID PUSH1 0x80 PUSH1 0x40 MSTORE PUSH1 0x4 CALLDATASIZE LT PUSH2 0x129 JUMPI PUSH0 CALLDATALOAD PUSH1 0xE0 SHR DUP1 PUSH4 0x8DA5CB5B GT PUSH2 0xAA JUMPI DUP1 PUSH4 0xD0100F12 GT PUSH2 0x6E JUMPI DUP1 PUSH4 0xD0100F12 EQ PUSH2 0x40D JUMPI DUP1 PUSH4 0xD6984498 EQ PUSH2 0x449 JUMPI DUP1 PUSH4 0xE459DD90 EQ PUSH2 0x485 JUMPI DUP1 PUSH4 0xE72D5E5F EQ PUSH2 0x4C1 JUMPI DUP1 PUSH4 0xF3FEF3A3 EQ PUSH2 0x4DD JUMPI DUP1 PUSH4 0xFB50B160 EQ PUSH2 0x505 JUMPI PUSH2 0x129 JUMP JUMPDEST DUP1 PUSH4 0x8DA5CB5B EQ PUSH2 0x317 JUMPI DUP1 PUSH4 0xB59AF738 EQ PUSH2 0x341 JUMPI DUP1 PUSH4 0xB8221BC4 EQ PUSH2 0x37D JUMPI DUP1 PUSH4 0xB921B030 EQ PUSH2 0x3A7 JUMPI DUP1 PUSH4 0xC6B08CFB EQ PUSH2 0x3E3 JUMPI PUSH2 0x129 JUMP JUMPDEST DUP1 PUSH4 0x3B44CCD7 GT PUSH2 0xF1 JUMPI DUP1 PUSH4 0x3B44CCD7 EQ PUSH2 0x235 JUMPI DUP1 PUSH4 0x4D30E63F EQ PUSH2 0x271 JUMPI DUP1 PUSH4 0x4FC3F41A EQ PUSH2 0x29B JUMPI DUP1 PUSH4 0x7A8ED613 EQ PUSH2 0x2C3 JUMPI DUP1 PUSH4 0x8510331D EQ PUSH2 0x2ED JUMPI PUSH2 0x129 JUMP JUMPDEST DUP1 PUSH4 0x1CA1885B EQ PUSH2 0x12D JUMPI DUP1 PUSH4 0x1CFEE7F1 EQ PUSH2 0x169 JUMPI DUP1 PUSH4 0x2741876A EQ PUSH2 0x193 JUMPI DUP1 PUSH4 0x2BD48507 EQ PUSH2 0x1BD JUMPI DUP1 PUSH4 0x355F3176 EQ PUSH2 0x1F9 JUMPI JUMPDEST PUSH0 DUP1 REVERT JUMPDEST CALLVALUE DUP1 ISZERO PUSH2 0x138 JUMPI PUSH0 DUP1 REVERT JUMPDEST POP PUSH2 0x153 PUSH1 0x4 DUP1 CALLDATASIZE SUB DUP2 ADD SWAP1 PUSH2 0x14E SWAP2 SWAP1 PUSH2 0xD99 JUMP JUMPDEST PUSH2 0x542 JUMP JUMPDEST PUSH1 0x40 MLOAD PUSH2 0x160 SWAP2 SWAP1 PUSH2 0xE6E JUMP JUMPDEST PUSH1 0x40 MLOAD DUP1 SWAP2 SUB SWAP1 RETURN JUMPDEST CALLVALUE DUP1 ISZERO PUSH2 0x174 JUMPI PUSH0 DUP1 REVERT JUMPDEST POP PUSH2 0x17D PUSH2 0x5C4 JUMP JUMPDEST PUSH1 0x40 MLOAD PUSH2 0x18A SWAP2 SWAP1 PUSH2 0xEC8 JUMP JUMPDEST PUSH1 0x40 MLOAD DUP1 SWAP2 SUB SWAP1 RETURN JUMPDEST CALLVALUE DUP1 ISZERO PUSH2 0x19E JUMPI PUSH0 DUP1 REVERT JUMPDEST POP PUSH2 0x1A7 PUSH2 0x5D2 JUMP JUMPDEST PUSH1 0x40 MLOAD PUSH2 0x1B4 SWAP2 SWAP1 PUSH2 0xEF9 JUMP JUMPDEST PUSH1 0x40 MLOAD DUP1 SWAP2 SUB SWAP1 RETURN JUMPDEST CALLVALUE DUP1 ISZERO PUSH2 0x1C8 JUMPI PUSH0 DUP1 REVERT JUMPDEST POP PUSH2 0x1E3 PUSH1 0x4 DUP1 CALLDATASIZE SUB DUP2 ADD SWAP1 PUSH2 0x1DE SWAP2 SWAP1 PUSH2 0xF67 JUMP JUMPDEST PUSH2 0x5D8 JUMP JUMPDEST PUSH1 0x40 MLOAD PUSH2 0x1F0 SWAP2 SWAP1 PUSH2 0xE6E JUMP JUMPDEST PUSH1 0x40 MLOAD DUP1 SWAP2 SUB SWAP1 RETURN JUMPDEST CALLVALUE DUP1 ISZERO PUSH2 0x204 JUMPI PUSH0 DUP1 REVERT JUMPDEST POP PUSH2 0x21F PUSH1 0x4 DUP1 CALLDATASIZE SUB DUP2 ADD SWAP1 PUSH2 0x21A SWAP2 SWAP1 PUSH2 0x100F JUMP JUMPDEST PUSH2 0x624 JUMP JUMPDEST PUSH1 0x40 MLOAD PUSH2 0x22C SWAP2 SWAP1 PUSH2 0xE6E JUMP JUMPDEST PUSH1 0x40 MLOAD DUP1 SWAP2 SUB SWAP1 RETURN JUMPDEST CALLVALUE DUP1 ISZERO PUSH2 0x240 JUMPI PUSH0 DUP1 REVERT JUMPDEST POP PUSH2 0x25B PUSH1 0x4 DUP1 CALLDATASIZE SUB DUP2 ADD SWAP1 PUSH2 0x256 SWAP2 SWAP1 PUSH2 0x1094 JUMP JUMPDEST PUSH2 0x6A3 JUMP JUMPDEST PUSH1 0x40 MLOAD PUSH2 0x268 SWAP2 SWAP1 PUSH2 0xEF9 JUMP JUMPDEST PUSH1 0x40 MLOAD DUP1 SWAP2 SUB SWAP1 RETURN JUMPDEST CALLVALUE DUP1 ISZERO PUSH2 0x27C JUMPI PUSH0 DUP1 REVERT JUMPDEST POP PUSH2 0x285 PUSH2 0x6B8 JUMP JUMPDEST PUSH1 0x40 MLOAD PUSH2 0x292 SWAP2 SWAP1 PUSH2 0xEC8 JUMP JUMPDEST PUSH1 0x40 MLOAD DUP1 SWAP2 SUB SWAP1 RETURN JUMPDEST CALLVALUE DUP1 ISZERO PUSH2 0x2A6 JUMPI PUSH0 DUP1 REVERT JUMPDEST POP PUSH2 0x2C1 PUSH1 0x4 DUP1 CALLDATASIZE SUB DUP2 ADD SWAP1 PUSH2 0x2BC SWAP2 SWAP1 PUSH2 0x100F JUMP JUMPDEST PUSH2 0x6C6 JUMP JUMPDEST STOP JUMPDEST CALLVALUE DUP1 ISZERO PUSH2 0x2CE JUMPI PUSH0 DUP1 REVERT JUMPDEST POP PUSH2 0x2D7 PUSH2 0x7A2 JUMP JUMPDEST PUSH1 0x40 MLOAD PUSH2 0x2E4 SWAP2 SWAP1 PUSH2 0xEF9 JUMP JUMPDEST PUSH1 0x40 MLOAD DUP1 SWAP2 SUB SWAP1 RETURN JUMPDEST CALLVALUE DUP1 ISZERO PUSH2 0x2F8 JUMPI PUSH0 DUP1 REVERT JUMPDEST POP PUSH2 0x301 PUSH2 0x7A9 JUMP JUMPDEST PUSH1 0x40 MLOAD PUSH2 0x30E SWAP2 SWAP1 PUSH2 0xEC8 JUMP JUMPDEST PUSH1 0x40 MLOAD DUP1 SWAP2 SUB SWAP1 RETURN JUMPDEST CALLVALUE DUP1 ISZERO PUSH2 0x322 JUMPI PUSH0 DUP1 REVERT JUMPDEST POP PUSH2 0x32B PUSH2 0x7B7 JUMP JUMPDEST PUSH1 0x40 MLOAD PUSH2 0x338 SWAP2 SWAP1 PUSH2 0x10CE JUMP JUMPDEST PUSH1 0x40 MLOAD DUP1 SWAP2 SUB SWAP1 RETURN JUMPDEST CALLVALUE DUP1 ISZERO PUSH2 0x34C JUMPI PUSH0 DUP1 REVERT JUMPDEST POP PUSH2 0x367 PUSH1 0x4 DUP1 CALLDATASIZE SUB DUP2 ADD SWAP1 PUSH2 0x362 SWAP2 SWAP1 PUSH2 0x10E7 JUMP JUMPDEST PUSH2 0x7DA JUMP JUMPDEST PUSH1 0x40 MLOAD PUSH2 0x374 SWAP2 SWAP1 PUSH2 0xE6E JUMP JUMPDEST PUSH1 0x40 MLOAD DUP1 SWAP2 SUB SWAP1 RETURN JUMPDEST CALLVALUE DUP1 ISZERO PUSH2 0x388 JUMPI PUSH0 DUP1 REVERT JUMPDEST POP PUSH2 0x391 PUSH2 0x85C JUMP JUMPDEST PUSH1 0x40 MLOAD PUSH2 0x39E SWAP2 SWAP1 PUSH2 0xEF9 JUMP JUMPDEST PUSH1 0x40 MLOAD DUP1 SWAP2 SUB SWAP1 RETURN JUMPDEST CALLVALUE DUP1 ISZERO PUSH2 0x3B2 JUMPI PUSH0 DUP1 REVERT JUMPDEST POP PUSH2 0x3CD PUSH1 0x4 DUP1 CALLDATASIZE SUB DUP2 ADD SWAP1 PUSH2 0x3C8 SWAP2 SWAP1 PUSH2 0xD99 JUMP JUMPDEST PUSH2 0x862 JUMP JUMPDEST PUSH1 0x40 MLOAD PUSH2 0x3DA SWAP2 SWAP1 PUSH2 0xEC8 JUMP JUMPDEST PUSH1 0x40 MLOAD DUP1 SWAP2 SUB SWAP1 RETURN JUMPDEST CALLVALUE DUP1 ISZERO PUSH2 0x3EE JUMPI PUSH0 DUP1 REVERT JUMPDEST POP PUSH2 0x3F7 PUSH2 0x883 JUMP JUMPDEST PUSH1 0x40 MLOAD PUSH2 0x404 SWAP2 SWAP1 PUSH2 0x113D JUMP JUMPDEST PUSH1 0x40 MLOAD DUP1 SWAP2 SUB SWAP1 RETURN JUMPDEST CALLVALUE DUP1 ISZERO PUSH2 0x418 JUMPI PUSH0 DUP1 REVERT JUMPDEST POP PUSH2 0x433 PUSH1 0x4 DUP1 CALLDATASIZE SUB DUP2 ADD SWAP1 PUSH2 0x42E SWAP2 SWAP1 PUSH2 0x1094 JUMP JUMPDEST PUSH2 0x8AA JUMP JUMPDEST PUSH1 0x40 MLOAD PUSH2 0x440 SWAP2 SWAP1 PUSH2 0xEF9 JUMP JUMPDEST PUSH1 0x40 MLOAD DUP1 SWAP2 SUB SWAP1 RETURN JUMPDEST CALLVALUE DUP1 ISZERO PUSH2 0x454 JUMPI PUSH0 DUP1 REVERT JUMPDEST POP PUSH2 0x46F PUSH1 0x4 DUP1 CALLDATASIZE SUB DUP2 ADD SWAP1 PUSH2 0x46A SWAP2 SWAP1 PUSH2 0x1156 JUMP JUMPDEST PUSH2 0x8BF JUMP JUMPDEST PUSH1 0x40 MLOAD PUSH2 0x47C SWAP2 SWAP1 PUSH2 0xEF9 JUMP JUMPDEST PUSH1 0x40 MLOAD DUP1 SWAP2 SUB SWAP1 RETURN JUMPDEST CALLVALUE DUP1 ISZERO PUSH2 0x490 JUMPI PUSH0 DUP1 REVERT JUMPDEST POP PUSH2 0x4AB PUSH1 0x4 DUP1 CALLDATASIZE SUB DUP2 ADD SWAP1 PUSH2 0x4A6 SWAP2 SWAP1 PUSH2 0x1156 JUMP JUMPDEST PUSH2 0x939 JUMP JUMPDEST PUSH1 0x40 MLOAD PUSH2 0x4B8 SWAP2 SWAP1 PUSH2 0x11F3 JUMP JUMPDEST PUSH1 0x40 MLOAD DUP1 SWAP2 SUB SWAP1 RETURN JUMPDEST PUSH2 0x4DB PUSH1 0x4 DUP1 CALLDATASIZE SUB DUP2 ADD SWAP1 PUSH2 0x4D6 SWAP2 SWAP1 PUSH2 0xD99 JUMP JUMPDEST PUSH2 0x9B4 JUMP JUMPDEST STOP JUMPDEST CALLVALUE DUP1 ISZERO PUSH2 0x4E8 JUMPI PUSH0 DUP1 REVERT JUMPDEST POP PUSH2 0x503 PUSH1 0x4 DUP1 CALLDATASIZE SUB DUP2 ADD SWAP1 PUSH2 0x4FE SWAP2 SWAP1 PUSH2 0x124E JUMP JUMPDEST PUSH2 0xB8D JUMP JUMPDEST STOP JUMPDEST CALLVALUE DUP1 ISZERO PUSH2 0x510 JUMPI PUSH0 DUP1 REVERT JUMPDEST POP PUSH2 0x52B PUSH1 0x4 DUP1 CALLDATASIZE SUB DUP2 ADD SWAP1 PUSH2 0x526 SWAP2 SWAP1 PUSH2 0x1156 JUMP JUMPDEST PUSH2 0xCA5 JUMP JUMPDEST PUSH1 0x40 MLOAD PUSH2 0x539 SWAP3 SWAP2 SWAP1 PUSH2 0x128C JUMP JUMPDEST PUSH1 0x40 MLOAD DUP1 SWAP2 SUB SWAP1 RETURN JUMPDEST PUSH1 0x60 PUSH4 0xE72D5E5F PUSH1 0xE0 SHL DUP4 DUP4 PUSH1 0x40 MLOAD PUSH1 0x24 ADD PUSH2 0x55F SWAP3 SWAP2 SWAP1 PUSH2 0x12ED JUMP JUMPDEST PUSH1 0x40 MLOAD PUSH1 0x20 DUP2 DUP4 SUB SUB DUP2 MSTORE SWAP1 PUSH1 0x40 MSTORE SWAP1 PUSH28 0xFFFFFFFFFFFFFFFFFFFFFFFFFFFFFFFFFFFFFFFFFFFFFFFFFFFFFFFF NOT AND PUSH1 0x20 DUP3 ADD DUP1 MLOAD PUSH28 0xFFFFFFFFFFFFFFFFFFFFFFFFFFFFFFFFFFFFFFFFFFFFFFFFFFFFFFFF DUP4 DUP2 DUP4 AND OR DUP4 MSTORE POP POP POP POP SWAP1 POP SWAP3 SWAP2 POP POP JUMP JUMPDEST PUSH0 PUSH4 0xF3FEF3A3 PUSH1 0xE0 SHL SWAP1 POP SWAP1 JUMP JUMPDEST PUSH1 0x1 SLOAD DUP2 JUMP JUMPDEST PUSH1 0x60 PUSH0 DUP6 DUP6 PUSH1 0x40 MLOAD PUSH2 0x5EB SWAP3 SWAP2 SWAP1 PUSH2 0x133D JUMP JUMPDEST PUSH1 0x40 MLOAD DUP1 SWAP2 SUB SWAP1 KECCAK256 SWAP1 POP DUP1 DUP5 DUP5 PUSH1 0x40 MLOAD PUSH1 0x20 ADD PUSH2 0x60A SWAP4 SWAP3 SWAP2 SWAP1 PUSH2 0x1375 JUMP JUMPDEST PUSH1 0x40 MLOAD PUSH1 0x20 DUP2 DUP4 SUB SUB DUP2 MSTORE SWAP1 PUSH1 0x40 MSTORE SWAP2 POP POP SWAP5 SWAP4 POP POP POP POP JUMP JUMPDEST PUSH1 0x60 PUSH4 0x4FC3F41A PUSH1 0xE0 SHL DUP3 PUSH1 0x40 MLOAD PUSH1 0x24 ADD PUSH2 0x63F SWAP2 SWAP1 PUSH2 0xEF9 JUMP JUMPDEST PUSH1 0x40 MLOAD PUSH1 0x20 DUP2 DUP4 SUB SUB DUP2 MSTORE SWAP1 PUSH1 0x40 MSTORE SWAP1 PUSH28 0xFFFFFFFFFFFFFFFFFFFFFFFFFFFFFFFFFFFFFFFFFFFFFFFFFFFFFFFF NOT AND PUSH1 0x20 DUP3 ADD DUP1 MLOAD PUSH28 0xFFFFFFFFFFFFFFFFFFFFFFFFFFFFFFFFFFFFFFFFFFFFFFFFFFFFFFFF DUP4 DUP2 DUP4 AND OR DUP4 MSTORE POP POP POP POP SWAP1 POP SWAP2 SWAP1 POP JUMP JUMPDEST PUSH1 0x4 PUSH1 0x20 MSTORE DUP1 PUSH0 MSTORE PUSH1 0x40 PUSH0 KECCAK256 PUSH0 SWAP2 POP SWAP1 POP SLOAD DUP2 JUMP JUMPDEST PUSH0 PUSH4 0x4FC3F41A PUSH1 0xE0 SHL SWAP1 POP SWAP1 JUMP JUMPDEST PUSH0 DUP1 SLOAD SWAP1 PUSH2 0x100 EXP SWAP1 DIV PUSH20 0xFFFFFFFFFFFFFFFFFFFFFFFFFFFFFFFFFFFFFFFF AND PUSH20 0xFFFFFFFFFFFFFFFFFFFFFFFFFFFFFFFFFFFFFFFF AND CALLER PUSH20 0xFFFFFFFFFFFFFFFFFFFFFFFFFFFFFFFFFFFFFFFF AND EQ PUSH2 0x753 JUMPI PUSH1 0x40 MLOAD PUSH32 0x8C379A000000000000000000000000000000000000000000000000000000000 DUP2 MSTORE PUSH1 0x4 ADD PUSH2 0x74A SWAP1 PUSH2 0x13E8 JUMP JUMPDEST PUSH1 0x40 MLOAD DUP1 SWAP2 SUB SWAP1 REVERT JUMPDEST PUSH2 0xE10 DUP2 GT ISZERO PUSH2 0x798 JUMPI PUSH1 0x40 MLOAD PUSH32 0x8C379A000000000000000000000000000000000000000000000000000000000 DUP2 MSTORE PUSH1 0x4 ADD PUSH2 0x78F SWAP1 PUSH2 0x1450 JUMP JUMPDEST PUSH1 0x40 MLOAD DUP1 SWAP2 SUB SWAP1 REVERT JUMPDEST DUP1 PUSH1 0x2 DUP2 SWAP1 SSTORE POP POP JUMP JUMPDEST PUSH0 SELFBALANCE SWAP1 POP SWAP1 JUMP JUMPDEST PUSH0 PUSH4 0xE72D5E5F PUSH1 0xE0 SHL SWAP1 POP SWAP1 JUMP JUMPDEST PUSH0 DUP1 SLOAD SWAP1 PUSH2 0x100 EXP SWAP1 DIV PUSH20 0xFFFFFFFFFFFFFFFFFFFFFFFFFFFFFFFFFFFFFFFF AND DUP2 JUMP JUMPDEST PUSH1 0x60 PUSH4 0xF3FEF3A3 PUSH1 0xE0 SHL DUP4 DUP4 PUSH1 0x40 MLOAD PUSH1 0x24 ADD PUSH2 0x7F7 SWAP3 SWAP2 SWAP1 PUSH2 0x128C JUMP JUMPDEST PUSH1 0x40 MLOAD PUSH1 0x20 DUP2 DUP4 SUB SUB DUP2 MSTORE SWAP1 PUSH1 0x40 MSTORE SWAP1 PUSH28 0xFFFFFFFFFFFFFFFFFFFFFFFFFFFFFFFFFFFFFFFFFFFFFFFFFFFFFFFF NOT AND PUSH1 0x20 DUP3 ADD DUP1 MLOAD PUSH28 0xFFFFFFFFFFFFFFFFFFFFFFFFFFFFFFFFFFFFFFFFFFFFFFFFFFFFFFFF DUP4 DUP2 DUP4 AND OR DUP4 MSTORE POP POP POP POP SWAP1 POP SWAP3 SWAP2 POP POP JUMP JUMPDEST PUSH1 0x2 SLOAD DUP2 JUMP JUMPDEST PUSH0 DUP3 DUP3 PUSH1 0x40 MLOAD PUSH2 0x873 SWAP3 SWAP2 SWAP1 PUSH2 0x133D JUMP JUMPDEST PUSH1 0x40 MLOAD DUP1 SWAP2 SUB SWAP1 KECCAK256 SWAP1 POP SWAP3 SWAP2 POP POP JUMP JUMPDEST PUSH0 PUSH32 0xA932E5483A6C4B217A12D84F6F397B68818A21BFA23C1E83C4566267613CCD46 SWAP1 POP SWAP1 JUMP JUMPDEST PUSH1 0x3 PUSH1 0x20 MSTORE DUP1 PUSH0 MSTORE PUSH1 0x40 PUSH0 KECCAK256 PUSH0 SWAP2 POP SWAP1 POP SLOAD DUP2 JUMP JUMPDEST PUSH0 PUSH1 0x4 DUP4 DUP4 SWAP1 POP LT ISZERO PUSH2 0x907 JUMPI PUSH1 0x40 MLOAD PUSH32 0x8C379A000000000000000000000000000000000000000000000000000000000 DUP2 MSTORE PUSH1 0x4 ADD PUSH2 0x8FE SWAP1 PUSH2 0x14B8 JUMP JUMPDEST PUSH1 0x40 MLOAD DUP1 SWAP2 SUB SWAP1 REVERT JUMPDEST CALLDATASIZE PUSH0 DUP5 DUP5 PUSH1 0x4 SWAP1 DUP1 SWAP3 PUSH2 0x91C SWAP4 SWAP3 SWAP2 SWAP1 PUSH2 0x14DE JUMP JUMPDEST SWAP2 POP SWAP2 POP DUP2 DUP2 DUP2 ADD SWAP1 PUSH2 0x92F SWAP2 SWAP1 PUSH2 0x100F JUMP JUMPDEST SWAP3 POP POP POP SWAP3 SWAP2 POP POP JUMP JUMPDEST PUSH1 0x60 PUSH1 0x4 DUP4 DUP4 SWAP1 POP LT ISZERO PUSH2 0x982 JUMPI PUSH1 0x40 MLOAD PUSH32 0x8C379A000000000000000000000000000000000000000000000000000000000 DUP2 MSTORE PUSH1 0x4 ADD PUSH2 0x979 SWAP1 PUSH2 0x14B8 JUMP JUMPDEST PUSH1 0x40 MLOAD DUP1 SWAP2 SUB SWAP1 REVERT JUMPDEST CALLDATASIZE PUSH0 DUP5 DUP5 PUSH1 0x4 SWAP1 DUP1 SWAP3 PUSH2 0x997 SWAP4 SWAP3 SWAP2 SWAP1 PUSH2 0x14DE JUMP JUMPDEST SWAP2 POP SWAP2 POP DUP2 DUP2 DUP2 ADD SWAP1 PUSH2 0x9AA SWAP2 SWAP1 PUSH2 0x1632 JUMP JUMPDEST SWAP3 POP POP POP SWAP3 SWAP2 POP POP JUMP JUMPDEST PUSH0 PUSH1 0x4 PUSH0 CALLER PUSH20 0xFFFFFFFFFFFFFFFFFFFFFFFFFFFFFFFFFFFFFFFF AND PUSH20 0xFFFFFFFFFFFFFFFFFFFFFFFFFFFFFFFFFFFFFFFF AND DUP2 MSTORE PUSH1 0x20 ADD SWAP1 DUP2 MSTORE PUSH1 0x20 ADD PUSH0 KECCAK256 SLOAD SWAP1 POP PUSH1 0x2 SLOAD DUP2 PUSH2 0xA03 SWAP2 SWAP1 PUSH2 0x16A6 JUMP JUMPDEST TIMESTAMP LT ISZERO PUSH2 0xA45 JUMPI PUSH1 0x40 MLOAD PUSH32 0x8C379A000000000000000000000000000000000000000000000000000000000 DUP2 MSTORE PUSH1 0x4 ADD PUSH2 0xA3C SWAP1 PUSH2 0x1723 JUMP JUMPDEST PUSH1 0x40 MLOAD DUP1 SWAP2 SUB SWAP1 REVERT JUMPDEST PUSH1 0x1 DUP1 PUSH0 DUP3 DUP3 SLOAD PUSH2 0xA56 SWAP2 SWAP1 PUSH2 0x16A6 JUMP JUMPDEST SWAP3 POP POP DUP2 SWAP1 SSTORE POP PUSH1 0x1 PUSH1 0x3 PUSH0 CALLER PUSH20 0xFFFFFFFFFFFFFFFFFFFFFFFFFFFFFFFFFFFFFFFF AND PUSH20 0xFFFFFFFFFFFFFFFFFFFFFFFFFFFFFFFFFFFFFFFF AND DUP2 MSTORE PUSH1 0x20 ADD SWAP1 DUP2 MSTORE PUSH1 0x20 ADD PUSH0 KECCAK256 PUSH0 DUP3 DUP3 SLOAD PUSH2 0xAAA SWAP2 SWAP1 PUSH2 0x16A6 JUMP JUMPDEST SWAP3 POP POP DUP2 SWAP1 SSTORE POP TIMESTAMP PUSH1 0x4 PUSH0 CALLER PUSH20 0xFFFFFFFFFFFFFFFFFFFFFFFFFFFFFFFFFFFFFFFF AND PUSH20 0xFFFFFFFFFFFFFFFFFFFFFFFFFFFFFFFFFFFFFFFF AND DUP2 MSTORE PUSH1 0x20 ADD SWAP1 DUP2 MSTORE PUSH1 0x20 ADD PUSH0 KECCAK256 DUP2 SWAP1 SSTORE POP CALLER PUSH20 0xFFFFFFFFFFFFFFFFFFFFFFFFFFFFFFFFFFFFFFFF AND PUSH32 0xA932E5483A6C4B217A12D84F6F397B68818A21BFA23C1E83C4566267613CCD46 PUSH1 0x1 SLOAD PUSH1 0x3 PUSH0 CALLER PUSH20 0xFFFFFFFFFFFFFFFFFFFFFFFFFFFFFFFFFFFFFFFF AND PUSH20 0xFFFFFFFFFFFFFFFFFFFFFFFFFFFFFFFFFFFFFFFF AND DUP2 MSTORE PUSH1 0x20 ADD SWAP1 DUP2 MSTORE PUSH1 0x20 ADD PUSH0 KECCAK256 SLOAD DUP7 DUP7 CALLVALUE PUSH1 0x40 MLOAD PUSH2 0xB80 SWAP6 SWAP5 SWAP4 SWAP3 SWAP2 SWAP1 PUSH2 0x1741 JUMP JUMPDEST PUSH1 0x40 MLOAD DUP1 SWAP2 SUB SWAP1 LOG2 POP POP POP JUMP JUMPDEST PUSH0 DUP1 SLOAD SWAP1 PUSH2 0x100 EXP SWAP1 DIV PUSH20 0xFFFFFFFFFFFFFFFFFFFFFFFFFFFFFFFFFFFFFFFF AND PUSH20 0xFFFFFFFFFFFFFFFFFFFFFFFFFFFFFFFFFFFFFFFF AND CALLER PUSH20 0xFFFFFFFFFFFFFFFFFFFFFFFFFFFFFFFFFFFFFFFF AND EQ PUSH2 0xC1A JUMPI PUSH1 0x40 MLOAD PUSH32 0x8C379A000000000000000000000000000000000000000000000000000000000 DUP2 MSTORE PUSH1 0x4 ADD PUSH2 0xC11 SWAP1 PUSH2 0x13E8 JUMP JUMPDEST PUSH1 0x40 MLOAD DUP1 SWAP2 SUB SWAP1 REVERT JUMPDEST SELFBALANCE DUP2 GT ISZERO PUSH2 0xC5D JUMPI PUSH1 0x40 MLOAD PUSH32 0x8C379A000000000000000000000000000000000000000000000000000000000 DUP2 MSTORE PUSH1 0x4 ADD PUSH2 0xC54 SWAP1 PUSH2 0x17D7 JUMP JUMPDEST PUSH1 0x40 MLOAD DUP1 SWAP2 SUB SWAP1 REVERT JUMPDEST DUP2 PUSH20 0xFFFFFFFFFFFFFFFFFFFFFFFFFFFFFFFFFFFFFFFF AND PUSH2 0x8FC DUP3 SWAP1 DUP2 ISZERO MUL SWAP1 PUSH1 0x40 MLOAD PUSH0 PUSH1 0x40 MLOAD DUP1 DUP4 SUB DUP2 DUP6 DUP9 DUP9 CALL SWAP4 POP POP POP POP ISZERO DUP1 ISZERO PUSH2 0xCA0 JUMPI RETURNDATASIZE PUSH0 DUP1 RETURNDATACOPY RETURNDATASIZE PUSH0 REVERT JUMPDEST POP POP POP JUMP JUMPDEST PUSH0 DUP1 PUSH1 0x4 DUP5 DUP5 SWAP1 POP LT ISZERO PUSH2 0xCEE JUMPI PUSH1 0x40 MLOAD PUSH32 0x8C379A000000000000000000000000000000000000000000000000000000000 DUP2 MSTORE PUSH1 0x4 ADD PUSH2 0xCE5 SWAP1 PUSH2 0x14B8 JUMP JUMPDEST PUSH1 0x40 MLOAD DUP1 SWAP2 SUB SWAP1 REVERT JUMPDEST CALLDATASIZE PUSH0 DUP6 DUP6 PUSH1 0x4 SWAP1 DUP1 SWAP3 PUSH2 0xD03 SWAP4 SWAP3 SWAP2 SWAP1 PUSH2 0x14DE JUMP JUMPDEST SWAP2 POP SWAP2 POP DUP2 DUP2 DUP2 ADD SWAP1 PUSH2 0xD16 SWAP2 SWAP1 PUSH2 0x124E JUMP JUMPDEST DUP1 SWAP5 POP DUP2 SWAP6 POP POP POP POP POP SWAP3 POP SWAP3 SWAP1 POP JUMP JUMPDEST PUSH0 PUSH1 0x40 MLOAD SWAP1 POP SWAP1 JUMP JUMPDEST PUSH0 DUP1 REVERT JUMPDEST PUSH0 DUP1 REVERT JUMPDEST PUSH0 DUP1 REVERT JUMPDEST PUSH0 DUP1 REVERT JUMPDEST PUSH0 DUP1 REVERT JUMPDEST PUSH0 DUP1 DUP4 PUSH1 0x1F DUP5 ADD SLT PUSH2 0xD59 JUMPI PUSH2 0xD58 PUSH2 0xD38 JUMP JUMPDEST JUMPDEST DUP3 CALLDATALOAD SWAP1 POP PUSH8 0xFFFFFFFFFFFFFFFF DUP2 GT ISZERO PUSH2 0xD76 JUMPI PUSH2 0xD75 PUSH2 0xD3C JUMP JUMPDEST JUMPDEST PUSH1 0x20 DUP4 ADD SWAP2 POP DUP4 PUSH1 0x1 DUP3 MUL DUP4 ADD GT ISZERO PUSH2 0xD92 JUMPI PUSH2 0xD91 PUSH2 0xD40 JUMP JUMPDEST JUMPDEST SWAP3 POP SWAP3 SWAP1 POP JUMP JUMPDEST PUSH0 DUP1 PUSH1 0x20 DUP4 DUP6 SUB SLT ISZERO PUSH2 0xDAF JUMPI PUSH2 0xDAE PUSH2 0xD30 JUMP JUMPDEST JUMPDEST PUSH0 DUP4 ADD CALLDATALOAD PUSH8 0xFFFFFFFFFFFFFFFF DUP2 GT ISZERO PUSH2 0xDCC JUMPI PUSH2 0xDCB PUSH2 0xD34 JUMP JUMPDEST JUMPDEST PUSH2 0xDD8 DUP6 DUP3 DUP7 ADD PUSH2 0xD44 JUMP JUMPDEST SWAP3 POP SWAP3 POP POP SWAP3 POP SWAP3 SWAP1 POP JUMP JUMPDEST PUSH0 DUP2 MLOAD SWAP1 POP SWAP2 SWAP1 POP JUMP JUMPDEST PUSH0 DUP3 DUP3 MSTORE PUSH1 0x20 DUP3 ADD SWAP1 POP SWAP3 SWAP2 POP POP JUMP JUMPDEST PUSH0 JUMPDEST DUP4 DUP2 LT ISZERO PUSH2 0xE1B JUMPI DUP1 DUP3 ADD MLOAD DUP2 DUP5 ADD MSTORE PUSH1 0x20 DUP2 ADD SWAP1 POP PUSH2 0xE00 JUMP JUMPDEST PUSH0 DUP5 DUP5 ADD MSTORE POP POP POP POP JUMP JUMPDEST PUSH0 PUSH1 0x1F NOT PUSH1 0x1F DUP4 ADD AND SWAP1 POP SWAP2 SWAP1 POP JUMP JUMPDEST PUSH0 PUSH2 0xE40 DUP3 PUSH2 0xDE4 JUMP JUMPDEST PUSH2 0xE4A DUP2 DUP6 PUSH2 0xDEE JUMP JUMPDEST SWAP4 POP PUSH2 0xE5A DUP2 DUP6 PUSH1 0x20 DUP7 ADD PUSH2 0xDFE JUMP JUMPDEST PUSH2 0xE63 DUP2 PUSH2 0xE26 JUMP JUMPDEST DUP5 ADD SWAP2 POP POP SWAP3 SWAP2 POP POP JUMP JUMPDEST PUSH0 PUSH1 0x20 DUP3 ADD SWAP1 POP DUP2 DUP2 SUB PUSH0 DUP4 ADD MSTORE PUSH2 0xE86 DUP2 DUP5 PUSH2 0xE36 JUMP JUMPDEST SWAP1 POP SWAP3 SWAP2 POP POP JUMP JUMPDEST PUSH0 PUSH32 0xFFFFFFFF00000000000000000000000000000000000000000000000000000000 DUP3 AND SWAP1 POP SWAP2 SWAP1 POP JUMP JUMPDEST PUSH2 0xEC2 DUP2 PUSH2 0xE8E JUMP JUMPDEST DUP3 MSTORE POP POP JUMP JUMPDEST PUSH0 PUSH1 0x20 DUP3 ADD SWAP1 POP PUSH2 0xEDB PUSH0 DUP4 ADD DUP5 PUSH2 0xEB9 JUMP JUMPDEST SWAP3 SWAP2 POP POP JUMP JUMPDEST PUSH0 DUP2 SWAP1 POP SWAP2 SWAP1 POP JUMP JUMPDEST PUSH2 0xEF3 DUP2 PUSH2 0xEE1 JUMP JUMPDEST DUP3 MSTORE POP POP JUMP JUMPDEST PUSH0 PUSH1 0x20 DUP3 ADD SWAP1 POP PUSH2 0xF0C PUSH0 DUP4 ADD DUP5 PUSH2 0xEEA JUMP JUMPDEST SWAP3 SWAP2 POP POP JUMP JUMPDEST PUSH0 DUP1 DUP4 PUSH1 0x1F DUP5 ADD SLT PUSH2 0xF27 JUMPI PUSH2 0xF26 PUSH2 0xD38 JUMP JUMPDEST JUMPDEST DUP3 CALLDATALOAD SWAP1 POP PUSH8 0xFFFFFFFFFFFFFFFF DUP2 GT ISZERO PUSH2 0xF44 JUMPI PUSH2 0xF43 PUSH2 0xD3C JUMP JUMPDEST JUMPDEST PUSH1 0x20 DUP4 ADD SWAP2 POP DUP4 PUSH1 0x1 DUP3 MUL DUP4 ADD GT ISZERO PUSH2 0xF60 JUMPI PUSH2 0xF5F PUSH2 0xD40 JUMP JUMPDEST JUMPDEST SWAP3 POP SWAP3 SWAP1 POP JUMP JUMPDEST PUSH0 DUP1 PUSH0 DUP1 PUSH1 0x40 DUP6 DUP8 SUB SLT ISZERO PUSH2 0xF7F JUMPI PUSH2 0xF7E PUSH2 0xD30 JUMP JUMPDEST JUMPDEST PUSH0 DUP6 ADD CALLDATALOAD PUSH8 0xFFFFFFFFFFFFFFFF DUP2 GT ISZERO PUSH2 0xF9C JUMPI PUSH2 0xF9B PUSH2 0xD34 JUMP JUMPDEST JUMPDEST PUSH2 0xFA8 DUP8 DUP3 DUP9 ADD PUSH2 0xD44 JUMP JUMPDEST SWAP5 POP SWAP5 POP POP PUSH1 0x20 DUP6 ADD CALLDATALOAD PUSH8 0xFFFFFFFFFFFFFFFF DUP2 GT ISZERO PUSH2 0xFCB JUMPI PUSH2 0xFCA PUSH2 0xD34 JUMP JUMPDEST JUMPDEST PUSH2 0xFD7 DUP8 DUP3 DUP9 ADD PUSH2 0xF12 JUMP JUMPDEST SWAP3 POP SWAP3 POP POP SWAP3 SWAP6 SWAP2 SWAP5 POP SWAP3 POP JUMP JUMPDEST PUSH2 0xFEE DUP2 PUSH2 0xEE1 JUMP JUMPDEST DUP2 EQ PUSH2 0xFF8 JUMPI PUSH0 DUP1 REVERT JUMPDEST POP JUMP JUMPDEST PUSH0 DUP2 CALLDATALOAD SWAP1 POP PUSH2 0x1009 DUP2 PUSH2 0xFE5 JUMP JUMPDEST SWAP3 SWAP2 POP POP JUMP JUMPDEST PUSH0 PUSH1 0x20 DUP3 DUP5 SUB SLT ISZERO PUSH2 0x1024 JUMPI PUSH2 0x1023 PUSH2 0xD30 JUMP JUMPDEST JUMPDEST PUSH0 PUSH2 0x1031 DUP5 DUP3 DUP6 ADD PUSH2 0xFFB JUMP JUMPDEST SWAP2 POP POP SWAP3 SWAP2 POP POP JUMP JUMPDEST PUSH0 PUSH20 0xFFFFFFFFFFFFFFFFFFFFFFFFFFFFFFFFFFFFFFFF DUP3 AND SWAP1 POP SWAP2 SWAP1 POP JUMP JUMPDEST PUSH0 PUSH2 0x1063 DUP3 PUSH2 0x103A JUMP JUMPDEST SWAP1 POP SWAP2 SWAP1 POP JUMP JUMPDEST PUSH2 0x1073 DUP2 PUSH2 0x1059 JUMP JUMPDEST DUP2 EQ PUSH2 0x107D JUMPI PUSH0 DUP1 REVERT JUMPDEST POP JUMP JUMPDEST PUSH0 DUP2 CALLDATALOAD SWAP1 POP PUSH2 0x108E DUP2 PUSH2 0x106A JUMP JUMPDEST SWAP3 SWAP2 POP POP JUMP JUMPDEST PUSH0 PUSH1 0x20 DUP3 DUP5 SUB SLT ISZERO PUSH2 0x10A9 JUMPI PUSH2 0x10A8 PUSH2 0xD30 JUMP JUMPDEST JUMPDEST PUSH0 PUSH2 0x10B6 DUP5 DUP3 DUP6 ADD PUSH2 0x1080 JUMP JUMPDEST SWAP2 POP POP SWAP3 SWAP2 POP POP JUMP JUMPDEST PUSH2 0x10C8 DUP2 PUSH2 0x1059 JUMP JUMPDEST DUP3 MSTORE POP POP JUMP JUMPDEST PUSH0 PUSH1 0x20 DUP3 ADD SWAP1 POP PUSH2 0x10E1 PUSH0 DUP4 ADD DUP5 PUSH2 0x10BF JUMP JUMPDEST SWAP3 SWAP2 POP POP JUMP JUMPDEST PUSH0 DUP1 PUSH1 0x40 DUP4 DUP6 SUB SLT ISZERO PUSH2 0x10FD JUMPI PUSH2 0x10FC PUSH2 0xD30 JUMP JUMPDEST JUMPDEST PUSH0 PUSH2 0x110A DUP6 DUP3 DUP7 ADD PUSH2 0x1080 JUMP JUMPDEST SWAP3 POP POP PUSH1 0x20 PUSH2 0x111B DUP6 DUP3 DUP7 ADD PUSH2 0xFFB JUMP JUMPDEST SWAP2 POP POP SWAP3 POP SWAP3 SWAP1 POP JUMP JUMPDEST PUSH0 DUP2 SWAP1 POP SWAP2 SWAP1 POP JUMP JUMPDEST PUSH2 0x1137 DUP2 PUSH2 0x1125 JUMP JUMPDEST DUP3 MSTORE POP POP JUMP JUMPDEST PUSH0 PUSH1 0x20 DUP3 ADD SWAP1 POP PUSH2 0x1150 PUSH0 DUP4 ADD DUP5 PUSH2 0x112E JUMP JUMPDEST SWAP3 SWAP2 POP POP JUMP JUMPDEST PUSH0 DUP1 PUSH1 0x20 DUP4 DUP6 SUB SLT ISZERO PUSH2 0x116C JUMPI PUSH2 0x116B PUSH2 0xD30 JUMP JUMPDEST JUMPDEST PUSH0 DUP4 ADD CALLDATALOAD PUSH8 0xFFFFFFFFFFFFFFFF DUP2 GT ISZERO PUSH2 0x1189 JUMPI PUSH2 0x1188 PUSH2 0xD34 JUMP JUMPDEST JUMPDEST PUSH2 0x1195 DUP6 DUP3 DUP7 ADD PUSH2 0xF12 JUMP JUMPDEST SWAP3 POP SWAP3 POP POP SWAP3 POP SWAP3 SWAP1 POP JUMP JUMPDEST PUSH0 DUP2 MLOAD SWAP1 POP SWAP2 SWAP1 POP JUMP JUMPDEST PUSH0 DUP3 DUP3 MSTORE PUSH1 0x20 DUP3 ADD SWAP1 POP SWAP3 SWAP2 POP POP JUMP JUMPDEST PUSH0 PUSH2 0x11C5 DUP3 PUSH2 0x11A1 JUMP JUMPDEST PUSH2 0x11CF DUP2 DUP6 PUSH2 0x11AB JUMP JUMPDEST SWAP4 POP PUSH2 0x11DF DUP2 DUP6 PUSH1 0x20 DUP7 ADD PUSH2 0xDFE JUMP JUMPDEST PUSH2 0x11E8 DUP2 PUSH2 0xE26 JUMP JUMPDEST DUP5 ADD SWAP2 POP POP SWAP3 SWAP2 POP POP JUMP JUMPDEST PUSH0 PUSH1 0x20 DUP3 ADD SWAP1 POP DUP2 DUP2 SUB PUSH0 DUP4 ADD MSTORE PUSH2 0x120B DUP2 DUP5 PUSH2 0x11BB JUMP JUMPDEST SWAP1 POP SWAP3 SWAP2 POP POP JUMP JUMPDEST PUSH0 PUSH2 0x121D DUP3 PUSH2 0x103A JUMP JUMPDEST SWAP1 POP SWAP2 SWAP1 POP JUMP JUMPDEST PUSH2 0x122D DUP2 PUSH2 0x1213 JUMP JUMPDEST DUP2 EQ PUSH2 0x1237 JUMPI PUSH0 DUP1 REVERT JUMPDEST POP JUMP JUMPDEST PUSH0 DUP2 CALLDATALOAD SWAP1 POP PUSH2 0x1248 DUP2 PUSH2 0x1224 JUMP JUMPDEST SWAP3 SWAP2 POP POP JUMP JUMPDEST PUSH0 DUP1 PUSH1 0x40 DUP4 DUP6 SUB SLT ISZERO PUSH2 0x1264 JUMPI PUSH2 0x1263 PUSH2 0xD30 JUMP JUMPDEST JUMPDEST PUSH0 PUSH2 0x1271 DUP6 DUP3 DUP7 ADD PUSH2 0x123A JUMP JUMPDEST SWAP3 POP POP PUSH1 0x20 PUSH2 0x1282 DUP6 DUP3 DUP7 ADD PUSH2 0xFFB JUMP JUMPDEST SWAP2 POP POP SWAP3 POP SWAP3 SWAP1 POP JUMP JUMPDEST PUSH0 PUSH1 0x40 DUP3 ADD SWAP1 POP PUSH2 0x129F PUSH0 DUP4 ADD DUP6 PUSH2 0x10BF JUMP JUMPDEST PUSH2 0x12AC PUSH1 0x20 DUP4 ADD DUP5 PUSH2 0xEEA JUMP JUMPDEST SWAP4 SWAP3 POP POP POP JUMP JUMPDEST DUP3 DUP2 DUP4 CALLDATACOPY PUSH0 DUP4 DUP4 ADD MSTORE POP POP POP JUMP JUMPDEST PUSH0 PUSH2 0x12CC DUP4 DUP6 PUSH2 0x11AB JUMP JUMPDEST SWAP4 POP PUSH2 0x12D9 DUP4 DUP6 DUP5 PUSH2 0x12B3 JUMP JUMPDEST PUSH2 0x12E2 DUP4 PUSH2 0xE26 JUMP JUMPDEST DUP5 ADD SWAP1 POP SWAP4 SWAP3 POP POP POP JUMP JUMPDEST PUSH0 PUSH1 0x20 DUP3 ADD SWAP1 POP DUP2 DUP2 SUB PUSH0 DUP4 ADD MSTORE PUSH2 0x1306 DUP2 DUP5 DUP7 PUSH2 0x12C1 JUMP JUMPDEST SWAP1 POP SWAP4 SWAP3 POP POP POP JUMP JUMPDEST PUSH0 DUP2 SWAP1 POP SWAP3 SWAP2 POP POP JUMP JUMPDEST PUSH0 PUSH2 0x1324 DUP4 DUP6 PUSH2 0x130F JUMP JUMPDEST SWAP4 POP PUSH2 0x1331 DUP4 DUP6 DUP5 PUSH2 0x12B3 JUMP JUMPDEST DUP3 DUP5 ADD SWAP1 POP SWAP4 SWAP3 POP POP POP JUMP JUMPDEST PUSH0 PUSH2 0x1349 DUP3 DUP5 DUP7 PUSH2 0x1319 JUMP JUMPDEST SWAP2 POP DUP2 SWAP1 POP SWAP4 SWAP3 POP POP POP JUMP JUMPDEST PUSH0 DUP2 SWAP1 POP SWAP2 SWAP1 POP JUMP JUMPDEST PUSH2 0x136F PUSH2 0x136A DUP3 PUSH2 0xE8E JUMP JUMPDEST PUSH2 0x1355 JUMP JUMPDEST DUP3 MSTORE POP POP JUMP JUMPDEST PUSH0 PUSH2 0x1380 DUP3 DUP7 PUSH2 0x135E JUMP JUMPDEST PUSH1 0x4 DUP3 ADD SWAP2 POP PUSH2 0x1391 DUP3 DUP5 DUP7 PUSH2 0x1319 JUMP JUMPDEST SWAP2 POP DUP2 SWAP1 POP SWAP5 SWAP4 POP POP POP POP JUMP JUMPDEST PUSH32 0x4E6F74206F776E65720000000000000000000000000000000000000000000000 PUSH0 DUP3 ADD MSTORE POP JUMP JUMPDEST PUSH0 PUSH2 0x13D2 PUSH1 0x9 DUP4 PUSH2 0x11AB JUMP JUMPDEST SWAP2 POP PUSH2 0x13DD DUP3 PUSH2 0x139E JUMP JUMPDEST PUSH1 0x20 DUP3 ADD SWAP1 POP SWAP2 SWAP1 POP JUMP JUMPDEST PUSH0 PUSH1 0x20 DUP3 ADD SWAP1 POP DUP2 DUP2 SUB PUSH0 DUP4 ADD MSTORE PUSH2 0x13FF DUP2 PUSH2 0x13C6 JUMP JUMPDEST SWAP1 POP SWAP2 SWAP1 POP JUMP JUMPDEST PUSH32 0x436F6F6C646F776E20746F6F2068696768000000000000000000000000000000 PUSH0 DUP3 ADD MSTORE POP JUMP JUMPDEST PUSH0 PUSH2 0x143A PUSH1 0x11 DUP4 PUSH2 0x11AB JUMP JUMPDEST SWAP2 POP PUSH2 0x1445 DUP3 PUSH2 0x1406 JUMP JUMPDEST PUSH1 0x20 DUP3 ADD SWAP1 POP SWAP2 SWAP1 POP JUMP JUMPDEST PUSH0 PUSH1 0x20 DUP3 ADD SWAP1 POP DUP2 DUP2 SUB PUSH0 DUP4 ADD MSTORE PUSH2 0x1467 DUP2 PUSH2 0x142E JUMP JUMPDEST SWAP1 POP SWAP2 SWAP1 POP JUMP JUMPDEST PUSH32 0x4261642063616C6C646174610000000000000000000000000000000000000000 PUSH0 DUP3 ADD MSTORE POP JUMP JUMPDEST PUSH0 PUSH2 0x14A2 PUSH1 0xC DUP4 PUSH2 0x11AB JUMP JUMPDEST SWAP2 POP PUSH2 0x14AD DUP3 PUSH2 0x146E JUMP JUMPDEST PUSH1 0x20 DUP3 ADD SWAP1 POP SWAP2 SWAP1 POP JUMP JUMPDEST PUSH0 PUSH1 0x20 DUP3 ADD SWAP1 POP DUP2 DUP2 SUB PUSH0 DUP4 ADD MSTORE PUSH2 0x14CF DUP2 PUSH2 0x1496 JUMP JUMPDEST SWAP1 POP SWAP2 SWAP1 POP JUMP JUMPDEST PUSH0 DUP1 REVERT JUMPDEST PUSH0 DUP1 REVERT JUMPDEST PUSH0 DUP1 DUP6 DUP6 GT ISZERO PUSH2 0x14F1 JUMPI PUSH2 0x14F0 PUSH2 0x14D6 JUMP JUMPDEST JUMPDEST DUP4 DUP7 GT ISZERO PUSH2 0x1502 JUMPI PUSH2 0x1501 PUSH2 0x14DA JUMP JUMPDEST JUMPDEST PUSH1 0x1 DUP6 MUL DUP4 ADD SWAP2 POP DUP5 DUP7 SUB SWAP1 POP SWAP5 POP SWAP5 SWAP3 POP POP POP JUMP JUMPDEST PUSH0 DUP1 REVERT JUMPDEST PUSH32 0x4E487B7100000000000000000000000000000000000000000000000000000000 PUSH0 MSTORE PUSH1 0x41 PUSH1 0x4 MSTORE PUSH1 0x24 PUSH0 REVERT JUMPDEST PUSH2 0x1552 DUP3 PUSH2 0xE26 JUMP JUMPDEST DUP2 ADD DUP2 DUP2 LT PUSH8 0xFFFFFFFFFFFFFFFF DUP3 GT OR ISZERO PUSH2 0x1571 JUMPI PUSH2 0x1570 PUSH2 0x151C JUMP JUMPDEST JUMPDEST DUP1 PUSH1 0x40 MSTORE POP POP POP JUMP JUMPDEST PUSH0 PUSH2 0x1583 PUSH2 0xD27 JUMP JUMPDEST SWAP1 POP PUSH2 0x158F DUP3 DUP3 PUSH2 0x1549 JUMP JUMPDEST SWAP2 SWAP1 POP JUMP JUMPDEST PUSH0 PUSH8 0xFFFFFFFFFFFFFFFF DUP3 GT ISZERO PUSH2 0x15AE JUMPI PUSH2 0x15AD PUSH2 0x151C JUMP JUMPDEST JUMPDEST PUSH2 0x15B7 DUP3 PUSH2 0xE26 JUMP JUMPDEST SWAP1 POP PUSH1 0x20 DUP2 ADD SWAP1 POP SWAP2 SWAP1 POP JUMP JUMPDEST PUSH0 PUSH2 0x15D6 PUSH2 0x15D1 DUP5 PUSH2 0x1594 JUMP JUMPDEST PUSH2 0x157A JUMP JUMPDEST SWAP1 POP DUP3 DUP2 MSTORE PUSH1 0x20 DUP2 ADD DUP5 DUP5 DUP5 ADD GT ISZERO PUSH2 0x15F2 JUMPI PUSH2 0x15F1 PUSH2 0x1518 JUMP JUMPDEST JUMPDEST PUSH2 0x15FD DUP5 DUP3 DUP6 PUSH2 0x12B3 JUMP JUMPDEST POP SWAP4 SWAP3 POP POP POP JUMP JUMPDEST PUSH0 DUP3 PUSH1 0x1F DUP4 ADD SLT PUSH2 0x1619 JUMPI PUSH2 0x1618 PUSH2 0xD38 JUMP JUMPDEST JUMPDEST DUP2 CALLDATALOAD PUSH2 0x1629 DUP5 DUP3 PUSH1 0x20 DUP7 ADD PUSH2 0x15C4 JUMP JUMPDEST SWAP2 POP POP SWAP3 SWAP2 POP POP JUMP JUMPDEST PUSH0 PUSH1 0x20 DUP3 DUP5 SUB SLT ISZERO PUSH2 0x1647 JUMPI PUSH2 0x1646 PUSH2 0xD30 JUMP JUMPDEST JUMPDEST PUSH0 DUP3 ADD CALLDATALOAD PUSH8 0xFFFFFFFFFFFFFFFF DUP2 GT ISZERO PUSH2 0x1664 JUMPI PUSH2 0x1663 PUSH2 0xD34 JUMP JUMPDEST JUMPDEST PUSH2 0x1670 DUP5 DUP3 DUP6 ADD PUSH2 0x1605 JUMP JUMPDEST SWAP2 POP POP SWAP3 SWAP2 POP POP JUMP JUMPDEST PUSH32 0x4E487B7100000000000000000000000000000000000000000000000000000000 PUSH0 MSTORE PUSH1 0x11 PUSH1 0x4 MSTORE PUSH1 0x24 PUSH0 REVERT JUMPDEST PUSH0 PUSH2 0x16B0 DUP3 PUSH2 0xEE1 JUMP JUMPDEST SWAP2 POP PUSH2 0x16BB DUP4 PUSH2 0xEE1 JUMP JUMPDEST SWAP3 POP DUP3 DUP3 ADD SWAP1 POP DUP1 DUP3 GT ISZERO PUSH2 0x16D3 JUMPI PUSH2 0x16D2 PUSH2 0x1679 JUMP JUMPDEST JUMPDEST SWAP3 SWAP2 POP POP JUMP JUMPDEST PUSH32 0x436F6F6C646F776E206163746976650000000000000000000000000000000000 PUSH0 DUP3 ADD MSTORE POP JUMP JUMPDEST PUSH0 PUSH2 0x170D PUSH1 0xF DUP4 PUSH2 0x11AB JUMP JUMPDEST SWAP2 POP PUSH2 0x1718 DUP3 PUSH2 0x16D9 JUMP JUMPDEST PUSH1 0x20 DUP3 ADD SWAP1 POP SWAP2 SWAP1 POP JUMP JUMPDEST PUSH0 PUSH1 0x20 DUP3 ADD SWAP1 POP DUP2 DUP2 SUB PUSH0 DUP4 ADD MSTORE PUSH2 0x173A DUP2 PUSH2 0x1701 JUMP JUMPDEST SWAP1 POP SWAP2 SWAP1 POP JUMP JUMPDEST PUSH0 PUSH1 0x80 DUP3 ADD SWAP1 POP PUSH2 0x1754 PUSH0 DUP4 ADD DUP9 PUSH2 0xEEA JUMP JUMPDEST PUSH2 0x1761 PUSH1 0x20 DUP4 ADD DUP8 PUSH2 0xEEA JUMP JUMPDEST DUP2 DUP2 SUB PUSH1 0x40 DUP4 ADD MSTORE PUSH2 0x1774 DUP2 DUP6 DUP8 PUSH2 0x12C1 JUMP JUMPDEST SWAP1 POP PUSH2 0x1783 PUSH1 0x60 DUP4 ADD DUP5 PUSH2 0xEEA JUMP JUMPDEST SWAP7 SWAP6 POP POP POP POP POP POP JUMP JUMPDEST PUSH32 0x496E73756666696369656E742062616C616E6365000000000000000000000000 PUSH0 DUP3 ADD MSTORE POP JUMP JUMPDEST PUSH0 PUSH2 0x17C1 PUSH1 0x14 DUP4 PUSH2 0x11AB JUMP JUMPDEST SWAP2 POP PUSH2 0x17CC DUP3 PUSH2 0x178D JUMP JUMPDEST PUSH1 0x20 DUP3 ADD SWAP1 POP SWAP2 SWAP1 POP JUMP JUMPDEST PUSH0 PUSH1 0x20 DUP3 ADD SWAP1 POP DUP2 DUP2 SUB PUSH0 DUP4 ADD MSTORE PUSH2 0x17EE DUP2 PUSH2 0x17B5 JUMP JUMPDEST SWAP1 POP SWAP2 SWAP1 POP JUMP INVALID LOG2 PUSH5 0x6970667358 0x22 SLT KECCAK256 POP BALANCE 0xD0 0xBB MSTORE8 0x2F SWAP6 EXP SHL 0xEE SWAP13 0x2C COINBASE 0xC3 SWAP7 0xD5 SAR 0x21 SGT 0xB1 0xD8 0x22 0xE3 PUSH8 0x2255E52CB28F28EE PUSH5 0x736F6C6343 STOP ADDMOD XOR STOP CALLER "
	},
	"abi": [
		{
			"inputs": [],
			"stateMutability": "nonpayable",
			"type": "constructor"
		},
		{
			"anonymous": false,
			"inputs": [
				{
					"indexed": true,
					"internalType": "address",
					"name": "user",
					"type": "address"
				},
				{
					"indexed": false,
					"internalType": "uint256",
					"name": "totalPresses",
					"type": "uint256"
				},
				{
					"indexed": false,
					"internalType": "uint256",
					"name": "userPresses",
					"type": "uint256"
				},
				{
					"indexed": false,
					"internalType": "string",
					"name": "message",
					"type": "string"
				},
				{
					"indexed": false,
					"internalType": "uint256",
					"name": "tip",
					"type": "uint256"
				}
			],
			"name": "Pressed",
			"type": "event"
		},
		{
			"inputs": [
				{
					"internalType": "string",
					"name": "message_",
					"type": "string"
				}
			],
			"name": "calldataPress",
			"outputs": [
				{
					"internalType": "bytes",
					"name": "",
					"type": "bytes"
				}
			],
			"stateMutability": "pure",
			"type": "function"
		},
		{
			"inputs": [
				{
					"internalType": "uint256",
					"name": "seconds_",
					"type": "uint256"
				}
			],
			"name": "calldataSetCooldown",
			"outputs": [
				{
					"internalType": "bytes",
					"name": "",
					"type": "bytes"
				}
			],
			"stateMutability": "pure",
			"type": "function"
		},
		{
			"inputs": [
				{
					"internalType": "address",
					"name": "to",
					"type": "address"
				},
				{
					"internalType": "uint256",
					"name": "amount",
					"type": "uint256"
				}
			],
			"name": "calldataWithdraw",
			"outputs": [
				{
					"internalType": "bytes",
					"name": "",
					"type": "bytes"
				}
			],
			"stateMutability": "pure",
			"type": "function"
		},
		{
			"inputs": [],
			"name": "cooldownSeconds",
			"outputs": [
				{
					"internalType": "uint256",
					"name": "",
					"type": "uint256"
				}
			],
			"stateMutability": "view",
			"type": "function"
		},
		{
			"inputs": [
				{
					"internalType": "bytes",
					"name": "data",
					"type": "bytes"
				}
			],
			"name": "decodePressParams",
			"outputs": [
				{
					"internalType": "string",
					"name": "message_",
					"type": "string"
				}
			],
			"stateMutability": "pure",
			"type": "function"
		},
		{
			"inputs": [
				{
					"internalType": "bytes",
					"name": "data",
					"type": "bytes"
				}
			],
			"name": "decodeSetCooldownParams",
			"outputs": [
				{
					"internalType": "uint256",
					"name": "seconds_",
					"type": "uint256"
				}
			],
			"stateMutability": "pure",
			"type": "function"
		},
		{
			"inputs": [
				{
					"internalType": "bytes",
					"name": "data",
					"type": "bytes"
				}
			],
			"name": "decodeWithdrawParams",
			"outputs": [
				{
					"internalType": "address",
					"name": "to",
					"type": "address"
				},
				{
					"internalType": "uint256",
					"name": "amount",
					"type": "uint256"
				}
			],
			"stateMutability": "pure",
			"type": "function"
		},
		{
			"inputs": [],
			"name": "eventPressedTopic0",
			"outputs": [
				{
					"internalType": "bytes32",
					"name": "",
					"type": "bytes32"
				}
			],
			"stateMutability": "pure",
			"type": "function"
		},
		{
			"inputs": [
				{
					"internalType": "address",
					"name": "",
					"type": "address"
				}
			],
			"name": "lastPressAt",
			"outputs": [
				{
					"internalType": "uint256",
					"name": "",
					"type": "uint256"
				}
			],
			"stateMutability": "view",
			"type": "function"
		},
		{
			"inputs": [
				{
					"internalType": "string",
					"name": "signature",
					"type": "string"
				},
				{
					"internalType": "bytes",
					"name": "encodedParams",
					"type": "bytes"
				}
			],
			"name": "makeCalldata",
			"outputs": [
				{
					"internalType": "bytes",
					"name": "",
					"type": "bytes"
				}
			],
			"stateMutability": "pure",
			"type": "function"
		},
		{
			"inputs": [],
			"name": "owner",
			"outputs": [
				{
					"internalType": "address",
					"name": "",
					"type": "address"
				}
			],
			"stateMutability": "view",
			"type": "function"
		},
		{
			"inputs": [
				{
					"internalType": "string",
					"name": "message_",
					"type": "string"
				}
			],
			"name": "press",
			"outputs": [],
			"stateMutability": "payable",
			"type": "function"
		},
		{
			"inputs": [
				{
					"internalType": "address",
					"name": "",
					"type": "address"
				}
			],
			"name": "presses",
			"outputs": [
				{
					"internalType": "uint256",
					"name": "",
					"type": "uint256"
				}
			],
			"stateMutability": "view",
			"type": "function"
		},
		{
			"inputs": [
				{
					"internalType": "string",
					"name": "signature",
					"type": "string"
				}
			],
			"name": "selectorOf",
			"outputs": [
				{
					"internalType": "bytes4",
					"name": "",
					"type": "bytes4"
				}
			],
			"stateMutability": "pure",
			"type": "function"
		},
		{
			"inputs": [],
			"name": "selectorPress",
			"outputs": [
				{
					"internalType": "bytes4",
					"name": "",
					"type": "bytes4"
				}
			],
			"stateMutability": "pure",
			"type": "function"
		},
		{
			"inputs": [],
			"name": "selectorSetCooldown",
			"outputs": [
				{
					"internalType": "bytes4",
					"name": "",
					"type": "bytes4"
				}
			],
			"stateMutability": "pure",
			"type": "function"
		},
		{
			"inputs": [],
			"name": "selectorWithdraw",
			"outputs": [
				{
					"internalType": "bytes4",
					"name": "",
					"type": "bytes4"
				}
			],
			"stateMutability": "pure",
			"type": "function"
		},
		{
			"inputs": [
				{
					"internalType": "uint256",
					"name": "seconds_",
					"type": "uint256"
				}
			],
			"name": "setCooldown",
			"outputs": [],
			"stateMutability": "nonpayable",
			"type": "function"
		},
		{
			"inputs": [],
			"name": "tipsBalance",
			"outputs": [
				{
					"internalType": "uint256",
					"name": "",
					"type": "uint256"
				}
			],
			"stateMutability": "view",
			"type": "function"
		},
		{
			"inputs": [],
			"name": "totalPresses",
			"outputs": [
				{
					"internalType": "uint256",
					"name": "",
					"type": "uint256"
				}
			],
			"stateMutability": "view",
			"type": "function"
		},
		{
			"inputs": [
				{
					"internalType": "address payable",
					"name": "to",
					"type": "address"
				},
				{
					"internalType": "uint256",
					"name": "amount",
					"type": "uint256"
				}
			],
			"name": "withdraw",
			"outputs": [],
			"stateMutability": "nonpayable",
			"type": "function"
		}
	],
	"storageLayout": {
		"storage": [
			{
				"astId": 16,
				"contract": "contracts/1_Storage.sol:BigButton",
				"label": "owner",
				"offset": 0,
				"slot": "0",
				"type": "t_address"
			},
			{
				"astId": 18,
				"contract": "contracts/1_Storage.sol:BigButton",
				"label": "totalPresses",
				"offset": 0,
				"slot": "1",
				"type": "t_uint256"
			},
			{
				"astId": 21,
				"contract": "contracts/1_Storage.sol:BigButton",
				"label": "cooldownSeconds",
				"offset": 0,
				"slot": "2",
				"type": "t_uint256"
			},
			{
				"astId": 25,
				"contract": "contracts/1_Storage.sol:BigButton",
				"label": "presses",
				"offset": 0,
				"slot": "3",
				"type": "t_mapping(t_address,t_uint256)"
			},
			{
				"astId": 29,
				"contract": "contracts/1_Storage.sol:BigButton",
				"label": "lastPressAt",
				"offset": 0,
				"slot": "4",
				"type": "t_mapping(t_address,t_uint256)"
			}
		],
		"types": {
			"t_address": {
				"encoding": "inplace",
				"label": "address",
				"numberOfBytes": "20"
			},
			"t_mapping(t_address,t_uint256)": {
				"encoding": "mapping",
				"key": "t_address",
				"label": "mapping(address => uint256)",
				"numberOfBytes": "32",
				"value": "t_uint256"
			},
			"t_uint256": {
				"encoding": "inplace",
				"label": "uint256",
				"numberOfBytes": "32"
			}
		}
	},
	"web3Deploy": "var bigbuttonContract = new web3.eth.Contract([{\"inputs\":[],\"stateMutability\":\"nonpayable\",\"type\":\"constructor\"},{\"anonymous\":false,\"inputs\":[{\"indexed\":true,\"internalType\":\"address\",\"name\":\"user\",\"type\":\"address\"},{\"indexed\":false,\"internalType\":\"uint256\",\"name\":\"totalPresses\",\"type\":\"uint256\"},{\"indexed\":false,\"internalType\":\"uint256\",\"name\":\"userPresses\",\"type\":\"uint256\"},{\"indexed\":false,\"internalType\":\"string\",\"name\":\"message\",\"type\":\"string\"},{\"indexed\":false,\"internalType\":\"uint256\",\"name\":\"tip\",\"type\":\"uint256\"}],\"name\":\"Pressed\",\"type\":\"event\"},{\"inputs\":[{\"internalType\":\"string\",\"name\":\"message_\",\"type\":\"string\"}],\"name\":\"calldataPress\",\"outputs\":[{\"internalType\":\"bytes\",\"name\":\"\",\"type\":\"bytes\"}],\"stateMutability\":\"pure\",\"type\":\"function\"},{\"inputs\":[{\"internalType\":\"uint256\",\"name\":\"seconds_\",\"type\":\"uint256\"}],\"name\":\"calldataSetCooldown\",\"outputs\":[{\"internalType\":\"bytes\",\"name\":\"\",\"type\":\"bytes\"}],\"stateMutability\":\"pure\",\"type\":\"function\"},{\"inputs\":[{\"internalType\":\"address\",\"name\":\"to\",\"type\":\"address\"},{\"internalType\":\"uint256\",\"name\":\"amount\",\"type\":\"uint256\"}],\"name\":\"calldataWithdraw\",\"outputs\":[{\"internalType\":\"bytes\",\"name\":\"\",\"type\":\"bytes\"}],\"stateMutability\":\"pure\",\"type\":\"function\"},{\"inputs\":[],\"name\":\"cooldownSeconds\",\"outputs\":[{\"internalType\":\"uint256\",\"name\":\"\",\"type\":\"uint256\"}],\"stateMutability\":\"view\",\"type\":\"function\"},{\"inputs\":[{\"internalType\":\"bytes\",\"name\":\"data\",\"type\":\"bytes\"}],\"name\":\"decodePressParams\",\"outputs\":[{\"internalType\":\"string\",\"name\":\"message_\",\"type\":\"string\"}],\"stateMutability\":\"pure\",\"type\":\"function\"},{\"inputs\":[{\"internalType\":\"bytes\",\"name\":\"data\",\"type\":\"bytes\"}],\"name\":\"decodeSetCooldownParams\",\"outputs\":[{\"internalType\":\"uint256\",\"name\":\"seconds_\",\"type\":\"uint256\"}],\"stateMutability\":\"pure\",\"type\":\"function\"},{\"inputs\":[{\"internalType\":\"bytes\",\"name\":\"data\",\"type\":\"bytes\"}],\"name\":\"decodeWithdrawParams\",\"outputs\":[{\"internalType\":\"address\",\"name\":\"to\",\"type\":\"address\"},{\"internalType\":\"uint256\",\"name\":\"amount\",\"type\":\"uint256\"}],\"stateMutability\":\"pure\",\"type\":\"function\"},{\"inputs\":[],\"name\":\"eventPressedTopic0\",\"outputs\":[{\"internalType\":\"bytes32\",\"name\":\"\",\"type\":\"bytes32\"}],\"stateMutability\":\"pure\",\"type\":\"function\"},{\"inputs\":[{\"internalType\":\"address\",\"name\":\"\",\"type\":\"address\"}],\"name\":\"lastPressAt\",\"outputs\":[{\"internalType\":\"uint256\",\"name\":\"\",\"type\":\"uint256\"}],\"stateMutability\":\"view\",\"type\":\"function\"},{\"inputs\":[{\"internalType\":\"string\",\"name\":\"signature\",\"type\":\"string\"},{\"internalType\":\"bytes\",\"name\":\"encodedParams\",\"type\":\"bytes\"}],\"name\":\"makeCalldata\",\"outputs\":[{\"internalType\":\"bytes\",\"name\":\"\",\"type\":\"bytes\"}],\"stateMutability\":\"pure\",\"type\":\"function\"},{\"inputs\":[],\"name\":\"owner\",\"outputs\":[{\"internalType\":\"address\",\"name\":\"\",\"type\":\"address\"}],\"stateMutability\":\"view\",\"type\":\"function\"},{\"inputs\":[{\"internalType\":\"string\",\"name\":\"message_\",\"type\":\"string\"}],\"name\":\"press\",\"outputs\":[],\"stateMutability\":\"payable\",\"type\":\"function\"},{\"inputs\":[{\"internalType\":\"address\",\"name\":\"\",\"type\":\"address\"}],\"name\":\"presses\",\"outputs\":[{\"internalType\":\"uint256\",\"name\":\"\",\"type\":\"uint256\"}],\"stateMutability\":\"view\",\"type\":\"function\"},{\"inputs\":[{\"internalType\":\"string\",\"name\":\"signature\",\"type\":\"string\"}],\"name\":\"selectorOf\",\"outputs\":[{\"internalType\":\"bytes4\",\"name\":\"\",\"type\":\"bytes4\"}],\"stateMutability\":\"pure\",\"type\":\"function\"},{\"inputs\":[],\"name\":\"selectorPress\",\"outputs\":[{\"internalType\":\"bytes4\",\"name\":\"\",\"type\":\"bytes4\"}],\"stateMutability\":\"pure\",\"type\":\"function\"},{\"inputs\":[],\"name\":\"selectorSetCooldown\",\"outputs\":[{\"internalType\":\"bytes4\",\"name\":\"\",\"type\":\"bytes4\"}],\"stateMutability\":\"pure\",\"type\":\"function\"},{\"inputs\":[],\"name\":\"selectorWithdraw\",\"outputs\":[{\"internalType\":\"bytes4\",\"name\":\"\",\"type\":\"bytes4\"}],\"stateMutability\":\"pure\",\"type\":\"function\"},{\"inputs\":[{\"internalType\":\"uint256\",\"name\":\"seconds_\",\"type\":\"uint256\"}],\"name\":\"setCooldown\",\"outputs\":[],\"stateMutability\":\"nonpayable\",\"type\":\"function\"},{\"inputs\":[],\"name\":\"tipsBalance\",\"outputs\":[{\"internalType\":\"uint256\",\"name\":\"\",\"type\":\"uint256\"}],\"stateMutability\":\"view\",\"type\":\"function\"},{\"inputs\":[],\"name\":\"totalPresses\",\"outputs\":[{\"internalType\":\"uint256\",\"name\":\"\",\"type\":\"uint256\"}],\"stateMutability\":\"view\",\"type\":\"function\"},{\"inputs\":[{\"internalType\":\"address payable\",\"name\":\"to\",\"type\":\"address\"},{\"internalType\":\"uint256\",\"name\":\"amount\",\"type\":\"uint256\"}],\"name\":\"withdraw\",\"outputs\":[],\"stateMutability\":\"nonpayable\",\"type\":\"function\"}]);\nvar bigbutton = bigbuttonContract.deploy({\n     data: '0x6080604052600f600255348015610014575f80fd5b50335f806101000a81548173ffffffffffffffffffffffffffffffffffffffff021916908373ffffffffffffffffffffffffffffffffffffffff16021790555061182b806100615f395ff3fe608060405260043610610129575f3560e01c80638da5cb5b116100aa578063d0100f121161006e578063d0100f121461040d578063d698449814610449578063e459dd9014610485578063e72d5e5f146104c1578063f3fef3a3146104dd578063fb50b1601461050557610129565b80638da5cb5b14610317578063b59af73814610341578063b8221bc41461037d578063b921b030146103a7578063c6b08cfb146103e357610129565b80633b44ccd7116100f15780633b44ccd7146102355780634d30e63f146102715780634fc3f41a1461029b5780637a8ed613146102c35780638510331d146102ed57610129565b80631ca1885b1461012d5780631cfee7f1146101695780632741876a146101935780632bd48507146101bd578063355f3176146101f9575b5f80fd5b348015610138575f80fd5b50610153600480360381019061014e9190610d99565b610542565b6040516101609190610e6e565b60405180910390f35b348015610174575f80fd5b5061017d6105c4565b60405161018a9190610ec8565b60405180910390f35b34801561019e575f80fd5b506101a76105d2565b6040516101b49190610ef9565b60405180910390f35b3480156101c8575f80fd5b506101e360048036038101906101de9190610f67565b6105d8565b6040516101f09190610e6e565b60405180910390f35b348015610204575f80fd5b5061021f600480360381019061021a919061100f565b610624565b60405161022c9190610e6e565b60405180910390f35b348015610240575f80fd5b5061025b60048036038101906102569190611094565b6106a3565b6040516102689190610ef9565b60405180910390f35b34801561027c575f80fd5b506102856106b8565b6040516102929190610ec8565b60405180910390f35b3480156102a6575f80fd5b506102c160048036038101906102bc919061100f565b6106c6565b005b3480156102ce575f80fd5b506102d76107a2565b6040516102e49190610ef9565b60405180910390f35b3480156102f8575f80fd5b506103016107a9565b60405161030e9190610ec8565b60405180910390f35b348015610322575f80fd5b5061032b6107b7565b60405161033891906110ce565b60405180910390f35b34801561034c575f80fd5b50610367600480360381019061036291906110e7565b6107da565b6040516103749190610e6e565b60405180910390f35b348015610388575f80fd5b5061039161085c565b60405161039e9190610ef9565b60405180910390f35b3480156103b2575f80fd5b506103cd60048036038101906103c89190610d99565b610862565b6040516103da9190610ec8565b60405180910390f35b3480156103ee575f80fd5b506103f7610883565b604051610404919061113d565b60405180910390f35b348015610418575f80fd5b50610433600480360381019061042e9190611094565b6108aa565b6040516104409190610ef9565b60405180910390f35b348015610454575f80fd5b5061046f600480360381019061046a9190611156565b6108bf565b60405161047c9190610ef9565b60405180910390f35b348015610490575f80fd5b506104ab60048036038101906104a69190611156565b610939565b6040516104b891906111f3565b60405180910390f35b6104db60048036038101906104d69190610d99565b6109b4565b005b3480156104e8575f80fd5b5061050360048036038101906104fe919061124e565b610b8d565b005b348015610510575f80fd5b5061052b60048036038101906105269190611156565b610ca5565b60405161053992919061128c565b60405180910390f35b606063e72d5e5f60e01b838360405160240161055f9291906112ed565b604051602081830303815290604052907bffffffffffffffffffffffffffffffffffffffffffffffffffffffff19166020820180517bffffffffffffffffffffffffffffffffffffffffffffffffffffffff8381831617835250505050905092915050565b5f63f3fef3a360e01b905090565b60015481565b60605f85856040516105eb92919061133d565b6040518091039020905080848460405160200161060a93929190611375565b604051602081830303815290604052915050949350505050565b6060634fc3f41a60e01b8260405160240161063f9190610ef9565b604051602081830303815290604052907bffffffffffffffffffffffffffffffffffffffffffffffffffffffff19166020820180517bffffffffffffffffffffffffffffffffffffffffffffffffffffffff83818316178352505050509050919050565b6004602052805f5260405f205f915090505481565b5f634fc3f41a60e01b905090565b5f8054906101000a900473ffffffffffffffffffffffffffffffffffffffff1673ffffffffffffffffffffffffffffffffffffffff163373ffffffffffffffffffffffffffffffffffffffff1614610753576040517f08c379a000000000000000000000000000000000000000000000000000000000815260040161074a906113e8565b60405180910390fd5b610e10811115610798576040517f08c379a000000000000000000000000000000000000000000000000000000000815260040161078f90611450565b60405180910390fd5b8060028190555050565b5f47905090565b5f63e72d5e5f60e01b905090565b5f8054906101000a900473ffffffffffffffffffffffffffffffffffffffff1681565b606063f3fef3a360e01b83836040516024016107f792919061128c565b604051602081830303815290604052907bffffffffffffffffffffffffffffffffffffffffffffffffffffffff19166020820180517bffffffffffffffffffffffffffffffffffffffffffffffffffffffff8381831617835250505050905092915050565b60025481565b5f828260405161087392919061133d565b6040518091039020905092915050565b5f7fa932e5483a6c4b217a12d84f6f397b68818a21bfa23c1e83c4566267613ccd46905090565b6003602052805f5260405f205f915090505481565b5f6004838390501015610907576040517f08c379a00000000000000000000000000000000000000000000000000000000081526004016108fe906114b8565b60405180910390fd5b365f8484600490809261091c939291906114de565b91509150818181019061092f919061100f565b9250505092915050565b60606004838390501015610982576040517f08c379a0000000000000000000000000000000000000000000000000000000008152600401610979906114b8565b60405180910390fd5b365f84846004908092610997939291906114de565b9150915081818101906109aa9190611632565b9250505092915050565b5f60045f3373ffffffffffffffffffffffffffffffffffffffff1673ffffffffffffffffffffffffffffffffffffffff1681526020019081526020015f2054905060025481610a0391906116a6565b421015610a45576040517f08c379a0000000000000000000000000000000000000000000000000000000008152600401610a3c90611723565b60405180910390fd5b6001805f828254610a5691906116a6565b92505081905550600160035f3373ffffffffffffffffffffffffffffffffffffffff1673ffffffffffffffffffffffffffffffffffffffff1681526020019081526020015f205f828254610aaa91906116a6565b925050819055504260045f3373ffffffffffffffffffffffffffffffffffffffff1673ffffffffffffffffffffffffffffffffffffffff1681526020019081526020015f20819055503373ffffffffffffffffffffffffffffffffffffffff167fa932e5483a6c4b217a12d84f6f397b68818a21bfa23c1e83c4566267613ccd4660015460035f3373ffffffffffffffffffffffffffffffffffffffff1673ffffffffffffffffffffffffffffffffffffffff1681526020019081526020015f2054868634604051610b80959493929190611741565b60405180910390a2505050565b5f8054906101000a900473ffffffffffffffffffffffffffffffffffffffff1673ffffffffffffffffffffffffffffffffffffffff163373ffffffffffffffffffffffffffffffffffffffff1614610c1a576040517f08c379a0000000000000000000000000000000000000000000000000000000008152600401610c11906113e8565b60405180910390fd5b47811115610c5d576040517f08c379a0000000000000000000000000000000000000000000000000000000008152600401610c54906117d7565b60405180910390fd5b8173ffffffffffffffffffffffffffffffffffffffff166108fc8290811502906040515f60405180830381858888f19350505050158015610ca0573d5f803e3d5ffd5b505050565b5f806004848490501015610cee576040517f08c379a0000000000000000000000000000000000000000000000000000000008152600401610ce5906114b8565b60405180910390fd5b365f85856004908092610d03939291906114de565b915091508181810190610d16919061124e565b809450819550505050509250929050565b5f604051905090565b5f80fd5b5f80fd5b5f80fd5b5f80fd5b5f80fd5b5f8083601f840112610d5957610d58610d38565b5b8235905067ffffffffffffffff811115610d7657610d75610d3c565b5b602083019150836001820283011115610d9257610d91610d40565b5b9250929050565b5f8060208385031215610daf57610dae610d30565b5b5f83013567ffffffffffffffff811115610dcc57610dcb610d34565b5b610dd885828601610d44565b92509250509250929050565b5f81519050919050565b5f82825260208201905092915050565b5f5b83811015610e1b578082015181840152602081019050610e00565b5f8484015250505050565b5f601f19601f8301169050919050565b5f610e4082610de4565b610e4a8185610dee565b9350610e5a818560208601610dfe565b610e6381610e26565b840191505092915050565b5f6020820190508181035f830152610e868184610e36565b905092915050565b5f7fffffffff0000000000000000000000000000000000000000000000000000000082169050919050565b610ec281610e8e565b82525050565b5f602082019050610edb5f830184610eb9565b92915050565b5f819050919050565b610ef381610ee1565b82525050565b5f602082019050610f0c5f830184610eea565b92915050565b5f8083601f840112610f2757610f26610d38565b5b8235905067ffffffffffffffff811115610f4457610f43610d3c565b5b602083019150836001820283011115610f6057610f5f610d40565b5b9250929050565b5f805f8060408587031215610f7f57610f7e610d30565b5b5f85013567ffffffffffffffff811115610f9c57610f9b610d34565b5b610fa887828801610d44565b9450945050602085013567ffffffffffffffff811115610fcb57610fca610d34565b5b610fd787828801610f12565b925092505092959194509250565b610fee81610ee1565b8114610ff8575f80fd5b50565b5f8135905061100981610fe5565b92915050565b5f6020828403121561102457611023610d30565b5b5f61103184828501610ffb565b91505092915050565b5f73ffffffffffffffffffffffffffffffffffffffff82169050919050565b5f6110638261103a565b9050919050565b61107381611059565b811461107d575f80fd5b50565b5f8135905061108e8161106a565b92915050565b5f602082840312156110a9576110a8610d30565b5b5f6110b684828501611080565b91505092915050565b6110c881611059565b82525050565b5f6020820190506110e15f8301846110bf565b92915050565b5f80604083850312156110fd576110fc610d30565b5b5f61110a85828601611080565b925050602061111b85828601610ffb565b9150509250929050565b5f819050919050565b61113781611125565b82525050565b5f6020820190506111505f83018461112e565b92915050565b5f806020838503121561116c5761116b610d30565b5b5f83013567ffffffffffffffff81111561118957611188610d34565b5b61119585828601610f12565b92509250509250929050565b5f81519050919050565b5f82825260208201905092915050565b5f6111c5826111a1565b6111cf81856111ab565b93506111df818560208601610dfe565b6111e881610e26565b840191505092915050565b5f6020820190508181035f83015261120b81846111bb565b905092915050565b5f61121d8261103a565b9050919050565b61122d81611213565b8114611237575f80fd5b50565b5f8135905061124881611224565b92915050565b5f806040838503121561126457611263610d30565b5b5f6112718582860161123a565b925050602061128285828601610ffb565b9150509250929050565b5f60408201905061129f5f8301856110bf565b6112ac6020830184610eea565b9392505050565b828183375f83830152505050565b5f6112cc83856111ab565b93506112d98385846112b3565b6112e283610e26565b840190509392505050565b5f6020820190508181035f8301526113068184866112c1565b90509392505050565b5f81905092915050565b5f611324838561130f565b93506113318385846112b3565b82840190509392505050565b5f611349828486611319565b91508190509392505050565b5f819050919050565b61136f61136a82610e8e565b611355565b82525050565b5f611380828661135e565b600482019150611391828486611319565b9150819050949350505050565b7f4e6f74206f776e657200000000000000000000000000000000000000000000005f82015250565b5f6113d26009836111ab565b91506113dd8261139e565b602082019050919050565b5f6020820190508181035f8301526113ff816113c6565b9050919050565b7f436f6f6c646f776e20746f6f20686967680000000000000000000000000000005f82015250565b5f61143a6011836111ab565b915061144582611406565b602082019050919050565b5f6020820190508181035f8301526114678161142e565b9050919050565b7f4261642063616c6c6461746100000000000000000000000000000000000000005f82015250565b5f6114a2600c836111ab565b91506114ad8261146e565b602082019050919050565b5f6020820190508181035f8301526114cf81611496565b9050919050565b5f80fd5b5f80fd5b5f80858511156114f1576114f06114d6565b5b83861115611502576115016114da565b5b6001850283019150848603905094509492505050565b5f80fd5b7f4e487b71000000000000000000000000000000000000000000000000000000005f52604160045260245ffd5b61155282610e26565b810181811067ffffffffffffffff821117156115715761157061151c565b5b80604052505050565b5f611583610d27565b905061158f8282611549565b919050565b5f67ffffffffffffffff8211156115ae576115ad61151c565b5b6115b782610e26565b9050602081019050919050565b5f6115d66115d184611594565b61157a565b9050828152602081018484840111156115f2576115f1611518565b5b6115fd8482856112b3565b509392505050565b5f82601f83011261161957611618610d38565b5b81356116298482602086016115c4565b91505092915050565b5f6020828403121561164757611646610d30565b5b5f82013567ffffffffffffffff81111561166457611663610d34565b5b61167084828501611605565b91505092915050565b7f4e487b71000000000000000000000000000000000000000000000000000000005f52601160045260245ffd5b5f6116b082610ee1565b91506116bb83610ee1565b92508282019050808211156116d3576116d2611679565b5b92915050565b7f436f6f6c646f776e2061637469766500000000000000000000000000000000005f82015250565b5f61170d600f836111ab565b9150611718826116d9565b602082019050919050565b5f6020820190508181035f83015261173a81611701565b9050919050565b5f6080820190506117545f830188610eea565b6117616020830187610eea565b81810360408301526117748185876112c1565b90506117836060830184610eea565b9695505050505050565b7f496e73756666696369656e742062616c616e63650000000000000000000000005f82015250565b5f6117c16014836111ab565b91506117cc8261178d565b602082019050919050565b5f6020820190508181035f8301526117ee816117b5565b905091905056fea26469706673582212205031d0bb532f950a1bee9c2c41c396d51d2113b1d822e3672255e52cb28f28ee64736f6c63430008180033', \n     arguments: [\n     ]\n}).send({\n     from: web3.eth.accounts[0], \n     gas: '4700000'\n   }, function (e, contract){\n    console.log(e, contract);\n    if (typeof contract.address !== 'undefined') {\n         console.log('Contract mined! address: ' + contract.address + ' transactionHash: ' + contract.transactionHash);\n    }\n })",
	"functionHashes": {
		"1ca1885b": "calldataPress(string)",
		"355f3176": "calldataSetCooldown(uint256)",
		"b59af738": "calldataWithdraw(address,uint256)",
		"b8221bc4": "cooldownSeconds()",
		"e459dd90": "decodePressParams(bytes)",
		"d6984498": "decodeSetCooldownParams(bytes)",
		"fb50b160": "decodeWithdrawParams(bytes)",
		"c6b08cfb": "eventPressedTopic0()",
		"3b44ccd7": "lastPressAt(address)",
		"2bd48507": "makeCalldata(string,bytes)",
		"8da5cb5b": "owner()",
		"e72d5e5f": "press(string)",
		"d0100f12": "presses(address)",
		"b921b030": "selectorOf(string)",
		"8510331d": "selectorPress()",
		"4d30e63f": "selectorSetCooldown()",
		"1cfee7f1": "selectorWithdraw()",
		"4fc3f41a": "setCooldown(uint256)",
		"7a8ed613": "tipsBalance()",
		"2741876a": "totalPresses()",
		"f3fef3a3": "withdraw(address,uint256)"
	},
	"gasEstimates": {
		"Creation": {
			"codeDepositCost": "1237400",
			"executionCost": "47657",
			"totalCost": "1285057"
		},
		"External": {
			"calldataPress(string)": "infinite",
			"calldataSetCooldown(uint256)": "infinite",
			"calldataWithdraw(address,uint256)": "infinite",
			"cooldownSeconds()": "2492",
			"decodePressParams(bytes)": "infinite",
			"decodeSetCooldownParams(bytes)": "infinite",
			"decodeWithdrawParams(bytes)": "infinite",
			"eventPressedTopic0()": "443",
			"lastPressAt(address)": "2825",
			"makeCalldata(string,bytes)": "infinite",
			"owner()": "2528",
			"press(string)": "infinite",
			"presses(address)": "2824",
			"selectorOf(string)": "infinite",
			"selectorPress()": "455",
			"selectorSetCooldown()": "389",
			"selectorWithdraw()": "390",
			"setCooldown(uint256)": "24774",
			"tipsBalance()": "423",
			"totalPresses()": "2493",
			"withdraw(address,uint256)": "infinite"
		}
	},
	"devdoc": {
		"kind": "dev",
		"methods": {},
		"version": 1
	},
	"userdoc": {
		"kind": "user",
		"methods": {
			"calldataPress(string)": {
				"notice": "Calldata completo (selector + params) per press(string)"
			},
			"calldataSetCooldown(uint256)": {
				"notice": "Calldata completo per setCooldown(uint256)"
			},
			"calldataWithdraw(address,uint256)": {
				"notice": "Calldata completo per withdraw(address,uint256)"
			},
			"decodePressParams(bytes)": {
				"notice": "Decodifica i parametri di press(string) da un calldata (ignora i primi 4 bytes di selector)"
			},
			"decodeSetCooldownParams(bytes)": {
				"notice": "Decodifica i parametri di setCooldown(uint256) da un calldata"
			},
			"decodeWithdrawParams(bytes)": {
				"notice": "Decodifica i parametri di withdraw(address,uint256) da un calldata"
			},
			"eventPressedTopic0()": {
				"notice": "Hash della firma dell'evento Pressed (topic0)"
			},
			"makeCalldata(string,bytes)": {
				"notice": "Concatena selector (da firma) e parametri già encodati (abi.encode(...))"
			},
			"press(string)": {
				"notice": "Premi il bottone. Puoi includere un messaggio breve e una tip opzionale via msg.value."
			},
			"selectorOf(string)": {
				"notice": "Calcola selector da una firma arbitraria, es. \"transfer(address,uint256)\""
			},
			"selectorPress()": {
				"notice": "Selector delle funzioni (prime 4 bytes di keccak256 della firma)"
			},
			"setCooldown(uint256)": {
				"notice": "Cambia il cooldown (in secondi)"
			},
			"tipsBalance()": {
				"notice": "Saldo accumulato da tip"
			},
			"withdraw(address,uint256)": {
				"notice": "Preleva le tip accumulate"
			}
		},
		"notice": "The Big On-Chain Button - Premi il bottone: incrementa il contatore globale - Traccia i \"taps\" per address - Cooldown anti-spam (default: 15s) - Tip opzionale al contratto (withdraw da parte dell'owner)",
		"version": 1
	},
	"Runtime Bytecode": {
		"immutableReferences": {},
		"linkReferences": {},
		"object": "608060405260043610610129575f3560e01c80638da5cb5b116100aa578063d0100f121161006e578063d0100f121461040d578063d698449814610449578063e459dd9014610485578063e72d5e5f146104c1578063f3fef3a3146104dd578063fb50b1601461050557610129565b80638da5cb5b14610317578063b59af73814610341578063b8221bc41461037d578063b921b030146103a7578063c6b08cfb146103e357610129565b80633b44ccd7116100f15780633b44ccd7146102355780634d30e63f146102715780634fc3f41a1461029b5780637a8ed613146102c35780638510331d146102ed57610129565b80631ca1885b1461012d5780631cfee7f1146101695780632741876a146101935780632bd48507146101bd578063355f3176146101f9575b5f80fd5b348015610138575f80fd5b50610153600480360381019061014e9190610d99565b610542565b6040516101609190610e6e565b60405180910390f35b348015610174575f80fd5b5061017d6105c4565b60405161018a9190610ec8565b60405180910390f35b34801561019e575f80fd5b506101a76105d2565b6040516101b49190610ef9565b60405180910390f35b3480156101c8575f80fd5b506101e360048036038101906101de9190610f67565b6105d8565b6040516101f09190610e6e565b60405180910390f35b348015610204575f80fd5b5061021f600480360381019061021a919061100f565b610624565b60405161022c9190610e6e565b60405180910390f35b348015610240575f80fd5b5061025b60048036038101906102569190611094565b6106a3565b6040516102689190610ef9565b60405180910390f35b34801561027c575f80fd5b506102856106b8565b6040516102929190610ec8565b60405180910390f35b3480156102a6575f80fd5b506102c160048036038101906102bc919061100f565b6106c6565b005b3480156102ce575f80fd5b506102d76107a2565b6040516102e49190610ef9565b60405180910390f35b3480156102f8575f80fd5b506103016107a9565b60405161030e9190610ec8565b60405180910390f35b348015610322575f80fd5b5061032b6107b7565b60405161033891906110ce565b60405180910390f35b34801561034c575f80fd5b50610367600480360381019061036291906110e7565b6107da565b6040516103749190610e6e565b60405180910390f35b348015610388575f80fd5b5061039161085c565b60405161039e9190610ef9565b60405180910390f35b3480156103b2575f80fd5b506103cd60048036038101906103c89190610d99565b610862565b6040516103da9190610ec8565b60405180910390f35b3480156103ee575f80fd5b506103f7610883565b604051610404919061113d565b60405180910390f35b348015610418575f80fd5b50610433600480360381019061042e9190611094565b6108aa565b6040516104409190610ef9565b60405180910390f35b348015610454575f80fd5b5061046f600480360381019061046a9190611156565b6108bf565b60405161047c9190610ef9565b60405180910390f35b348015610490575f80fd5b506104ab60048036038101906104a69190611156565b610939565b6040516104b891906111f3565b60405180910390f35b6104db60048036038101906104d69190610d99565b6109b4565b005b3480156104e8575f80fd5b5061050360048036038101906104fe919061124e565b610b8d565b005b348015610510575f80fd5b5061052b60048036038101906105269190611156565b610ca5565b60405161053992919061128c565b60405180910390f35b606063e72d5e5f60e01b838360405160240161055f9291906112ed565b604051602081830303815290604052907bffffffffffffffffffffffffffffffffffffffffffffffffffffffff19166020820180517bffffffffffffffffffffffffffffffffffffffffffffffffffffffff8381831617835250505050905092915050565b5f63f3fef3a360e01b905090565b60015481565b60605f85856040516105eb92919061133d565b6040518091039020905080848460405160200161060a93929190611375565b604051602081830303815290604052915050949350505050565b6060634fc3f41a60e01b8260405160240161063f9190610ef9565b604051602081830303815290604052907bffffffffffffffffffffffffffffffffffffffffffffffffffffffff19166020820180517bffffffffffffffffffffffffffffffffffffffffffffffffffffffff83818316178352505050509050919050565b6004602052805f5260405f205f915090505481565b5f634fc3f41a60e01b905090565b5f8054906101000a900473ffffffffffffffffffffffffffffffffffffffff1673ffffffffffffffffffffffffffffffffffffffff163373ffffffffffffffffffffffffffffffffffffffff1614610753576040517f08c379a000000000000000000000000000000000000000000000000000000000815260040161074a906113e8565b60405180910390fd5b610e10811115610798576040517f08c379a000000000000000000000000000000000000000000000000000000000815260040161078f90611450565b60405180910390fd5b8060028190555050565b5f47905090565b5f63e72d5e5f60e01b905090565b5f8054906101000a900473ffffffffffffffffffffffffffffffffffffffff1681565b606063f3fef3a360e01b83836040516024016107f792919061128c565b604051602081830303815290604052907bffffffffffffffffffffffffffffffffffffffffffffffffffffffff19166020820180517bffffffffffffffffffffffffffffffffffffffffffffffffffffffff8381831617835250505050905092915050565b60025481565b5f828260405161087392919061133d565b6040518091039020905092915050565b5f7fa932e5483a6c4b217a12d84f6f397b68818a21bfa23c1e83c4566267613ccd46905090565b6003602052805f5260405f205f915090505481565b5f6004838390501015610907576040517f08c379a00000000000000000000000000000000000000000000000000000000081526004016108fe906114b8565b60405180910390fd5b365f8484600490809261091c939291906114de565b91509150818181019061092f919061100f565b9250505092915050565b60606004838390501015610982576040517f08c379a0000000000000000000000000000000000000000000000000000000008152600401610979906114b8565b60405180910390fd5b365f84846004908092610997939291906114de565b9150915081818101906109aa9190611632565b9250505092915050565b5f60045f3373ffffffffffffffffffffffffffffffffffffffff1673ffffffffffffffffffffffffffffffffffffffff1681526020019081526020015f2054905060025481610a0391906116a6565b421015610a45576040517f08c379a0000000000000000000000000000000000000000000000000000000008152600401610a3c90611723565b60405180910390fd5b6001805f828254610a5691906116a6565b92505081905550600160035f3373ffffffffffffffffffffffffffffffffffffffff1673ffffffffffffffffffffffffffffffffffffffff1681526020019081526020015f205f828254610aaa91906116a6565b925050819055504260045f3373ffffffffffffffffffffffffffffffffffffffff1673ffffffffffffffffffffffffffffffffffffffff1681526020019081526020015f20819055503373ffffffffffffffffffffffffffffffffffffffff167fa932e5483a6c4b217a12d84f6f397b68818a21bfa23c1e83c4566267613ccd4660015460035f3373ffffffffffffffffffffffffffffffffffffffff1673ffffffffffffffffffffffffffffffffffffffff1681526020019081526020015f2054868634604051610b80959493929190611741565b60405180910390a2505050565b5f8054906101000a900473ffffffffffffffffffffffffffffffffffffffff1673ffffffffffffffffffffffffffffffffffffffff163373ffffffffffffffffffffffffffffffffffffffff1614610c1a576040517f08c379a0000000000000000000000000000000000000000000000000000000008152600401610c11906113e8565b60405180910390fd5b47811115610c5d576040517f08c379a0000000000000000000000000000000000000000000000000000000008152600401610c54906117d7565b60405180910390fd5b8173ffffffffffffffffffffffffffffffffffffffff166108fc8290811502906040515f60405180830381858888f19350505050158015610ca0573d5f803e3d5ffd5b505050565b5f806004848490501015610cee576040517f08c379a0000000000000000000000000000000000000000000000000000000008152600401610ce5906114b8565b60405180910390fd5b365f85856004908092610d03939291906114de565b915091508181810190610d16919061124e565b809450819550505050509250929050565b5f604051905090565b5f80fd5b5f80fd5b5f80fd5b5f80fd5b5f80fd5b5f8083601f840112610d5957610d58610d38565b5b8235905067ffffffffffffffff811115610d7657610d75610d3c565b5b602083019150836001820283011115610d9257610d91610d40565b5b9250929050565b5f8060208385031215610daf57610dae610d30565b5b5f83013567ffffffffffffffff811115610dcc57610dcb610d34565b5b610dd885828601610d44565b92509250509250929050565b5f81519050919050565b5f82825260208201905092915050565b5f5b83811015610e1b578082015181840152602081019050610e00565b5f8484015250505050565b5f601f19601f8301169050919050565b5f610e4082610de4565b610e4a8185610dee565b9350610e5a818560208601610dfe565b610e6381610e26565b840191505092915050565b5f6020820190508181035f830152610e868184610e36565b905092915050565b5f7fffffffff0000000000000000000000000000000000000000000000000000000082169050919050565b610ec281610e8e565b82525050565b5f602082019050610edb5f830184610eb9565b92915050565b5f819050919050565b610ef381610ee1565b82525050565b5f602082019050610f0c5f830184610eea565b92915050565b5f8083601f840112610f2757610f26610d38565b5b8235905067ffffffffffffffff811115610f4457610f43610d3c565b5b602083019150836001820283011115610f6057610f5f610d40565b5b9250929050565b5f805f8060408587031215610f7f57610f7e610d30565b5b5f85013567ffffffffffffffff811115610f9c57610f9b610d34565b5b610fa887828801610d44565b9450945050602085013567ffffffffffffffff811115610fcb57610fca610d34565b5b610fd787828801610f12565b925092505092959194509250565b610fee81610ee1565b8114610ff8575f80fd5b50565b5f8135905061100981610fe5565b92915050565b5f6020828403121561102457611023610d30565b5b5f61103184828501610ffb565b91505092915050565b5f73ffffffffffffffffffffffffffffffffffffffff82169050919050565b5f6110638261103a565b9050919050565b61107381611059565b811461107d575f80fd5b50565b5f8135905061108e8161106a565b92915050565b5f602082840312156110a9576110a8610d30565b5b5f6110b684828501611080565b91505092915050565b6110c881611059565b82525050565b5f6020820190506110e15f8301846110bf565b92915050565b5f80604083850312156110fd576110fc610d30565b5b5f61110a85828601611080565b925050602061111b85828601610ffb565b9150509250929050565b5f819050919050565b61113781611125565b82525050565b5f6020820190506111505f83018461112e565b92915050565b5f806020838503121561116c5761116b610d30565b5b5f83013567ffffffffffffffff81111561118957611188610d34565b5b61119585828601610f12565b92509250509250929050565b5f81519050919050565b5f82825260208201905092915050565b5f6111c5826111a1565b6111cf81856111ab565b93506111df818560208601610dfe565b6111e881610e26565b840191505092915050565b5f6020820190508181035f83015261120b81846111bb565b905092915050565b5f61121d8261103a565b9050919050565b61122d81611213565b8114611237575f80fd5b50565b5f8135905061124881611224565b92915050565b5f806040838503121561126457611263610d30565b5b5f6112718582860161123a565b925050602061128285828601610ffb565b9150509250929050565b5f60408201905061129f5f8301856110bf565b6112ac6020830184610eea565b9392505050565b828183375f83830152505050565b5f6112cc83856111ab565b93506112d98385846112b3565b6112e283610e26565b840190509392505050565b5f6020820190508181035f8301526113068184866112c1565b90509392505050565b5f81905092915050565b5f611324838561130f565b93506113318385846112b3565b82840190509392505050565b5f611349828486611319565b91508190509392505050565b5f819050919050565b61136f61136a82610e8e565b611355565b82525050565b5f611380828661135e565b600482019150611391828486611319565b9150819050949350505050565b7f4e6f74206f776e657200000000000000000000000000000000000000000000005f82015250565b5f6113d26009836111ab565b91506113dd8261139e565b602082019050919050565b5f6020820190508181035f8301526113ff816113c6565b9050919050565b7f436f6f6c646f776e20746f6f20686967680000000000000000000000000000005f82015250565b5f61143a6011836111ab565b915061144582611406565b602082019050919050565b5f6020820190508181035f8301526114678161142e565b9050919050565b7f4261642063616c6c6461746100000000000000000000000000000000000000005f82015250565b5f6114a2600c836111ab565b91506114ad8261146e565b602082019050919050565b5f6020820190508181035f8301526114cf81611496565b9050919050565b5f80fd5b5f80fd5b5f80858511156114f1576114f06114d6565b5b83861115611502576115016114da565b5b6001850283019150848603905094509492505050565b5f80fd5b7f4e487b71000000000000000000000000000000000000000000000000000000005f52604160045260245ffd5b61155282610e26565b810181811067ffffffffffffffff821117156115715761157061151c565b5b80604052505050565b5f611583610d27565b905061158f8282611549565b919050565b5f67ffffffffffffffff8211156115ae576115ad61151c565b5b6115b782610e26565b9050602081019050919050565b5f6115d66115d184611594565b61157a565b9050828152602081018484840111156115f2576115f1611518565b5b6115fd8482856112b3565b509392505050565b5f82601f83011261161957611618610d38565b5b81356116298482602086016115c4565b91505092915050565b5f6020828403121561164757611646610d30565b5b5f82013567ffffffffffffffff81111561166457611663610d34565b5b61167084828501611605565b91505092915050565b7f4e487b71000000000000000000000000000000000000000000000000000000005f52601160045260245ffd5b5f6116b082610ee1565b91506116bb83610ee1565b92508282019050808211156116d3576116d2611679565b5b92915050565b7f436f6f6c646f776e2061637469766500000000000000000000000000000000005f82015250565b5f61170d600f836111ab565b9150611718826116d9565b602082019050919050565b5f6020820190508181035f83015261173a81611701565b9050919050565b5f6080820190506117545f830188610eea565b6117616020830187610eea565b81810360408301526117748185876112c1565b90506117836060830184610eea565b9695505050505050565b7f496e73756666696369656e742062616c616e63650000000000000000000000005f82015250565b5f6117c16014836111ab565b91506117cc8261178d565b602082019050919050565b5f6020820190508181035f8301526117ee816117b5565b905091905056fea26469706673582212205031d0bb532f950a1bee9c2c41c396d51d2113b1d822e3672255e52cb28f28ee64736f6c63430008180033",
		"opcodes": "PUSH1 0x80 PUSH1 0x40 MSTORE PUSH1 0x4 CALLDATASIZE LT PUSH2 0x129 JUMPI PUSH0 CALLDATALOAD PUSH1 0xE0 SHR DUP1 PUSH4 0x8DA5CB5B GT PUSH2 0xAA JUMPI DUP1 PUSH4 0xD0100F12 GT PUSH2 0x6E JUMPI DUP1 PUSH4 0xD0100F12 EQ PUSH2 0x40D JUMPI DUP1 PUSH4 0xD6984498 EQ PUSH2 0x449 JUMPI DUP1 PUSH4 0xE459DD90 EQ PUSH2 0x485 JUMPI DUP1 PUSH4 0xE72D5E5F EQ PUSH2 0x4C1 JUMPI DUP1 PUSH4 0xF3FEF3A3 EQ PUSH2 0x4DD JUMPI DUP1 PUSH4 0xFB50B160 EQ PUSH2 0x505 JUMPI PUSH2 0x129 JUMP JUMPDEST DUP1 PUSH4 0x8DA5CB5B EQ PUSH2 0x317 JUMPI DUP1 PUSH4 0xB59AF738 EQ PUSH2 0x341 JUMPI DUP1 PUSH4 0xB8221BC4 EQ PUSH2 0x37D JUMPI DUP1 PUSH4 0xB921B030 EQ PUSH2 0x3A7 JUMPI DUP1 PUSH4 0xC6B08CFB EQ PUSH2 0x3E3 JUMPI PUSH2 0x129 JUMP JUMPDEST DUP1 PUSH4 0x3B44CCD7 GT PUSH2 0xF1 JUMPI DUP1 PUSH4 0x3B44CCD7 EQ PUSH2 0x235 JUMPI DUP1 PUSH4 0x4D30E63F EQ PUSH2 0x271 JUMPI DUP1 PUSH4 0x4FC3F41A EQ PUSH2 0x29B JUMPI DUP1 PUSH4 0x7A8ED613 EQ PUSH2 0x2C3 JUMPI DUP1 PUSH4 0x8510331D EQ PUSH2 0x2ED JUMPI PUSH2 0x129 JUMP JUMPDEST DUP1 PUSH4 0x1CA1885B EQ PUSH2 0x12D JUMPI DUP1 PUSH4 0x1CFEE7F1 EQ PUSH2 0x169 JUMPI DUP1 PUSH4 0x2741876A EQ PUSH2 0x193 JUMPI DUP1 PUSH4 0x2BD48507 EQ PUSH2 0x1BD JUMPI DUP1 PUSH4 0x355F3176 EQ PUSH2 0x1F9 JUMPI JUMPDEST PUSH0 DUP1 REVERT JUMPDEST CALLVALUE DUP1 ISZERO PUSH2 0x138 JUMPI PUSH0 DUP1 REVERT JUMPDEST POP PUSH2 0x153 PUSH1 0x4 DUP1 CALLDATASIZE SUB DUP2 ADD SWAP1 PUSH2 0x14E SWAP2 SWAP1 PUSH2 0xD99 JUMP JUMPDEST PUSH2 0x542 JUMP JUMPDEST PUSH1 0x40 MLOAD PUSH2 0x160 SWAP2 SWAP1 PUSH2 0xE6E JUMP JUMPDEST PUSH1 0x40 MLOAD DUP1 SWAP2 SUB SWAP1 RETURN JUMPDEST CALLVALUE DUP1 ISZERO PUSH2 0x174 JUMPI PUSH0 DUP1 REVERT JUMPDEST POP PUSH2 0x17D PUSH2 0x5C4 JUMP JUMPDEST PUSH1 0x40 MLOAD PUSH2 0x18A SWAP2 SWAP1 PUSH2 0xEC8 JUMP JUMPDEST PUSH1 0x40 MLOAD DUP1 SWAP2 SUB SWAP1 RETURN JUMPDEST CALLVALUE DUP1 ISZERO PUSH2 0x19E JUMPI PUSH0 DUP1 REVERT JUMPDEST POP PUSH2 0x1A7 PUSH2 0x5D2 JUMP JUMPDEST PUSH1 0x40 MLOAD PUSH2 0x1B4 SWAP2 SWAP1 PUSH2 0xEF9 JUMP JUMPDEST PUSH1 0x40 MLOAD DUP1 SWAP2 SUB SWAP1 RETURN JUMPDEST CALLVALUE DUP1 ISZERO PUSH2 0x1C8 JUMPI PUSH0 DUP1 REVERT JUMPDEST POP PUSH2 0x1E3 PUSH1 0x4 DUP1 CALLDATASIZE SUB DUP2 ADD SWAP1 PUSH2 0x1DE SWAP2 SWAP1 PUSH2 0xF67 JUMP JUMPDEST PUSH2 0x5D8 JUMP JUMPDEST PUSH1 0x40 MLOAD PUSH2 0x1F0 SWAP2 SWAP1 PUSH2 0xE6E JUMP JUMPDEST PUSH1 0x40 MLOAD DUP1 SWAP2 SUB SWAP1 RETURN JUMPDEST CALLVALUE DUP1 ISZERO PUSH2 0x204 JUMPI PUSH0 DUP1 REVERT JUMPDEST POP PUSH2 0x21F PUSH1 0x4 DUP1 CALLDATASIZE SUB DUP2 ADD SWAP1 PUSH2 0x21A SWAP2 SWAP1 PUSH2 0x100F JUMP JUMPDEST PUSH2 0x624 JUMP JUMPDEST PUSH1 0x40 MLOAD PUSH2 0x22C SWAP2 SWAP1 PUSH2 0xE6E JUMP JUMPDEST PUSH1 0x40 MLOAD DUP1 SWAP2 SUB SWAP1 RETURN JUMPDEST CALLVALUE DUP1 ISZERO PUSH2 0x240 JUMPI PUSH0 DUP1 REVERT JUMPDEST POP PUSH2 0x25B PUSH1 0x4 DUP1 CALLDATASIZE SUB DUP2 ADD SWAP1 PUSH2 0x256 SWAP2 SWAP1 PUSH2 0x1094 JUMP JUMPDEST PUSH2 0x6A3 JUMP JUMPDEST PUSH1 0x40 MLOAD PUSH2 0x268 SWAP2 SWAP1 PUSH2 0xEF9 JUMP JUMPDEST PUSH1 0x40 MLOAD DUP1 SWAP2 SUB SWAP1 RETURN JUMPDEST CALLVALUE DUP1 ISZERO PUSH2 0x27C JUMPI PUSH0 DUP1 REVERT JUMPDEST POP PUSH2 0x285 PUSH2 0x6B8 JUMP JUMPDEST PUSH1 0x40 MLOAD PUSH2 0x292 SWAP2 SWAP1 PUSH2 0xEC8 JUMP JUMPDEST PUSH1 0x40 MLOAD DUP1 SWAP2 SUB SWAP1 RETURN JUMPDEST CALLVALUE DUP1 ISZERO PUSH2 0x2A6 JUMPI PUSH0 DUP1 REVERT JUMPDEST POP PUSH2 0x2C1 PUSH1 0x4 DUP1 CALLDATASIZE SUB DUP2 ADD SWAP1 PUSH2 0x2BC SWAP2 SWAP1 PUSH2 0x100F JUMP JUMPDEST PUSH2 0x6C6 JUMP JUMPDEST STOP JUMPDEST CALLVALUE DUP1 ISZERO PUSH2 0x2CE JUMPI PUSH0 DUP1 REVERT JUMPDEST POP PUSH2 0x2D7 PUSH2 0x7A2 JUMP JUMPDEST PUSH1 0x40 MLOAD PUSH2 0x2E4 SWAP2 SWAP1 PUSH2 0xEF9 JUMP JUMPDEST PUSH1 0x40 MLOAD DUP1 SWAP2 SUB SWAP1 RETURN JUMPDEST CALLVALUE DUP1 ISZERO PUSH2 0x2F8 JUMPI PUSH0 DUP1 REVERT JUMPDEST POP PUSH2 0x301 PUSH2 0x7A9 JUMP JUMPDEST PUSH1 0x40 MLOAD PUSH2 0x30E SWAP2 SWAP1 PUSH2 0xEC8 JUMP JUMPDEST PUSH1 0x40 MLOAD DUP1 SWAP2 SUB SWAP1 RETURN JUMPDEST CALLVALUE DUP1 ISZERO PUSH2 0x322 JUMPI PUSH0 DUP1 REVERT JUMPDEST POP PUSH2 0x32B PUSH2 0x7B7 JUMP JUMPDEST PUSH1 0x40 MLOAD PUSH2 0x338 SWAP2 SWAP1 PUSH2 0x10CE JUMP JUMPDEST PUSH1 0x40 MLOAD DUP1 SWAP2 SUB SWAP1 RETURN JUMPDEST CALLVALUE DUP1 ISZERO PUSH2 0x34C JUMPI PUSH0 DUP1 REVERT JUMPDEST POP PUSH2 0x367 PUSH1 0x4 DUP1 CALLDATASIZE SUB DUP2 ADD SWAP1 PUSH2 0x362 SWAP2 SWAP1 PUSH2 0x10E7 JUMP JUMPDEST PUSH2 0x7DA JUMP JUMPDEST PUSH1 0x40 MLOAD PUSH2 0x374 SWAP2 SWAP1 PUSH2 0xE6E JUMP JUMPDEST PUSH1 0x40 MLOAD DUP1 SWAP2 SUB SWAP1 RETURN JUMPDEST CALLVALUE DUP1 ISZERO PUSH2 0x388 JUMPI PUSH0 DUP1 REVERT JUMPDEST POP PUSH2 0x391 PUSH2 0x85C JUMP JUMPDEST PUSH1 0x40 MLOAD PUSH2 0x39E SWAP2 SWAP1 PUSH2 0xEF9 JUMP JUMPDEST PUSH1 0x40 MLOAD DUP1 SWAP2 SUB SWAP1 RETURN JUMPDEST CALLVALUE DUP1 ISZERO PUSH2 0x3B2 JUMPI PUSH0 DUP1 REVERT JUMPDEST POP PUSH2 0x3CD PUSH1 0x4 DUP1 CALLDATASIZE SUB DUP2 ADD SWAP1 PUSH2 0x3C8 SWAP2 SWAP1 PUSH2 0xD99 JUMP JUMPDEST PUSH2 0x862 JUMP JUMPDEST PUSH1 0x40 MLOAD PUSH2 0x3DA SWAP2 SWAP1 PUSH2 0xEC8 JUMP JUMPDEST PUSH1 0x40 MLOAD DUP1 SWAP2 SUB SWAP1 RETURN JUMPDEST CALLVALUE DUP1 ISZERO PUSH2 0x3EE JUMPI PUSH0 DUP1 REVERT JUMPDEST POP PUSH2 0x3F7 PUSH2 0x883 JUMP JUMPDEST PUSH1 0x40 MLOAD PUSH2 0x404 SWAP2 SWAP1 PUSH2 0x113D JUMP JUMPDEST PUSH1 0x40 MLOAD DUP1 SWAP2 SUB SWAP1 RETURN JUMPDEST CALLVALUE DUP1 ISZERO PUSH2 0x418 JUMPI PUSH0 DUP1 REVERT JUMPDEST POP PUSH2 0x433 PUSH1 0x4 DUP1 CALLDATASIZE SUB DUP2 ADD SWAP1 PUSH2 0x42E SWAP2 SWAP1 PUSH2 0x1094 JUMP JUMPDEST PUSH2 0x8AA JUMP JUMPDEST PUSH1 0x40 MLOAD PUSH2 0x440 SWAP2 SWAP1 PUSH2 0xEF9 JUMP JUMPDEST PUSH1 0x40 MLOAD DUP1 SWAP2 SUB SWAP1 RETURN JUMPDEST CALLVALUE DUP1 ISZERO PUSH2 0x454 JUMPI PUSH0 DUP1 REVERT JUMPDEST POP PUSH2 0x46F PUSH1 0x4 DUP1 CALLDATASIZE SUB DUP2 ADD SWAP1 PUSH2 0x46A SWAP2 SWAP1 PUSH2 0x1156 JUMP JUMPDEST PUSH2 0x8BF JUMP JUMPDEST PUSH1 0x40 MLOAD PUSH2 0x47C SWAP2 SWAP1 PUSH2 0xEF9 JUMP JUMPDEST PUSH1 0x40 MLOAD DUP1 SWAP2 SUB SWAP1 RETURN JUMPDEST CALLVALUE DUP1 ISZERO PUSH2 0x490 JUMPI PUSH0 DUP1 REVERT JUMPDEST POP PUSH2 0x4AB PUSH1 0x4 DUP1 CALLDATASIZE SUB DUP2 ADD SWAP1 PUSH2 0x4A6 SWAP2 SWAP1 PUSH2 0x1156 JUMP JUMPDEST PUSH2 0x939 JUMP JUMPDEST PUSH1 0x40 MLOAD PUSH2 0x4B8 SWAP2 SWAP1 PUSH2 0x11F3 JUMP JUMPDEST PUSH1 0x40 MLOAD DUP1 SWAP2 SUB SWAP1 RETURN JUMPDEST PUSH2 0x4DB PUSH1 0x4 DUP1 CALLDATASIZE SUB DUP2 ADD SWAP1 PUSH2 0x4D6 SWAP2 SWAP1 PUSH2 0xD99 JUMP JUMPDEST PUSH2 0x9B4 JUMP JUMPDEST STOP JUMPDEST CALLVALUE DUP1 ISZERO PUSH2 0x4E8 JUMPI PUSH0 DUP1 REVERT JUMPDEST POP PUSH2 0x503 PUSH1 0x4 DUP1 CALLDATASIZE SUB DUP2 ADD SWAP1 PUSH2 0x4FE SWAP2 SWAP1 PUSH2 0x124E JUMP JUMPDEST PUSH2 0xB8D JUMP JUMPDEST STOP JUMPDEST CALLVALUE DUP1 ISZERO PUSH2 0x510 JUMPI PUSH0 DUP1 REVERT JUMPDEST POP PUSH2 0x52B PUSH1 0x4 DUP1 CALLDATASIZE SUB DUP2 ADD SWAP1 PUSH2 0x526 SWAP2 SWAP1 PUSH2 0x1156 JUMP JUMPDEST PUSH2 0xCA5 JUMP JUMPDEST PUSH1 0x40 MLOAD PUSH2 0x539 SWAP3 SWAP2 SWAP1 PUSH2 0x128C JUMP JUMPDEST PUSH1 0x40 MLOAD DUP1 SWAP2 SUB SWAP1 RETURN JUMPDEST PUSH1 0x60 PUSH4 0xE72D5E5F PUSH1 0xE0 SHL DUP4 DUP4 PUSH1 0x40 MLOAD PUSH1 0x24 ADD PUSH2 0x55F SWAP3 SWAP2 SWAP1 PUSH2 0x12ED JUMP JUMPDEST PUSH1 0x40 MLOAD PUSH1 0x20 DUP2 DUP4 SUB SUB DUP2 MSTORE SWAP1 PUSH1 0x40 MSTORE SWAP1 PUSH28 0xFFFFFFFFFFFFFFFFFFFFFFFFFFFFFFFFFFFFFFFFFFFFFFFFFFFFFFFF NOT AND PUSH1 0x20 DUP3 ADD DUP1 MLOAD PUSH28 0xFFFFFFFFFFFFFFFFFFFFFFFFFFFFFFFFFFFFFFFFFFFFFFFFFFFFFFFF DUP4 DUP2 DUP4 AND OR DUP4 MSTORE POP POP POP POP SWAP1 POP SWAP3 SWAP2 POP POP JUMP JUMPDEST PUSH0 PUSH4 0xF3FEF3A3 PUSH1 0xE0 SHL SWAP1 POP SWAP1 JUMP JUMPDEST PUSH1 0x1 SLOAD DUP2 JUMP JUMPDEST PUSH1 0x60 PUSH0 DUP6 DUP6 PUSH1 0x40 MLOAD PUSH2 0x5EB SWAP3 SWAP2 SWAP1 PUSH2 0x133D JUMP JUMPDEST PUSH1 0x40 MLOAD DUP1 SWAP2 SUB SWAP1 KECCAK256 SWAP1 POP DUP1 DUP5 DUP5 PUSH1 0x40 MLOAD PUSH1 0x20 ADD PUSH2 0x60A SWAP4 SWAP3 SWAP2 SWAP1 PUSH2 0x1375 JUMP JUMPDEST PUSH1 0x40 MLOAD PUSH1 0x20 DUP2 DUP4 SUB SUB DUP2 MSTORE SWAP1 PUSH1 0x40 MSTORE SWAP2 POP POP SWAP5 SWAP4 POP POP POP POP JUMP JUMPDEST PUSH1 0x60 PUSH4 0x4FC3F41A PUSH1 0xE0 SHL DUP3 PUSH1 0x40 MLOAD PUSH1 0x24 ADD PUSH2 0x63F SWAP2 SWAP1 PUSH2 0xEF9 JUMP JUMPDEST PUSH1 0x40 MLOAD PUSH1 0x20 DUP2 DUP4 SUB SUB DUP2 MSTORE SWAP1 PUSH1 0x40 MSTORE SWAP1 PUSH28 0xFFFFFFFFFFFFFFFFFFFFFFFFFFFFFFFFFFFFFFFFFFFFFFFFFFFFFFFF NOT AND PUSH1 0x20 DUP3 ADD DUP1 MLOAD PUSH28 0xFFFFFFFFFFFFFFFFFFFFFFFFFFFFFFFFFFFFFFFFFFFFFFFFFFFFFFFF DUP4 DUP2 DUP4 AND OR DUP4 MSTORE POP POP POP POP SWAP1 POP SWAP2 SWAP1 POP JUMP JUMPDEST PUSH1 0x4 PUSH1 0x20 MSTORE DUP1 PUSH0 MSTORE PUSH1 0x40 PUSH0 KECCAK256 PUSH0 SWAP2 POP SWAP1 POP SLOAD DUP2 JUMP JUMPDEST PUSH0 PUSH4 0x4FC3F41A PUSH1 0xE0 SHL SWAP1 POP SWAP1 JUMP JUMPDEST PUSH0 DUP1 SLOAD SWAP1 PUSH2 0x100 EXP SWAP1 DIV PUSH20 0xFFFFFFFFFFFFFFFFFFFFFFFFFFFFFFFFFFFFFFFF AND PUSH20 0xFFFFFFFFFFFFFFFFFFFFFFFFFFFFFFFFFFFFFFFF AND CALLER PUSH20 0xFFFFFFFFFFFFFFFFFFFFFFFFFFFFFFFFFFFFFFFF AND EQ PUSH2 0x753 JUMPI PUSH1 0x40 MLOAD PUSH32 0x8C379A000000000000000000000000000000000000000000000000000000000 DUP2 MSTORE PUSH1 0x4 ADD PUSH2 0x74A SWAP1 PUSH2 0x13E8 JUMP JUMPDEST PUSH1 0x40 MLOAD DUP1 SWAP2 SUB SWAP1 REVERT JUMPDEST PUSH2 0xE10 DUP2 GT ISZERO PUSH2 0x798 JUMPI PUSH1 0x40 MLOAD PUSH32 0x8C379A000000000000000000000000000000000000000000000000000000000 DUP2 MSTORE PUSH1 0x4 ADD PUSH2 0x78F SWAP1 PUSH2 0x1450 JUMP JUMPDEST PUSH1 0x40 MLOAD DUP1 SWAP2 SUB SWAP1 REVERT JUMPDEST DUP1 PUSH1 0x2 DUP2 SWAP1 SSTORE POP POP JUMP JUMPDEST PUSH0 SELFBALANCE SWAP1 POP SWAP1 JUMP JUMPDEST PUSH0 PUSH4 0xE72D5E5F PUSH1 0xE0 SHL SWAP1 POP SWAP1 JUMP JUMPDEST PUSH0 DUP1 SLOAD SWAP1 PUSH2 0x100 EXP SWAP1 DIV PUSH20 0xFFFFFFFFFFFFFFFFFFFFFFFFFFFFFFFFFFFFFFFF AND DUP2 JUMP JUMPDEST PUSH1 0x60 PUSH4 0xF3FEF3A3 PUSH1 0xE0 SHL DUP4 DUP4 PUSH1 0x40 MLOAD PUSH1 0x24 ADD PUSH2 0x7F7 SWAP3 SWAP2 SWAP1 PUSH2 0x128C JUMP JUMPDEST PUSH1 0x40 MLOAD PUSH1 0x20 DUP2 DUP4 SUB SUB DUP2 MSTORE SWAP1 PUSH1 0x40 MSTORE SWAP1 PUSH28 0xFFFFFFFFFFFFFFFFFFFFFFFFFFFFFFFFFFFFFFFFFFFFFFFFFFFFFFFF NOT AND PUSH1 0x20 DUP3 ADD DUP1 MLOAD PUSH28 0xFFFFFFFFFFFFFFFFFFFFFFFFFFFFFFFFFFFFFFFFFFFFFFFFFFFFFFFF DUP4 DUP2 DUP4 AND OR DUP4 MSTORE POP POP POP POP SWAP1 POP SWAP3 SWAP2 POP POP JUMP JUMPDEST PUSH1 0x2 SLOAD DUP2 JUMP JUMPDEST PUSH0 DUP3 DUP3 PUSH1 0x40 MLOAD PUSH2 0x873 SWAP3 SWAP2 SWAP1 PUSH2 0x133D JUMP JUMPDEST PUSH1 0x40 MLOAD DUP1 SWAP2 SUB SWAP1 KECCAK256 SWAP1 POP SWAP3 SWAP2 POP POP JUMP JUMPDEST PUSH0 PUSH32 0xA932E5483A6C4B217A12D84F6F397B68818A21BFA23C1E83C4566267613CCD46 SWAP1 POP SWAP1 JUMP JUMPDEST PUSH1 0x3 PUSH1 0x20 MSTORE DUP1 PUSH0 MSTORE PUSH1 0x40 PUSH0 KECCAK256 PUSH0 SWAP2 POP SWAP1 POP SLOAD DUP2 JUMP JUMPDEST PUSH0 PUSH1 0x4 DUP4 DUP4 SWAP1 POP LT ISZERO PUSH2 0x907 JUMPI PUSH1 0x40 MLOAD PUSH32 0x8C379A000000000000000000000000000000000000000000000000000000000 DUP2 MSTORE PUSH1 0x4 ADD PUSH2 0x8FE SWAP1 PUSH2 0x14B8 JUMP JUMPDEST PUSH1 0x40 MLOAD DUP1 SWAP2 SUB SWAP1 REVERT JUMPDEST CALLDATASIZE PUSH0 DUP5 DUP5 PUSH1 0x4 SWAP1 DUP1 SWAP3 PUSH2 0x91C SWAP4 SWAP3 SWAP2 SWAP1 PUSH2 0x14DE JUMP JUMPDEST SWAP2 POP SWAP2 POP DUP2 DUP2 DUP2 ADD SWAP1 PUSH2 0x92F SWAP2 SWAP1 PUSH2 0x100F JUMP JUMPDEST SWAP3 POP POP POP SWAP3 SWAP2 POP POP JUMP JUMPDEST PUSH1 0x60 PUSH1 0x4 DUP4 DUP4 SWAP1 POP LT ISZERO PUSH2 0x982 JUMPI PUSH1 0x40 MLOAD PUSH32 0x8C379A000000000000000000000000000000000000000000000000000000000 DUP2 MSTORE PUSH1 0x4 ADD PUSH2 0x979 SWAP1 PUSH2 0x14B8 JUMP JUMPDEST PUSH1 0x40 MLOAD DUP1 SWAP2 SUB SWAP1 REVERT JUMPDEST CALLDATASIZE PUSH0 DUP5 DUP5 PUSH1 0x4 SWAP1 DUP1 SWAP3 PUSH2 0x997 SWAP4 SWAP3 SWAP2 SWAP1 PUSH2 0x14DE JUMP JUMPDEST SWAP2 POP SWAP2 POP DUP2 DUP2 DUP2 ADD SWAP1 PUSH2 0x9AA SWAP2 SWAP1 PUSH2 0x1632 JUMP JUMPDEST SWAP3 POP POP POP SWAP3 SWAP2 POP POP JUMP JUMPDEST PUSH0 PUSH1 0x4 PUSH0 CALLER PUSH20 0xFFFFFFFFFFFFFFFFFFFFFFFFFFFFFFFFFFFFFFFF AND PUSH20 0xFFFFFFFFFFFFFFFFFFFFFFFFFFFFFFFFFFFFFFFF AND DUP2 MSTORE PUSH1 0x20 ADD SWAP1 DUP2 MSTORE PUSH1 0x20 ADD PUSH0 KECCAK256 SLOAD SWAP1 POP PUSH1 0x2 SLOAD DUP2 PUSH2 0xA03 SWAP2 SWAP1 PUSH2 0x16A6 JUMP JUMPDEST TIMESTAMP LT ISZERO PUSH2 0xA45 JUMPI PUSH1 0x40 MLOAD PUSH32 0x8C379A000000000000000000000000000000000000000000000000000000000 DUP2 MSTORE PUSH1 0x4 ADD PUSH2 0xA3C SWAP1 PUSH2 0x1723 JUMP JUMPDEST PUSH1 0x40 MLOAD DUP1 SWAP2 SUB SWAP1 REVERT JUMPDEST PUSH1 0x1 DUP1 PUSH0 DUP3 DUP3 SLOAD PUSH2 0xA56 SWAP2 SWAP1 PUSH2 0x16A6 JUMP JUMPDEST SWAP3 POP POP DUP2 SWAP1 SSTORE POP PUSH1 0x1 PUSH1 0x3 PUSH0 CALLER PUSH20 0xFFFFFFFFFFFFFFFFFFFFFFFFFFFFFFFFFFFFFFFF AND PUSH20 0xFFFFFFFFFFFFFFFFFFFFFFFFFFFFFFFFFFFFFFFF AND DUP2 MSTORE PUSH1 0x20 ADD SWAP1 DUP2 MSTORE PUSH1 0x20 ADD PUSH0 KECCAK256 PUSH0 DUP3 DUP3 SLOAD PUSH2 0xAAA SWAP2 SWAP1 PUSH2 0x16A6 JUMP JUMPDEST SWAP3 POP POP DUP2 SWAP1 SSTORE POP TIMESTAMP PUSH1 0x4 PUSH0 CALLER PUSH20 0xFFFFFFFFFFFFFFFFFFFFFFFFFFFFFFFFFFFFFFFF AND PUSH20 0xFFFFFFFFFFFFFFFFFFFFFFFFFFFFFFFFFFFFFFFF AND DUP2 MSTORE PUSH1 0x20 ADD SWAP1 DUP2 MSTORE PUSH1 0x20 ADD PUSH0 KECCAK256 DUP2 SWAP1 SSTORE POP CALLER PUSH20 0xFFFFFFFFFFFFFFFFFFFFFFFFFFFFFFFFFFFFFFFF AND PUSH32 0xA932E5483A6C4B217A12D84F6F397B68818A21BFA23C1E83C4566267613CCD46 PUSH1 0x1 SLOAD PUSH1 0x3 PUSH0 CALLER PUSH20 0xFFFFFFFFFFFFFFFFFFFFFFFFFFFFFFFFFFFFFFFF AND PUSH20 0xFFFFFFFFFFFFFFFFFFFFFFFFFFFFFFFFFFFFFFFF AND DUP2 MSTORE PUSH1 0x20 ADD SWAP1 DUP2 MSTORE PUSH1 0x20 ADD PUSH0 KECCAK256 SLOAD DUP7 DUP7 CALLVALUE PUSH1 0x40 MLOAD PUSH2 0xB80 SWAP6 SWAP5 SWAP4 SWAP3 SWAP2 SWAP1 PUSH2 0x1741 JUMP JUMPDEST PUSH1 0x40 MLOAD DUP1 SWAP2 SUB SWAP1 LOG2 POP POP POP JUMP JUMPDEST PUSH0 DUP1 SLOAD SWAP1 PUSH2 0x100 EXP SWAP1 DIV PUSH20 0xFFFFFFFFFFFFFFFFFFFFFFFFFFFFFFFFFFFFFFFF AND PUSH20 0xFFFFFFFFFFFFFFFFFFFFFFFFFFFFFFFFFFFFFFFF AND CALLER PUSH20 0xFFFFFFFFFFFFFFFFFFFFFFFFFFFFFFFFFFFFFFFF AND EQ PUSH2 0xC1A JUMPI PUSH1 0x40 MLOAD PUSH32 0x8C379A000000000000000000000000000000000000000000000000000000000 DUP2 MSTORE PUSH1 0x4 ADD PUSH2 0xC11 SWAP1 PUSH2 0x13E8 JUMP JUMPDEST PUSH1 0x40 MLOAD DUP1 SWAP2 SUB SWAP1 REVERT JUMPDEST SELFBALANCE DUP2 GT ISZERO PUSH2 0xC5D JUMPI PUSH1 0x40 MLOAD PUSH32 0x8C379A000000000000000000000000000000000000000000000000000000000 DUP2 MSTORE PUSH1 0x4 ADD PUSH2 0xC54 SWAP1 PUSH2 0x17D7 JUMP JUMPDEST PUSH1 0x40 MLOAD DUP1 SWAP2 SUB SWAP1 REVERT JUMPDEST DUP2 PUSH20 0xFFFFFFFFFFFFFFFFFFFFFFFFFFFFFFFFFFFFFFFF AND PUSH2 0x8FC DUP3 SWAP1 DUP2 ISZERO MUL SWAP1 PUSH1 0x40 MLOAD PUSH0 PUSH1 0x40 MLOAD DUP1 DUP4 SUB DUP2 DUP6 DUP9 DUP9 CALL SWAP4 POP POP POP POP ISZERO DUP1 ISZERO PUSH2 0xCA0 JUMPI RETURNDATASIZE PUSH0 DUP1 RETURNDATACOPY RETURNDATASIZE PUSH0 REVERT JUMPDEST POP POP POP JUMP JUMPDEST PUSH0 DUP1 PUSH1 0x4 DUP5 DUP5 SWAP1 POP LT ISZERO PUSH2 0xCEE JUMPI PUSH1 0x40 MLOAD PUSH32 0x8C379A000000000000000000000000000000000000000000000000000000000 DUP2 MSTORE PUSH1 0x4 ADD PUSH2 0xCE5 SWAP1 PUSH2 0x14B8 JUMP JUMPDEST PUSH1 0x40 MLOAD DUP1 SWAP2 SUB SWAP1 REVERT JUMPDEST CALLDATASIZE PUSH0 DUP6 DUP6 PUSH1 0x4 SWAP1 DUP1 SWAP3 PUSH2 0xD03 SWAP4 SWAP3 SWAP2 SWAP1 PUSH2 0x14DE JUMP JUMPDEST SWAP2 POP SWAP2 POP DUP2 DUP2 DUP2 ADD SWAP1 PUSH2 0xD16 SWAP2 SWAP1 PUSH2 0x124E JUMP JUMPDEST DUP1 SWAP5 POP DUP2 SWAP6 POP POP POP POP POP SWAP3 POP SWAP3 SWAP1 POP JUMP JUMPDEST PUSH0 PUSH1 0x40 MLOAD SWAP1 POP SWAP1 JUMP JUMPDEST PUSH0 DUP1 REVERT JUMPDEST PUSH0 DUP1 REVERT JUMPDEST PUSH0 DUP1 REVERT JUMPDEST PUSH0 DUP1 REVERT JUMPDEST PUSH0 DUP1 REVERT JUMPDEST PUSH0 DUP1 DUP4 PUSH1 0x1F DUP5 ADD SLT PUSH2 0xD59 JUMPI PUSH2 0xD58 PUSH2 0xD38 JUMP JUMPDEST JUMPDEST DUP3 CALLDATALOAD SWAP1 POP PUSH8 0xFFFFFFFFFFFFFFFF DUP2 GT ISZERO PUSH2 0xD76 JUMPI PUSH2 0xD75 PUSH2 0xD3C JUMP JUMPDEST JUMPDEST PUSH1 0x20 DUP4 ADD SWAP2 POP DUP4 PUSH1 0x1 DUP3 MUL DUP4 ADD GT ISZERO PUSH2 0xD92 JUMPI PUSH2 0xD91 PUSH2 0xD40 JUMP JUMPDEST JUMPDEST SWAP3 POP SWAP3 SWAP1 POP JUMP JUMPDEST PUSH0 DUP1 PUSH1 0x20 DUP4 DUP6 SUB SLT ISZERO PUSH2 0xDAF JUMPI PUSH2 0xDAE PUSH2 0xD30 JUMP JUMPDEST JUMPDEST PUSH0 DUP4 ADD CALLDATALOAD PUSH8 0xFFFFFFFFFFFFFFFF DUP2 GT ISZERO PUSH2 0xDCC JUMPI PUSH2 0xDCB PUSH2 0xD34 JUMP JUMPDEST JUMPDEST PUSH2 0xDD8 DUP6 DUP3 DUP7 ADD PUSH2 0xD44 JUMP JUMPDEST SWAP3 POP SWAP3 POP POP SWAP3 POP SWAP3 SWAP1 POP JUMP JUMPDEST PUSH0 DUP2 MLOAD SWAP1 POP SWAP2 SWAP1 POP JUMP JUMPDEST PUSH0 DUP3 DUP3 MSTORE PUSH1 0x20 DUP3 ADD SWAP1 POP SWAP3 SWAP2 POP POP JUMP JUMPDEST PUSH0 JUMPDEST DUP4 DUP2 LT ISZERO PUSH2 0xE1B JUMPI DUP1 DUP3 ADD MLOAD DUP2 DUP5 ADD MSTORE PUSH1 0x20 DUP2 ADD SWAP1 POP PUSH2 0xE00 JUMP JUMPDEST PUSH0 DUP5 DUP5 ADD MSTORE POP POP POP POP JUMP JUMPDEST PUSH0 PUSH1 0x1F NOT PUSH1 0x1F DUP4 ADD AND SWAP1 POP SWAP2 SWAP1 POP JUMP JUMPDEST PUSH0 PUSH2 0xE40 DUP3 PUSH2 0xDE4 JUMP JUMPDEST PUSH2 0xE4A DUP2 DUP6 PUSH2 0xDEE JUMP JUMPDEST SWAP4 POP PUSH2 0xE5A DUP2 DUP6 PUSH1 0x20 DUP7 ADD PUSH2 0xDFE JUMP JUMPDEST PUSH2 0xE63 DUP2 PUSH2 0xE26 JUMP JUMPDEST DUP5 ADD SWAP2 POP POP SWAP3 SWAP2 POP POP JUMP JUMPDEST PUSH0 PUSH1 0x20 DUP3 ADD SWAP1 POP DUP2 DUP2 SUB PUSH0 DUP4 ADD MSTORE PUSH2 0xE86 DUP2 DUP5 PUSH2 0xE36 JUMP JUMPDEST SWAP1 POP SWAP3 SWAP2 POP POP JUMP JUMPDEST PUSH0 PUSH32 0xFFFFFFFF00000000000000000000000000000000000000000000000000000000 DUP3 AND SWAP1 POP SWAP2 SWAP1 POP JUMP JUMPDEST PUSH2 0xEC2 DUP2 PUSH2 0xE8E JUMP JUMPDEST DUP3 MSTORE POP POP JUMP JUMPDEST PUSH0 PUSH1 0x20 DUP3 ADD SWAP1 POP PUSH2 0xEDB PUSH0 DUP4 ADD DUP5 PUSH2 0xEB9 JUMP JUMPDEST SWAP3 SWAP2 POP POP JUMP JUMPDEST PUSH0 DUP2 SWAP1 POP SWAP2 SWAP1 POP JUMP JUMPDEST PUSH2 0xEF3 DUP2 PUSH2 0xEE1 JUMP JUMPDEST DUP3 MSTORE POP POP JUMP JUMPDEST PUSH0 PUSH1 0x20 DUP3 ADD SWAP1 POP PUSH2 0xF0C PUSH0 DUP4 ADD DUP5 PUSH2 0xEEA JUMP JUMPDEST SWAP3 SWAP2 POP POP JUMP JUMPDEST PUSH0 DUP1 DUP4 PUSH1 0x1F DUP5 ADD SLT PUSH2 0xF27 JUMPI PUSH2 0xF26 PUSH2 0xD38 JUMP JUMPDEST JUMPDEST DUP3 CALLDATALOAD SWAP1 POP PUSH8 0xFFFFFFFFFFFFFFFF DUP2 GT ISZERO PUSH2 0xF44 JUMPI PUSH2 0xF43 PUSH2 0xD3C JUMP JUMPDEST JUMPDEST PUSH1 0x20 DUP4 ADD SWAP2 POP DUP4 PUSH1 0x1 DUP3 MUL DUP4 ADD GT ISZERO PUSH2 0xF60 JUMPI PUSH2 0xF5F PUSH2 0xD40 JUMP JUMPDEST JUMPDEST SWAP3 POP SWAP3 SWAP1 POP JUMP JUMPDEST PUSH0 DUP1 PUSH0 DUP1 PUSH1 0x40 DUP6 DUP8 SUB SLT ISZERO PUSH2 0xF7F JUMPI PUSH2 0xF7E PUSH2 0xD30 JUMP JUMPDEST JUMPDEST PUSH0 DUP6 ADD CALLDATALOAD PUSH8 0xFFFFFFFFFFFFFFFF DUP2 GT ISZERO PUSH2 0xF9C JUMPI PUSH2 0xF9B PUSH2 0xD34 JUMP JUMPDEST JUMPDEST PUSH2 0xFA8 DUP8 DUP3 DUP9 ADD PUSH2 0xD44 JUMP JUMPDEST SWAP5 POP SWAP5 POP POP PUSH1 0x20 DUP6 ADD CALLDATALOAD PUSH8 0xFFFFFFFFFFFFFFFF DUP2 GT ISZERO PUSH2 0xFCB JUMPI PUSH2 0xFCA PUSH2 0xD34 JUMP JUMPDEST JUMPDEST PUSH2 0xFD7 DUP8 DUP3 DUP9 ADD PUSH2 0xF12 JUMP JUMPDEST SWAP3 POP SWAP3 POP POP SWAP3 SWAP6 SWAP2 SWAP5 POP SWAP3 POP JUMP JUMPDEST PUSH2 0xFEE DUP2 PUSH2 0xEE1 JUMP JUMPDEST DUP2 EQ PUSH2 0xFF8 JUMPI PUSH0 DUP1 REVERT JUMPDEST POP JUMP JUMPDEST PUSH0 DUP2 CALLDATALOAD SWAP1 POP PUSH2 0x1009 DUP2 PUSH2 0xFE5 JUMP JUMPDEST SWAP3 SWAP2 POP POP JUMP JUMPDEST PUSH0 PUSH1 0x20 DUP3 DUP5 SUB SLT ISZERO PUSH2 0x1024 JUMPI PUSH2 0x1023 PUSH2 0xD30 JUMP JUMPDEST JUMPDEST PUSH0 PUSH2 0x1031 DUP5 DUP3 DUP6 ADD PUSH2 0xFFB JUMP JUMPDEST SWAP2 POP POP SWAP3 SWAP2 POP POP JUMP JUMPDEST PUSH0 PUSH20 0xFFFFFFFFFFFFFFFFFFFFFFFFFFFFFFFFFFFFFFFF DUP3 AND SWAP1 POP SWAP2 SWAP1 POP JUMP JUMPDEST PUSH0 PUSH2 0x1063 DUP3 PUSH2 0x103A JUMP JUMPDEST SWAP1 POP SWAP2 SWAP1 POP JUMP JUMPDEST PUSH2 0x1073 DUP2 PUSH2 0x1059 JUMP JUMPDEST DUP2 EQ PUSH2 0x107D JUMPI PUSH0 DUP1 REVERT JUMPDEST POP JUMP JUMPDEST PUSH0 DUP2 CALLDATALOAD SWAP1 POP PUSH2 0x108E DUP2 PUSH2 0x106A JUMP JUMPDEST SWAP3 SWAP2 POP POP JUMP JUMPDEST PUSH0 PUSH1 0x20 DUP3 DUP5 SUB SLT ISZERO PUSH2 0x10A9 JUMPI PUSH2 0x10A8 PUSH2 0xD30 JUMP JUMPDEST JUMPDEST PUSH0 PUSH2 0x10B6 DUP5 DUP3 DUP6 ADD PUSH2 0x1080 JUMP JUMPDEST SWAP2 POP POP SWAP3 SWAP2 POP POP JUMP JUMPDEST PUSH2 0x10C8 DUP2 PUSH2 0x1059 JUMP JUMPDEST DUP3 MSTORE POP POP JUMP JUMPDEST PUSH0 PUSH1 0x20 DUP3 ADD SWAP1 POP PUSH2 0x10E1 PUSH0 DUP4 ADD DUP5 PUSH2 0x10BF JUMP JUMPDEST SWAP3 SWAP2 POP POP JUMP JUMPDEST PUSH0 DUP1 PUSH1 0x40 DUP4 DUP6 SUB SLT ISZERO PUSH2 0x10FD JUMPI PUSH2 0x10FC PUSH2 0xD30 JUMP JUMPDEST JUMPDEST PUSH0 PUSH2 0x110A DUP6 DUP3 DUP7 ADD PUSH2 0x1080 JUMP JUMPDEST SWAP3 POP POP PUSH1 0x20 PUSH2 0x111B DUP6 DUP3 DUP7 ADD PUSH2 0xFFB JUMP JUMPDEST SWAP2 POP POP SWAP3 POP SWAP3 SWAP1 POP JUMP JUMPDEST PUSH0 DUP2 SWAP1 POP SWAP2 SWAP1 POP JUMP JUMPDEST PUSH2 0x1137 DUP2 PUSH2 0x1125 JUMP JUMPDEST DUP3 MSTORE POP POP JUMP JUMPDEST PUSH0 PUSH1 0x20 DUP3 ADD SWAP1 POP PUSH2 0x1150 PUSH0 DUP4 ADD DUP5 PUSH2 0x112E JUMP JUMPDEST SWAP3 SWAP2 POP POP JUMP JUMPDEST PUSH0 DUP1 PUSH1 0x20 DUP4 DUP6 SUB SLT ISZERO PUSH2 0x116C JUMPI PUSH2 0x116B PUSH2 0xD30 JUMP JUMPDEST JUMPDEST PUSH0 DUP4 ADD CALLDATALOAD PUSH8 0xFFFFFFFFFFFFFFFF DUP2 GT ISZERO PUSH2 0x1189 JUMPI PUSH2 0x1188 PUSH2 0xD34 JUMP JUMPDEST JUMPDEST PUSH2 0x1195 DUP6 DUP3 DUP7 ADD PUSH2 0xF12 JUMP JUMPDEST SWAP3 POP SWAP3 POP POP SWAP3 POP SWAP3 SWAP1 POP JUMP JUMPDEST PUSH0 DUP2 MLOAD SWAP1 POP SWAP2 SWAP1 POP JUMP JUMPDEST PUSH0 DUP3 DUP3 MSTORE PUSH1 0x20 DUP3 ADD SWAP1 POP SWAP3 SWAP2 POP POP JUMP JUMPDEST PUSH0 PUSH2 0x11C5 DUP3 PUSH2 0x11A1 JUMP JUMPDEST PUSH2 0x11CF DUP2 DUP6 PUSH2 0x11AB JUMP JUMPDEST SWAP4 POP PUSH2 0x11DF DUP2 DUP6 PUSH1 0x20 DUP7 ADD PUSH2 0xDFE JUMP JUMPDEST PUSH2 0x11E8 DUP2 PUSH2 0xE26 JUMP JUMPDEST DUP5 ADD SWAP2 POP POP SWAP3 SWAP2 POP POP JUMP JUMPDEST PUSH0 PUSH1 0x20 DUP3 ADD SWAP1 POP DUP2 DUP2 SUB PUSH0 DUP4 ADD MSTORE PUSH2 0x120B DUP2 DUP5 PUSH2 0x11BB JUMP JUMPDEST SWAP1 POP SWAP3 SWAP2 POP POP JUMP JUMPDEST PUSH0 PUSH2 0x121D DUP3 PUSH2 0x103A JUMP JUMPDEST SWAP1 POP SWAP2 SWAP1 POP JUMP JUMPDEST PUSH2 0x122D DUP2 PUSH2 0x1213 JUMP JUMPDEST DUP2 EQ PUSH2 0x1237 JUMPI PUSH0 DUP1 REVERT JUMPDEST POP JUMP JUMPDEST PUSH0 DUP2 CALLDATALOAD SWAP1 POP PUSH2 0x1248 DUP2 PUSH2 0x1224 JUMP JUMPDEST SWAP3 SWAP2 POP POP JUMP JUMPDEST PUSH0 DUP1 PUSH1 0x40 DUP4 DUP6 SUB SLT ISZERO PUSH2 0x1264 JUMPI PUSH2 0x1263 PUSH2 0xD30 JUMP JUMPDEST JUMPDEST PUSH0 PUSH2 0x1271 DUP6 DUP3 DUP7 ADD PUSH2 0x123A JUMP JUMPDEST SWAP3 POP POP PUSH1 0x20 PUSH2 0x1282 DUP6 DUP3 DUP7 ADD PUSH2 0xFFB JUMP JUMPDEST SWAP2 POP POP SWAP3 POP SWAP3 SWAP1 POP JUMP JUMPDEST PUSH0 PUSH1 0x40 DUP3 ADD SWAP1 POP PUSH2 0x129F PUSH0 DUP4 ADD DUP6 PUSH2 0x10BF JUMP JUMPDEST PUSH2 0x12AC PUSH1 0x20 DUP4 ADD DUP5 PUSH2 0xEEA JUMP JUMPDEST SWAP4 SWAP3 POP POP POP JUMP JUMPDEST DUP3 DUP2 DUP4 CALLDATACOPY PUSH0 DUP4 DUP4 ADD MSTORE POP POP POP JUMP JUMPDEST PUSH0 PUSH2 0x12CC DUP4 DUP6 PUSH2 0x11AB JUMP JUMPDEST SWAP4 POP PUSH2 0x12D9 DUP4 DUP6 DUP5 PUSH2 0x12B3 JUMP JUMPDEST PUSH2 0x12E2 DUP4 PUSH2 0xE26 JUMP JUMPDEST DUP5 ADD SWAP1 POP SWAP4 SWAP3 POP POP POP JUMP JUMPDEST PUSH0 PUSH1 0x20 DUP3 ADD SWAP1 POP DUP2 DUP2 SUB PUSH0 DUP4 ADD MSTORE PUSH2 0x1306 DUP2 DUP5 DUP7 PUSH2 0x12C1 JUMP JUMPDEST SWAP1 POP SWAP4 SWAP3 POP POP POP JUMP JUMPDEST PUSH0 DUP2 SWAP1 POP SWAP3 SWAP2 POP POP JUMP JUMPDEST PUSH0 PUSH2 0x1324 DUP4 DUP6 PUSH2 0x130F JUMP JUMPDEST SWAP4 POP PUSH2 0x1331 DUP4 DUP6 DUP5 PUSH2 0x12B3 JUMP JUMPDEST DUP3 DUP5 ADD SWAP1 POP SWAP4 SWAP3 POP POP POP JUMP JUMPDEST PUSH0 PUSH2 0x1349 DUP3 DUP5 DUP7 PUSH2 0x1319 JUMP JUMPDEST SWAP2 POP DUP2 SWAP1 POP SWAP4 SWAP3 POP POP POP JUMP JUMPDEST PUSH0 DUP2 SWAP1 POP SWAP2 SWAP1 POP JUMP JUMPDEST PUSH2 0x136F PUSH2 0x136A DUP3 PUSH2 0xE8E JUMP JUMPDEST PUSH2 0x1355 JUMP JUMPDEST DUP3 MSTORE POP POP JUMP JUMPDEST PUSH0 PUSH2 0x1380 DUP3 DUP7 PUSH2 0x135E JUMP JUMPDEST PUSH1 0x4 DUP3 ADD SWAP2 POP PUSH2 0x1391 DUP3 DUP5 DUP7 PUSH2 0x1319 JUMP JUMPDEST SWAP2 POP DUP2 SWAP1 POP SWAP5 SWAP4 POP POP POP POP JUMP JUMPDEST PUSH32 0x4E6F74206F776E65720000000000000000000000000000000000000000000000 PUSH0 DUP3 ADD MSTORE POP JUMP JUMPDEST PUSH0 PUSH2 0x13D2 PUSH1 0x9 DUP4 PUSH2 0x11AB JUMP JUMPDEST SWAP2 POP PUSH2 0x13DD DUP3 PUSH2 0x139E JUMP JUMPDEST PUSH1 0x20 DUP3 ADD SWAP1 POP SWAP2 SWAP1 POP JUMP JUMPDEST PUSH0 PUSH1 0x20 DUP3 ADD SWAP1 POP DUP2 DUP2 SUB PUSH0 DUP4 ADD MSTORE PUSH2 0x13FF DUP2 PUSH2 0x13C6 JUMP JUMPDEST SWAP1 POP SWAP2 SWAP1 POP JUMP JUMPDEST PUSH32 0x436F6F6C646F776E20746F6F2068696768000000000000000000000000000000 PUSH0 DUP3 ADD MSTORE POP JUMP JUMPDEST PUSH0 PUSH2 0x143A PUSH1 0x11 DUP4 PUSH2 0x11AB JUMP JUMPDEST SWAP2 POP PUSH2 0x1445 DUP3 PUSH2 0x1406 JUMP JUMPDEST PUSH1 0x20 DUP3 ADD SWAP1 POP SWAP2 SWAP1 POP JUMP JUMPDEST PUSH0 PUSH1 0x20 DUP3 ADD SWAP1 POP DUP2 DUP2 SUB PUSH0 DUP4 ADD MSTORE PUSH2 0x1467 DUP2 PUSH2 0x142E JUMP JUMPDEST SWAP1 POP SWAP2 SWAP1 POP JUMP JUMPDEST PUSH32 0x4261642063616C6C646174610000000000000000000000000000000000000000 PUSH0 DUP3 ADD MSTORE POP JUMP JUMPDEST PUSH0 PUSH2 0x14A2 PUSH1 0xC DUP4 PUSH2 0x11AB JUMP JUMPDEST SWAP2 POP PUSH2 0x14AD DUP3 PUSH2 0x146E JUMP JUMPDEST PUSH1 0x20 DUP3 ADD SWAP1 POP SWAP2 SWAP1 POP JUMP JUMPDEST PUSH0 PUSH1 0x20 DUP3 ADD SWAP1 POP DUP2 DUP2 SUB PUSH0 DUP4 ADD MSTORE PUSH2 0x14CF DUP2 PUSH2 0x1496 JUMP JUMPDEST SWAP1 POP SWAP2 SWAP1 POP JUMP JUMPDEST PUSH0 DUP1 REVERT JUMPDEST PUSH0 DUP1 REVERT JUMPDEST PUSH0 DUP1 DUP6 DUP6 GT ISZERO PUSH2 0x14F1 JUMPI PUSH2 0x14F0 PUSH2 0x14D6 JUMP JUMPDEST JUMPDEST DUP4 DUP7 GT ISZERO PUSH2 0x1502 JUMPI PUSH2 0x1501 PUSH2 0x14DA JUMP JUMPDEST JUMPDEST PUSH1 0x1 DUP6 MUL DUP4 ADD SWAP2 POP DUP5 DUP7 SUB SWAP1 POP SWAP5 POP SWAP5 SWAP3 POP POP POP JUMP JUMPDEST PUSH0 DUP1 REVERT JUMPDEST PUSH32 0x4E487B7100000000000000000000000000000000000000000000000000000000 PUSH0 MSTORE PUSH1 0x41 PUSH1 0x4 MSTORE PUSH1 0x24 PUSH0 REVERT JUMPDEST PUSH2 0x1552 DUP3 PUSH2 0xE26 JUMP JUMPDEST DUP2 ADD DUP2 DUP2 LT PUSH8 0xFFFFFFFFFFFFFFFF DUP3 GT OR ISZERO PUSH2 0x1571 JUMPI PUSH2 0x1570 PUSH2 0x151C JUMP JUMPDEST JUMPDEST DUP1 PUSH1 0x40 MSTORE POP POP POP JUMP JUMPDEST PUSH0 PUSH2 0x1583 PUSH2 0xD27 JUMP JUMPDEST SWAP1 POP PUSH2 0x158F DUP3 DUP3 PUSH2 0x1549 JUMP JUMPDEST SWAP2 SWAP1 POP JUMP JUMPDEST PUSH0 PUSH8 0xFFFFFFFFFFFFFFFF DUP3 GT ISZERO PUSH2 0x15AE JUMPI PUSH2 0x15AD PUSH2 0x151C JUMP JUMPDEST JUMPDEST PUSH2 0x15B7 DUP3 PUSH2 0xE26 JUMP JUMPDEST SWAP1 POP PUSH1 0x20 DUP2 ADD SWAP1 POP SWAP2 SWAP1 POP JUMP JUMPDEST PUSH0 PUSH2 0x15D6 PUSH2 0x15D1 DUP5 PUSH2 0x1594 JUMP JUMPDEST PUSH2 0x157A JUMP JUMPDEST SWAP1 POP DUP3 DUP2 MSTORE PUSH1 0x20 DUP2 ADD DUP5 DUP5 DUP5 ADD GT ISZERO PUSH2 0x15F2 JUMPI PUSH2 0x15F1 PUSH2 0x1518 JUMP JUMPDEST JUMPDEST PUSH2 0x15FD DUP5 DUP3 DUP6 PUSH2 0x12B3 JUMP JUMPDEST POP SWAP4 SWAP3 POP POP POP JUMP JUMPDEST PUSH0 DUP3 PUSH1 0x1F DUP4 ADD SLT PUSH2 0x1619 JUMPI PUSH2 0x1618 PUSH2 0xD38 JUMP JUMPDEST JUMPDEST DUP2 CALLDATALOAD PUSH2 0x1629 DUP5 DUP3 PUSH1 0x20 DUP7 ADD PUSH2 0x15C4 JUMP JUMPDEST SWAP2 POP POP SWAP3 SWAP2 POP POP JUMP JUMPDEST PUSH0 PUSH1 0x20 DUP3 DUP5 SUB SLT ISZERO PUSH2 0x1647 JUMPI PUSH2 0x1646 PUSH2 0xD30 JUMP JUMPDEST JUMPDEST PUSH0 DUP3 ADD CALLDATALOAD PUSH8 0xFFFFFFFFFFFFFFFF DUP2 GT ISZERO PUSH2 0x1664 JUMPI PUSH2 0x1663 PUSH2 0xD34 JUMP JUMPDEST JUMPDEST PUSH2 0x1670 DUP5 DUP3 DUP6 ADD PUSH2 0x1605 JUMP JUMPDEST SWAP2 POP POP SWAP3 SWAP2 POP POP JUMP JUMPDEST PUSH32 0x4E487B7100000000000000000000000000000000000000000000000000000000 PUSH0 MSTORE PUSH1 0x11 PUSH1 0x4 MSTORE PUSH1 0x24 PUSH0 REVERT JUMPDEST PUSH0 PUSH2 0x16B0 DUP3 PUSH2 0xEE1 JUMP JUMPDEST SWAP2 POP PUSH2 0x16BB DUP4 PUSH2 0xEE1 JUMP JUMPDEST SWAP3 POP DUP3 DUP3 ADD SWAP1 POP DUP1 DUP3 GT ISZERO PUSH2 0x16D3 JUMPI PUSH2 0x16D2 PUSH2 0x1679 JUMP JUMPDEST JUMPDEST SWAP3 SWAP2 POP POP JUMP JUMPDEST PUSH32 0x436F6F6C646F776E206163746976650000000000000000000000000000000000 PUSH0 DUP3 ADD MSTORE POP JUMP JUMPDEST PUSH0 PUSH2 0x170D PUSH1 0xF DUP4 PUSH2 0x11AB JUMP JUMPDEST SWAP2 POP PUSH2 0x1718 DUP3 PUSH2 0x16D9 JUMP JUMPDEST PUSH1 0x20 DUP3 ADD SWAP1 POP SWAP2 SWAP1 POP JUMP JUMPDEST PUSH0 PUSH1 0x20 DUP3 ADD SWAP1 POP DUP2 DUP2 SUB PUSH0 DUP4 ADD MSTORE PUSH2 0x173A DUP2 PUSH2 0x1701 JUMP JUMPDEST SWAP1 POP SWAP2 SWAP1 POP JUMP JUMPDEST PUSH0 PUSH1 0x80 DUP3 ADD SWAP1 POP PUSH2 0x1754 PUSH0 DUP4 ADD DUP9 PUSH2 0xEEA JUMP JUMPDEST PUSH2 0x1761 PUSH1 0x20 DUP4 ADD DUP8 PUSH2 0xEEA JUMP JUMPDEST DUP2 DUP2 SUB PUSH1 0x40 DUP4 ADD MSTORE PUSH2 0x1774 DUP2 DUP6 DUP8 PUSH2 0x12C1 JUMP JUMPDEST SWAP1 POP PUSH2 0x1783 PUSH1 0x60 DUP4 ADD DUP5 PUSH2 0xEEA JUMP JUMPDEST SWAP7 SWAP6 POP POP POP POP POP POP JUMP JUMPDEST PUSH32 0x496E73756666696369656E742062616C616E6365000000000000000000000000 PUSH0 DUP3 ADD MSTORE POP JUMP JUMPDEST PUSH0 PUSH2 0x17C1 PUSH1 0x14 DUP4 PUSH2 0x11AB JUMP JUMPDEST SWAP2 POP PUSH2 0x17CC DUP3 PUSH2 0x178D JUMP JUMPDEST PUSH1 0x20 DUP3 ADD SWAP1 POP SWAP2 SWAP1 POP JUMP JUMPDEST PUSH0 PUSH1 0x20 DUP3 ADD SWAP1 POP DUP2 DUP2 SUB PUSH0 DUP4 ADD MSTORE PUSH2 0x17EE DUP2 PUSH2 0x17B5 JUMP JUMPDEST SWAP1 POP SWAP2 SWAP1 POP JUMP INVALID LOG2 PUSH5 0x6970667358 0x22 SLT KECCAK256 POP BALANCE 0xD0 0xBB MSTORE8 0x2F SWAP6 EXP SHL 0xEE SWAP13 0x2C COINBASE 0xC3 SWAP7 0xD5 SAR 0x21 SGT 0xB1 0xD8 0x22 0xE3 PUSH8 0x2255E52CB28F28EE PUSH5 0x736F6C6343 STOP ADDMOD XOR STOP CALLER "
	},
	"Assembly": ".code\n  PUSH 80\t\t\tcontract BigButton {\\n    even...\n  PUSH 40\t\t\tcontract BigButton {\\n    even...\n  MSTORE \t\t\tcontract BigButton {\\n    even...\n  PUSH F\t\t\t15\n  PUSH 2\t\t\tuint256 public cooldownSeconds...\n  SSTORE \t\t\tuint256 public cooldownSeconds...\n  CALLVALUE \t\t\tconstructor() {\\n        owner...\n  DUP1 \t\t\tconstructor() {\\n        owner...\n  ISZERO \t\t\tconstructor() {\\n        owner...\n  PUSH [tag] 1\t\t\tconstructor() {\\n        owner...\n  JUMPI \t\t\tconstructor() {\\n        owner...\n  PUSH 0\t\t\tconstructor() {\\n        owner...\n  DUP1 \t\t\tconstructor() {\\n        owner...\n  REVERT \t\t\tconstructor() {\\n        owner...\ntag 1\t\t\tconstructor() {\\n        owner...\n  JUMPDEST \t\t\tconstructor() {\\n        owner...\n  POP \t\t\tconstructor() {\\n        owner...\n  CALLER \t\t\tmsg.sender\n  PUSH 0\t\t\towner\n  DUP1 \t\t\towner\n  PUSH 100\t\t\towner = msg.sender\n  EXP \t\t\towner = msg.sender\n  DUP2 \t\t\towner = msg.sender\n  SLOAD \t\t\towner = msg.sender\n  DUP2 \t\t\towner = msg.sender\n  PUSH FFFFFFFFFFFFFFFFFFFFFFFFFFFFFFFFFFFFFFFF\t\t\towner = msg.sender\n  MUL \t\t\towner = msg.sender\n  NOT \t\t\towner = msg.sender\n  AND \t\t\towner = msg.sender\n  SWAP1 \t\t\towner = msg.sender\n  DUP4 \t\t\towner = msg.sender\n  PUSH FFFFFFFFFFFFFFFFFFFFFFFFFFFFFFFFFFFFFFFF\t\t\towner = msg.sender\n  AND \t\t\towner = msg.sender\n  MUL \t\t\towner = msg.sender\n  OR \t\t\towner = msg.sender\n  SWAP1 \t\t\towner = msg.sender\n  SSTORE \t\t\towner = msg.sender\n  POP \t\t\towner = msg.sender\n  PUSH #[$] 0000000000000000000000000000000000000000000000000000000000000000\t\t\tcontract BigButton {\\n    even...\n  DUP1 \t\t\tcontract BigButton {\\n    even...\n  PUSH [$] 0000000000000000000000000000000000000000000000000000000000000000\t\t\tcontract BigButton {\\n    even...\n  PUSH 0\t\t\tcontract BigButton {\\n    even...\n  CODECOPY \t\t\tcontract BigButton {\\n    even...\n  PUSH 0\t\t\tcontract BigButton {\\n    even...\n  RETURN \t\t\tcontract BigButton {\\n    even...\n.data\n  0:\n    .code\n      PUSH 80\t\t\tcontract BigButton {\\n    even...\n      PUSH 40\t\t\tcontract BigButton {\\n    even...\n      MSTORE \t\t\tcontract BigButton {\\n    even...\n      PUSH 4\t\t\tcontract BigButton {\\n    even...\n      CALLDATASIZE \t\t\tcontract BigButton {\\n    even...\n      LT \t\t\tcontract BigButton {\\n    even...\n      PUSH [tag] 1\t\t\tcontract BigButton {\\n    even...\n      JUMPI \t\t\tcontract BigButton {\\n    even...\n      PUSH 0\t\t\tcontract BigButton {\\n    even...\n      CALLDATALOAD \t\t\tcontract BigButton {\\n    even...\n      PUSH E0\t\t\tcontract BigButton {\\n    even...\n      SHR \t\t\tcontract BigButton {\\n    even...\n      DUP1 \t\t\tcontract BigButton {\\n    even...\n      PUSH 8DA5CB5B\t\t\tcontract BigButton {\\n    even...\n      GT \t\t\tcontract BigButton {\\n    even...\n      PUSH [tag] 23\t\t\tcontract BigButton {\\n    even...\n      JUMPI \t\t\tcontract BigButton {\\n    even...\n      DUP1 \t\t\tcontract BigButton {\\n    even...\n      PUSH D0100F12\t\t\tcontract BigButton {\\n    even...\n      GT \t\t\tcontract BigButton {\\n    even...\n      PUSH [tag] 24\t\t\tcontract BigButton {\\n    even...\n      JUMPI \t\t\tcontract BigButton {\\n    even...\n      DUP1 \t\t\tcontract BigButton {\\n    even...\n      PUSH D0100F12\t\t\tcontract BigButton {\\n    even...\n      EQ \t\t\tcontract BigButton {\\n    even...\n      PUSH [tag] 17\t\t\tcontract BigButton {\\n    even...\n      JUMPI \t\t\tcontract BigButton {\\n    even...\n      DUP1 \t\t\tcontract BigButton {\\n    even...\n      PUSH D6984498\t\t\tcontract BigButton {\\n    even...\n      EQ \t\t\tcontract BigButton {\\n    even...\n      PUSH [tag] 18\t\t\tcontract BigButton {\\n    even...\n      JUMPI \t\t\tcontract BigButton {\\n    even...\n      DUP1 \t\t\tcontract BigButton {\\n    even...\n      PUSH E459DD90\t\t\tcontract BigButton {\\n    even...\n      EQ \t\t\tcontract BigButton {\\n    even...\n      PUSH [tag] 19\t\t\tcontract BigButton {\\n    even...\n      JUMPI \t\t\tcontract BigButton {\\n    even...\n      DUP1 \t\t\tcontract BigButton {\\n    even...\n      PUSH E72D5E5F\t\t\tcontract BigButton {\\n    even...\n      EQ \t\t\tcontract BigButton {\\n    even...\n      PUSH [tag] 20\t\t\tcontract BigButton {\\n    even...\n      JUMPI \t\t\tcontract BigButton {\\n    even...\n      DUP1 \t\t\tcontract BigButton {\\n    even...\n      PUSH F3FEF3A3\t\t\tcontract BigButton {\\n    even...\n      EQ \t\t\tcontract BigButton {\\n    even...\n      PUSH [tag] 21\t\t\tcontract BigButton {\\n    even...\n      JUMPI \t\t\tcontract BigButton {\\n    even...\n      DUP1 \t\t\tcontract BigButton {\\n    even...\n      PUSH FB50B160\t\t\tcontract BigButton {\\n    even...\n      EQ \t\t\tcontract BigButton {\\n    even...\n      PUSH [tag] 22\t\t\tcontract BigButton {\\n    even...\n      JUMPI \t\t\tcontract BigButton {\\n    even...\n      PUSH [tag] 1\t\t\tcontract BigButton {\\n    even...\n      JUMP \t\t\tcontract BigButton {\\n    even...\n    tag 24\t\t\tcontract BigButton {\\n    even...\n      JUMPDEST \t\t\tcontract BigButton {\\n    even...\n      DUP1 \t\t\tcontract BigButton {\\n    even...\n      PUSH 8DA5CB5B\t\t\tcontract BigButton {\\n    even...\n      EQ \t\t\tcontract BigButton {\\n    even...\n      PUSH [tag] 12\t\t\tcontract BigButton {\\n    even...\n      JUMPI \t\t\tcontract BigButton {\\n    even...\n      DUP1 \t\t\tcontract BigButton {\\n    even...\n      PUSH B59AF738\t\t\tcontract BigButton {\\n    even...\n      EQ \t\t\tcontract BigButton {\\n    even...\n      PUSH [tag] 13\t\t\tcontract BigButton {\\n    even...\n      JUMPI \t\t\tcontract BigButton {\\n    even...\n      DUP1 \t\t\tcontract BigButton {\\n    even...\n      PUSH B8221BC4\t\t\tcontract BigButton {\\n    even...\n      EQ \t\t\tcontract BigButton {\\n    even...\n      PUSH [tag] 14\t\t\tcontract BigButton {\\n    even...\n      JUMPI \t\t\tcontract BigButton {\\n    even...\n      DUP1 \t\t\tcontract BigButton {\\n    even...\n      PUSH B921B030\t\t\tcontract BigButton {\\n    even...\n      EQ \t\t\tcontract BigButton {\\n    even...\n      PUSH [tag] 15\t\t\tcontract BigButton {\\n    even...\n      JUMPI \t\t\tcontract BigButton {\\n    even...\n      DUP1 \t\t\tcontract BigButton {\\n    even...\n      PUSH C6B08CFB\t\t\tcontract BigButton {\\n    even...\n      EQ \t\t\tcontract BigButton {\\n    even...\n      PUSH [tag] 16\t\t\tcontract BigButton {\\n    even...\n      JUMPI \t\t\tcontract BigButton {\\n    even...\n      PUSH [tag] 1\t\t\tcontract BigButton {\\n    even...\n      JUMP \t\t\tcontract BigButton {\\n    even...\n    tag 23\t\t\tcontract BigButton {\\n    even...\n      JUMPDEST \t\t\tcontract BigButton {\\n    even...\n      DUP1 \t\t\tcontract BigButton {\\n    even...\n      PUSH 3B44CCD7\t\t\tcontract BigButton {\\n    even...\n      GT \t\t\tcontract BigButton {\\n    even...\n      PUSH [tag] 25\t\t\tcontract BigButton {\\n    even...\n      JUMPI \t\t\tcontract BigButton {\\n    even...\n      DUP1 \t\t\tcontract BigButton {\\n    even...\n      PUSH 3B44CCD7\t\t\tcontract BigButton {\\n    even...\n      EQ \t\t\tcontract BigButton {\\n    even...\n      PUSH [tag] 7\t\t\tcontract BigButton {\\n    even...\n      JUMPI \t\t\tcontract BigButton {\\n    even...\n      DUP1 \t\t\tcontract BigButton {\\n    even...\n      PUSH 4D30E63F\t\t\tcontract BigButton {\\n    even...\n      EQ \t\t\tcontract BigButton {\\n    even...\n      PUSH [tag] 8\t\t\tcontract BigButton {\\n    even...\n      JUMPI \t\t\tcontract BigButton {\\n    even...\n      DUP1 \t\t\tcontract BigButton {\\n    even...\n      PUSH 4FC3F41A\t\t\tcontract BigButton {\\n    even...\n      EQ \t\t\tcontract BigButton {\\n    even...\n      PUSH [tag] 9\t\t\tcontract BigButton {\\n    even...\n      JUMPI \t\t\tcontract BigButton {\\n    even...\n      DUP1 \t\t\tcontract BigButton {\\n    even...\n      PUSH 7A8ED613\t\t\tcontract BigButton {\\n    even...\n      EQ \t\t\tcontract BigButton {\\n    even...\n      PUSH [tag] 10\t\t\tcontract BigButton {\\n    even...\n      JUMPI \t\t\tcontract BigButton {\\n    even...\n      DUP1 \t\t\tcontract BigButton {\\n    even...\n      PUSH 8510331D\t\t\tcontract BigButton {\\n    even...\n      EQ \t\t\tcontract BigButton {\\n    even...\n      PUSH [tag] 11\t\t\tcontract BigButton {\\n    even...\n      JUMPI \t\t\tcontract BigButton {\\n    even...\n      PUSH [tag] 1\t\t\tcontract BigButton {\\n    even...\n      JUMP \t\t\tcontract BigButton {\\n    even...\n    tag 25\t\t\tcontract BigButton {\\n    even...\n      JUMPDEST \t\t\tcontract BigButton {\\n    even...\n      DUP1 \t\t\tcontract BigButton {\\n    even...\n      PUSH 1CA1885B\t\t\tcontract BigButton {\\n    even...\n      EQ \t\t\tcontract BigButton {\\n    even...\n      PUSH [tag] 2\t\t\tcontract BigButton {\\n    even...\n      JUMPI \t\t\tcontract BigButton {\\n    even...\n      DUP1 \t\t\tcontract BigButton {\\n    even...\n      PUSH 1CFEE7F1\t\t\tcontract BigButton {\\n    even...\n      EQ \t\t\tcontract BigButton {\\n    even...\n      PUSH [tag] 3\t\t\tcontract BigButton {\\n    even...\n      JUMPI \t\t\tcontract BigButton {\\n    even...\n      DUP1 \t\t\tcontract BigButton {\\n    even...\n      PUSH 2741876A\t\t\tcontract BigButton {\\n    even...\n      EQ \t\t\tcontract BigButton {\\n    even...\n      PUSH [tag] 4\t\t\tcontract BigButton {\\n    even...\n      JUMPI \t\t\tcontract BigButton {\\n    even...\n      DUP1 \t\t\tcontract BigButton {\\n    even...\n      PUSH 2BD48507\t\t\tcontract BigButton {\\n    even...\n      EQ \t\t\tcontract BigButton {\\n    even...\n      PUSH [tag] 5\t\t\tcontract BigButton {\\n    even...\n      JUMPI \t\t\tcontract BigButton {\\n    even...\n      DUP1 \t\t\tcontract BigButton {\\n    even...\n      PUSH 355F3176\t\t\tcontract BigButton {\\n    even...\n      EQ \t\t\tcontract BigButton {\\n    even...\n      PUSH [tag] 6\t\t\tcontract BigButton {\\n    even...\n      JUMPI \t\t\tcontract BigButton {\\n    even...\n    tag 1\t\t\tcontract BigButton {\\n    even...\n      JUMPDEST \t\t\tcontract BigButton {\\n    even...\n      PUSH 0\t\t\tcontract BigButton {\\n    even...\n      DUP1 \t\t\tcontract BigButton {\\n    even...\n      REVERT \t\t\tcontract BigButton {\\n    even...\n    tag 2\t\t\tfunction calldataPress(string ...\n      JUMPDEST \t\t\tfunction calldataPress(string ...\n      CALLVALUE \t\t\tfunction calldataPress(string ...\n      DUP1 \t\t\tfunction calldataPress(string ...\n      ISZERO \t\t\tfunction calldataPress(string ...\n      PUSH [tag] 26\t\t\tfunction calldataPress(string ...\n      JUMPI \t\t\tfunction calldataPress(string ...\n      PUSH 0\t\t\tfunction calldataPress(string ...\n      DUP1 \t\t\tfunction calldataPress(string ...\n      REVERT \t\t\tfunction calldataPress(string ...\n    tag 26\t\t\tfunction calldataPress(string ...\n      JUMPDEST \t\t\tfunction calldataPress(string ...\n      POP \t\t\tfunction calldataPress(string ...\n      PUSH [tag] 27\t\t\tfunction calldataPress(string ...\n      PUSH 4\t\t\tfunction calldataPress(string ...\n      DUP1 \t\t\tfunction calldataPress(string ...\n      CALLDATASIZE \t\t\tfunction calldataPress(string ...\n      SUB \t\t\tfunction calldataPress(string ...\n      DUP2 \t\t\tfunction calldataPress(string ...\n      ADD \t\t\tfunction calldataPress(string ...\n      SWAP1 \t\t\tfunction calldataPress(string ...\n      PUSH [tag] 28\t\t\tfunction calldataPress(string ...\n      SWAP2 \t\t\tfunction calldataPress(string ...\n      SWAP1 \t\t\tfunction calldataPress(string ...\n      PUSH [tag] 29\t\t\tfunction calldataPress(string ...\n      JUMP \t\t\tfunction calldataPress(string ...\n    tag 28\t\t\tfunction calldataPress(string ...\n      JUMPDEST \t\t\tfunction calldataPress(string ...\n      PUSH [tag] 30\t\t\tfunction calldataPress(string ...\n      JUMP \t\t\tfunction calldataPress(string ...\n    tag 27\t\t\tfunction calldataPress(string ...\n      JUMPDEST \t\t\tfunction calldataPress(string ...\n      PUSH 40\t\t\tfunction calldataPress(string ...\n      MLOAD \t\t\tfunction calldataPress(string ...\n      PUSH [tag] 31\t\t\tfunction calldataPress(string ...\n      SWAP2 \t\t\tfunction calldataPress(string ...\n      SWAP1 \t\t\tfunction calldataPress(string ...\n      PUSH [tag] 32\t\t\tfunction calldataPress(string ...\n      JUMP \t\t\tfunction calldataPress(string ...\n    tag 31\t\t\tfunction calldataPress(string ...\n      JUMPDEST \t\t\tfunction calldataPress(string ...\n      PUSH 40\t\t\tfunction calldataPress(string ...\n      MLOAD \t\t\tfunction calldataPress(string ...\n      DUP1 \t\t\tfunction calldataPress(string ...\n      SWAP2 \t\t\tfunction calldataPress(string ...\n      SUB \t\t\tfunction calldataPress(string ...\n      SWAP1 \t\t\tfunction calldataPress(string ...\n      RETURN \t\t\tfunction calldataPress(string ...\n    tag 3\t\t\tfunction selectorWithdraw() ex...\n      JUMPDEST \t\t\tfunction selectorWithdraw() ex...\n      CALLVALUE \t\t\tfunction selectorWithdraw() ex...\n      DUP1 \t\t\tfunction selectorWithdraw() ex...\n      ISZERO \t\t\tfunction selectorWithdraw() ex...\n      PUSH [tag] 33\t\t\tfunction selectorWithdraw() ex...\n      JUMPI \t\t\tfunction selectorWithdraw() ex...\n      PUSH 0\t\t\tfunction selectorWithdraw() ex...\n      DUP1 \t\t\tfunction selectorWithdraw() ex...\n      REVERT \t\t\tfunction selectorWithdraw() ex...\n    tag 33\t\t\tfunction selectorWithdraw() ex...\n      JUMPDEST \t\t\tfunction selectorWithdraw() ex...\n      POP \t\t\tfunction selectorWithdraw() ex...\n      PUSH [tag] 34\t\t\tfunction selectorWithdraw() ex...\n      PUSH [tag] 35\t\t\tfunction selectorWithdraw() ex...\n      JUMP \t\t\tfunction selectorWithdraw() ex...\n    tag 34\t\t\tfunction selectorWithdraw() ex...\n      JUMPDEST \t\t\tfunction selectorWithdraw() ex...\n      PUSH 40\t\t\tfunction selectorWithdraw() ex...\n      MLOAD \t\t\tfunction selectorWithdraw() ex...\n      PUSH [tag] 36\t\t\tfunction selectorWithdraw() ex...\n      SWAP2 \t\t\tfunction selectorWithdraw() ex...\n      SWAP1 \t\t\tfunction selectorWithdraw() ex...\n      PUSH [tag] 37\t\t\tfunction selectorWithdraw() ex...\n      JUMP \t\t\tfunction selectorWithdraw() ex...\n    tag 36\t\t\tfunction selectorWithdraw() ex...\n      JUMPDEST \t\t\tfunction selectorWithdraw() ex...\n      PUSH 40\t\t\tfunction selectorWithdraw() ex...\n      MLOAD \t\t\tfunction selectorWithdraw() ex...\n      DUP1 \t\t\tfunction selectorWithdraw() ex...\n      SWAP2 \t\t\tfunction selectorWithdraw() ex...\n      SUB \t\t\tfunction selectorWithdraw() ex...\n      SWAP1 \t\t\tfunction selectorWithdraw() ex...\n      RETURN \t\t\tfunction selectorWithdraw() ex...\n    tag 4\t\t\tuint256 public totalPresses\n      JUMPDEST \t\t\tuint256 public totalPresses\n      CALLVALUE \t\t\tuint256 public totalPresses\n      DUP1 \t\t\tuint256 public totalPresses\n      ISZERO \t\t\tuint256 public totalPresses\n      PUSH [tag] 38\t\t\tuint256 public totalPresses\n      JUMPI \t\t\tuint256 public totalPresses\n      PUSH 0\t\t\tuint256 public totalPresses\n      DUP1 \t\t\tuint256 public totalPresses\n      REVERT \t\t\tuint256 public totalPresses\n    tag 38\t\t\tuint256 public totalPresses\n      JUMPDEST \t\t\tuint256 public totalPresses\n      POP \t\t\tuint256 public totalPresses\n      PUSH [tag] 39\t\t\tuint256 public totalPresses\n      PUSH [tag] 40\t\t\tuint256 public totalPresses\n      JUMP \t\t\tuint256 public totalPresses\n    tag 39\t\t\tuint256 public totalPresses\n      JUMPDEST \t\t\tuint256 public totalPresses\n      PUSH 40\t\t\tuint256 public totalPresses\n      MLOAD \t\t\tuint256 public totalPresses\n      PUSH [tag] 41\t\t\tuint256 public totalPresses\n      SWAP2 \t\t\tuint256 public totalPresses\n      SWAP1 \t\t\tuint256 public totalPresses\n      PUSH [tag] 42\t\t\tuint256 public totalPresses\n      JUMP \t\t\tuint256 public totalPresses\n    tag 41\t\t\tuint256 public totalPresses\n      JUMPDEST \t\t\tuint256 public totalPresses\n      PUSH 40\t\t\tuint256 public totalPresses\n      MLOAD \t\t\tuint256 public totalPresses\n      DUP1 \t\t\tuint256 public totalPresses\n      SWAP2 \t\t\tuint256 public totalPresses\n      SUB \t\t\tuint256 public totalPresses\n      SWAP1 \t\t\tuint256 public totalPresses\n      RETURN \t\t\tuint256 public totalPresses\n    tag 5\t\t\tunction makeCalldata(string ca...\n      JUMPDEST \t\t\tunction makeCalldata(string ca...\n      CALLVALUE \t\t\tunction makeCalldata(string ca...\n      DUP1 \t\t\tunction makeCalldata(string ca...\n      ISZERO \t\t\tunction makeCalldata(string ca...\n      PUSH [tag] 43\t\t\tunction makeCalldata(string ca...\n      JUMPI \t\t\tunction makeCalldata(string ca...\n      PUSH 0\t\t\tunction makeCalldata(string ca...\n      DUP1 \t\t\tunction makeCalldata(string ca...\n      REVERT \t\t\tunction makeCalldata(string ca...\n    tag 43\t\t\tunction makeCalldata(string ca...\n      JUMPDEST \t\t\tunction makeCalldata(string ca...\n      POP \t\t\tunction makeCalldata(string ca...\n      PUSH [tag] 44\t\t\tunction makeCalldata(string ca...\n      PUSH 4\t\t\tunction makeCalldata(string ca...\n      DUP1 \t\t\tunction makeCalldata(string ca...\n      CALLDATASIZE \t\t\tunction makeCalldata(string ca...\n      SUB \t\t\tunction makeCalldata(string ca...\n      DUP2 \t\t\tunction makeCalldata(string ca...\n      ADD \t\t\tunction makeCalldata(string ca...\n      SWAP1 \t\t\tunction makeCalldata(string ca...\n      PUSH [tag] 45\t\t\tunction makeCalldata(string ca...\n      SWAP2 \t\t\tunction makeCalldata(string ca...\n      SWAP1 \t\t\tunction makeCalldata(string ca...\n      PUSH [tag] 46\t\t\tunction makeCalldata(string ca...\n      JUMP \t\t\tunction makeCalldata(string ca...\n    tag 45\t\t\tunction makeCalldata(string ca...\n      JUMPDEST \t\t\tunction makeCalldata(string ca...\n      PUSH [tag] 47\t\t\tunction makeCalldata(string ca...\n      JUMP \t\t\tunction makeCalldata(string ca...\n    tag 44\t\t\tunction makeCalldata(string ca...\n      JUMPDEST \t\t\tunction makeCalldata(string ca...\n      PUSH 40\t\t\tunction makeCalldata(string ca...\n      MLOAD \t\t\tunction makeCalldata(string ca...\n      PUSH [tag] 48\t\t\tunction makeCalldata(string ca...\n      SWAP2 \t\t\tunction makeCalldata(string ca...\n      SWAP1 \t\t\tunction makeCalldata(string ca...\n      PUSH [tag] 32\t\t\tunction makeCalldata(string ca...\n      JUMP \t\t\tunction makeCalldata(string ca...\n    tag 48\t\t\tunction makeCalldata(string ca...\n      JUMPDEST \t\t\tunction makeCalldata(string ca...\n      PUSH 40\t\t\tunction makeCalldata(string ca...\n      MLOAD \t\t\tunction makeCalldata(string ca...\n      DUP1 \t\t\tunction makeCalldata(string ca...\n      SWAP2 \t\t\tunction makeCalldata(string ca...\n      SUB \t\t\tunction makeCalldata(string ca...\n      SWAP1 \t\t\tunction makeCalldata(string ca...\n      RETURN \t\t\tunction makeCalldata(string ca...\n    tag 6\t\t\tfunction calldataSetCooldown(u...\n      JUMPDEST \t\t\tfunction calldataSetCooldown(u...\n      CALLVALUE \t\t\tfunction calldataSetCooldown(u...\n      DUP1 \t\t\tfunction calldataSetCooldown(u...\n      ISZERO \t\t\tfunction calldataSetCooldown(u...\n      PUSH [tag] 49\t\t\tfunction calldataSetCooldown(u...\n      JUMPI \t\t\tfunction calldataSetCooldown(u...\n      PUSH 0\t\t\tfunction calldataSetCooldown(u...\n      DUP1 \t\t\tfunction calldataSetCooldown(u...\n      REVERT \t\t\tfunction calldataSetCooldown(u...\n    tag 49\t\t\tfunction calldataSetCooldown(u...\n      JUMPDEST \t\t\tfunction calldataSetCooldown(u...\n      POP \t\t\tfunction calldataSetCooldown(u...\n      PUSH [tag] 50\t\t\tfunction calldataSetCooldown(u...\n      PUSH 4\t\t\tfunction calldataSetCooldown(u...\n      DUP1 \t\t\tfunction calldataSetCooldown(u...\n      CALLDATASIZE \t\t\tfunction calldataSetCooldown(u...\n      SUB \t\t\tfunction calldataSetCooldown(u...\n      DUP2 \t\t\tfunction calldataSetCooldown(u...\n      ADD \t\t\tfunction calldataSetCooldown(u...\n      SWAP1 \t\t\tfunction calldataSetCooldown(u...\n      PUSH [tag] 51\t\t\tfunction calldataSetCooldown(u...\n      SWAP2 \t\t\tfunction calldataSetCooldown(u...\n      SWAP1 \t\t\tfunction calldataSetCooldown(u...\n      PUSH [tag] 52\t\t\tfunction calldataSetCooldown(u...\n      JUMP \t\t\tfunction calldataSetCooldown(u...\n    tag 51\t\t\tfunction calldataSetCooldown(u...\n      JUMPDEST \t\t\tfunction calldataSetCooldown(u...\n      PUSH [tag] 53\t\t\tfunction calldataSetCooldown(u...\n      JUMP \t\t\tfunction calldataSetCooldown(u...\n    tag 50\t\t\tfunction calldataSetCooldown(u...\n      JUMPDEST \t\t\tfunction calldataSetCooldown(u...\n      PUSH 40\t\t\tfunction calldataSetCooldown(u...\n      MLOAD \t\t\tfunction calldataSetCooldown(u...\n      PUSH [tag] 54\t\t\tfunction calldataSetCooldown(u...\n      SWAP2 \t\t\tfunction calldataSetCooldown(u...\n      SWAP1 \t\t\tfunction calldataSetCooldown(u...\n      PUSH [tag] 32\t\t\tfunction calldataSetCooldown(u...\n      JUMP \t\t\tfunction calldataSetCooldown(u...\n    tag 54\t\t\tfunction calldataSetCooldown(u...\n      JUMPDEST \t\t\tfunction calldataSetCooldown(u...\n      PUSH 40\t\t\tfunction calldataSetCooldown(u...\n      MLOAD \t\t\tfunction calldataSetCooldown(u...\n      DUP1 \t\t\tfunction calldataSetCooldown(u...\n      SWAP2 \t\t\tfunction calldataSetCooldown(u...\n      SUB \t\t\tfunction calldataSetCooldown(u...\n      SWAP1 \t\t\tfunction calldataSetCooldown(u...\n      RETURN \t\t\tfunction calldataSetCooldown(u...\n    tag 7\t\t\tmapping(address => uint256) pu...\n      JUMPDEST \t\t\tmapping(address => uint256) pu...\n      CALLVALUE \t\t\tmapping(address => uint256) pu...\n      DUP1 \t\t\tmapping(address => uint256) pu...\n      ISZERO \t\t\tmapping(address => uint256) pu...\n      PUSH [tag] 55\t\t\tmapping(address => uint256) pu...\n      JUMPI \t\t\tmapping(address => uint256) pu...\n      PUSH 0\t\t\tmapping(address => uint256) pu...\n      DUP1 \t\t\tmapping(address => uint256) pu...\n      REVERT \t\t\tmapping(address => uint256) pu...\n    tag 55\t\t\tmapping(address => uint256) pu...\n      JUMPDEST \t\t\tmapping(address => uint256) pu...\n      POP \t\t\tmapping(address => uint256) pu...\n      PUSH [tag] 56\t\t\tmapping(address => uint256) pu...\n      PUSH 4\t\t\tmapping(address => uint256) pu...\n      DUP1 \t\t\tmapping(address => uint256) pu...\n      CALLDATASIZE \t\t\tmapping(address => uint256) pu...\n      SUB \t\t\tmapping(address => uint256) pu...\n      DUP2 \t\t\tmapping(address => uint256) pu...\n      ADD \t\t\tmapping(address => uint256) pu...\n      SWAP1 \t\t\tmapping(address => uint256) pu...\n      PUSH [tag] 57\t\t\tmapping(address => uint256) pu...\n      SWAP2 \t\t\tmapping(address => uint256) pu...\n      SWAP1 \t\t\tmapping(address => uint256) pu...\n      PUSH [tag] 58\t\t\tmapping(address => uint256) pu...\n      JUMP \t\t\tmapping(address => uint256) pu...\n    tag 57\t\t\tmapping(address => uint256) pu...\n      JUMPDEST \t\t\tmapping(address => uint256) pu...\n      PUSH [tag] 59\t\t\tmapping(address => uint256) pu...\n      JUMP \t\t\tmapping(address => uint256) pu...\n    tag 56\t\t\tmapping(address => uint256) pu...\n      JUMPDEST \t\t\tmapping(address => uint256) pu...\n      PUSH 40\t\t\tmapping(address => uint256) pu...\n      MLOAD \t\t\tmapping(address => uint256) pu...\n      PUSH [tag] 60\t\t\tmapping(address => uint256) pu...\n      SWAP2 \t\t\tmapping(address => uint256) pu...\n      SWAP1 \t\t\tmapping(address => uint256) pu...\n      PUSH [tag] 42\t\t\tmapping(address => uint256) pu...\n      JUMP \t\t\tmapping(address => uint256) pu...\n    tag 60\t\t\tmapping(address => uint256) pu...\n      JUMPDEST \t\t\tmapping(address => uint256) pu...\n      PUSH 40\t\t\tmapping(address => uint256) pu...\n      MLOAD \t\t\tmapping(address => uint256) pu...\n      DUP1 \t\t\tmapping(address => uint256) pu...\n      SWAP2 \t\t\tmapping(address => uint256) pu...\n      SUB \t\t\tmapping(address => uint256) pu...\n      SWAP1 \t\t\tmapping(address => uint256) pu...\n      RETURN \t\t\tmapping(address => uint256) pu...\n    tag 8\t\t\tfunction selectorSetCooldown()...\n      JUMPDEST \t\t\tfunction selectorSetCooldown()...\n      CALLVALUE \t\t\tfunction selectorSetCooldown()...\n      DUP1 \t\t\tfunction selectorSetCooldown()...\n      ISZERO \t\t\tfunction selectorSetCooldown()...\n      PUSH [tag] 61\t\t\tfunction selectorSetCooldown()...\n      JUMPI \t\t\tfunction selectorSetCooldown()...\n      PUSH 0\t\t\tfunction selectorSetCooldown()...\n      DUP1 \t\t\tfunction selectorSetCooldown()...\n      REVERT \t\t\tfunction selectorSetCooldown()...\n    tag 61\t\t\tfunction selectorSetCooldown()...\n      JUMPDEST \t\t\tfunction selectorSetCooldown()...\n      POP \t\t\tfunction selectorSetCooldown()...\n      PUSH [tag] 62\t\t\tfunction selectorSetCooldown()...\n      PUSH [tag] 63\t\t\tfunction selectorSetCooldown()...\n      JUMP \t\t\tfunction selectorSetCooldown()...\n    tag 62\t\t\tfunction selectorSetCooldown()...\n      JUMPDEST \t\t\tfunction selectorSetCooldown()...\n      PUSH 40\t\t\tfunction selectorSetCooldown()...\n      MLOAD \t\t\tfunction selectorSetCooldown()...\n      PUSH [tag] 64\t\t\tfunction selectorSetCooldown()...\n      SWAP2 \t\t\tfunction selectorSetCooldown()...\n      SWAP1 \t\t\tfunction selectorSetCooldown()...\n      PUSH [tag] 37\t\t\tfunction selectorSetCooldown()...\n      JUMP \t\t\tfunction selectorSetCooldown()...\n    tag 64\t\t\tfunction selectorSetCooldown()...\n      JUMPDEST \t\t\tfunction selectorSetCooldown()...\n      PUSH 40\t\t\tfunction selectorSetCooldown()...\n      MLOAD \t\t\tfunction selectorSetCooldown()...\n      DUP1 \t\t\tfunction selectorSetCooldown()...\n      SWAP2 \t\t\tfunction selectorSetCooldown()...\n      SUB \t\t\tfunction selectorSetCooldown()...\n      SWAP1 \t\t\tfunction selectorSetCooldown()...\n      RETURN \t\t\tfunction selectorSetCooldown()...\n    tag 9\t\t\tfunction setCooldown(uint256 s...\n      JUMPDEST \t\t\tfunction setCooldown(uint256 s...\n      CALLVALUE \t\t\tfunction setCooldown(uint256 s...\n      DUP1 \t\t\tfunction setCooldown(uint256 s...\n      ISZERO \t\t\tfunction setCooldown(uint256 s...\n      PUSH [tag] 65\t\t\tfunction setCooldown(uint256 s...\n      JUMPI \t\t\tfunction setCooldown(uint256 s...\n      PUSH 0\t\t\tfunction setCooldown(uint256 s...\n      DUP1 \t\t\tfunction setCooldown(uint256 s...\n      REVERT \t\t\tfunction setCooldown(uint256 s...\n    tag 65\t\t\tfunction setCooldown(uint256 s...\n      JUMPDEST \t\t\tfunction setCooldown(uint256 s...\n      POP \t\t\tfunction setCooldown(uint256 s...\n      PUSH [tag] 66\t\t\tfunction setCooldown(uint256 s...\n      PUSH 4\t\t\tfunction setCooldown(uint256 s...\n      DUP1 \t\t\tfunction setCooldown(uint256 s...\n      CALLDATASIZE \t\t\tfunction setCooldown(uint256 s...\n      SUB \t\t\tfunction setCooldown(uint256 s...\n      DUP2 \t\t\tfunction setCooldown(uint256 s...\n      ADD \t\t\tfunction setCooldown(uint256 s...\n      SWAP1 \t\t\tfunction setCooldown(uint256 s...\n      PUSH [tag] 67\t\t\tfunction setCooldown(uint256 s...\n      SWAP2 \t\t\tfunction setCooldown(uint256 s...\n      SWAP1 \t\t\tfunction setCooldown(uint256 s...\n      PUSH [tag] 52\t\t\tfunction setCooldown(uint256 s...\n      JUMP \t\t\tfunction setCooldown(uint256 s...\n    tag 67\t\t\tfunction setCooldown(uint256 s...\n      JUMPDEST \t\t\tfunction setCooldown(uint256 s...\n      PUSH [tag] 68\t\t\tfunction setCooldown(uint256 s...\n      JUMP \t\t\tfunction setCooldown(uint256 s...\n    tag 66\t\t\tfunction setCooldown(uint256 s...\n      JUMPDEST \t\t\tfunction setCooldown(uint256 s...\n      STOP \t\t\tfunction setCooldown(uint256 s...\n    tag 10\t\t\tfunction tipsBalance() externa...\n      JUMPDEST \t\t\tfunction tipsBalance() externa...\n      CALLVALUE \t\t\tfunction tipsBalance() externa...\n      DUP1 \t\t\tfunction tipsBalance() externa...\n      ISZERO \t\t\tfunction tipsBalance() externa...\n      PUSH [tag] 69\t\t\tfunction tipsBalance() externa...\n      JUMPI \t\t\tfunction tipsBalance() externa...\n      PUSH 0\t\t\tfunction tipsBalance() externa...\n      DUP1 \t\t\tfunction tipsBalance() externa...\n      REVERT \t\t\tfunction tipsBalance() externa...\n    tag 69\t\t\tfunction tipsBalance() externa...\n      JUMPDEST \t\t\tfunction tipsBalance() externa...\n      POP \t\t\tfunction tipsBalance() externa...\n      PUSH [tag] 70\t\t\tfunction tipsBalance() externa...\n      PUSH [tag] 71\t\t\tfunction tipsBalance() externa...\n      JUMP \t\t\tfunction tipsBalance() externa...\n    tag 70\t\t\tfunction tipsBalance() externa...\n      JUMPDEST \t\t\tfunction tipsBalance() externa...\n      PUSH 40\t\t\tfunction tipsBalance() externa...\n      MLOAD \t\t\tfunction tipsBalance() externa...\n      PUSH [tag] 72\t\t\tfunction tipsBalance() externa...\n      SWAP2 \t\t\tfunction tipsBalance() externa...\n      SWAP1 \t\t\tfunction tipsBalance() externa...\n      PUSH [tag] 42\t\t\tfunction tipsBalance() externa...\n      JUMP \t\t\tfunction tipsBalance() externa...\n    tag 72\t\t\tfunction tipsBalance() externa...\n      JUMPDEST \t\t\tfunction tipsBalance() externa...\n      PUSH 40\t\t\tfunction tipsBalance() externa...\n      MLOAD \t\t\tfunction tipsBalance() externa...\n      DUP1 \t\t\tfunction tipsBalance() externa...\n      SWAP2 \t\t\tfunction tipsBalance() externa...\n      SUB \t\t\tfunction tipsBalance() externa...\n      SWAP1 \t\t\tfunction tipsBalance() externa...\n      RETURN \t\t\tfunction tipsBalance() externa...\n    tag 11\t\t\tfunction selectorPress() exter...\n      JUMPDEST \t\t\tfunction selectorPress() exter...\n      CALLVALUE \t\t\tfunction selectorPress() exter...\n      DUP1 \t\t\tfunction selectorPress() exter...\n      ISZERO \t\t\tfunction selectorPress() exter...\n      PUSH [tag] 73\t\t\tfunction selectorPress() exter...\n      JUMPI \t\t\tfunction selectorPress() exter...\n      PUSH 0\t\t\tfunction selectorPress() exter...\n      DUP1 \t\t\tfunction selectorPress() exter...\n      REVERT \t\t\tfunction selectorPress() exter...\n    tag 73\t\t\tfunction selectorPress() exter...\n      JUMPDEST \t\t\tfunction selectorPress() exter...\n      POP \t\t\tfunction selectorPress() exter...\n      PUSH [tag] 74\t\t\tfunction selectorPress() exter...\n      PUSH [tag] 75\t\t\tfunction selectorPress() exter...\n      JUMP \t\t\tfunction selectorPress() exter...\n    tag 74\t\t\tfunction selectorPress() exter...\n      JUMPDEST \t\t\tfunction selectorPress() exter...\n      PUSH 40\t\t\tfunction selectorPress() exter...\n      MLOAD \t\t\tfunction selectorPress() exter...\n      PUSH [tag] 76\t\t\tfunction selectorPress() exter...\n      SWAP2 \t\t\tfunction selectorPress() exter...\n      SWAP1 \t\t\tfunction selectorPress() exter...\n      PUSH [tag] 37\t\t\tfunction selectorPress() exter...\n      JUMP \t\t\tfunction selectorPress() exter...\n    tag 76\t\t\tfunction selectorPress() exter...\n      JUMPDEST \t\t\tfunction selectorPress() exter...\n      PUSH 40\t\t\tfunction selectorPress() exter...\n      MLOAD \t\t\tfunction selectorPress() exter...\n      DUP1 \t\t\tfunction selectorPress() exter...\n      SWAP2 \t\t\tfunction selectorPress() exter...\n      SUB \t\t\tfunction selectorPress() exter...\n      SWAP1 \t\t\tfunction selectorPress() exter...\n      RETURN \t\t\tfunction selectorPress() exter...\n    tag 12\t\t\taddress public owner\n      JUMPDEST \t\t\taddress public owner\n      CALLVALUE \t\t\taddress public owner\n      DUP1 \t\t\taddress public owner\n      ISZERO \t\t\taddress public owner\n      PUSH [tag] 77\t\t\taddress public owner\n      JUMPI \t\t\taddress public owner\n      PUSH 0\t\t\taddress public owner\n      DUP1 \t\t\taddress public owner\n      REVERT \t\t\taddress public owner\n    tag 77\t\t\taddress public owner\n      JUMPDEST \t\t\taddress public owner\n      POP \t\t\taddress public owner\n      PUSH [tag] 78\t\t\taddress public owner\n      PUSH [tag] 79\t\t\taddress public owner\n      JUMP \t\t\taddress public owner\n    tag 78\t\t\taddress public owner\n      JUMPDEST \t\t\taddress public owner\n      PUSH 40\t\t\taddress public owner\n      MLOAD \t\t\taddress public owner\n      PUSH [tag] 80\t\t\taddress public owner\n      SWAP2 \t\t\taddress public owner\n      SWAP1 \t\t\taddress public owner\n      PUSH [tag] 81\t\t\taddress public owner\n      JUMP \t\t\taddress public owner\n    tag 80\t\t\taddress public owner\n      JUMPDEST \t\t\taddress public owner\n      PUSH 40\t\t\taddress public owner\n      MLOAD \t\t\taddress public owner\n      DUP1 \t\t\taddress public owner\n      SWAP2 \t\t\taddress public owner\n      SUB \t\t\taddress public owner\n      SWAP1 \t\t\taddress public owner\n      RETURN \t\t\taddress public owner\n    tag 13\t\t\tfunction calldataWithdraw(addr...\n      JUMPDEST \t\t\tfunction calldataWithdraw(addr...\n      CALLVALUE \t\t\tfunction calldataWithdraw(addr...\n      DUP1 \t\t\tfunction calldataWithdraw(addr...\n      ISZERO \t\t\tfunction calldataWithdraw(addr...\n      PUSH [tag] 82\t\t\tfunction calldataWithdraw(addr...\n      JUMPI \t\t\tfunction calldataWithdraw(addr...\n      PUSH 0\t\t\tfunction calldataWithdraw(addr...\n      DUP1 \t\t\tfunction calldataWithdraw(addr...\n      REVERT \t\t\tfunction calldataWithdraw(addr...\n    tag 82\t\t\tfunction calldataWithdraw(addr...\n      JUMPDEST \t\t\tfunction calldataWithdraw(addr...\n      POP \t\t\tfunction calldataWithdraw(addr...\n      PUSH [tag] 83\t\t\tfunction calldataWithdraw(addr...\n      PUSH 4\t\t\tfunction calldataWithdraw(addr...\n      DUP1 \t\t\tfunction calldataWithdraw(addr...\n      CALLDATASIZE \t\t\tfunction calldataWithdraw(addr...\n      SUB \t\t\tfunction calldataWithdraw(addr...\n      DUP2 \t\t\tfunction calldataWithdraw(addr...\n      ADD \t\t\tfunction calldataWithdraw(addr...\n      SWAP1 \t\t\tfunction calldataWithdraw(addr...\n      PUSH [tag] 84\t\t\tfunction calldataWithdraw(addr...\n      SWAP2 \t\t\tfunction calldataWithdraw(addr...\n      SWAP1 \t\t\tfunction calldataWithdraw(addr...\n      PUSH [tag] 85\t\t\tfunction calldataWithdraw(addr...\n      JUMP \t\t\tfunction calldataWithdraw(addr...\n    tag 84\t\t\tfunction calldataWithdraw(addr...\n      JUMPDEST \t\t\tfunction calldataWithdraw(addr...\n      PUSH [tag] 86\t\t\tfunction calldataWithdraw(addr...\n      JUMP \t\t\tfunction calldataWithdraw(addr...\n    tag 83\t\t\tfunction calldataWithdraw(addr...\n      JUMPDEST \t\t\tfunction calldataWithdraw(addr...\n      PUSH 40\t\t\tfunction calldataWithdraw(addr...\n      MLOAD \t\t\tfunction calldataWithdraw(addr...\n      PUSH [tag] 87\t\t\tfunction calldataWithdraw(addr...\n      SWAP2 \t\t\tfunction calldataWithdraw(addr...\n      SWAP1 \t\t\tfunction calldataWithdraw(addr...\n      PUSH [tag] 32\t\t\tfunction calldataWithdraw(addr...\n      JUMP \t\t\tfunction calldataWithdraw(addr...\n    tag 87\t\t\tfunction calldataWithdraw(addr...\n      JUMPDEST \t\t\tfunction calldataWithdraw(addr...\n      PUSH 40\t\t\tfunction calldataWithdraw(addr...\n      MLOAD \t\t\tfunction calldataWithdraw(addr...\n      DUP1 \t\t\tfunction calldataWithdraw(addr...\n      SWAP2 \t\t\tfunction calldataWithdraw(addr...\n      SUB \t\t\tfunction calldataWithdraw(addr...\n      SWAP1 \t\t\tfunction calldataWithdraw(addr...\n      RETURN \t\t\tfunction calldataWithdraw(addr...\n    tag 14\t\t\tuint256 public cooldownSeconds...\n      JUMPDEST \t\t\tuint256 public cooldownSeconds...\n      CALLVALUE \t\t\tuint256 public cooldownSeconds...\n      DUP1 \t\t\tuint256 public cooldownSeconds...\n      ISZERO \t\t\tuint256 public cooldownSeconds...\n      PUSH [tag] 88\t\t\tuint256 public cooldownSeconds...\n      JUMPI \t\t\tuint256 public cooldownSeconds...\n      PUSH 0\t\t\tuint256 public cooldownSeconds...\n      DUP1 \t\t\tuint256 public cooldownSeconds...\n      REVERT \t\t\tuint256 public cooldownSeconds...\n    tag 88\t\t\tuint256 public cooldownSeconds...\n      JUMPDEST \t\t\tuint256 public cooldownSeconds...\n      POP \t\t\tuint256 public cooldownSeconds...\n      PUSH [tag] 89\t\t\tuint256 public cooldownSeconds...\n      PUSH [tag] 90\t\t\tuint256 public cooldownSeconds...\n      JUMP \t\t\tuint256 public cooldownSeconds...\n    tag 89\t\t\tuint256 public cooldownSeconds...\n      JUMPDEST \t\t\tuint256 public cooldownSeconds...\n      PUSH 40\t\t\tuint256 public cooldownSeconds...\n      MLOAD \t\t\tuint256 public cooldownSeconds...\n      PUSH [tag] 91\t\t\tuint256 public cooldownSeconds...\n      SWAP2 \t\t\tuint256 public cooldownSeconds...\n      SWAP1 \t\t\tuint256 public cooldownSeconds...\n      PUSH [tag] 42\t\t\tuint256 public cooldownSeconds...\n      JUMP \t\t\tuint256 public cooldownSeconds...\n    tag 91\t\t\tuint256 public cooldownSeconds...\n      JUMPDEST \t\t\tuint256 public cooldownSeconds...\n      PUSH 40\t\t\tuint256 public cooldownSeconds...\n      MLOAD \t\t\tuint256 public cooldownSeconds...\n      DUP1 \t\t\tuint256 public cooldownSeconds...\n      SWAP2 \t\t\tuint256 public cooldownSeconds...\n      SUB \t\t\tuint256 public cooldownSeconds...\n      SWAP1 \t\t\tuint256 public cooldownSeconds...\n      RETURN \t\t\tuint256 public cooldownSeconds...\n    tag 15\t\t\tfunction selectorOf(string cal...\n      JUMPDEST \t\t\tfunction selectorOf(string cal...\n      CALLVALUE \t\t\tfunction selectorOf(string cal...\n      DUP1 \t\t\tfunction selectorOf(string cal...\n      ISZERO \t\t\tfunction selectorOf(string cal...\n      PUSH [tag] 92\t\t\tfunction selectorOf(string cal...\n      JUMPI \t\t\tfunction selectorOf(string cal...\n      PUSH 0\t\t\tfunction selectorOf(string cal...\n      DUP1 \t\t\tfunction selectorOf(string cal...\n      REVERT \t\t\tfunction selectorOf(string cal...\n    tag 92\t\t\tfunction selectorOf(string cal...\n      JUMPDEST \t\t\tfunction selectorOf(string cal...\n      POP \t\t\tfunction selectorOf(string cal...\n      PUSH [tag] 93\t\t\tfunction selectorOf(string cal...\n      PUSH 4\t\t\tfunction selectorOf(string cal...\n      DUP1 \t\t\tfunction selectorOf(string cal...\n      CALLDATASIZE \t\t\tfunction selectorOf(string cal...\n      SUB \t\t\tfunction selectorOf(string cal...\n      DUP2 \t\t\tfunction selectorOf(string cal...\n      ADD \t\t\tfunction selectorOf(string cal...\n      SWAP1 \t\t\tfunction selectorOf(string cal...\n      PUSH [tag] 94\t\t\tfunction selectorOf(string cal...\n      SWAP2 \t\t\tfunction selectorOf(string cal...\n      SWAP1 \t\t\tfunction selectorOf(string cal...\n      PUSH [tag] 29\t\t\tfunction selectorOf(string cal...\n      JUMP \t\t\tfunction selectorOf(string cal...\n    tag 94\t\t\tfunction selectorOf(string cal...\n      JUMPDEST \t\t\tfunction selectorOf(string cal...\n      PUSH [tag] 95\t\t\tfunction selectorOf(string cal...\n      JUMP \t\t\tfunction selectorOf(string cal...\n    tag 93\t\t\tfunction selectorOf(string cal...\n      JUMPDEST \t\t\tfunction selectorOf(string cal...\n      PUSH 40\t\t\tfunction selectorOf(string cal...\n      MLOAD \t\t\tfunction selectorOf(string cal...\n      PUSH [tag] 96\t\t\tfunction selectorOf(string cal...\n      SWAP2 \t\t\tfunction selectorOf(string cal...\n      SWAP1 \t\t\tfunction selectorOf(string cal...\n      PUSH [tag] 37\t\t\tfunction selectorOf(string cal...\n      JUMP \t\t\tfunction selectorOf(string cal...\n    tag 96\t\t\tfunction selectorOf(string cal...\n      JUMPDEST \t\t\tfunction selectorOf(string cal...\n      PUSH 40\t\t\tfunction selectorOf(string cal...\n      MLOAD \t\t\tfunction selectorOf(string cal...\n      DUP1 \t\t\tfunction selectorOf(string cal...\n      SWAP2 \t\t\tfunction selectorOf(string cal...\n      SUB \t\t\tfunction selectorOf(string cal...\n      SWAP1 \t\t\tfunction selectorOf(string cal...\n      RETURN \t\t\tfunction selectorOf(string cal...\n    tag 16\t\t\tunction eventPressedTopic0() e...\n      JUMPDEST \t\t\tunction eventPressedTopic0() e...\n      CALLVALUE \t\t\tunction eventPressedTopic0() e...\n      DUP1 \t\t\tunction eventPressedTopic0() e...\n      ISZERO \t\t\tunction eventPressedTopic0() e...\n      PUSH [tag] 97\t\t\tunction eventPressedTopic0() e...\n      JUMPI \t\t\tunction eventPressedTopic0() e...\n      PUSH 0\t\t\tunction eventPressedTopic0() e...\n      DUP1 \t\t\tunction eventPressedTopic0() e...\n      REVERT \t\t\tunction eventPressedTopic0() e...\n    tag 97\t\t\tunction eventPressedTopic0() e...\n      JUMPDEST \t\t\tunction eventPressedTopic0() e...\n      POP \t\t\tunction eventPressedTopic0() e...\n      PUSH [tag] 98\t\t\tunction eventPressedTopic0() e...\n      PUSH [tag] 99\t\t\tunction eventPressedTopic0() e...\n      JUMP \t\t\tunction eventPressedTopic0() e...\n    tag 98\t\t\tunction eventPressedTopic0() e...\n      JUMPDEST \t\t\tunction eventPressedTopic0() e...\n      PUSH 40\t\t\tunction eventPressedTopic0() e...\n      MLOAD \t\t\tunction eventPressedTopic0() e...\n      PUSH [tag] 100\t\t\tunction eventPressedTopic0() e...\n      SWAP2 \t\t\tunction eventPressedTopic0() e...\n      SWAP1 \t\t\tunction eventPressedTopic0() e...\n      PUSH [tag] 101\t\t\tunction eventPressedTopic0() e...\n      JUMP \t\t\tunction eventPressedTopic0() e...\n    tag 100\t\t\tunction eventPressedTopic0() e...\n      JUMPDEST \t\t\tunction eventPressedTopic0() e...\n      PUSH 40\t\t\tunction eventPressedTopic0() e...\n      MLOAD \t\t\tunction eventPressedTopic0() e...\n      DUP1 \t\t\tunction eventPressedTopic0() e...\n      SWAP2 \t\t\tunction eventPressedTopic0() e...\n      SUB \t\t\tunction eventPressedTopic0() e...\n      SWAP1 \t\t\tunction eventPressedTopic0() e...\n      RETURN \t\t\tunction eventPressedTopic0() e...\n    tag 17\t\t\tmapping(address => uint256) pu...\n      JUMPDEST \t\t\tmapping(address => uint256) pu...\n      CALLVALUE \t\t\tmapping(address => uint256) pu...\n      DUP1 \t\t\tmapping(address => uint256) pu...\n      ISZERO \t\t\tmapping(address => uint256) pu...\n      PUSH [tag] 102\t\t\tmapping(address => uint256) pu...\n      JUMPI \t\t\tmapping(address => uint256) pu...\n      PUSH 0\t\t\tmapping(address => uint256) pu...\n      DUP1 \t\t\tmapping(address => uint256) pu...\n      REVERT \t\t\tmapping(address => uint256) pu...\n    tag 102\t\t\tmapping(address => uint256) pu...\n      JUMPDEST \t\t\tmapping(address => uint256) pu...\n      POP \t\t\tmapping(address => uint256) pu...\n      PUSH [tag] 103\t\t\tmapping(address => uint256) pu...\n      PUSH 4\t\t\tmapping(address => uint256) pu...\n      DUP1 \t\t\tmapping(address => uint256) pu...\n      CALLDATASIZE \t\t\tmapping(address => uint256) pu...\n      SUB \t\t\tmapping(address => uint256) pu...\n      DUP2 \t\t\tmapping(address => uint256) pu...\n      ADD \t\t\tmapping(address => uint256) pu...\n      SWAP1 \t\t\tmapping(address => uint256) pu...\n      PUSH [tag] 104\t\t\tmapping(address => uint256) pu...\n      SWAP2 \t\t\tmapping(address => uint256) pu...\n      SWAP1 \t\t\tmapping(address => uint256) pu...\n      PUSH [tag] 58\t\t\tmapping(address => uint256) pu...\n      JUMP \t\t\tmapping(address => uint256) pu...\n    tag 104\t\t\tmapping(address => uint256) pu...\n      JUMPDEST \t\t\tmapping(address => uint256) pu...\n      PUSH [tag] 105\t\t\tmapping(address => uint256) pu...\n      JUMP \t\t\tmapping(address => uint256) pu...\n    tag 103\t\t\tmapping(address => uint256) pu...\n      JUMPDEST \t\t\tmapping(address => uint256) pu...\n      PUSH 40\t\t\tmapping(address => uint256) pu...\n      MLOAD \t\t\tmapping(address => uint256) pu...\n      PUSH [tag] 106\t\t\tmapping(address => uint256) pu...\n      SWAP2 \t\t\tmapping(address => uint256) pu...\n      SWAP1 \t\t\tmapping(address => uint256) pu...\n      PUSH [tag] 42\t\t\tmapping(address => uint256) pu...\n      JUMP \t\t\tmapping(address => uint256) pu...\n    tag 106\t\t\tmapping(address => uint256) pu...\n      JUMPDEST \t\t\tmapping(address => uint256) pu...\n      PUSH 40\t\t\tmapping(address => uint256) pu...\n      MLOAD \t\t\tmapping(address => uint256) pu...\n      DUP1 \t\t\tmapping(address => uint256) pu...\n      SWAP2 \t\t\tmapping(address => uint256) pu...\n      SUB \t\t\tmapping(address => uint256) pu...\n      SWAP1 \t\t\tmapping(address => uint256) pu...\n      RETURN \t\t\tmapping(address => uint256) pu...\n    tag 18\t\t\tunction decodeSetCooldownParam...\n      JUMPDEST \t\t\tunction decodeSetCooldownParam...\n      CALLVALUE \t\t\tunction decodeSetCooldownParam...\n      DUP1 \t\t\tunction decodeSetCooldownParam...\n      ISZERO \t\t\tunction decodeSetCooldownParam...\n      PUSH [tag] 107\t\t\tunction decodeSetCooldownParam...\n      JUMPI \t\t\tunction decodeSetCooldownParam...\n      PUSH 0\t\t\tunction decodeSetCooldownParam...\n      DUP1 \t\t\tunction decodeSetCooldownParam...\n      REVERT \t\t\tunction decodeSetCooldownParam...\n    tag 107\t\t\tunction decodeSetCooldownParam...\n      JUMPDEST \t\t\tunction decodeSetCooldownParam...\n      POP \t\t\tunction decodeSetCooldownParam...\n      PUSH [tag] 108\t\t\tunction decodeSetCooldownParam...\n      PUSH 4\t\t\tunction decodeSetCooldownParam...\n      DUP1 \t\t\tunction decodeSetCooldownParam...\n      CALLDATASIZE \t\t\tunction decodeSetCooldownParam...\n      SUB \t\t\tunction decodeSetCooldownParam...\n      DUP2 \t\t\tunction decodeSetCooldownParam...\n      ADD \t\t\tunction decodeSetCooldownParam...\n      SWAP1 \t\t\tunction decodeSetCooldownParam...\n      PUSH [tag] 109\t\t\tunction decodeSetCooldownParam...\n      SWAP2 \t\t\tunction decodeSetCooldownParam...\n      SWAP1 \t\t\tunction decodeSetCooldownParam...\n      PUSH [tag] 110\t\t\tunction decodeSetCooldownParam...\n      JUMP \t\t\tunction decodeSetCooldownParam...\n    tag 109\t\t\tunction decodeSetCooldownParam...\n      JUMPDEST \t\t\tunction decodeSetCooldownParam...\n      PUSH [tag] 111\t\t\tunction decodeSetCooldownParam...\n      JUMP \t\t\tunction decodeSetCooldownParam...\n    tag 108\t\t\tunction decodeSetCooldownParam...\n      JUMPDEST \t\t\tunction decodeSetCooldownParam...\n      PUSH 40\t\t\tunction decodeSetCooldownParam...\n      MLOAD \t\t\tunction decodeSetCooldownParam...\n      PUSH [tag] 112\t\t\tunction decodeSetCooldownParam...\n      SWAP2 \t\t\tunction decodeSetCooldownParam...\n      SWAP1 \t\t\tunction decodeSetCooldownParam...\n      PUSH [tag] 42\t\t\tunction decodeSetCooldownParam...\n      JUMP \t\t\tunction decodeSetCooldownParam...\n    tag 112\t\t\tunction decodeSetCooldownParam...\n      JUMPDEST \t\t\tunction decodeSetCooldownParam...\n      PUSH 40\t\t\tunction decodeSetCooldownParam...\n      MLOAD \t\t\tunction decodeSetCooldownParam...\n      DUP1 \t\t\tunction decodeSetCooldownParam...\n      SWAP2 \t\t\tunction decodeSetCooldownParam...\n      SUB \t\t\tunction decodeSetCooldownParam...\n      SWAP1 \t\t\tunction decodeSetCooldownParam...\n      RETURN \t\t\tunction decodeSetCooldownParam...\n    tag 19\t\t\tunction decodePressParams(byte...\n      JUMPDEST \t\t\tunction decodePressParams(byte...\n      CALLVALUE \t\t\tunction decodePressParams(byte...\n      DUP1 \t\t\tunction decodePressParams(byte...\n      ISZERO \t\t\tunction decodePressParams(byte...\n      PUSH [tag] 113\t\t\tunction decodePressParams(byte...\n      JUMPI \t\t\tunction decodePressParams(byte...\n      PUSH 0\t\t\tunction decodePressParams(byte...\n      DUP1 \t\t\tunction decodePressParams(byte...\n      REVERT \t\t\tunction decodePressParams(byte...\n    tag 113\t\t\tunction decodePressParams(byte...\n      JUMPDEST \t\t\tunction decodePressParams(byte...\n      POP \t\t\tunction decodePressParams(byte...\n      PUSH [tag] 114\t\t\tunction decodePressParams(byte...\n      PUSH 4\t\t\tunction decodePressParams(byte...\n      DUP1 \t\t\tunction decodePressParams(byte...\n      CALLDATASIZE \t\t\tunction decodePressParams(byte...\n      SUB \t\t\tunction decodePressParams(byte...\n      DUP2 \t\t\tunction decodePressParams(byte...\n      ADD \t\t\tunction decodePressParams(byte...\n      SWAP1 \t\t\tunction decodePressParams(byte...\n      PUSH [tag] 115\t\t\tunction decodePressParams(byte...\n      SWAP2 \t\t\tunction decodePressParams(byte...\n      SWAP1 \t\t\tunction decodePressParams(byte...\n      PUSH [tag] 110\t\t\tunction decodePressParams(byte...\n      JUMP \t\t\tunction decodePressParams(byte...\n    tag 115\t\t\tunction decodePressParams(byte...\n      JUMPDEST \t\t\tunction decodePressParams(byte...\n      PUSH [tag] 116\t\t\tunction decodePressParams(byte...\n      JUMP \t\t\tunction decodePressParams(byte...\n    tag 114\t\t\tunction decodePressParams(byte...\n      JUMPDEST \t\t\tunction decodePressParams(byte...\n      PUSH 40\t\t\tunction decodePressParams(byte...\n      MLOAD \t\t\tunction decodePressParams(byte...\n      PUSH [tag] 117\t\t\tunction decodePressParams(byte...\n      SWAP2 \t\t\tunction decodePressParams(byte...\n      SWAP1 \t\t\tunction decodePressParams(byte...\n      PUSH [tag] 118\t\t\tunction decodePressParams(byte...\n      JUMP \t\t\tunction decodePressParams(byte...\n    tag 117\t\t\tunction decodePressParams(byte...\n      JUMPDEST \t\t\tunction decodePressParams(byte...\n      PUSH 40\t\t\tunction decodePressParams(byte...\n      MLOAD \t\t\tunction decodePressParams(byte...\n      DUP1 \t\t\tunction decodePressParams(byte...\n      SWAP2 \t\t\tunction decodePressParams(byte...\n      SUB \t\t\tunction decodePressParams(byte...\n      SWAP1 \t\t\tunction decodePressParams(byte...\n      RETURN \t\t\tunction decodePressParams(byte...\n    tag 20\t\t\tfunction press(string calldata...\n      JUMPDEST \t\t\tfunction press(string calldata...\n      PUSH [tag] 119\t\t\tfunction press(string calldata...\n      PUSH 4\t\t\tfunction press(string calldata...\n      DUP1 \t\t\tfunction press(string calldata...\n      CALLDATASIZE \t\t\tfunction press(string calldata...\n      SUB \t\t\tfunction press(string calldata...\n      DUP2 \t\t\tfunction press(string calldata...\n      ADD \t\t\tfunction press(string calldata...\n      SWAP1 \t\t\tfunction press(string calldata...\n      PUSH [tag] 120\t\t\tfunction press(string calldata...\n      SWAP2 \t\t\tfunction press(string calldata...\n      SWAP1 \t\t\tfunction press(string calldata...\n      PUSH [tag] 29\t\t\tfunction press(string calldata...\n      JUMP \t\t\tfunction press(string calldata...\n    tag 120\t\t\tfunction press(string calldata...\n      JUMPDEST \t\t\tfunction press(string calldata...\n      PUSH [tag] 121\t\t\tfunction press(string calldata...\n      JUMP \t\t\tfunction press(string calldata...\n    tag 119\t\t\tfunction press(string calldata...\n      JUMPDEST \t\t\tfunction press(string calldata...\n      STOP \t\t\tfunction press(string calldata...\n    tag 21\t\t\tfunction withdraw(address paya...\n      JUMPDEST \t\t\tfunction withdraw(address paya...\n      CALLVALUE \t\t\tfunction withdraw(address paya...\n      DUP1 \t\t\tfunction withdraw(address paya...\n      ISZERO \t\t\tfunction withdraw(address paya...\n      PUSH [tag] 122\t\t\tfunction withdraw(address paya...\n      JUMPI \t\t\tfunction withdraw(address paya...\n      PUSH 0\t\t\tfunction withdraw(address paya...\n      DUP1 \t\t\tfunction withdraw(address paya...\n      REVERT \t\t\tfunction withdraw(address paya...\n    tag 122\t\t\tfunction withdraw(address paya...\n      JUMPDEST \t\t\tfunction withdraw(address paya...\n      POP \t\t\tfunction withdraw(address paya...\n      PUSH [tag] 123\t\t\tfunction withdraw(address paya...\n      PUSH 4\t\t\tfunction withdraw(address paya...\n      DUP1 \t\t\tfunction withdraw(address paya...\n      CALLDATASIZE \t\t\tfunction withdraw(address paya...\n      SUB \t\t\tfunction withdraw(address paya...\n      DUP2 \t\t\tfunction withdraw(address paya...\n      ADD \t\t\tfunction withdraw(address paya...\n      SWAP1 \t\t\tfunction withdraw(address paya...\n      PUSH [tag] 124\t\t\tfunction withdraw(address paya...\n      SWAP2 \t\t\tfunction withdraw(address paya...\n      SWAP1 \t\t\tfunction withdraw(address paya...\n      PUSH [tag] 125\t\t\tfunction withdraw(address paya...\n      JUMP \t\t\tfunction withdraw(address paya...\n    tag 124\t\t\tfunction withdraw(address paya...\n      JUMPDEST \t\t\tfunction withdraw(address paya...\n      PUSH [tag] 126\t\t\tfunction withdraw(address paya...\n      JUMP \t\t\tfunction withdraw(address paya...\n    tag 123\t\t\tfunction withdraw(address paya...\n      JUMPDEST \t\t\tfunction withdraw(address paya...\n      STOP \t\t\tfunction withdraw(address paya...\n    tag 22\t\t\tunction decodeWithdrawParams(b...\n      JUMPDEST \t\t\tunction decodeWithdrawParams(b...\n      CALLVALUE \t\t\tunction decodeWithdrawParams(b...\n      DUP1 \t\t\tunction decodeWithdrawParams(b...\n      ISZERO \t\t\tunction decodeWithdrawParams(b...\n      PUSH [tag] 127\t\t\tunction decodeWithdrawParams(b...\n      JUMPI \t\t\tunction decodeWithdrawParams(b...\n      PUSH 0\t\t\tunction decodeWithdrawParams(b...\n      DUP1 \t\t\tunction decodeWithdrawParams(b...\n      REVERT \t\t\tunction decodeWithdrawParams(b...\n    tag 127\t\t\tunction decodeWithdrawParams(b...\n      JUMPDEST \t\t\tunction decodeWithdrawParams(b...\n      POP \t\t\tunction decodeWithdrawParams(b...\n      PUSH [tag] 128\t\t\tunction decodeWithdrawParams(b...\n      PUSH 4\t\t\tunction decodeWithdrawParams(b...\n      DUP1 \t\t\tunction decodeWithdrawParams(b...\n      CALLDATASIZE \t\t\tunction decodeWithdrawParams(b...\n      SUB \t\t\tunction decodeWithdrawParams(b...\n      DUP2 \t\t\tunction decodeWithdrawParams(b...\n      ADD \t\t\tunction decodeWithdrawParams(b...\n      SWAP1 \t\t\tunction decodeWithdrawParams(b...\n      PUSH [tag] 129\t\t\tunction decodeWithdrawParams(b...\n      SWAP2 \t\t\tunction decodeWithdrawParams(b...\n      SWAP1 \t\t\tunction decodeWithdrawParams(b...\n      PUSH [tag] 110\t\t\tunction decodeWithdrawParams(b...\n      JUMP \t\t\tunction decodeWithdrawParams(b...\n    tag 129\t\t\tunction decodeWithdrawParams(b...\n      JUMPDEST \t\t\tunction decodeWithdrawParams(b...\n      PUSH [tag] 130\t\t\tunction decodeWithdrawParams(b...\n      JUMP \t\t\tunction decodeWithdrawParams(b...\n    tag 128\t\t\tunction decodeWithdrawParams(b...\n      JUMPDEST \t\t\tunction decodeWithdrawParams(b...\n      PUSH 40\t\t\tunction decodeWithdrawParams(b...\n      MLOAD \t\t\tunction decodeWithdrawParams(b...\n      PUSH [tag] 131\t\t\tunction decodeWithdrawParams(b...\n      SWAP3 \t\t\tunction decodeWithdrawParams(b...\n      SWAP2 \t\t\tunction decodeWithdrawParams(b...\n      SWAP1 \t\t\tunction decodeWithdrawParams(b...\n      PUSH [tag] 132\t\t\tunction decodeWithdrawParams(b...\n      JUMP \t\t\tunction decodeWithdrawParams(b...\n    tag 131\t\t\tunction decodeWithdrawParams(b...\n      JUMPDEST \t\t\tunction decodeWithdrawParams(b...\n      PUSH 40\t\t\tunction decodeWithdrawParams(b...\n      MLOAD \t\t\tunction decodeWithdrawParams(b...\n      DUP1 \t\t\tunction decodeWithdrawParams(b...\n      SWAP2 \t\t\tunction decodeWithdrawParams(b...\n      SUB \t\t\tunction decodeWithdrawParams(b...\n      SWAP1 \t\t\tunction decodeWithdrawParams(b...\n      RETURN \t\t\tunction decodeWithdrawParams(b...\n    tag 30\t\t\tfunction calldataPress(string ...\n      JUMPDEST \t\t\tfunction calldataPress(string ...\n      PUSH 60\t\t\tbytes memory\n      PUSH E72D5E5F\t\t\tthis.press.selector\n      PUSH E0\t\t\tthis.press.selector\n      SHL \t\t\tthis.press.selector\n      DUP4 \t\t\tmessage_\n      DUP4 \t\t\tmessage_\n      PUSH 40\t\t\tabi.encodeWithSelector(this.pr...\n      MLOAD \t\t\tabi.encodeWithSelector(this.pr...\n      PUSH 24\t\t\tabi.encodeWithSelector(this.pr...\n      ADD \t\t\tabi.encodeWithSelector(this.pr...\n      PUSH [tag] 134\t\t\tabi.encodeWithSelector(this.pr...\n      SWAP3 \t\t\tabi.encodeWithSelector(this.pr...\n      SWAP2 \t\t\tabi.encodeWithSelector(this.pr...\n      SWAP1 \t\t\tabi.encodeWithSelector(this.pr...\n      PUSH [tag] 135\t\t\tabi.encodeWithSelector(this.pr...\n      JUMP \t\t\tabi.encodeWithSelector(this.pr...\n    tag 134\t\t\tabi.encodeWithSelector(this.pr...\n      JUMPDEST \t\t\tabi.encodeWithSelector(this.pr...\n      PUSH 40\t\t\tabi.encodeWithSelector(this.pr...\n      MLOAD \t\t\tabi.encodeWithSelector(this.pr...\n      PUSH 20\t\t\tabi.encodeWithSelector(this.pr...\n      DUP2 \t\t\tabi.encodeWithSelector(this.pr...\n      DUP4 \t\t\tabi.encodeWithSelector(this.pr...\n      SUB \t\t\tabi.encodeWithSelector(this.pr...\n      SUB \t\t\tabi.encodeWithSelector(this.pr...\n      DUP2 \t\t\tabi.encodeWithSelector(this.pr...\n      MSTORE \t\t\tabi.encodeWithSelector(this.pr...\n      SWAP1 \t\t\tabi.encodeWithSelector(this.pr...\n      PUSH 40\t\t\tabi.encodeWithSelector(this.pr...\n      MSTORE \t\t\tabi.encodeWithSelector(this.pr...\n      SWAP1 \t\t\tabi.encodeWithSelector(this.pr...\n      PUSH FFFFFFFFFFFFFFFFFFFFFFFFFFFFFFFFFFFFFFFFFFFFFFFFFFFFFFFF\t\t\tabi.encodeWithSelector(this.pr...\n      NOT \t\t\tabi.encodeWithSelector(this.pr...\n      AND \t\t\tabi.encodeWithSelector(this.pr...\n      PUSH 20\t\t\tabi.encodeWithSelector(this.pr...\n      DUP3 \t\t\tabi.encodeWithSelector(this.pr...\n      ADD \t\t\tabi.encodeWithSelector(this.pr...\n      DUP1 \t\t\tabi.encodeWithSelector(this.pr...\n      MLOAD \t\t\tabi.encodeWithSelector(this.pr...\n      PUSH FFFFFFFFFFFFFFFFFFFFFFFFFFFFFFFFFFFFFFFFFFFFFFFFFFFFFFFF\t\t\tabi.encodeWithSelector(this.pr...\n      DUP4 \t\t\tabi.encodeWithSelector(this.pr...\n      DUP2 \t\t\tabi.encodeWithSelector(this.pr...\n      DUP4 \t\t\tabi.encodeWithSelector(this.pr...\n      AND \t\t\tabi.encodeWithSelector(this.pr...\n      OR \t\t\tabi.encodeWithSelector(this.pr...\n      DUP4 \t\t\tabi.encodeWithSelector(this.pr...\n      MSTORE \t\t\tabi.encodeWithSelector(this.pr...\n      POP \t\t\tabi.encodeWithSelector(this.pr...\n      POP \t\t\tabi.encodeWithSelector(this.pr...\n      POP \t\t\tabi.encodeWithSelector(this.pr...\n      POP \t\t\tabi.encodeWithSelector(this.pr...\n      SWAP1 \t\t\treturn abi.encodeWithSelector(...\n      POP \t\t\treturn abi.encodeWithSelector(...\n      SWAP3 \t\t\tfunction calldataPress(string ...\n      SWAP2 \t\t\tfunction calldataPress(string ...\n      POP \t\t\tfunction calldataPress(string ...\n      POP \t\t\tfunction calldataPress(string ...\n      JUMP \t\t\tfunction calldataPress(string ...\n    tag 35\t\t\tfunction selectorWithdraw() ex...\n      JUMPDEST \t\t\tfunction selectorWithdraw() ex...\n      PUSH 0\t\t\tbytes4\n      PUSH F3FEF3A3\t\t\tthis.withdraw.selector\n      PUSH E0\t\t\tthis.withdraw.selector\n      SHL \t\t\tthis.withdraw.selector\n      SWAP1 \t\t\treturn this.withdraw.selector\n      POP \t\t\treturn this.withdraw.selector\n      SWAP1 \t\t\tfunction selectorWithdraw() ex...\n      JUMP \t\t\tfunction selectorWithdraw() ex...\n    tag 40\t\t\tuint256 public totalPresses\n      JUMPDEST \t\t\tuint256 public totalPresses\n      PUSH 1\t\t\tuint256 public totalPresses\n      SLOAD \t\t\tuint256 public totalPresses\n      DUP2 \t\t\tuint256 public totalPresses\n      JUMP \t\t\tuint256 public totalPresses\n    tag 47\t\t\tunction makeCalldata(string ca...\n      JUMPDEST \t\t\tunction makeCalldata(string ca...\n      PUSH 60\t\t\tytes memory)\n      PUSH 0\t\t\tytes4 sel \n      DUP6 \t\t\tignature)\n      DUP6 \t\t\tignature)\n      PUSH 40\t\t\teccak256(bytes(signature)))\n      MLOAD \t\t\teccak256(bytes(signature)))\n      PUSH [tag] 138\t\t\teccak256(bytes(signature)))\n      SWAP3 \t\t\teccak256(bytes(signature)))\n      SWAP2 \t\t\teccak256(bytes(signature)))\n      SWAP1 \t\t\teccak256(bytes(signature)))\n      PUSH [tag] 139\t\t\teccak256(bytes(signature)))\n      JUMP \t\t\teccak256(bytes(signature)))\n    tag 138\t\t\teccak256(bytes(signature)))\n      JUMPDEST \t\t\teccak256(bytes(signature)))\n      PUSH 40\t\t\teccak256(bytes(signature)))\n      MLOAD \t\t\teccak256(bytes(signature)))\n      DUP1 \t\t\teccak256(bytes(signature)))\n      SWAP2 \t\t\teccak256(bytes(signature)))\n      SUB \t\t\teccak256(bytes(signature)))\n      SWAP1 \t\t\teccak256(bytes(signature)))\n      KECCAK256 \t\t\teccak256(bytes(signature)))\n      SWAP1 \t\t\tytes4 sel = bytes4(keccak256(b...\n      POP \t\t\tytes4 sel = bytes4(keccak256(b...\n      DUP1 \t\t\tel,\n      DUP5 \t\t\tncodedParams)\n      DUP5 \t\t\tncodedParams)\n      PUSH 40\t\t\tytes.concat(sel, encodedParams...\n      MLOAD \t\t\tytes.concat(sel, encodedParams...\n      PUSH 20\t\t\tytes.concat(sel, encodedParams...\n      ADD \t\t\tytes.concat(sel, encodedParams...\n      PUSH [tag] 140\t\t\tytes.concat(sel, encodedParams...\n      SWAP4 \t\t\tytes.concat(sel, encodedParams...\n      SWAP3 \t\t\tytes.concat(sel, encodedParams...\n      SWAP2 \t\t\tytes.concat(sel, encodedParams...\n      SWAP1 \t\t\tytes.concat(sel, encodedParams...\n      PUSH [tag] 141\t\t\tytes.concat(sel, encodedParams...\n      JUMP \t\t\tytes.concat(sel, encodedParams...\n    tag 140\t\t\tytes.concat(sel, encodedParams...\n      JUMPDEST \t\t\tytes.concat(sel, encodedParams...\n      PUSH 40\t\t\tytes.concat(sel, encodedParams...\n      MLOAD \t\t\tytes.concat(sel, encodedParams...\n      PUSH 20\t\t\tytes.concat(sel, encodedParams...\n      DUP2 \t\t\tytes.concat(sel, encodedParams...\n      DUP4 \t\t\tytes.concat(sel, encodedParams...\n      SUB \t\t\tytes.concat(sel, encodedParams...\n      SUB \t\t\tytes.concat(sel, encodedParams...\n      DUP2 \t\t\tytes.concat(sel, encodedParams...\n      MSTORE \t\t\tytes.concat(sel, encodedParams...\n      SWAP1 \t\t\tytes.concat(sel, encodedParams...\n      PUSH 40\t\t\tytes.concat(sel, encodedParams...\n      MSTORE \t\t\tytes.concat(sel, encodedParams...\n      SWAP2 \t\t\teturn bytes.concat(sel, encode...\n      POP \t\t\teturn bytes.concat(sel, encode...\n      POP \t\t\teturn bytes.concat(sel, encode...\n      SWAP5 \t\t\tunction makeCalldata(string ca...\n      SWAP4 \t\t\tunction makeCalldata(string ca...\n      POP \t\t\tunction makeCalldata(string ca...\n      POP \t\t\tunction makeCalldata(string ca...\n      POP \t\t\tunction makeCalldata(string ca...\n      POP \t\t\tunction makeCalldata(string ca...\n      JUMP \t\t\tunction makeCalldata(string ca...\n    tag 53\t\t\tfunction calldataSetCooldown(u...\n      JUMPDEST \t\t\tfunction calldataSetCooldown(u...\n      PUSH 60\t\t\tbytes memory\n      PUSH 4FC3F41A\t\t\tthis.setCooldown.selector\n      PUSH E0\t\t\tthis.setCooldown.selector\n      SHL \t\t\tthis.setCooldown.selector\n      DUP3 \t\t\tseconds_\n      PUSH 40\t\t\tabi.encodeWithSelector(this.se...\n      MLOAD \t\t\tabi.encodeWithSelector(this.se...\n      PUSH 24\t\t\tabi.encodeWithSelector(this.se...\n      ADD \t\t\tabi.encodeWithSelector(this.se...\n      PUSH [tag] 143\t\t\tabi.encodeWithSelector(this.se...\n      SWAP2 \t\t\tabi.encodeWithSelector(this.se...\n      SWAP1 \t\t\tabi.encodeWithSelector(this.se...\n      PUSH [tag] 42\t\t\tabi.encodeWithSelector(this.se...\n      JUMP \t\t\tabi.encodeWithSelector(this.se...\n    tag 143\t\t\tabi.encodeWithSelector(this.se...\n      JUMPDEST \t\t\tabi.encodeWithSelector(this.se...\n      PUSH 40\t\t\tabi.encodeWithSelector(this.se...\n      MLOAD \t\t\tabi.encodeWithSelector(this.se...\n      PUSH 20\t\t\tabi.encodeWithSelector(this.se...\n      DUP2 \t\t\tabi.encodeWithSelector(this.se...\n      DUP4 \t\t\tabi.encodeWithSelector(this.se...\n      SUB \t\t\tabi.encodeWithSelector(this.se...\n      SUB \t\t\tabi.encodeWithSelector(this.se...\n      DUP2 \t\t\tabi.encodeWithSelector(this.se...\n      MSTORE \t\t\tabi.encodeWithSelector(this.se...\n      SWAP1 \t\t\tabi.encodeWithSelector(this.se...\n      PUSH 40\t\t\tabi.encodeWithSelector(this.se...\n      MSTORE \t\t\tabi.encodeWithSelector(this.se...\n      SWAP1 \t\t\tabi.encodeWithSelector(this.se...\n      PUSH FFFFFFFFFFFFFFFFFFFFFFFFFFFFFFFFFFFFFFFFFFFFFFFFFFFFFFFF\t\t\tabi.encodeWithSelector(this.se...\n      NOT \t\t\tabi.encodeWithSelector(this.se...\n      AND \t\t\tabi.encodeWithSelector(this.se...\n      PUSH 20\t\t\tabi.encodeWithSelector(this.se...\n      DUP3 \t\t\tabi.encodeWithSelector(this.se...\n      ADD \t\t\tabi.encodeWithSelector(this.se...\n      DUP1 \t\t\tabi.encodeWithSelector(this.se...\n      MLOAD \t\t\tabi.encodeWithSelector(this.se...\n      PUSH FFFFFFFFFFFFFFFFFFFFFFFFFFFFFFFFFFFFFFFFFFFFFFFFFFFFFFFF\t\t\tabi.encodeWithSelector(this.se...\n      DUP4 \t\t\tabi.encodeWithSelector(this.se...\n      DUP2 \t\t\tabi.encodeWithSelector(this.se...\n      DUP4 \t\t\tabi.encodeWithSelector(this.se...\n      AND \t\t\tabi.encodeWithSelector(this.se...\n      OR \t\t\tabi.encodeWithSelector(this.se...\n      DUP4 \t\t\tabi.encodeWithSelector(this.se...\n      MSTORE \t\t\tabi.encodeWithSelector(this.se...\n      POP \t\t\tabi.encodeWithSelector(this.se...\n      POP \t\t\tabi.encodeWithSelector(this.se...\n      POP \t\t\tabi.encodeWithSelector(this.se...\n      POP \t\t\tabi.encodeWithSelector(this.se...\n      SWAP1 \t\t\treturn abi.encodeWithSelector(...\n      POP \t\t\treturn abi.encodeWithSelector(...\n      SWAP2 \t\t\tfunction calldataSetCooldown(u...\n      SWAP1 \t\t\tfunction calldataSetCooldown(u...\n      POP \t\t\tfunction calldataSetCooldown(u...\n      JUMP \t\t\tfunction calldataSetCooldown(u...\n    tag 59\t\t\tmapping(address => uint256) pu...\n      JUMPDEST \t\t\tmapping(address => uint256) pu...\n      PUSH 4\t\t\tmapping(address => uint256) pu...\n      PUSH 20\t\t\tmapping(address => uint256) pu...\n      MSTORE \t\t\tmapping(address => uint256) pu...\n      DUP1 \t\t\tmapping(address => uint256) pu...\n      PUSH 0\t\t\tmapping(address => uint256) pu...\n      MSTORE \t\t\tmapping(address => uint256) pu...\n      PUSH 40\t\t\tmapping(address => uint256) pu...\n      PUSH 0\t\t\tmapping(address => uint256) pu...\n      KECCAK256 \t\t\tmapping(address => uint256) pu...\n      PUSH 0\t\t\tmapping(address => uint256) pu...\n      SWAP2 \t\t\tmapping(address => uint256) pu...\n      POP \t\t\tmapping(address => uint256) pu...\n      SWAP1 \t\t\tmapping(address => uint256) pu...\n      POP \t\t\tmapping(address => uint256) pu...\n      SLOAD \t\t\tmapping(address => uint256) pu...\n      DUP2 \t\t\tmapping(address => uint256) pu...\n      JUMP \t\t\tmapping(address => uint256) pu...\n    tag 63\t\t\tfunction selectorSetCooldown()...\n      JUMPDEST \t\t\tfunction selectorSetCooldown()...\n      PUSH 0\t\t\tbytes4\n      PUSH 4FC3F41A\t\t\tthis.setCooldown.selector\n      PUSH E0\t\t\tthis.setCooldown.selector\n      SHL \t\t\tthis.setCooldown.selector\n      SWAP1 \t\t\treturn this.setCooldown.select...\n      POP \t\t\treturn this.setCooldown.select...\n      SWAP1 \t\t\tfunction selectorSetCooldown()...\n      JUMP \t\t\tfunction selectorSetCooldown()...\n    tag 68\t\t\tfunction setCooldown(uint256 s...\n      JUMPDEST \t\t\tfunction setCooldown(uint256 s...\n      PUSH 0\t\t\towner\n      DUP1 \t\t\towner\n      SLOAD \t\t\towner\n      SWAP1 \t\t\towner\n      PUSH 100\t\t\towner\n      EXP \t\t\towner\n      SWAP1 \t\t\towner\n      DIV \t\t\towner\n      PUSH FFFFFFFFFFFFFFFFFFFFFFFFFFFFFFFFFFFFFFFF\t\t\towner\n      AND \t\t\towner\n      PUSH FFFFFFFFFFFFFFFFFFFFFFFFFFFFFFFFFFFFFFFF\t\t\tmsg.sender == owner\n      AND \t\t\tmsg.sender == owner\n      CALLER \t\t\tmsg.sender\n      PUSH FFFFFFFFFFFFFFFFFFFFFFFFFFFFFFFFFFFFFFFF\t\t\tmsg.sender == owner\n      AND \t\t\tmsg.sender == owner\n      EQ \t\t\tmsg.sender == owner\n      PUSH [tag] 146\t\t\trequire(msg.sender == owner, \"...\n      JUMPI \t\t\trequire(msg.sender == owner, \"...\n      PUSH 40\t\t\trequire(msg.sender == owner, \"...\n      MLOAD \t\t\trequire(msg.sender == owner, \"...\n      PUSH 8C379A000000000000000000000000000000000000000000000000000000000\t\t\trequire(msg.sender == owner, \"...\n      DUP2 \t\t\trequire(msg.sender == owner, \"...\n      MSTORE \t\t\trequire(msg.sender == owner, \"...\n      PUSH 4\t\t\trequire(msg.sender == owner, \"...\n      ADD \t\t\trequire(msg.sender == owner, \"...\n      PUSH [tag] 147\t\t\trequire(msg.sender == owner, \"...\n      SWAP1 \t\t\trequire(msg.sender == owner, \"...\n      PUSH [tag] 148\t\t\trequire(msg.sender == owner, \"...\n      JUMP \t\t\trequire(msg.sender == owner, \"...\n    tag 147\t\t\trequire(msg.sender == owner, \"...\n      JUMPDEST \t\t\trequire(msg.sender == owner, \"...\n      PUSH 40\t\t\trequire(msg.sender == owner, \"...\n      MLOAD \t\t\trequire(msg.sender == owner, \"...\n      DUP1 \t\t\trequire(msg.sender == owner, \"...\n      SWAP2 \t\t\trequire(msg.sender == owner, \"...\n      SUB \t\t\trequire(msg.sender == owner, \"...\n      SWAP1 \t\t\trequire(msg.sender == owner, \"...\n      REVERT \t\t\trequire(msg.sender == owner, \"...\n    tag 146\t\t\trequire(msg.sender == owner, \"...\n      JUMPDEST \t\t\trequire(msg.sender == owner, \"...\n      PUSH E10\t\t\t3600\n      DUP2 \t\t\tseconds_\n      GT \t\t\tseconds_ <= 3600\n      ISZERO \t\t\tseconds_ <= 3600\n      PUSH [tag] 150\t\t\trequire(seconds_ <= 3600, \"Coo...\n      JUMPI \t\t\trequire(seconds_ <= 3600, \"Coo...\n      PUSH 40\t\t\trequire(seconds_ <= 3600, \"Coo...\n      MLOAD \t\t\trequire(seconds_ <= 3600, \"Coo...\n      PUSH 8C379A000000000000000000000000000000000000000000000000000000000\t\t\trequire(seconds_ <= 3600, \"Coo...\n      DUP2 \t\t\trequire(seconds_ <= 3600, \"Coo...\n      MSTORE \t\t\trequire(seconds_ <= 3600, \"Coo...\n      PUSH 4\t\t\trequire(seconds_ <= 3600, \"Coo...\n      ADD \t\t\trequire(seconds_ <= 3600, \"Coo...\n      PUSH [tag] 151\t\t\trequire(seconds_ <= 3600, \"Coo...\n      SWAP1 \t\t\trequire(seconds_ <= 3600, \"Coo...\n      PUSH [tag] 152\t\t\trequire(seconds_ <= 3600, \"Coo...\n      JUMP \t\t\trequire(seconds_ <= 3600, \"Coo...\n    tag 151\t\t\trequire(seconds_ <= 3600, \"Coo...\n      JUMPDEST \t\t\trequire(seconds_ <= 3600, \"Coo...\n      PUSH 40\t\t\trequire(seconds_ <= 3600, \"Coo...\n      MLOAD \t\t\trequire(seconds_ <= 3600, \"Coo...\n      DUP1 \t\t\trequire(seconds_ <= 3600, \"Coo...\n      SWAP2 \t\t\trequire(seconds_ <= 3600, \"Coo...\n      SUB \t\t\trequire(seconds_ <= 3600, \"Coo...\n      SWAP1 \t\t\trequire(seconds_ <= 3600, \"Coo...\n      REVERT \t\t\trequire(seconds_ <= 3600, \"Coo...\n    tag 150\t\t\trequire(seconds_ <= 3600, \"Coo...\n      JUMPDEST \t\t\trequire(seconds_ <= 3600, \"Coo...\n      DUP1 \t\t\tseconds_\n      PUSH 2\t\t\tcooldownSeconds\n      DUP2 \t\t\tcooldownSeconds = seconds_\n      SWAP1 \t\t\tcooldownSeconds = seconds_\n      SSTORE \t\t\tcooldownSeconds = seconds_\n      POP \t\t\tcooldownSeconds = seconds_\n      POP \t\t\tfunction setCooldown(uint256 s...\n      JUMP \t\t\tfunction setCooldown(uint256 s...\n    tag 71\t\t\tfunction tipsBalance() externa...\n      JUMPDEST \t\t\tfunction tipsBalance() externa...\n      PUSH 0\t\t\tuint256\n      SELFBALANCE \t\t\taddress(this).balance\n      SWAP1 \t\t\treturn address(this).balance\n      POP \t\t\treturn address(this).balance\n      SWAP1 \t\t\tfunction tipsBalance() externa...\n      JUMP \t\t\tfunction tipsBalance() externa...\n    tag 75\t\t\tfunction selectorPress() exter...\n      JUMPDEST \t\t\tfunction selectorPress() exter...\n      PUSH 0\t\t\tbytes4\n      PUSH E72D5E5F\t\t\tthis.press.selector\n      PUSH E0\t\t\tthis.press.selector\n      SHL \t\t\tthis.press.selector\n      SWAP1 \t\t\treturn this.press.selector\n      POP \t\t\treturn this.press.selector\n      SWAP1 \t\t\tfunction selectorPress() exter...\n      JUMP \t\t\tfunction selectorPress() exter...\n    tag 79\t\t\taddress public owner\n      JUMPDEST \t\t\taddress public owner\n      PUSH 0\t\t\taddress public owner\n      DUP1 \t\t\taddress public owner\n      SLOAD \t\t\taddress public owner\n      SWAP1 \t\t\taddress public owner\n      PUSH 100\t\t\taddress public owner\n      EXP \t\t\taddress public owner\n      SWAP1 \t\t\taddress public owner\n      DIV \t\t\taddress public owner\n      PUSH FFFFFFFFFFFFFFFFFFFFFFFFFFFFFFFFFFFFFFFF\t\t\taddress public owner\n      AND \t\t\taddress public owner\n      DUP2 \t\t\taddress public owner\n      JUMP \t\t\taddress public owner\n    tag 86\t\t\tfunction calldataWithdraw(addr...\n      JUMPDEST \t\t\tfunction calldataWithdraw(addr...\n      PUSH 60\t\t\tbytes memory\n      PUSH F3FEF3A3\t\t\tthis.withdraw.selector\n      PUSH E0\t\t\tthis.withdraw.selector\n      SHL \t\t\tthis.withdraw.selector\n      DUP4 \t\t\tto\n      DUP4 \t\t\tamount\n      PUSH 40\t\t\tabi.encodeWithSelector(this.wi...\n      MLOAD \t\t\tabi.encodeWithSelector(this.wi...\n      PUSH 24\t\t\tabi.encodeWithSelector(this.wi...\n      ADD \t\t\tabi.encodeWithSelector(this.wi...\n      PUSH [tag] 156\t\t\tabi.encodeWithSelector(this.wi...\n      SWAP3 \t\t\tabi.encodeWithSelector(this.wi...\n      SWAP2 \t\t\tabi.encodeWithSelector(this.wi...\n      SWAP1 \t\t\tabi.encodeWithSelector(this.wi...\n      PUSH [tag] 132\t\t\tabi.encodeWithSelector(this.wi...\n      JUMP \t\t\tabi.encodeWithSelector(this.wi...\n    tag 156\t\t\tabi.encodeWithSelector(this.wi...\n      JUMPDEST \t\t\tabi.encodeWithSelector(this.wi...\n      PUSH 40\t\t\tabi.encodeWithSelector(this.wi...\n      MLOAD \t\t\tabi.encodeWithSelector(this.wi...\n      PUSH 20\t\t\tabi.encodeWithSelector(this.wi...\n      DUP2 \t\t\tabi.encodeWithSelector(this.wi...\n      DUP4 \t\t\tabi.encodeWithSelector(this.wi...\n      SUB \t\t\tabi.encodeWithSelector(this.wi...\n      SUB \t\t\tabi.encodeWithSelector(this.wi...\n      DUP2 \t\t\tabi.encodeWithSelector(this.wi...\n      MSTORE \t\t\tabi.encodeWithSelector(this.wi...\n      SWAP1 \t\t\tabi.encodeWithSelector(this.wi...\n      PUSH 40\t\t\tabi.encodeWithSelector(this.wi...\n      MSTORE \t\t\tabi.encodeWithSelector(this.wi...\n      SWAP1 \t\t\tabi.encodeWithSelector(this.wi...\n      PUSH FFFFFFFFFFFFFFFFFFFFFFFFFFFFFFFFFFFFFFFFFFFFFFFFFFFFFFFF\t\t\tabi.encodeWithSelector(this.wi...\n      NOT \t\t\tabi.encodeWithSelector(this.wi...\n      AND \t\t\tabi.encodeWithSelector(this.wi...\n      PUSH 20\t\t\tabi.encodeWithSelector(this.wi...\n      DUP3 \t\t\tabi.encodeWithSelector(this.wi...\n      ADD \t\t\tabi.encodeWithSelector(this.wi...\n      DUP1 \t\t\tabi.encodeWithSelector(this.wi...\n      MLOAD \t\t\tabi.encodeWithSelector(this.wi...\n      PUSH FFFFFFFFFFFFFFFFFFFFFFFFFFFFFFFFFFFFFFFFFFFFFFFFFFFFFFFF\t\t\tabi.encodeWithSelector(this.wi...\n      DUP4 \t\t\tabi.encodeWithSelector(this.wi...\n      DUP2 \t\t\tabi.encodeWithSelector(this.wi...\n      DUP4 \t\t\tabi.encodeWithSelector(this.wi...\n      AND \t\t\tabi.encodeWithSelector(this.wi...\n      OR \t\t\tabi.encodeWithSelector(this.wi...\n      DUP4 \t\t\tabi.encodeWithSelector(this.wi...\n      MSTORE \t\t\tabi.encodeWithSelector(this.wi...\n      POP \t\t\tabi.encodeWithSelector(this.wi...\n      POP \t\t\tabi.encodeWithSelector(this.wi...\n      POP \t\t\tabi.encodeWithSelector(this.wi...\n      POP \t\t\tabi.encodeWithSelector(this.wi...\n      SWAP1 \t\t\treturn abi.encodeWithSelector(...\n      POP \t\t\treturn abi.encodeWithSelector(...\n      SWAP3 \t\t\tfunction calldataWithdraw(addr...\n      SWAP2 \t\t\tfunction calldataWithdraw(addr...\n      POP \t\t\tfunction calldataWithdraw(addr...\n      POP \t\t\tfunction calldataWithdraw(addr...\n      JUMP \t\t\tfunction calldataWithdraw(addr...\n    tag 90\t\t\tuint256 public cooldownSeconds...\n      JUMPDEST \t\t\tuint256 public cooldownSeconds...\n      PUSH 2\t\t\tuint256 public cooldownSeconds...\n      SLOAD \t\t\tuint256 public cooldownSeconds...\n      DUP2 \t\t\tuint256 public cooldownSeconds...\n      JUMP \t\t\tuint256 public cooldownSeconds...\n    tag 95\t\t\tfunction selectorOf(string cal...\n      JUMPDEST \t\t\tfunction selectorOf(string cal...\n      PUSH 0\t\t\tbytes4\n      DUP3 \t\t\tsignature\n      DUP3 \t\t\tsignature\n      PUSH 40\t\t\tkeccak256(bytes(signature))\n      MLOAD \t\t\tkeccak256(bytes(signature))\n      PUSH [tag] 158\t\t\tkeccak256(bytes(signature))\n      SWAP3 \t\t\tkeccak256(bytes(signature))\n      SWAP2 \t\t\tkeccak256(bytes(signature))\n      SWAP1 \t\t\tkeccak256(bytes(signature))\n      PUSH [tag] 139\t\t\tkeccak256(bytes(signature))\n      JUMP \t\t\tkeccak256(bytes(signature))\n    tag 158\t\t\tkeccak256(bytes(signature))\n      JUMPDEST \t\t\tkeccak256(bytes(signature))\n      PUSH 40\t\t\tkeccak256(bytes(signature))\n      MLOAD \t\t\tkeccak256(bytes(signature))\n      DUP1 \t\t\tkeccak256(bytes(signature))\n      SWAP2 \t\t\tkeccak256(bytes(signature))\n      SUB \t\t\tkeccak256(bytes(signature))\n      SWAP1 \t\t\tkeccak256(bytes(signature))\n      KECCAK256 \t\t\tkeccak256(bytes(signature))\n      SWAP1 \t\t\treturn bytes4(keccak256(bytes(...\n      POP \t\t\treturn bytes4(keccak256(bytes(...\n      SWAP3 \t\t\tfunction selectorOf(string cal...\n      SWAP2 \t\t\tfunction selectorOf(string cal...\n      POP \t\t\tfunction selectorOf(string cal...\n      POP \t\t\tfunction selectorOf(string cal...\n      JUMP \t\t\tfunction selectorOf(string cal...\n    tag 99\t\t\tunction eventPressedTopic0() e...\n      JUMPDEST \t\t\tunction eventPressedTopic0() e...\n      PUSH 0\t\t\tytes32)\n      PUSH A932E5483A6C4B217A12D84F6F397B68818A21BFA23C1E83C4566267613CCD46\t\t\teccak256(\"Pressed(address,uint...\n      SWAP1 \t\t\teturn keccak256(\"Pressed(addre...\n      POP \t\t\teturn keccak256(\"Pressed(addre...\n      SWAP1 \t\t\tunction eventPressedTopic0() e...\n      JUMP \t\t\tunction eventPressedTopic0() e...\n    tag 105\t\t\tmapping(address => uint256) pu...\n      JUMPDEST \t\t\tmapping(address => uint256) pu...\n      PUSH 3\t\t\tmapping(address => uint256) pu...\n      PUSH 20\t\t\tmapping(address => uint256) pu...\n      MSTORE \t\t\tmapping(address => uint256) pu...\n      DUP1 \t\t\tmapping(address => uint256) pu...\n      PUSH 0\t\t\tmapping(address => uint256) pu...\n      MSTORE \t\t\tmapping(address => uint256) pu...\n      PUSH 40\t\t\tmapping(address => uint256) pu...\n      PUSH 0\t\t\tmapping(address => uint256) pu...\n      KECCAK256 \t\t\tmapping(address => uint256) pu...\n      PUSH 0\t\t\tmapping(address => uint256) pu...\n      SWAP2 \t\t\tmapping(address => uint256) pu...\n      POP \t\t\tmapping(address => uint256) pu...\n      SWAP1 \t\t\tmapping(address => uint256) pu...\n      POP \t\t\tmapping(address => uint256) pu...\n      SLOAD \t\t\tmapping(address => uint256) pu...\n      DUP2 \t\t\tmapping(address => uint256) pu...\n      JUMP \t\t\tmapping(address => uint256) pu...\n    tag 111\t\t\tunction decodeSetCooldownParam...\n      JUMPDEST \t\t\tunction decodeSetCooldownParam...\n      PUSH 0\t\t\tint256 seconds_)\n      PUSH 4\t\t\t,\n      DUP4 \t\t\tata.\n      DUP4 \t\t\tata.\n      SWAP1 \t\t\tata.length \n      POP \t\t\tata.length \n      LT \t\t\tata.length >= 4,\n      ISZERO \t\t\tata.length >= 4,\n      PUSH [tag] 161\t\t\tequire(data.length >= 4, \"Bad ...\n      JUMPI \t\t\tequire(data.length >= 4, \"Bad ...\n      PUSH 40\t\t\tequire(data.length >= 4, \"Bad ...\n      MLOAD \t\t\tequire(data.length >= 4, \"Bad ...\n      PUSH 8C379A000000000000000000000000000000000000000000000000000000000\t\t\tequire(data.length >= 4, \"Bad ...\n      DUP2 \t\t\tequire(data.length >= 4, \"Bad ...\n      MSTORE \t\t\tequire(data.length >= 4, \"Bad ...\n      PUSH 4\t\t\tequire(data.length >= 4, \"Bad ...\n      ADD \t\t\tequire(data.length >= 4, \"Bad ...\n      PUSH [tag] 162\t\t\tequire(data.length >= 4, \"Bad ...\n      SWAP1 \t\t\tequire(data.length >= 4, \"Bad ...\n      PUSH [tag] 163\t\t\tequire(data.length >= 4, \"Bad ...\n      JUMP \t\t\tequire(data.length >= 4, \"Bad ...\n    tag 162\t\t\tequire(data.length >= 4, \"Bad ...\n      JUMPDEST \t\t\tequire(data.length >= 4, \"Bad ...\n      PUSH 40\t\t\tequire(data.length >= 4, \"Bad ...\n      MLOAD \t\t\tequire(data.length >= 4, \"Bad ...\n      DUP1 \t\t\tequire(data.length >= 4, \"Bad ...\n      SWAP2 \t\t\tequire(data.length >= 4, \"Bad ...\n      SUB \t\t\tequire(data.length >= 4, \"Bad ...\n      SWAP1 \t\t\tequire(data.length >= 4, \"Bad ...\n      REVERT \t\t\tequire(data.length >= 4, \"Bad ...\n    tag 161\t\t\tequire(data.length >= 4, \"Bad ...\n      JUMPDEST \t\t\tequire(data.length >= 4, \"Bad ...\n      CALLDATASIZE \t\t\tytes calldata params \n      PUSH 0\t\t\tytes calldata params \n      DUP5 \t\t\tata[\n      DUP5 \t\t\tata[\n      PUSH 4\t\t\t:\n      SWAP1 \t\t\tata[4:];\n      DUP1 \t\t\tata[4:];\n      SWAP3 \t\t\tata[4:];\n      PUSH [tag] 164\t\t\tata[4:];\n      SWAP4 \t\t\tata[4:];\n      SWAP3 \t\t\tata[4:];\n      SWAP2 \t\t\tata[4:];\n      SWAP1 \t\t\tata[4:];\n      PUSH [tag] 165\t\t\tata[4:];\n      JUMP \t\t\tata[4:];\n    tag 164\t\t\tata[4:];\n      JUMPDEST \t\t\tata[4:];\n      SWAP2 \t\t\tytes calldata params = data[4:...\n      POP \t\t\tytes calldata params = data[4:...\n      SWAP2 \t\t\tytes calldata params = data[4:...\n      POP \t\t\tytes calldata params = data[4:...\n      DUP2 \t\t\tarams,\n      DUP2 \t\t\tarams,\n      DUP2 \t\t\tbi.decode(params, (uint256));\n      ADD \t\t\tbi.decode(params, (uint256));\n      SWAP1 \t\t\tbi.decode(params, (uint256));\n      PUSH [tag] 166\t\t\tbi.decode(params, (uint256));\n      SWAP2 \t\t\tbi.decode(params, (uint256));\n      SWAP1 \t\t\tbi.decode(params, (uint256));\n      PUSH [tag] 52\t\t\tbi.decode(params, (uint256));\n      JUMP \t\t\tbi.decode(params, (uint256));\n    tag 166\t\t\tbi.decode(params, (uint256));\n      JUMPDEST \t\t\tbi.decode(params, (uint256));\n      SWAP3 \t\t\tseconds_) = abi.decode(params,...\n      POP \t\t\tseconds_) = abi.decode(params,...\n      POP \t\t\t\\n        require(data.length ...\n      POP \t\t\t\\n        require(data.length ...\n      SWAP3 \t\t\tunction decodeSetCooldownParam...\n      SWAP2 \t\t\tunction decodeSetCooldownParam...\n      POP \t\t\tunction decodeSetCooldownParam...\n      POP \t\t\tunction decodeSetCooldownParam...\n      JUMP \t\t\tunction decodeSetCooldownParam...\n    tag 116\t\t\tunction decodePressParams(byte...\n      JUMPDEST \t\t\tunction decodePressParams(byte...\n      PUSH 60\t\t\ttring memory message_)\n      PUSH 4\t\t\t,\n      DUP4 \t\t\tata.\n      DUP4 \t\t\tata.\n      SWAP1 \t\t\tata.length \n      POP \t\t\tata.length \n      LT \t\t\tata.length >= 4,\n      ISZERO \t\t\tata.length >= 4,\n      PUSH [tag] 168\t\t\tequire(data.length >= 4, \"Bad ...\n      JUMPI \t\t\tequire(data.length >= 4, \"Bad ...\n      PUSH 40\t\t\tequire(data.length >= 4, \"Bad ...\n      MLOAD \t\t\tequire(data.length >= 4, \"Bad ...\n      PUSH 8C379A000000000000000000000000000000000000000000000000000000000\t\t\tequire(data.length >= 4, \"Bad ...\n      DUP2 \t\t\tequire(data.length >= 4, \"Bad ...\n      MSTORE \t\t\tequire(data.length >= 4, \"Bad ...\n      PUSH 4\t\t\tequire(data.length >= 4, \"Bad ...\n      ADD \t\t\tequire(data.length >= 4, \"Bad ...\n      PUSH [tag] 169\t\t\tequire(data.length >= 4, \"Bad ...\n      SWAP1 \t\t\tequire(data.length >= 4, \"Bad ...\n      PUSH [tag] 163\t\t\tequire(data.length >= 4, \"Bad ...\n      JUMP \t\t\tequire(data.length >= 4, \"Bad ...\n    tag 169\t\t\tequire(data.length >= 4, \"Bad ...\n      JUMPDEST \t\t\tequire(data.length >= 4, \"Bad ...\n      PUSH 40\t\t\tequire(data.length >= 4, \"Bad ...\n      MLOAD \t\t\tequire(data.length >= 4, \"Bad ...\n      DUP1 \t\t\tequire(data.length >= 4, \"Bad ...\n      SWAP2 \t\t\tequire(data.length >= 4, \"Bad ...\n      SUB \t\t\tequire(data.length >= 4, \"Bad ...\n      SWAP1 \t\t\tequire(data.length >= 4, \"Bad ...\n      REVERT \t\t\tequire(data.length >= 4, \"Bad ...\n    tag 168\t\t\tequire(data.length >= 4, \"Bad ...\n      JUMPDEST \t\t\tequire(data.length >= 4, \"Bad ...\n      CALLDATASIZE \t\t\tytes calldata params \n      PUSH 0\t\t\tytes calldata params \n      DUP5 \t\t\tata[\n      DUP5 \t\t\tata[\n      PUSH 4\t\t\t:\n      SWAP1 \t\t\tata[4:];\n      DUP1 \t\t\tata[4:];\n      SWAP3 \t\t\tata[4:];\n      PUSH [tag] 170\t\t\tata[4:];\n      SWAP4 \t\t\tata[4:];\n      SWAP3 \t\t\tata[4:];\n      SWAP2 \t\t\tata[4:];\n      SWAP1 \t\t\tata[4:];\n      PUSH [tag] 165\t\t\tata[4:];\n      JUMP \t\t\tata[4:];\n    tag 170\t\t\tata[4:];\n      JUMPDEST \t\t\tata[4:];\n      SWAP2 \t\t\tytes calldata params = data[4:...\n      POP \t\t\tytes calldata params = data[4:...\n      SWAP2 \t\t\tytes calldata params = data[4:...\n      POP \t\t\tytes calldata params = data[4:...\n      DUP2 \t\t\tarams,\n      DUP2 \t\t\tarams,\n      DUP2 \t\t\tbi.decode(params, (string));\n      ADD \t\t\tbi.decode(params, (string));\n      SWAP1 \t\t\tbi.decode(params, (string));\n      PUSH [tag] 171\t\t\tbi.decode(params, (string));\n      SWAP2 \t\t\tbi.decode(params, (string));\n      SWAP1 \t\t\tbi.decode(params, (string));\n      PUSH [tag] 172\t\t\tbi.decode(params, (string));\n      JUMP \t\t\tbi.decode(params, (string));\n    tag 171\t\t\tbi.decode(params, (string));\n      JUMPDEST \t\t\tbi.decode(params, (string));\n      SWAP3 \t\t\tmessage_) = abi.decode(params,...\n      POP \t\t\tmessage_) = abi.decode(params,...\n      POP \t\t\t\\n        require(data.length ...\n      POP \t\t\t\\n        require(data.length ...\n      SWAP3 \t\t\tunction decodePressParams(byte...\n      SWAP2 \t\t\tunction decodePressParams(byte...\n      POP \t\t\tunction decodePressParams(byte...\n      POP \t\t\tunction decodePressParams(byte...\n      JUMP \t\t\tunction decodePressParams(byte...\n    tag 121\t\t\tfunction press(string calldata...\n      JUMPDEST \t\t\tfunction press(string calldata...\n      PUSH 0\t\t\tuint256 last\n      PUSH 4\t\t\tlastPressAt\n      PUSH 0\t\t\tlastPressAt[msg.sender]\n      CALLER \t\t\tmsg.sender\n      PUSH FFFFFFFFFFFFFFFFFFFFFFFFFFFFFFFFFFFFFFFF\t\t\tlastPressAt[msg.sender]\n      AND \t\t\tlastPressAt[msg.sender]\n      PUSH FFFFFFFFFFFFFFFFFFFFFFFFFFFFFFFFFFFFFFFF\t\t\tlastPressAt[msg.sender]\n      AND \t\t\tlastPressAt[msg.sender]\n      DUP2 \t\t\tlastPressAt[msg.sender]\n      MSTORE \t\t\tlastPressAt[msg.sender]\n      PUSH 20\t\t\tlastPressAt[msg.sender]\n      ADD \t\t\tlastPressAt[msg.sender]\n      SWAP1 \t\t\tlastPressAt[msg.sender]\n      DUP2 \t\t\tlastPressAt[msg.sender]\n      MSTORE \t\t\tlastPressAt[msg.sender]\n      PUSH 20\t\t\tlastPressAt[msg.sender]\n      ADD \t\t\tlastPressAt[msg.sender]\n      PUSH 0\t\t\tlastPressAt[msg.sender]\n      KECCAK256 \t\t\tlastPressAt[msg.sender]\n      SLOAD \t\t\tlastPressAt[msg.sender]\n      SWAP1 \t\t\tuint256 last = lastPressAt[msg...\n      POP \t\t\tuint256 last = lastPressAt[msg...\n      PUSH 2\t\t\tcooldownSeconds\n      SLOAD \t\t\tcooldownSeconds\n      DUP2 \t\t\tlast\n      PUSH [tag] 174\t\t\tlast + cooldownSeconds\n      SWAP2 \t\t\tlast + cooldownSeconds\n      SWAP1 \t\t\tlast + cooldownSeconds\n      PUSH [tag] 175\t\t\tlast + cooldownSeconds\n      JUMP \t\t\tlast + cooldownSeconds\n    tag 174\t\t\tlast + cooldownSeconds\n      JUMPDEST \t\t\tlast + cooldownSeconds\n      TIMESTAMP \t\t\tblock.timestamp\n      LT \t\t\tblock.timestamp >= last + cool...\n      ISZERO \t\t\tblock.timestamp >= last + cool...\n      PUSH [tag] 176\t\t\trequire(block.timestamp >= las...\n      JUMPI \t\t\trequire(block.timestamp >= las...\n      PUSH 40\t\t\trequire(block.timestamp >= las...\n      MLOAD \t\t\trequire(block.timestamp >= las...\n      PUSH 8C379A000000000000000000000000000000000000000000000000000000000\t\t\trequire(block.timestamp >= las...\n      DUP2 \t\t\trequire(block.timestamp >= las...\n      MSTORE \t\t\trequire(block.timestamp >= las...\n      PUSH 4\t\t\trequire(block.timestamp >= las...\n      ADD \t\t\trequire(block.timestamp >= las...\n      PUSH [tag] 177\t\t\trequire(block.timestamp >= las...\n      SWAP1 \t\t\trequire(block.timestamp >= las...\n      PUSH [tag] 178\t\t\trequire(block.timestamp >= las...\n      JUMP \t\t\trequire(block.timestamp >= las...\n    tag 177\t\t\trequire(block.timestamp >= las...\n      JUMPDEST \t\t\trequire(block.timestamp >= las...\n      PUSH 40\t\t\trequire(block.timestamp >= las...\n      MLOAD \t\t\trequire(block.timestamp >= las...\n      DUP1 \t\t\trequire(block.timestamp >= las...\n      SWAP2 \t\t\trequire(block.timestamp >= las...\n      SUB \t\t\trequire(block.timestamp >= las...\n      SWAP1 \t\t\trequire(block.timestamp >= las...\n      REVERT \t\t\trequire(block.timestamp >= las...\n    tag 176\t\t\trequire(block.timestamp >= las...\n      JUMPDEST \t\t\trequire(block.timestamp >= las...\n      PUSH 1\t\t\t1\n      DUP1 \t\t\ttotalPresses\n      PUSH 0\t\t\ttotalPresses\n      DUP3 \t\t\ttotalPresses += 1\n      DUP3 \t\t\ttotalPresses += 1\n      SLOAD \t\t\ttotalPresses += 1\n      PUSH [tag] 179\t\t\ttotalPresses += 1\n      SWAP2 \t\t\ttotalPresses += 1\n      SWAP1 \t\t\ttotalPresses += 1\n      PUSH [tag] 175\t\t\ttotalPresses += 1\n      JUMP \t\t\ttotalPresses += 1\n    tag 179\t\t\ttotalPresses += 1\n      JUMPDEST \t\t\ttotalPresses += 1\n      SWAP3 \t\t\ttotalPresses += 1\n      POP \t\t\ttotalPresses += 1\n      POP \t\t\ttotalPresses += 1\n      DUP2 \t\t\ttotalPresses += 1\n      SWAP1 \t\t\ttotalPresses += 1\n      SSTORE \t\t\ttotalPresses += 1\n      POP \t\t\ttotalPresses += 1\n      PUSH 1\t\t\t1\n      PUSH 3\t\t\tpresses\n      PUSH 0\t\t\tpresses[msg.sender]\n      CALLER \t\t\tmsg.sender\n      PUSH FFFFFFFFFFFFFFFFFFFFFFFFFFFFFFFFFFFFFFFF\t\t\tpresses[msg.sender]\n      AND \t\t\tpresses[msg.sender]\n      PUSH FFFFFFFFFFFFFFFFFFFFFFFFFFFFFFFFFFFFFFFF\t\t\tpresses[msg.sender]\n      AND \t\t\tpresses[msg.sender]\n      DUP2 \t\t\tpresses[msg.sender]\n      MSTORE \t\t\tpresses[msg.sender]\n      PUSH 20\t\t\tpresses[msg.sender]\n      ADD \t\t\tpresses[msg.sender]\n      SWAP1 \t\t\tpresses[msg.sender]\n      DUP2 \t\t\tpresses[msg.sender]\n      MSTORE \t\t\tpresses[msg.sender]\n      PUSH 20\t\t\tpresses[msg.sender]\n      ADD \t\t\tpresses[msg.sender]\n      PUSH 0\t\t\tpresses[msg.sender]\n      KECCAK256 \t\t\tpresses[msg.sender]\n      PUSH 0\t\t\tpresses[msg.sender]\n      DUP3 \t\t\tpresses[msg.sender] += 1\n      DUP3 \t\t\tpresses[msg.sender] += 1\n      SLOAD \t\t\tpresses[msg.sender] += 1\n      PUSH [tag] 180\t\t\tpresses[msg.sender] += 1\n      SWAP2 \t\t\tpresses[msg.sender] += 1\n      SWAP1 \t\t\tpresses[msg.sender] += 1\n      PUSH [tag] 175\t\t\tpresses[msg.sender] += 1\n      JUMP \t\t\tpresses[msg.sender] += 1\n    tag 180\t\t\tpresses[msg.sender] += 1\n      JUMPDEST \t\t\tpresses[msg.sender] += 1\n      SWAP3 \t\t\tpresses[msg.sender] += 1\n      POP \t\t\tpresses[msg.sender] += 1\n      POP \t\t\tpresses[msg.sender] += 1\n      DUP2 \t\t\tpresses[msg.sender] += 1\n      SWAP1 \t\t\tpresses[msg.sender] += 1\n      SSTORE \t\t\tpresses[msg.sender] += 1\n      POP \t\t\tpresses[msg.sender] += 1\n      TIMESTAMP \t\t\tblock.timestamp\n      PUSH 4\t\t\tlastPressAt\n      PUSH 0\t\t\tlastPressAt[msg.sender]\n      CALLER \t\t\tmsg.sender\n      PUSH FFFFFFFFFFFFFFFFFFFFFFFFFFFFFFFFFFFFFFFF\t\t\tlastPressAt[msg.sender]\n      AND \t\t\tlastPressAt[msg.sender]\n      PUSH FFFFFFFFFFFFFFFFFFFFFFFFFFFFFFFFFFFFFFFF\t\t\tlastPressAt[msg.sender]\n      AND \t\t\tlastPressAt[msg.sender]\n      DUP2 \t\t\tlastPressAt[msg.sender]\n      MSTORE \t\t\tlastPressAt[msg.sender]\n      PUSH 20\t\t\tlastPressAt[msg.sender]\n      ADD \t\t\tlastPressAt[msg.sender]\n      SWAP1 \t\t\tlastPressAt[msg.sender]\n      DUP2 \t\t\tlastPressAt[msg.sender]\n      MSTORE \t\t\tlastPressAt[msg.sender]\n      PUSH 20\t\t\tlastPressAt[msg.sender]\n      ADD \t\t\tlastPressAt[msg.sender]\n      PUSH 0\t\t\tlastPressAt[msg.sender]\n      KECCAK256 \t\t\tlastPressAt[msg.sender]\n      DUP2 \t\t\tlastPressAt[msg.sender] = bloc...\n      SWAP1 \t\t\tlastPressAt[msg.sender] = bloc...\n      SSTORE \t\t\tlastPressAt[msg.sender] = bloc...\n      POP \t\t\tlastPressAt[msg.sender] = bloc...\n      CALLER \t\t\tmsg.sender\n      PUSH FFFFFFFFFFFFFFFFFFFFFFFFFFFFFFFFFFFFFFFF\t\t\tPressed(msg.sender, totalPress...\n      AND \t\t\tPressed(msg.sender, totalPress...\n      PUSH A932E5483A6C4B217A12D84F6F397B68818A21BFA23C1E83C4566267613CCD46\t\t\tPressed(msg.sender, totalPress...\n      PUSH 1\t\t\ttotalPresses\n      SLOAD \t\t\ttotalPresses\n      PUSH 3\t\t\tpresses\n      PUSH 0\t\t\tpresses[msg.sender]\n      CALLER \t\t\tmsg.sender\n      PUSH FFFFFFFFFFFFFFFFFFFFFFFFFFFFFFFFFFFFFFFF\t\t\tpresses[msg.sender]\n      AND \t\t\tpresses[msg.sender]\n      PUSH FFFFFFFFFFFFFFFFFFFFFFFFFFFFFFFFFFFFFFFF\t\t\tpresses[msg.sender]\n      AND \t\t\tpresses[msg.sender]\n      DUP2 \t\t\tpresses[msg.sender]\n      MSTORE \t\t\tpresses[msg.sender]\n      PUSH 20\t\t\tpresses[msg.sender]\n      ADD \t\t\tpresses[msg.sender]\n      SWAP1 \t\t\tpresses[msg.sender]\n      DUP2 \t\t\tpresses[msg.sender]\n      MSTORE \t\t\tpresses[msg.sender]\n      PUSH 20\t\t\tpresses[msg.sender]\n      ADD \t\t\tpresses[msg.sender]\n      PUSH 0\t\t\tpresses[msg.sender]\n      KECCAK256 \t\t\tpresses[msg.sender]\n      SLOAD \t\t\tpresses[msg.sender]\n      DUP7 \t\t\tmessage_\n      DUP7 \t\t\tmessage_\n      CALLVALUE \t\t\tmsg.value\n      PUSH 40\t\t\tPressed(msg.sender, totalPress...\n      MLOAD \t\t\tPressed(msg.sender, totalPress...\n      PUSH [tag] 181\t\t\tPressed(msg.sender, totalPress...\n      SWAP6 \t\t\tPressed(msg.sender, totalPress...\n      SWAP5 \t\t\tPressed(msg.sender, totalPress...\n      SWAP4 \t\t\tPressed(msg.sender, totalPress...\n      SWAP3 \t\t\tPressed(msg.sender, totalPress...\n      SWAP2 \t\t\tPressed(msg.sender, totalPress...\n      SWAP1 \t\t\tPressed(msg.sender, totalPress...\n      PUSH [tag] 182\t\t\tPressed(msg.sender, totalPress...\n      JUMP \t\t\tPressed(msg.sender, totalPress...\n    tag 181\t\t\tPressed(msg.sender, totalPress...\n      JUMPDEST \t\t\tPressed(msg.sender, totalPress...\n      PUSH 40\t\t\tPressed(msg.sender, totalPress...\n      MLOAD \t\t\tPressed(msg.sender, totalPress...\n      DUP1 \t\t\tPressed(msg.sender, totalPress...\n      SWAP2 \t\t\tPressed(msg.sender, totalPress...\n      SUB \t\t\tPressed(msg.sender, totalPress...\n      SWAP1 \t\t\tPressed(msg.sender, totalPress...\n      LOG2 \t\t\tPressed(msg.sender, totalPress...\n      POP \t\t\t{\\n        uint256 last = last...\n      POP \t\t\tfunction press(string calldata...\n      POP \t\t\tfunction press(string calldata...\n      JUMP \t\t\tfunction press(string calldata...\n    tag 126\t\t\tfunction withdraw(address paya...\n      JUMPDEST \t\t\tfunction withdraw(address paya...\n      PUSH 0\t\t\towner\n      DUP1 \t\t\towner\n      SLOAD \t\t\towner\n      SWAP1 \t\t\towner\n      PUSH 100\t\t\towner\n      EXP \t\t\towner\n      SWAP1 \t\t\towner\n      DIV \t\t\towner\n      PUSH FFFFFFFFFFFFFFFFFFFFFFFFFFFFFFFFFFFFFFFF\t\t\towner\n      AND \t\t\towner\n      PUSH FFFFFFFFFFFFFFFFFFFFFFFFFFFFFFFFFFFFFFFF\t\t\tmsg.sender == owner\n      AND \t\t\tmsg.sender == owner\n      CALLER \t\t\tmsg.sender\n      PUSH FFFFFFFFFFFFFFFFFFFFFFFFFFFFFFFFFFFFFFFF\t\t\tmsg.sender == owner\n      AND \t\t\tmsg.sender == owner\n      EQ \t\t\tmsg.sender == owner\n      PUSH [tag] 184\t\t\trequire(msg.sender == owner, \"...\n      JUMPI \t\t\trequire(msg.sender == owner, \"...\n      PUSH 40\t\t\trequire(msg.sender == owner, \"...\n      MLOAD \t\t\trequire(msg.sender == owner, \"...\n      PUSH 8C379A000000000000000000000000000000000000000000000000000000000\t\t\trequire(msg.sender == owner, \"...\n      DUP2 \t\t\trequire(msg.sender == owner, \"...\n      MSTORE \t\t\trequire(msg.sender == owner, \"...\n      PUSH 4\t\t\trequire(msg.sender == owner, \"...\n      ADD \t\t\trequire(msg.sender == owner, \"...\n      PUSH [tag] 185\t\t\trequire(msg.sender == owner, \"...\n      SWAP1 \t\t\trequire(msg.sender == owner, \"...\n      PUSH [tag] 148\t\t\trequire(msg.sender == owner, \"...\n      JUMP \t\t\trequire(msg.sender == owner, \"...\n    tag 185\t\t\trequire(msg.sender == owner, \"...\n      JUMPDEST \t\t\trequire(msg.sender == owner, \"...\n      PUSH 40\t\t\trequire(msg.sender == owner, \"...\n      MLOAD \t\t\trequire(msg.sender == owner, \"...\n      DUP1 \t\t\trequire(msg.sender == owner, \"...\n      SWAP2 \t\t\trequire(msg.sender == owner, \"...\n      SUB \t\t\trequire(msg.sender == owner, \"...\n      SWAP1 \t\t\trequire(msg.sender == owner, \"...\n      REVERT \t\t\trequire(msg.sender == owner, \"...\n    tag 184\t\t\trequire(msg.sender == owner, \"...\n      JUMPDEST \t\t\trequire(msg.sender == owner, \"...\n      SELFBALANCE \t\t\taddress(this).balance\n      DUP2 \t\t\tamount\n      GT \t\t\tamount <= address(this).balanc...\n      ISZERO \t\t\tamount <= address(this).balanc...\n      PUSH [tag] 187\t\t\trequire(amount <= address(this...\n      JUMPI \t\t\trequire(amount <= address(this...\n      PUSH 40\t\t\trequire(amount <= address(this...\n      MLOAD \t\t\trequire(amount <= address(this...\n      PUSH 8C379A000000000000000000000000000000000000000000000000000000000\t\t\trequire(amount <= address(this...\n      DUP2 \t\t\trequire(amount <= address(this...\n      MSTORE \t\t\trequire(amount <= address(this...\n      PUSH 4\t\t\trequire(amount <= address(this...\n      ADD \t\t\trequire(amount <= address(this...\n      PUSH [tag] 188\t\t\trequire(amount <= address(this...\n      SWAP1 \t\t\trequire(amount <= address(this...\n      PUSH [tag] 189\t\t\trequire(amount <= address(this...\n      JUMP \t\t\trequire(amount <= address(this...\n    tag 188\t\t\trequire(amount <= address(this...\n      JUMPDEST \t\t\trequire(amount <= address(this...\n      PUSH 40\t\t\trequire(amount <= address(this...\n      MLOAD \t\t\trequire(amount <= address(this...\n      DUP1 \t\t\trequire(amount <= address(this...\n      SWAP2 \t\t\trequire(amount <= address(this...\n      SUB \t\t\trequire(amount <= address(this...\n      SWAP1 \t\t\trequire(amount <= address(this...\n      REVERT \t\t\trequire(amount <= address(this...\n    tag 187\t\t\trequire(amount <= address(this...\n      JUMPDEST \t\t\trequire(amount <= address(this...\n      DUP2 \t\t\tto\n      PUSH FFFFFFFFFFFFFFFFFFFFFFFFFFFFFFFFFFFFFFFF\t\t\tto.transfer\n      AND \t\t\tto.transfer\n      PUSH 8FC\t\t\tto.transfer(amount)\n      DUP3 \t\t\tamount\n      SWAP1 \t\t\tto.transfer(amount)\n      DUP2 \t\t\tto.transfer(amount)\n      ISZERO \t\t\tto.transfer(amount)\n      MUL \t\t\tto.transfer(amount)\n      SWAP1 \t\t\tto.transfer(amount)\n      PUSH 40\t\t\tto.transfer(amount)\n      MLOAD \t\t\tto.transfer(amount)\n      PUSH 0\t\t\tto.transfer(amount)\n      PUSH 40\t\t\tto.transfer(amount)\n      MLOAD \t\t\tto.transfer(amount)\n      DUP1 \t\t\tto.transfer(amount)\n      DUP4 \t\t\tto.transfer(amount)\n      SUB \t\t\tto.transfer(amount)\n      DUP2 \t\t\tto.transfer(amount)\n      DUP6 \t\t\tto.transfer(amount)\n      DUP9 \t\t\tto.transfer(amount)\n      DUP9 \t\t\tto.transfer(amount)\n      CALL \t\t\tto.transfer(amount)\n      SWAP4 \t\t\tto.transfer(amount)\n      POP \t\t\tto.transfer(amount)\n      POP \t\t\tto.transfer(amount)\n      POP \t\t\tto.transfer(amount)\n      POP \t\t\tto.transfer(amount)\n      ISZERO \t\t\tto.transfer(amount)\n      DUP1 \t\t\tto.transfer(amount)\n      ISZERO \t\t\tto.transfer(amount)\n      PUSH [tag] 191\t\t\tto.transfer(amount)\n      JUMPI \t\t\tto.transfer(amount)\n      RETURNDATASIZE \t\t\tto.transfer(amount)\n      PUSH 0\t\t\tto.transfer(amount)\n      DUP1 \t\t\tto.transfer(amount)\n      RETURNDATACOPY \t\t\tto.transfer(amount)\n      RETURNDATASIZE \t\t\tto.transfer(amount)\n      PUSH 0\t\t\tto.transfer(amount)\n      REVERT \t\t\tto.transfer(amount)\n    tag 191\t\t\tto.transfer(amount)\n      JUMPDEST \t\t\tto.transfer(amount)\n      POP \t\t\tto.transfer(amount)\n      POP \t\t\tfunction withdraw(address paya...\n      POP \t\t\tfunction withdraw(address paya...\n      JUMP \t\t\tfunction withdraw(address paya...\n    tag 130\t\t\tunction decodeWithdrawParams(b...\n      JUMPDEST \t\t\tunction decodeWithdrawParams(b...\n      PUSH 0\t\t\tddress to,\n      DUP1 \t\t\tint256 amount)\n      PUSH 4\t\t\t,\n      DUP5 \t\t\tata.\n      DUP5 \t\t\tata.\n      SWAP1 \t\t\tata.length \n      POP \t\t\tata.length \n      LT \t\t\tata.length >= 4,\n      ISZERO \t\t\tata.length >= 4,\n      PUSH [tag] 193\t\t\tequire(data.length >= 4, \"Bad ...\n      JUMPI \t\t\tequire(data.length >= 4, \"Bad ...\n      PUSH 40\t\t\tequire(data.length >= 4, \"Bad ...\n      MLOAD \t\t\tequire(data.length >= 4, \"Bad ...\n      PUSH 8C379A000000000000000000000000000000000000000000000000000000000\t\t\tequire(data.length >= 4, \"Bad ...\n      DUP2 \t\t\tequire(data.length >= 4, \"Bad ...\n      MSTORE \t\t\tequire(data.length >= 4, \"Bad ...\n      PUSH 4\t\t\tequire(data.length >= 4, \"Bad ...\n      ADD \t\t\tequire(data.length >= 4, \"Bad ...\n      PUSH [tag] 194\t\t\tequire(data.length >= 4, \"Bad ...\n      SWAP1 \t\t\tequire(data.length >= 4, \"Bad ...\n      PUSH [tag] 163\t\t\tequire(data.length >= 4, \"Bad ...\n      JUMP \t\t\tequire(data.length >= 4, \"Bad ...\n    tag 194\t\t\tequire(data.length >= 4, \"Bad ...\n      JUMPDEST \t\t\tequire(data.length >= 4, \"Bad ...\n      PUSH 40\t\t\tequire(data.length >= 4, \"Bad ...\n      MLOAD \t\t\tequire(data.length >= 4, \"Bad ...\n      DUP1 \t\t\tequire(data.length >= 4, \"Bad ...\n      SWAP2 \t\t\tequire(data.length >= 4, \"Bad ...\n      SUB \t\t\tequire(data.length >= 4, \"Bad ...\n      SWAP1 \t\t\tequire(data.length >= 4, \"Bad ...\n      REVERT \t\t\tequire(data.length >= 4, \"Bad ...\n    tag 193\t\t\tequire(data.length >= 4, \"Bad ...\n      JUMPDEST \t\t\tequire(data.length >= 4, \"Bad ...\n      CALLDATASIZE \t\t\tytes calldata params \n      PUSH 0\t\t\tytes calldata params \n      DUP6 \t\t\tata[\n      DUP6 \t\t\tata[\n      PUSH 4\t\t\t:\n      SWAP1 \t\t\tata[4:];\n      DUP1 \t\t\tata[4:];\n      SWAP3 \t\t\tata[4:];\n      PUSH [tag] 195\t\t\tata[4:];\n      SWAP4 \t\t\tata[4:];\n      SWAP3 \t\t\tata[4:];\n      SWAP2 \t\t\tata[4:];\n      SWAP1 \t\t\tata[4:];\n      PUSH [tag] 165\t\t\tata[4:];\n      JUMP \t\t\tata[4:];\n    tag 195\t\t\tata[4:];\n      JUMPDEST \t\t\tata[4:];\n      SWAP2 \t\t\tytes calldata params = data[4:...\n      POP \t\t\tytes calldata params = data[4:...\n      SWAP2 \t\t\tytes calldata params = data[4:...\n      POP \t\t\tytes calldata params = data[4:...\n      DUP2 \t\t\tarams,\n      DUP2 \t\t\tarams,\n      DUP2 \t\t\tbi.decode(params, (address, ui...\n      ADD \t\t\tbi.decode(params, (address, ui...\n      SWAP1 \t\t\tbi.decode(params, (address, ui...\n      PUSH [tag] 196\t\t\tbi.decode(params, (address, ui...\n      SWAP2 \t\t\tbi.decode(params, (address, ui...\n      SWAP1 \t\t\tbi.decode(params, (address, ui...\n      PUSH [tag] 125\t\t\tbi.decode(params, (address, ui...\n      JUMP \t\t\tbi.decode(params, (address, ui...\n    tag 196\t\t\tbi.decode(params, (address, ui...\n      JUMPDEST \t\t\tbi.decode(params, (address, ui...\n      DUP1 \t\t\tto, amount) = abi.decode(param...\n      SWAP5 \t\t\tto, amount) = abi.decode(param...\n      POP \t\t\tto, amount) = abi.decode(param...\n      DUP2 \t\t\tto, amount) = abi.decode(param...\n      SWAP6 \t\t\tto, amount) = abi.decode(param...\n      POP \t\t\tto, amount) = abi.decode(param...\n      POP \t\t\tto, amount) = abi.decode(param...\n      POP \t\t\tto, amount) = abi.decode(param...\n      POP \t\t\t\\n        require(data.length ...\n      POP \t\t\t\\n        require(data.length ...\n      SWAP3 \t\t\tunction decodeWithdrawParams(b...\n      POP \t\t\tunction decodeWithdrawParams(b...\n      SWAP3 \t\t\tunction decodeWithdrawParams(b...\n      SWAP1 \t\t\tunction decodeWithdrawParams(b...\n      POP \t\t\tunction decodeWithdrawParams(b...\n      JUMP \t\t\tunction decodeWithdrawParams(b...\n    tag 197\t\t\t-License-Identifier: MIT\\nprag...\n      JUMPDEST \t\t\t-License-Identifier: MIT\\nprag...\n      PUSH 0\t\t\tolidit\n      PUSH 40\t\t\tOn\n      MLOAD \t\t\te Big On-\n      SWAP1 \t\t\t\\n/**\\n * The Big On-\n      POP \t\t\t\\n/**\\n * The Big On-\n      SWAP1 \t\t\t-License-Identifier: MIT\\nprag...\n      JUMP \t\t\t-License-Identifier: MIT\\nprag...\n    tag 198\t\t\t\\n * - Premi il bottone: incre...\n      JUMPDEST \t\t\t\\n * - Premi il bottone: incre...\n      PUSH 0\t\t\ts\n      DUP1 \t\t\tt\n      REVERT \t\t\tdown anti-sp\n    tag 199\t\t\t 15s)\\n * - Tip opzionale al c...\n      JUMPDEST \t\t\t 15s)\\n * - Tip opzionale al c...\n      PUSH 0\t\t\te\n      DUP1 \t\t\te\n      REVERT \t\t\tvent Pressed\n    tag 200\t\t\texed user, uint256 totalPresse...\n      JUMPDEST \t\t\texed user, uint256 totalPresse...\n      PUSH 0\t\t\t;\n      DUP1 \t\t\tn\n      REVERT \t\t\tblic owner;\\n\n    tag 201\t\t\tpublic totalPresses;\\n    uint...\n      JUMPDEST \t\t\tpublic totalPresses;\\n    uint...\n      PUSH 0\t\t\t;\n      DUP1 \t\t\ts\n      REVERT \t\t\tic presses; \n    tag 202\t\t\tnte pressioni ha fatto l'utent...\n      JUMPDEST \t\t\tnte pressioni ha fatto l'utent...\n      PUSH 0\t\t\ts\n      DUP1 \t\t\tp\n      REVERT \t\t\tultima press\n    tag 203\t\t\tifier onlyOwner() {\\n        r...\n      JUMPDEST \t\t\tifier onlyOwner() {\\n        r...\n      PUSH 0\t\t\tNot owne\n      DUP1 \t\t\t);\\n   \n      DUP4 \t\t\twne\n      PUSH 1F\t\t\t    \n      DUP5 \t\t\tr() {\\n\n      ADD \t\t\tuctor() {\\n       \n      SLT \t\t\tnstructor() {\\n        owner\n      PUSH [tag] 263\t\t\t }\\n\\n    constructor() {\\n   ...\n      JUMPI \t\t\t }\\n\\n    constructor() {\\n   ...\n      PUSH [tag] 264\t\t\tsg.sender;\\n    }\\n\\n    /// @...\n      PUSH [tag] 200\t\t\tsg.sender;\\n    }\\n\\n    /// @...\n      JUMP \t\t\tsg.sender;\\n    }\\n\\n    /// @...\n    tag 264\t\t\tsg.sender;\\n    }\\n\\n    /// @...\n      JUMPDEST \t\t\tsg.sender;\\n    }\\n\\n    /// @...\n    tag 263\t\t\t }\\n\\n    constructor() {\\n   ...\n      JUMPDEST \t\t\t }\\n\\n    constructor() {\\n   ...\n      DUP3 \t\t\trnal o\n      CALLDATALOAD \t\t\teconds_) external on\n      SWAP1 \t\t\t(uint256 seconds_) external on\n      POP \t\t\t(uint256 seconds_) external on\n      PUSH FFFFFFFFFFFFFFFF\t\t\tre(seconds_ <= 360\n      DUP2 \t\t\t   req\n      GT \t\t\t      require(seconds_ <= 3600\n      ISZERO \t\t\t\\n        require(seconds_ <= ...\n      PUSH [tag] 265\t\t\t\\n        require(seconds_ <= ...\n      JUMPI \t\t\t\\n        require(seconds_ <= ...\n      PUSH [tag] 266\t\t\tCooldown too high\");\\n        ...\n      PUSH [tag] 201\t\t\tCooldown too high\");\\n        ...\n      JUMP \t\t\tCooldown too high\");\\n        ...\n    tag 266\t\t\tCooldown too high\");\\n        ...\n      JUMPDEST \t\t\tCooldown too high\");\\n        ...\n    tag 265\t\t\t\\n        require(seconds_ <= ...\n      JUMPDEST \t\t\t\\n        require(seconds_ <= ...\n      PUSH 20\t\t\tn me\n      DUP4 \t\t\tludere\n      ADD \t\t\t includere un mes\n      SWAP2 \t\t\tottone. Puoi includere un mes\n      POP \t\t\tottone. Puoi includere un mes\n      DUP4 \t\t\t   \n      PUSH 1\t\t\tvalu\n      DUP3 \t\t\tvia ms\n      MUL \t\t\tale via msg.value\n      DUP4 \t\t\ttip opzi\n      ADD \t\t\tuna tip opzionale via msg.valu...\n      GT \t\t\t e una tip opzionale via msg.v...\n      ISZERO \t\t\teve e una tip opzionale via ms...\n      PUSH [tag] 267\t\t\teve e una tip opzionale via ms...\n      JUMPI \t\t\teve e una tip opzionale via ms...\n      PUSH [tag] 268\t\t\ttion press(string calldata mes...\n      PUSH [tag] 202\t\t\ttion press(string calldata mes...\n      JUMP \t\t\ttion press(string calldata mes...\n    tag 268\t\t\ttion press(string calldata mes...\n      JUMPDEST \t\t\ttion press(string calldata mes...\n    tag 267\t\t\teve e una tip opzionale via ms...\n      JUMPDEST \t\t\teve e una tip opzionale via ms...\n      SWAP3 \t\t\tifier onlyOwner() {\\n        r...\n      POP \t\t\tifier onlyOwner() {\\n        r...\n      SWAP3 \t\t\tifier onlyOwner() {\\n        r...\n      SWAP1 \t\t\tifier onlyOwner() {\\n        r...\n      POP \t\t\tifier onlyOwner() {\\n        r...\n      JUMP \t\t\tifier onlyOwner() {\\n        r...\n    tag 29\t\t\tg.sender];\\n        require(bl...\n      JUMPDEST \t\t\tg.sender];\\n        require(bl...\n      PUSH 0\t\t\tCooldo\n      DUP1 \t\t\t activ\n      PUSH 20\t\t\tes\n      DUP4 \t\t\t;\\n       \n      DUP6 \t\t\tsses +=\n      SUB \t\t\tlPresses += 1;\\n        \n      SLT \t\t\ttotalPresses += 1;\\n        pr...\n      ISZERO \t\t\t   totalPresses += 1;\\n       ...\n      PUSH [tag] 270\t\t\t   totalPresses += 1;\\n       ...\n      JUMPI \t\t\t   totalPresses += 1;\\n       ...\n      PUSH [tag] 271\t\t\tmsg.sender] += 1;\\n        las...\n      PUSH [tag] 198\t\t\tmsg.sender] += 1;\\n        las...\n      JUMP \t\t\tmsg.sender] += 1;\\n        las...\n    tag 271\t\t\tmsg.sender] += 1;\\n        las...\n      JUMPDEST \t\t\tmsg.sender] += 1;\\n        las...\n    tag 270\t\t\t   totalPresses += 1;\\n       ...\n      JUMPDEST \t\t\t   totalPresses += 1;\\n       ...\n      PUSH 0\t\t\tm\n      DUP4 \t\t\t message_\n      ADD \t\t\ter], message_, ms\n      CALLDATALOAD \t\t\tsses[msg.sender], message_, ms...\n      PUSH FFFFFFFFFFFFFFFF\t\t\tle tip resta nel c\n      DUP2 \t\t\t event\n      GT \t\t\t // eventuale tip resta nel co\n      ISZERO \t\t\t    // eventuale tip resta nel...\n      PUSH [tag] 272\t\t\t    // eventuale tip resta nel...\n      JUMPI \t\t\t    // eventuale tip resta nel...\n      PUSH [tag] 273\t\t\tatto finche' l'owner non fa wi...\n      PUSH [tag] 199\t\t\tatto finche' l'owner non fa wi...\n      JUMP \t\t\tatto finche' l'owner non fa wi...\n    tag 273\t\t\tatto finche' l'owner non fa wi...\n      JUMPDEST \t\t\tatto finche' l'owner non fa wi...\n    tag 272\t\t\t    // eventuale tip resta nel...\n      JUMPDEST \t\t\t    // eventuale tip resta nel...\n      PUSH [tag] 274\t\t\tss payable to, uint256 amount)...\n      DUP6 \t\t\t   requ\n      DUP3 \t\t\tr {\\n  \n      DUP7 \t\t\tal onlyOw\n      ADD \t\t\tternal onlyOwner {\\n   \n      PUSH [tag] 203\t\t\tss payable to, uint256 amount)...\n      JUMP \t\t\tss payable to, uint256 amount)...\n    tag 274\t\t\tss payable to, uint256 amount)...\n      JUMPDEST \t\t\tss payable to, uint256 amount)...\n      SWAP3 \t\t\tion withdraw(address payable t...\n      POP \t\t\tion withdraw(address payable t...\n      SWAP3 \t\t\tion withdraw(address payable t...\n      POP \t\t\tion withdraw(address payable t...\n      POP \t\t\tmsg.sender, totalPresses, pres...\n      SWAP3 \t\t\tg.sender];\\n        require(bl...\n      POP \t\t\tg.sender];\\n        require(bl...\n      SWAP3 \t\t\tg.sender];\\n        require(bl...\n      SWAP1 \t\t\tg.sender];\\n        require(bl...\n      POP \t\t\tg.sender];\\n        require(bl...\n      JUMP \t\t\tg.sender];\\n        require(bl...\n    tag 204\t\t\tis).balance, \"Insufficient bal...\n      JUMPDEST \t\t\tis).balance, \"Insufficient bal...\n      PUSH 0\t\t\tansfer\n      DUP2 \t\t\ttice \n      MLOAD \t\t\t// @notice S\n      SWAP1 \t\t\t  }\\n\\n    /// @notice S\n      POP \t\t\t  }\\n\\n    /// @notice S\n      SWAP2 \t\t\tis).balance, \"Insufficient bal...\n      SWAP1 \t\t\tis).balance, \"Insufficient bal...\n      POP \t\t\tis).balance, \"Insufficient bal...\n      JUMP \t\t\tis).balance, \"Insufficient bal...\n    tag 205\t\t\tto da tip\\n    function tipsBa...\n      JUMPDEST \t\t\tto da tip\\n    function tipsBa...\n      PUSH 0\t\t\trn address(\n      DUP3 \t\t\t   // \n      DUP3 \t\t\t }\\n\n      MSTORE \t\t\tce;\\n    }\\n\\n    // =\n      PUSH 20\t\t\t====\n      DUP3 \t\t\t //\n      ADD \t\t\t\\n    // ===== \n      SWAP1 \t\t\t===============\\n    // ===== \n      POP \t\t\t===============\\n    // ===== \n      SWAP3 \t\t\tto da tip\\n    function tipsBa...\n      SWAP2 \t\t\tto da tip\\n    function tipsBa...\n      POP \t\t\tto da tip\\n    function tipsBa...\n      POP \t\t\tto da tip\\n    function tipsBa...\n      JUMP \t\t\tto da tip\\n    function tipsBa...\n    tag 206\t\t\tS =====\\n    // ==============...\n      JUMPDEST \t\t\tS =====\\n    // ==============...\n      PUSH 0\t\t\t \n    tag 278\t\t\tbytes di keccak256 della firma...\n      JUMPDEST \t\t\tbytes di keccak256 della firma...\n      DUP4 \t\t\tk256 d\n      DUP2 \t\t\tc\n      LT \t\t\t keccak256 de\n      ISZERO \t\t\tbytes di keccak256 della firma...\n      PUSH [tag] 280\t\t\tbytes di keccak256 della firma...\n      JUMPI \t\t\tbytes di keccak256 della firma...\n      DUP1 \t\t\t \n      DUP3 \t\t\t   \n      ADD \t\t\t) {\\n       \n      MLOAD \t\t\tbytes4) {\\n        \n      DUP2 \t\t\tn\n      DUP5 \t\t\tret\n      ADD \t\t\ture returns\n      MSTORE \t\t\ternal pure returns (bytes4) {\\...\n      PUSH 20\t\t\tfu\n      DUP2 \t\t\t \n      ADD \t\t\ta)\\n    fun\n      SWAP1 \t\t\t firma)\\n    fun\n      POP \t\t\t firma)\\n    fun\n      PUSH [tag] 278\t\t\tbytes di keccak256 della firma...\n      JUMP \t\t\tbytes di keccak256 della firma...\n    tag 280\t\t\tbytes di keccak256 della firma...\n      JUMPDEST \t\t\tbytes di keccak256 della firma...\n      PUSH 0\t\t\tb\n      DUP5 \t\t\talente\n      DUP5 \t\t\tequ\n      ADD \t\t\t // equivalente \n      MSTORE \t\t\tlector; // equivalente a by\n      POP \t\t\tctor delle funzioni (prime 4 b...\n      POP \t\t\tS =====\\n    // ==============...\n      POP \t\t\tS =====\\n    // ==============...\n      POP \t\t\tS =====\\n    // ==============...\n      JUMP \t\t\tS =====\\n    // ==============...\n    tag 207\t\t\t56(\"press(string)\"))\\n    }\\n\\...\n      JUMPDEST \t\t\t56(\"press(string)\"))\\n    }\\n\\...\n      PUSH 0\t\t\tselect\n      PUSH 1F\t\t\t) \n      NOT \t\t\ttes4) {\n      PUSH 1F\t\t\ts \n      DUP4 \t\t\t retu\n      ADD \t\t\tpure returns (\n      AND \t\t\tnal pure returns (bytes4) {\\n\n      SWAP1 \t\t\twn() external pure returns (by...\n      POP \t\t\twn() external pure returns (by...\n      SWAP2 \t\t\t56(\"press(string)\"))\\n    }\\n\\...\n      SWAP1 \t\t\t56(\"press(string)\"))\\n    }\\n\\...\n      POP \t\t\t56(\"press(string)\"))\\n    }\\n\\...\n      JUMP \t\t\t56(\"press(string)\"))\\n    }\\n\\...\n    tag 208\t\t\trn this.setCooldown.selector; ...\n      JUMPDEST \t\t\trn this.setCooldown.selector; ...\n      PUSH 0\t\t\tthd\n      PUSH [tag] 283\t\t\tns (bytes4) {\\n        return ...\n      DUP3 \t\t\ts.wit\n      PUSH [tag] 204\t\t\tns (bytes4) {\\n        return ...\n      JUMP \t\t\tns (bytes4) {\\n        return ...\n    tag 283\t\t\tns (bytes4) {\\n        return ...\n      JUMPDEST \t\t\tns (bytes4) {\\n        return ...\n      PUSH [tag] 284\t\t\t/ \"withdraw(address,uint256)\"\\...\n      DUP2 \t\t\tomplet\n      DUP6 \t\t\tata\n      PUSH [tag] 205\t\t\t/ \"withdraw(address,uint256)\"\\...\n      JUMP \t\t\t/ \"withdraw(address,uint256)\"\\...\n    tag 284\t\t\t/ \"withdraw(address,uint256)\"\\...\n      JUMPDEST \t\t\t/ \"withdraw(address,uint256)\"\\...\n      SWAP4 \t\t\tctor; // \"withdraw(address,uin...\n      POP \t\t\tctor; // \"withdraw(address,uin...\n      PUSH [tag] 285\t\t\tr + params) per press(string)\\...\n      DUP2 \t\t\ttring \n      DUP6 \t\t\tess\n      PUSH 20\t\t\tldat\n      DUP7 \t\t\tion c\n      ADD \t\t\tunction calldata\n      PUSH [tag] 206\t\t\tr + params) per press(string)\\...\n      JUMP \t\t\tr + params) per press(string)\\...\n    tag 285\t\t\tr + params) per press(string)\\...\n      JUMPDEST \t\t\tr + params) per press(string)\\...\n      PUSH [tag] 286\t\t\tl pure returns (bytes memory)\n      DUP2 \t\t\tmemory\n      PUSH [tag] 207\t\t\tl pure returns (bytes memory)\n      JUMP \t\t\tl pure returns (bytes memory)\n    tag 286\t\t\tl pure returns (bytes memory)\n      JUMPDEST \t\t\tl pure returns (bytes memory)\n      DUP5 \t\t\tter\n      ADD \t\t\t) external pure returns (bytes...\n      SWAP2 \t\t\tessage_) external pure returns...\n      POP \t\t\tessage_) external pure returns...\n      POP \t\t\taw() external pure returns (by...\n      SWAP3 \t\t\trn this.setCooldown.selector; ...\n      SWAP2 \t\t\trn this.setCooldown.selector; ...\n      POP \t\t\trn this.setCooldown.selector; ...\n      POP \t\t\trn this.setCooldown.selector; ...\n      JUMP \t\t\trn this.setCooldown.selector; ...\n    tag 32\t\t\tturn abi.encodeWithSelector(th...\n      JUMPDEST \t\t\tturn abi.encodeWithSelector(th...\n      PUSH 0\t\t\tldow\n      PUSH 20\t\t\ttC\n      DUP3 \t\t\t calldata\n      ADD \t\t\ttion calldataSetCo\n      SWAP1 \t\t\t    function calldataSetCo\n      POP \t\t\t    function calldataSetCo\n      DUP2 \t\t\t (bytes m\n      DUP2 \t\t\tetur\n      SUB \t\t\tre returns (bytes me\n      PUSH 0\t\t\tl\n      DUP4 \t\t\ts_) exter\n      ADD \t\t\tconds_) external \n      MSTORE \t\t\tt256 seconds_) external pure r...\n      PUSH [tag] 288\t\t\tturn abi.encodeWithSelector(th...\n      DUP2 \t\t\t\\n\\n  \n      DUP5 \t\t\t_);\\n  \n      PUSH [tag] 208\t\t\tturn abi.encodeWithSelector(th...\n      JUMP \t\t\tturn abi.encodeWithSelector(th...\n    tag 288\t\t\tturn abi.encodeWithSelector(th...\n      JUMPDEST \t\t\tturn abi.encodeWithSelector(th...\n      SWAP1 \t\t\t      return abi.encodeWithSel...\n      POP \t\t\t      return abi.encodeWithSel...\n      SWAP3 \t\t\tturn abi.encodeWithSelector(th...\n      SWAP2 \t\t\tturn abi.encodeWithSelector(th...\n      POP \t\t\tturn abi.encodeWithSelector(th...\n      POP \t\t\tturn abi.encodeWithSelector(th...\n      JUMP \t\t\tturn abi.encodeWithSelector(th...\n    tag 209\t\t\tCalldata completo per withdraw...\n      JUMPDEST \t\t\tCalldata completo per withdraw...\n      PUSH 0\t\t\tss,uint\n      PUSH FFFFFFFF00000000000000000000000000000000000000000000000000000000\t\t\tw(address to, uint256 amount) ...\n      DUP3 \t\t\tWithd\n      AND \t\t\tdataWithdraw(address to, uint2...\n      SWAP1 \t\t\tnction calldataWithdraw(addres...\n      POP \t\t\tnction calldataWithdraw(addres...\n      SWAP2 \t\t\tCalldata completo per withdraw...\n      SWAP1 \t\t\tCalldata completo per withdraw...\n      POP \t\t\tCalldata completo per withdraw...\n      JUMP \t\t\tCalldata completo per withdraw...\n    tag 210\t\t\tturn abi.encodeWithSelector(th...\n      JUMPDEST \t\t\tturn abi.encodeWithSelector(th...\n      PUSH [tag] 291\t\t\tce Calcola selector da \n      DUP2 \t\t\tor da\n      PUSH [tag] 209\t\t\tce Calcola selector da \n      JUMP \t\t\tce Calcola selector da \n    tag 291\t\t\tce Calcola selector da \n      JUMPDEST \t\t\tce Calcola selector da \n      DUP3 \t\t\t@no\n      MSTORE \t\t\t   /// @notice Calcola selecto...\n      POP \t\t\tturn abi.encodeWithSelector(th...\n      POP \t\t\tturn abi.encodeWithSelector(th...\n      JUMP \t\t\tturn abi.encodeWithSelector(th...\n    tag 37\t\t\titraria, es. \"transfer(address...\n      JUMPDEST \t\t\titraria, es. \"transfer(address...\n      PUSH 0\t\t\t ext\n      PUSH 20\t\t\t  \n      DUP3 \t\t\tes4) {\\n  \n      ADD \t\t\t(bytes4) {\\n       \n      SWAP1 \t\t\treturns (bytes4) {\\n       \n      POP \t\t\treturns (bytes4) {\\n       \n      PUSH [tag] 293\t\t\ttes4(keccak256(bytes(signature...\n      PUSH 0\t\t\ta\n      DUP4 \t\t\tce Concat\n      ADD \t\t\tnotice Concatena \n      DUP5 \t\t\t    //\n      PUSH [tag] 210\t\t\ttes4(keccak256(bytes(signature...\n      JUMP \t\t\ttes4(keccak256(bytes(signature...\n    tag 293\t\t\ttes4(keccak256(bytes(signature...\n      JUMPDEST \t\t\ttes4(keccak256(bytes(signature...\n      SWAP3 \t\t\titraria, es. \"transfer(address...\n      SWAP2 \t\t\titraria, es. \"transfer(address...\n      POP \t\t\titraria, es. \"transfer(address...\n      POP \t\t\titraria, es. \"transfer(address...\n      JUMP \t\t\titraria, es. \"transfer(address...\n    tag 211\t\t\tirma) e parametri già encodati...\n      JUMPDEST \t\t\tirma) e parametri già encodati...\n      PUSH 0\t\t\tncode(.\n      DUP2 \t\t\tCalld\n      SWAP1 \t\t\tnction makeCalld\n      POP \t\t\tnction makeCalld\n      SWAP2 \t\t\tirma) e parametri già encodati...\n      SWAP1 \t\t\tirma) e parametri già encodati...\n      POP \t\t\tirma) e parametri già encodati...\n      JUMP \t\t\tirma) e parametri già encodati...\n    tag 212\t\t\talldata signature, bytes calld...\n      JUMPDEST \t\t\talldata signature, bytes calld...\n      PUSH [tag] 296\t\t\t\\n        bytes4 sel = by\n      DUP2 \t\t\tl = b\n      PUSH [tag] 211\t\t\t\\n        bytes4 sel = by\n      JUMP \t\t\t\\n        bytes4 sel = by\n    tag 296\t\t\t\\n        bytes4 sel = by\n      JUMPDEST \t\t\t\\n        bytes4 sel = by\n      DUP3 \t\t\try)\n      MSTORE \t\t\tes memory) {\\n        bytes4 s...\n      POP \t\t\talldata signature, bytes calld...\n      POP \t\t\talldata signature, bytes calld...\n      JUMP \t\t\talldata signature, bytes calld...\n    tag 42\t\t\t6(bytes(signature)));\\n       ...\n      JUMPDEST \t\t\t6(bytes(signature)));\\n       ...\n      PUSH 0\t\t\t Dec\n      PUSH 20\t\t\tg)\n      DUP3 \t\t\tpress(str\n      ADD \t\t\t di press(string) \n      SWAP1 \t\t\tarametri di press(string) \n      POP \t\t\tarametri di press(string) \n      PUSH [tag] 298\t\t\tdata (ignora i primi 4 bytes d...\n      PUSH 0\t\t\tr\n      DUP4 \t\t\tcodePress\n      ADD \t\t\tn decodePressPara\n      DUP5 \t\t\t  func\n      PUSH [tag] 212\t\t\tdata (ignora i primi 4 bytes d...\n      JUMP \t\t\tdata (ignora i primi 4 bytes d...\n    tag 298\t\t\tdata (ignora i primi 4 bytes d...\n      JUMPDEST \t\t\tdata (ignora i primi 4 bytes d...\n      SWAP3 \t\t\t6(bytes(signature)));\\n       ...\n      SWAP2 \t\t\t6(bytes(signature)));\\n       ...\n      POP \t\t\t6(bytes(signature)));\\n       ...\n      POP \t\t\t6(bytes(signature)));\\n       ...\n      JUMP \t\t\t6(bytes(signature)));\\n       ...\n    tag 213\t\t\ternal pure returns (string mem...\n      JUMPDEST \t\t\ternal pure returns (string mem...\n      PUSH 0\t\t\tuire(dat\n      DUP1 \t\t\tlength\n      DUP4 \t\t\tta \n      PUSH 1F\t\t\t cal\n      DUP5 \t\t\t   byt\n      ADD \t\t\t       bytes call\n      SLT \t\t\t);\\n        bytes calldata p\n      PUSH [tag] 300\t\t\t calldata\");\\n        bytes ca...\n      JUMPI \t\t\t calldata\");\\n        bytes ca...\n      PUSH [tag] 301\t\t\ts = data[4:];\\n        (messag...\n      PUSH [tag] 200\t\t\ts = data[4:];\\n        (messag...\n      JUMP \t\t\ts = data[4:];\\n        (messag...\n    tag 301\t\t\ts = data[4:];\\n        (messag...\n      JUMPDEST \t\t\ts = data[4:];\\n        (messag...\n    tag 300\t\t\t calldata\");\\n        bytes ca...\n      JUMPDEST \t\t\t calldata\");\\n        bytes ca...\n      DUP3 \t\t\t setCo\n      CALLDATALOAD \t\t\t parametri di setCoo\n      SWAP1 \t\t\tcodifica i parametri di setCoo\n      POP \t\t\tcodifica i parametri di setCoo\n      PUSH FFFFFFFFFFFFFFFF\t\t\tlldata\\n    functio\n      DUP2 \t\t\tda un \n      GT \t\t\t6) da un calldata\\n    functio...\n      ISZERO \t\t\tt256) da un calldata\\n    func...\n      PUSH [tag] 302\t\t\tt256) da un calldata\\n    func...\n      JUMPI \t\t\tt256) da un calldata\\n    func...\n      PUSH [tag] 303\t\t\tcodeSetCooldownParams(bytes ca...\n      PUSH [tag] 201\t\t\tcodeSetCooldownParams(bytes ca...\n      JUMP \t\t\tcodeSetCooldownParams(bytes ca...\n    tag 303\t\t\tcodeSetCooldownParams(bytes ca...\n      JUMPDEST \t\t\tcodeSetCooldownParams(bytes ca...\n    tag 302\t\t\tt256) da un calldata\\n    func...\n      JUMPDEST \t\t\tt256) da un calldata\\n    func...\n      PUSH 20\t\t\t>= 4\n      DUP4 \t\t\t.lengt\n      ADD \t\t\tdata.length >= 4,\n      SWAP2 \t\t\t    require(data.length >= 4,\n      POP \t\t\t    require(data.length >= 4,\n      DUP4 \t\t\t da\n      PUSH 1\t\t\tpara\n      DUP3 \t\t\talldat\n      MUL \t\t\tes calldata param\n      DUP4 \t\t\t       b\n      ADD \t\t\t);\\n        bytes calldata par...\n      GT \t\t\tta\");\\n        bytes calldata ...\n      ISZERO \t\t\tldata\");\\n        bytes callda...\n      PUSH [tag] 304\t\t\tldata\");\\n        bytes callda...\n      JUMPI \t\t\tldata\");\\n        bytes callda...\n      PUSH [tag] 305\t\t\t:];\\n        (seconds_) = abi....\n      PUSH [tag] 202\t\t\t:];\\n        (seconds_) = abi....\n      JUMP \t\t\t:];\\n        (seconds_) = abi....\n    tag 305\t\t\t:];\\n        (seconds_) = abi....\n      JUMPDEST \t\t\t:];\\n        (seconds_) = abi....\n    tag 304\t\t\tldata\");\\n        bytes callda...\n      JUMPDEST \t\t\tldata\");\\n        bytes callda...\n      SWAP3 \t\t\ternal pure returns (string mem...\n      POP \t\t\ternal pure returns (string mem...\n      SWAP3 \t\t\ternal pure returns (string mem...\n      SWAP1 \t\t\ternal pure returns (string mem...\n      POP \t\t\ternal pure returns (string mem...\n      JUMP \t\t\ternal pure returns (string mem...\n    tag 46\t\t\tarametri di withdraw(address,u...\n      JUMPDEST \t\t\tarametri di withdraw(address,u...\n      PUSH 0\t\t\ts call\n      DUP1 \t\t\tta dat\n      PUSH 0\t\t\t exter\n      DUP1 \t\t\tl pure\n      PUSH 40\t\t\t  \n      DUP6 \t\t\tmount) {\\n\n      DUP8 \t\t\tuint256\n      SUB \t\t\tto, uint256 amount) {\\n \n      SLT \t\t\tess to, uint256 amount) {\\n   ...\n      ISZERO \t\t\tddress to, uint256 amount) {\\n...\n      PUSH [tag] 307\t\t\tddress to, uint256 amount) {\\n...\n      JUMPI \t\t\tddress to, uint256 amount) {\\n...\n      PUSH [tag] 308\t\t\tequire(data.length >= 4, \"Bad ...\n      PUSH [tag] 198\t\t\tequire(data.length >= 4, \"Bad ...\n      JUMP \t\t\tequire(data.length >= 4, \"Bad ...\n    tag 308\t\t\tequire(data.length >= 4, \"Bad ...\n      JUMPDEST \t\t\tequire(data.length >= 4, \"Bad ...\n    tag 307\t\t\tddress to, uint256 amount) {\\n...\n      JUMPDEST \t\t\tddress to, uint256 amount) {\\n...\n      PUSH 0\t\t\t \n      DUP6 \t\t\tint256));\n      ADD \t\t\ts, uint256));\\n   \n      CALLDATALOAD \t\t\trams, (address, uint256));\\n  ...\n      PUSH FFFFFFFFFFFFFFFF\t\t\tla firma dell'even\n      DUP2 \t\t\tHash d\n      GT \t\t\tce Hash della firma dell'event\n      ISZERO \t\t\totice Hash della firma dell'ev...\n      PUSH [tag] 309\t\t\totice Hash della firma dell'ev...\n      JUMPI \t\t\totice Hash della firma dell'ev...\n      PUSH [tag] 310\t\t\tressed (topic0)\\n    function ...\n      PUSH [tag] 199\t\t\tressed (topic0)\\n    function ...\n      JUMP \t\t\tressed (topic0)\\n    function ...\n    tag 310\t\t\tressed (topic0)\\n    function ...\n      JUMPDEST \t\t\tressed (topic0)\\n    function ...\n    tag 309\t\t\totice Hash della firma dell'ev...\n      JUMPDEST \t\t\totice Hash della firma dell'ev...\n      PUSH [tag] 311\t\t\tssed(address,uint256,uint256,s...\n      DUP8 \t\t\t\n      DUP3 \t\t\t    }\\n\n      DUP9 \t\t\tint256)\")\n      ADD \t\t\tng,uint256)\");\\n    }\\n}\n      PUSH [tag] 203\t\t\tssed(address,uint256,uint256,s...\n      JUMP \t\t\tssed(address,uint256,uint256,s...\n    tag 311\t\t\tssed(address,uint256,uint256,s...\n      JUMPDEST \t\t\tssed(address,uint256,uint256,s...\n      SWAP5 \t\t\turn keccak256(\"Pressed(address...\n      POP \t\t\turn keccak256(\"Pressed(address...\n      SWAP5 \t\t\turn keccak256(\"Pressed(address...\n      POP \t\t\turn keccak256(\"Pressed(address...\n      POP \t\t\t (to, amount) = abi.decode(par...\n      PUSH 20\t\t\t\n      DUP6 \t\t\t\n      ADD \t\t\t\n      CALLDATALOAD \t\t\t\n      PUSH FFFFFFFFFFFFFFFF\t\t\t\n      DUP2 \t\t\t\n      GT \t\t\t\n      ISZERO \t\t\t\n      PUSH [tag] 312\t\t\t\n      JUMPI \t\t\t\n      PUSH [tag] 313\t\t\t\n      PUSH [tag] 199\t\t\t\n      JUMP \t\t\t\n    tag 313\t\t\t\n      JUMPDEST \t\t\t\n    tag 312\t\t\t\n      JUMPDEST \t\t\t\n      PUSH [tag] 314\t\t\t\n      DUP8 \t\t\t\n      DUP3 \t\t\t\n      DUP9 \t\t\t\n      ADD \t\t\t\n      PUSH [tag] 213\t\t\t\n      JUMP \t\t\t\n    tag 314\t\t\t\n      JUMPDEST \t\t\t\n      SWAP3 \t\t\t\n      POP \t\t\t\n      SWAP3 \t\t\t\n      POP \t\t\t\n      POP \t\t\t\n      SWAP3 \t\t\tarametri di withdraw(address,u...\n      SWAP6 \t\t\tarametri di withdraw(address,u...\n      SWAP2 \t\t\tarametri di withdraw(address,u...\n      SWAP5 \t\t\tarametri di withdraw(address,u...\n      POP \t\t\tarametri di withdraw(address,u...\n      SWAP3 \t\t\tarametri di withdraw(address,u...\n      POP \t\t\tarametri di withdraw(address,u...\n      JUMP \t\t\tarametri di withdraw(address,u...\n    tag 214\t\t\t\n      JUMPDEST \t\t\t\n      PUSH [tag] 316\t\t\t\n      DUP2 \t\t\t\n      PUSH [tag] 211\t\t\t\n      JUMP \t\t\t\n    tag 316\t\t\t\n      JUMPDEST \t\t\t\n      DUP2 \t\t\t\n      EQ \t\t\t\n      PUSH [tag] 317\t\t\t\n      JUMPI \t\t\t\n      PUSH 0\t\t\t\n      DUP1 \t\t\t\n      REVERT \t\t\t\n    tag 317\t\t\t\n      JUMPDEST \t\t\t\n      POP \t\t\t\n      JUMP \t\t\t\n    tag 215\t\t\t\n      JUMPDEST \t\t\t\n      PUSH 0\t\t\t\n      DUP2 \t\t\t\n      CALLDATALOAD \t\t\t\n      SWAP1 \t\t\t\n      POP \t\t\t\n      PUSH [tag] 319\t\t\t\n      DUP2 \t\t\t\n      PUSH [tag] 214\t\t\t\n      JUMP \t\t\t\n    tag 319\t\t\t\n      JUMPDEST \t\t\t\n      SWAP3 \t\t\t\n      SWAP2 \t\t\t\n      POP \t\t\t\n      POP \t\t\t\n      JUMP \t\t\t\n    tag 52\t\t\t\n      JUMPDEST \t\t\t\n      PUSH 0\t\t\t\n      PUSH 20\t\t\t\n      DUP3 \t\t\t\n      DUP5 \t\t\t\n      SUB \t\t\t\n      SLT \t\t\t\n      ISZERO \t\t\t\n      PUSH [tag] 321\t\t\t\n      JUMPI \t\t\t\n      PUSH [tag] 322\t\t\t\n      PUSH [tag] 198\t\t\t\n      JUMP \t\t\t\n    tag 322\t\t\t\n      JUMPDEST \t\t\t\n    tag 321\t\t\t\n      JUMPDEST \t\t\t\n      PUSH 0\t\t\t\n      PUSH [tag] 323\t\t\t\n      DUP5 \t\t\t\n      DUP3 \t\t\t\n      DUP6 \t\t\t\n      ADD \t\t\t\n      PUSH [tag] 215\t\t\t\n      JUMP \t\t\t\n    tag 323\t\t\t\n      JUMPDEST \t\t\t\n      SWAP2 \t\t\t\n      POP \t\t\t\n      POP \t\t\t\n      SWAP3 \t\t\t\n      SWAP2 \t\t\t\n      POP \t\t\t\n      POP \t\t\t\n      JUMP \t\t\t\n    tag 216\t\t\t\n      JUMPDEST \t\t\t\n      PUSH 0\t\t\t\n      PUSH FFFFFFFFFFFFFFFFFFFFFFFFFFFFFFFFFFFFFFFF\t\t\t\n      DUP3 \t\t\t\n      AND \t\t\t\n      SWAP1 \t\t\t\n      POP \t\t\t\n      SWAP2 \t\t\t\n      SWAP1 \t\t\t\n      POP \t\t\t\n      JUMP \t\t\t\n    tag 217\t\t\t\n      JUMPDEST \t\t\t\n      PUSH 0\t\t\t\n      PUSH [tag] 326\t\t\t\n      DUP3 \t\t\t\n      PUSH [tag] 216\t\t\t\n      JUMP \t\t\t\n    tag 326\t\t\t\n      JUMPDEST \t\t\t\n      SWAP1 \t\t\t\n      POP \t\t\t\n      SWAP2 \t\t\t\n      SWAP1 \t\t\t\n      POP \t\t\t\n      JUMP \t\t\t\n    tag 218\t\t\t\n      JUMPDEST \t\t\t\n      PUSH [tag] 328\t\t\t\n      DUP2 \t\t\t\n      PUSH [tag] 217\t\t\t\n      JUMP \t\t\t\n    tag 328\t\t\t\n      JUMPDEST \t\t\t\n      DUP2 \t\t\t\n      EQ \t\t\t\n      PUSH [tag] 329\t\t\t\n      JUMPI \t\t\t\n      PUSH 0\t\t\t\n      DUP1 \t\t\t\n      REVERT \t\t\t\n    tag 329\t\t\t\n      JUMPDEST \t\t\t\n      POP \t\t\t\n      JUMP \t\t\t\n    tag 219\t\t\t\n      JUMPDEST \t\t\t\n      PUSH 0\t\t\t\n      DUP2 \t\t\t\n      CALLDATALOAD \t\t\t\n      SWAP1 \t\t\t\n      POP \t\t\t\n      PUSH [tag] 331\t\t\t\n      DUP2 \t\t\t\n      PUSH [tag] 218\t\t\t\n      JUMP \t\t\t\n    tag 331\t\t\t\n      JUMPDEST \t\t\t\n      SWAP3 \t\t\t\n      SWAP2 \t\t\t\n      POP \t\t\t\n      POP \t\t\t\n      JUMP \t\t\t\n    tag 58\t\t\t\n      JUMPDEST \t\t\t\n      PUSH 0\t\t\t\n      PUSH 20\t\t\t\n      DUP3 \t\t\t\n      DUP5 \t\t\t\n      SUB \t\t\t\n      SLT \t\t\t\n      ISZERO \t\t\t\n      PUSH [tag] 333\t\t\t\n      JUMPI \t\t\t\n      PUSH [tag] 334\t\t\t\n      PUSH [tag] 198\t\t\t\n      JUMP \t\t\t\n    tag 334\t\t\t\n      JUMPDEST \t\t\t\n    tag 333\t\t\t\n      JUMPDEST \t\t\t\n      PUSH 0\t\t\t\n      PUSH [tag] 335\t\t\t\n      DUP5 \t\t\t\n      DUP3 \t\t\t\n      DUP6 \t\t\t\n      ADD \t\t\t\n      PUSH [tag] 219\t\t\t\n      JUMP \t\t\t\n    tag 335\t\t\t\n      JUMPDEST \t\t\t\n      SWAP2 \t\t\t\n      POP \t\t\t\n      POP \t\t\t\n      SWAP3 \t\t\t\n      SWAP2 \t\t\t\n      POP \t\t\t\n      POP \t\t\t\n      JUMP \t\t\t\n    tag 220\t\t\t\n      JUMPDEST \t\t\t\n      PUSH [tag] 337\t\t\t\n      DUP2 \t\t\t\n      PUSH [tag] 217\t\t\t\n      JUMP \t\t\t\n    tag 337\t\t\t\n      JUMPDEST \t\t\t\n      DUP3 \t\t\t\n      MSTORE \t\t\t\n      POP \t\t\t\n      POP \t\t\t\n      JUMP \t\t\t\n    tag 81\t\t\t\n      JUMPDEST \t\t\t\n      PUSH 0\t\t\t\n      PUSH 20\t\t\t\n      DUP3 \t\t\t\n      ADD \t\t\t\n      SWAP1 \t\t\t\n      POP \t\t\t\n      PUSH [tag] 339\t\t\t\n      PUSH 0\t\t\t\n      DUP4 \t\t\t\n      ADD \t\t\t\n      DUP5 \t\t\t\n      PUSH [tag] 220\t\t\t\n      JUMP \t\t\t\n    tag 339\t\t\t\n      JUMPDEST \t\t\t\n      SWAP3 \t\t\t\n      SWAP2 \t\t\t\n      POP \t\t\t\n      POP \t\t\t\n      JUMP \t\t\t\n    tag 85\t\t\t\n      JUMPDEST \t\t\t\n      PUSH 0\t\t\t\n      DUP1 \t\t\t\n      PUSH 40\t\t\t\n      DUP4 \t\t\t\n      DUP6 \t\t\t\n      SUB \t\t\t\n      SLT \t\t\t\n      ISZERO \t\t\t\n      PUSH [tag] 341\t\t\t\n      JUMPI \t\t\t\n      PUSH [tag] 342\t\t\t\n      PUSH [tag] 198\t\t\t\n      JUMP \t\t\t\n    tag 342\t\t\t\n      JUMPDEST \t\t\t\n    tag 341\t\t\t\n      JUMPDEST \t\t\t\n      PUSH 0\t\t\t\n      PUSH [tag] 343\t\t\t\n      DUP6 \t\t\t\n      DUP3 \t\t\t\n      DUP7 \t\t\t\n      ADD \t\t\t\n      PUSH [tag] 219\t\t\t\n      JUMP \t\t\t\n    tag 343\t\t\t\n      JUMPDEST \t\t\t\n      SWAP3 \t\t\t\n      POP \t\t\t\n      POP \t\t\t\n      PUSH 20\t\t\t\n      PUSH [tag] 344\t\t\t\n      DUP6 \t\t\t\n      DUP3 \t\t\t\n      DUP7 \t\t\t\n      ADD \t\t\t\n      PUSH [tag] 215\t\t\t\n      JUMP \t\t\t\n    tag 344\t\t\t\n      JUMPDEST \t\t\t\n      SWAP2 \t\t\t\n      POP \t\t\t\n      POP \t\t\t\n      SWAP3 \t\t\t\n      POP \t\t\t\n      SWAP3 \t\t\t\n      SWAP1 \t\t\t\n      POP \t\t\t\n      JUMP \t\t\t\n    tag 221\t\t\t\n      JUMPDEST \t\t\t\n      PUSH 0\t\t\t\n      DUP2 \t\t\t\n      SWAP1 \t\t\t\n      POP \t\t\t\n      SWAP2 \t\t\t\n      SWAP1 \t\t\t\n      POP \t\t\t\n      JUMP \t\t\t\n    tag 222\t\t\t\n      JUMPDEST \t\t\t\n      PUSH [tag] 347\t\t\t\n      DUP2 \t\t\t\n      PUSH [tag] 221\t\t\t\n      JUMP \t\t\t\n    tag 347\t\t\t\n      JUMPDEST \t\t\t\n      DUP3 \t\t\t\n      MSTORE \t\t\t\n      POP \t\t\t\n      POP \t\t\t\n      JUMP \t\t\t\n    tag 101\t\t\t\n      JUMPDEST \t\t\t\n      PUSH 0\t\t\t\n      PUSH 20\t\t\t\n      DUP3 \t\t\t\n      ADD \t\t\t\n      SWAP1 \t\t\t\n      POP \t\t\t\n      PUSH [tag] 349\t\t\t\n      PUSH 0\t\t\t\n      DUP4 \t\t\t\n      ADD \t\t\t\n      DUP5 \t\t\t\n      PUSH [tag] 222\t\t\t\n      JUMP \t\t\t\n    tag 349\t\t\t\n      JUMPDEST \t\t\t\n      SWAP3 \t\t\t\n      SWAP2 \t\t\t\n      POP \t\t\t\n      POP \t\t\t\n      JUMP \t\t\t\n    tag 110\t\t\t\n      JUMPDEST \t\t\t\n      PUSH 0\t\t\t\n      DUP1 \t\t\t\n      PUSH 20\t\t\t\n      DUP4 \t\t\t\n      DUP6 \t\t\t\n      SUB \t\t\t\n      SLT \t\t\t\n      ISZERO \t\t\t\n      PUSH [tag] 351\t\t\t\n      JUMPI \t\t\t\n      PUSH [tag] 352\t\t\t\n      PUSH [tag] 198\t\t\t\n      JUMP \t\t\t\n    tag 352\t\t\t\n      JUMPDEST \t\t\t\n    tag 351\t\t\t\n      JUMPDEST \t\t\t\n      PUSH 0\t\t\t\n      DUP4 \t\t\t\n      ADD \t\t\t\n      CALLDATALOAD \t\t\t\n      PUSH FFFFFFFFFFFFFFFF\t\t\t\n      DUP2 \t\t\t\n      GT \t\t\t\n      ISZERO \t\t\t\n      PUSH [tag] 353\t\t\t\n      JUMPI \t\t\t\n      PUSH [tag] 354\t\t\t\n      PUSH [tag] 199\t\t\t\n      JUMP \t\t\t\n    tag 354\t\t\t\n      JUMPDEST \t\t\t\n    tag 353\t\t\t\n      JUMPDEST \t\t\t\n      PUSH [tag] 355\t\t\t\n      DUP6 \t\t\t\n      DUP3 \t\t\t\n      DUP7 \t\t\t\n      ADD \t\t\t\n      PUSH [tag] 213\t\t\t\n      JUMP \t\t\t\n    tag 355\t\t\t\n      JUMPDEST \t\t\t\n      SWAP3 \t\t\t\n      POP \t\t\t\n      SWAP3 \t\t\t\n      POP \t\t\t\n      POP \t\t\t\n      SWAP3 \t\t\t\n      POP \t\t\t\n      SWAP3 \t\t\t\n      SWAP1 \t\t\t\n      POP \t\t\t\n      JUMP \t\t\t\n    tag 223\t\t\t\n      JUMPDEST \t\t\t\n      PUSH 0\t\t\t\n      DUP2 \t\t\t\n      MLOAD \t\t\t\n      SWAP1 \t\t\t\n      POP \t\t\t\n      SWAP2 \t\t\t\n      SWAP1 \t\t\t\n      POP \t\t\t\n      JUMP \t\t\t\n    tag 224\t\t\t\n      JUMPDEST \t\t\t\n      PUSH 0\t\t\t\n      DUP3 \t\t\t\n      DUP3 \t\t\t\n      MSTORE \t\t\t\n      PUSH 20\t\t\t\n      DUP3 \t\t\t\n      ADD \t\t\t\n      SWAP1 \t\t\t\n      POP \t\t\t\n      SWAP3 \t\t\t\n      SWAP2 \t\t\t\n      POP \t\t\t\n      POP \t\t\t\n      JUMP \t\t\t\n    tag 225\t\t\t\n      JUMPDEST \t\t\t\n      PUSH 0\t\t\t\n      PUSH [tag] 359\t\t\t\n      DUP3 \t\t\t\n      PUSH [tag] 223\t\t\t\n      JUMP \t\t\t\n    tag 359\t\t\t\n      JUMPDEST \t\t\t\n      PUSH [tag] 360\t\t\t\n      DUP2 \t\t\t\n      DUP6 \t\t\t\n      PUSH [tag] 224\t\t\t\n      JUMP \t\t\t\n    tag 360\t\t\t\n      JUMPDEST \t\t\t\n      SWAP4 \t\t\t\n      POP \t\t\t\n      PUSH [tag] 361\t\t\t\n      DUP2 \t\t\t\n      DUP6 \t\t\t\n      PUSH 20\t\t\t\n      DUP7 \t\t\t\n      ADD \t\t\t\n      PUSH [tag] 206\t\t\t\n      JUMP \t\t\t\n    tag 361\t\t\t\n      JUMPDEST \t\t\t\n      PUSH [tag] 362\t\t\t\n      DUP2 \t\t\t\n      PUSH [tag] 207\t\t\t\n      JUMP \t\t\t\n    tag 362\t\t\t\n      JUMPDEST \t\t\t\n      DUP5 \t\t\t\n      ADD \t\t\t\n      SWAP2 \t\t\t\n      POP \t\t\t\n      POP \t\t\t\n      SWAP3 \t\t\t\n      SWAP2 \t\t\t\n      POP \t\t\t\n      POP \t\t\t\n      JUMP \t\t\t\n    tag 118\t\t\t\n      JUMPDEST \t\t\t\n      PUSH 0\t\t\t\n      PUSH 20\t\t\t\n      DUP3 \t\t\t\n      ADD \t\t\t\n      SWAP1 \t\t\t\n      POP \t\t\t\n      DUP2 \t\t\t\n      DUP2 \t\t\t\n      SUB \t\t\t\n      PUSH 0\t\t\t\n      DUP4 \t\t\t\n      ADD \t\t\t\n      MSTORE \t\t\t\n      PUSH [tag] 364\t\t\t\n      DUP2 \t\t\t\n      DUP5 \t\t\t\n      PUSH [tag] 225\t\t\t\n      JUMP \t\t\t\n    tag 364\t\t\t\n      JUMPDEST \t\t\t\n      SWAP1 \t\t\t\n      POP \t\t\t\n      SWAP3 \t\t\t\n      SWAP2 \t\t\t\n      POP \t\t\t\n      POP \t\t\t\n      JUMP \t\t\t\n    tag 226\t\t\t\n      JUMPDEST \t\t\t\n      PUSH 0\t\t\t\n      PUSH [tag] 366\t\t\t\n      DUP3 \t\t\t\n      PUSH [tag] 216\t\t\t\n      JUMP \t\t\t\n    tag 366\t\t\t\n      JUMPDEST \t\t\t\n      SWAP1 \t\t\t\n      POP \t\t\t\n      SWAP2 \t\t\t\n      SWAP1 \t\t\t\n      POP \t\t\t\n      JUMP \t\t\t\n    tag 227\t\t\t\n      JUMPDEST \t\t\t\n      PUSH [tag] 368\t\t\t\n      DUP2 \t\t\t\n      PUSH [tag] 226\t\t\t\n      JUMP \t\t\t\n    tag 368\t\t\t\n      JUMPDEST \t\t\t\n      DUP2 \t\t\t\n      EQ \t\t\t\n      PUSH [tag] 369\t\t\t\n      JUMPI \t\t\t\n      PUSH 0\t\t\t\n      DUP1 \t\t\t\n      REVERT \t\t\t\n    tag 369\t\t\t\n      JUMPDEST \t\t\t\n      POP \t\t\t\n      JUMP \t\t\t\n    tag 228\t\t\t\n      JUMPDEST \t\t\t\n      PUSH 0\t\t\t\n      DUP2 \t\t\t\n      CALLDATALOAD \t\t\t\n      SWAP1 \t\t\t\n      POP \t\t\t\n      PUSH [tag] 371\t\t\t\n      DUP2 \t\t\t\n      PUSH [tag] 227\t\t\t\n      JUMP \t\t\t\n    tag 371\t\t\t\n      JUMPDEST \t\t\t\n      SWAP3 \t\t\t\n      SWAP2 \t\t\t\n      POP \t\t\t\n      POP \t\t\t\n      JUMP \t\t\t\n    tag 125\t\t\t\n      JUMPDEST \t\t\t\n      PUSH 0\t\t\t\n      DUP1 \t\t\t\n      PUSH 40\t\t\t\n      DUP4 \t\t\t\n      DUP6 \t\t\t\n      SUB \t\t\t\n      SLT \t\t\t\n      ISZERO \t\t\t\n      PUSH [tag] 373\t\t\t\n      JUMPI \t\t\t\n      PUSH [tag] 374\t\t\t\n      PUSH [tag] 198\t\t\t\n      JUMP \t\t\t\n    tag 374\t\t\t\n      JUMPDEST \t\t\t\n    tag 373\t\t\t\n      JUMPDEST \t\t\t\n      PUSH 0\t\t\t\n      PUSH [tag] 375\t\t\t\n      DUP6 \t\t\t\n      DUP3 \t\t\t\n      DUP7 \t\t\t\n      ADD \t\t\t\n      PUSH [tag] 228\t\t\t\n      JUMP \t\t\t\n    tag 375\t\t\t\n      JUMPDEST \t\t\t\n      SWAP3 \t\t\t\n      POP \t\t\t\n      POP \t\t\t\n      PUSH 20\t\t\t\n      PUSH [tag] 376\t\t\t\n      DUP6 \t\t\t\n      DUP3 \t\t\t\n      DUP7 \t\t\t\n      ADD \t\t\t\n      PUSH [tag] 215\t\t\t\n      JUMP \t\t\t\n    tag 376\t\t\t\n      JUMPDEST \t\t\t\n      SWAP2 \t\t\t\n      POP \t\t\t\n      POP \t\t\t\n      SWAP3 \t\t\t\n      POP \t\t\t\n      SWAP3 \t\t\t\n      SWAP1 \t\t\t\n      POP \t\t\t\n      JUMP \t\t\t\n    tag 132\t\t\t\n      JUMPDEST \t\t\t\n      PUSH 0\t\t\t\n      PUSH 40\t\t\t\n      DUP3 \t\t\t\n      ADD \t\t\t\n      SWAP1 \t\t\t\n      POP \t\t\t\n      PUSH [tag] 378\t\t\t\n      PUSH 0\t\t\t\n      DUP4 \t\t\t\n      ADD \t\t\t\n      DUP6 \t\t\t\n      PUSH [tag] 220\t\t\t\n      JUMP \t\t\t\n    tag 378\t\t\t\n      JUMPDEST \t\t\t\n      PUSH [tag] 379\t\t\t\n      PUSH 20\t\t\t\n      DUP4 \t\t\t\n      ADD \t\t\t\n      DUP5 \t\t\t\n      PUSH [tag] 212\t\t\t\n      JUMP \t\t\t\n    tag 379\t\t\t\n      JUMPDEST \t\t\t\n      SWAP4 \t\t\t\n      SWAP3 \t\t\t\n      POP \t\t\t\n      POP \t\t\t\n      POP \t\t\t\n      JUMP \t\t\t\n    tag 229\t\t\t\n      JUMPDEST \t\t\t\n      DUP3 \t\t\t\n      DUP2 \t\t\t\n      DUP4 \t\t\t\n      CALLDATACOPY \t\t\t\n      PUSH 0\t\t\t\n      DUP4 \t\t\t\n      DUP4 \t\t\t\n      ADD \t\t\t\n      MSTORE \t\t\t\n      POP \t\t\t\n      POP \t\t\t\n      POP \t\t\t\n      JUMP \t\t\t\n    tag 230\t\t\t\n      JUMPDEST \t\t\t\n      PUSH 0\t\t\t\n      PUSH [tag] 382\t\t\t\n      DUP4 \t\t\t\n      DUP6 \t\t\t\n      PUSH [tag] 224\t\t\t\n      JUMP \t\t\t\n    tag 382\t\t\t\n      JUMPDEST \t\t\t\n      SWAP4 \t\t\t\n      POP \t\t\t\n      PUSH [tag] 383\t\t\t\n      DUP4 \t\t\t\n      DUP6 \t\t\t\n      DUP5 \t\t\t\n      PUSH [tag] 229\t\t\t\n      JUMP \t\t\t\n    tag 383\t\t\t\n      JUMPDEST \t\t\t\n      PUSH [tag] 384\t\t\t\n      DUP4 \t\t\t\n      PUSH [tag] 207\t\t\t\n      JUMP \t\t\t\n    tag 384\t\t\t\n      JUMPDEST \t\t\t\n      DUP5 \t\t\t\n      ADD \t\t\t\n      SWAP1 \t\t\t\n      POP \t\t\t\n      SWAP4 \t\t\t\n      SWAP3 \t\t\t\n      POP \t\t\t\n      POP \t\t\t\n      POP \t\t\t\n      JUMP \t\t\t\n    tag 135\t\t\t\n      JUMPDEST \t\t\t\n      PUSH 0\t\t\t\n      PUSH 20\t\t\t\n      DUP3 \t\t\t\n      ADD \t\t\t\n      SWAP1 \t\t\t\n      POP \t\t\t\n      DUP2 \t\t\t\n      DUP2 \t\t\t\n      SUB \t\t\t\n      PUSH 0\t\t\t\n      DUP4 \t\t\t\n      ADD \t\t\t\n      MSTORE \t\t\t\n      PUSH [tag] 386\t\t\t\n      DUP2 \t\t\t\n      DUP5 \t\t\t\n      DUP7 \t\t\t\n      PUSH [tag] 230\t\t\t\n      JUMP \t\t\t\n    tag 386\t\t\t\n      JUMPDEST \t\t\t\n      SWAP1 \t\t\t\n      POP \t\t\t\n      SWAP4 \t\t\t\n      SWAP3 \t\t\t\n      POP \t\t\t\n      POP \t\t\t\n      POP \t\t\t\n      JUMP \t\t\t\n    tag 231\t\t\t\n      JUMPDEST \t\t\t\n      PUSH 0\t\t\t\n      DUP2 \t\t\t\n      SWAP1 \t\t\t\n      POP \t\t\t\n      SWAP3 \t\t\t\n      SWAP2 \t\t\t\n      POP \t\t\t\n      POP \t\t\t\n      JUMP \t\t\t\n    tag 232\t\t\t\n      JUMPDEST \t\t\t\n      PUSH 0\t\t\t\n      PUSH [tag] 389\t\t\t\n      DUP4 \t\t\t\n      DUP6 \t\t\t\n      PUSH [tag] 231\t\t\t\n      JUMP \t\t\t\n    tag 389\t\t\t\n      JUMPDEST \t\t\t\n      SWAP4 \t\t\t\n      POP \t\t\t\n      PUSH [tag] 390\t\t\t\n      DUP4 \t\t\t\n      DUP6 \t\t\t\n      DUP5 \t\t\t\n      PUSH [tag] 229\t\t\t\n      JUMP \t\t\t\n    tag 390\t\t\t\n      JUMPDEST \t\t\t\n      DUP3 \t\t\t\n      DUP5 \t\t\t\n      ADD \t\t\t\n      SWAP1 \t\t\t\n      POP \t\t\t\n      SWAP4 \t\t\t\n      SWAP3 \t\t\t\n      POP \t\t\t\n      POP \t\t\t\n      POP \t\t\t\n      JUMP \t\t\t\n    tag 139\t\t\t\n      JUMPDEST \t\t\t\n      PUSH 0\t\t\t\n      PUSH [tag] 392\t\t\t\n      DUP3 \t\t\t\n      DUP5 \t\t\t\n      DUP7 \t\t\t\n      PUSH [tag] 232\t\t\t\n      JUMP \t\t\t\n    tag 392\t\t\t\n      JUMPDEST \t\t\t\n      SWAP2 \t\t\t\n      POP \t\t\t\n      DUP2 \t\t\t\n      SWAP1 \t\t\t\n      POP \t\t\t\n      SWAP4 \t\t\t\n      SWAP3 \t\t\t\n      POP \t\t\t\n      POP \t\t\t\n      POP \t\t\t\n      JUMP \t\t\t\n    tag 233\t\t\t\n      JUMPDEST \t\t\t\n      PUSH 0\t\t\t\n      DUP2 \t\t\t\n      SWAP1 \t\t\t\n      POP \t\t\t\n      SWAP2 \t\t\t\n      SWAP1 \t\t\t\n      POP \t\t\t\n      JUMP \t\t\t\n    tag 234\t\t\t\n      JUMPDEST \t\t\t\n      PUSH [tag] 395\t\t\t\n      PUSH [tag] 396\t\t\t\n      DUP3 \t\t\t\n      PUSH [tag] 209\t\t\t\n      JUMP \t\t\t\n    tag 396\t\t\t\n      JUMPDEST \t\t\t\n      PUSH [tag] 233\t\t\t\n      JUMP \t\t\t\n    tag 395\t\t\t\n      JUMPDEST \t\t\t\n      DUP3 \t\t\t\n      MSTORE \t\t\t\n      POP \t\t\t\n      POP \t\t\t\n      JUMP \t\t\t\n    tag 141\t\t\t\n      JUMPDEST \t\t\t\n      PUSH 0\t\t\t\n      PUSH [tag] 398\t\t\t\n      DUP3 \t\t\t\n      DUP7 \t\t\t\n      PUSH [tag] 234\t\t\t\n      JUMP \t\t\t\n    tag 398\t\t\t\n      JUMPDEST \t\t\t\n      PUSH 4\t\t\t\n      DUP3 \t\t\t\n      ADD \t\t\t\n      SWAP2 \t\t\t\n      POP \t\t\t\n      PUSH [tag] 399\t\t\t\n      DUP3 \t\t\t\n      DUP5 \t\t\t\n      DUP7 \t\t\t\n      PUSH [tag] 232\t\t\t\n      JUMP \t\t\t\n    tag 399\t\t\t\n      JUMPDEST \t\t\t\n      SWAP2 \t\t\t\n      POP \t\t\t\n      DUP2 \t\t\t\n      SWAP1 \t\t\t\n      POP \t\t\t\n      SWAP5 \t\t\t\n      SWAP4 \t\t\t\n      POP \t\t\t\n      POP \t\t\t\n      POP \t\t\t\n      POP \t\t\t\n      JUMP \t\t\t\n    tag 235\t\t\t\n      JUMPDEST \t\t\t\n      PUSH 4E6F74206F776E65720000000000000000000000000000000000000000000000\t\t\t\n      PUSH 0\t\t\t\n      DUP3 \t\t\t\n      ADD \t\t\t\n      MSTORE \t\t\t\n      POP \t\t\t\n      JUMP \t\t\t\n    tag 236\t\t\t\n      JUMPDEST \t\t\t\n      PUSH 0\t\t\t\n      PUSH [tag] 402\t\t\t\n      PUSH 9\t\t\t\n      DUP4 \t\t\t\n      PUSH [tag] 224\t\t\t\n      JUMP \t\t\t\n    tag 402\t\t\t\n      JUMPDEST \t\t\t\n      SWAP2 \t\t\t\n      POP \t\t\t\n      PUSH [tag] 403\t\t\t\n      DUP3 \t\t\t\n      PUSH [tag] 235\t\t\t\n      JUMP \t\t\t\n    tag 403\t\t\t\n      JUMPDEST \t\t\t\n      PUSH 20\t\t\t\n      DUP3 \t\t\t\n      ADD \t\t\t\n      SWAP1 \t\t\t\n      POP \t\t\t\n      SWAP2 \t\t\t\n      SWAP1 \t\t\t\n      POP \t\t\t\n      JUMP \t\t\t\n    tag 148\t\t\t\n      JUMPDEST \t\t\t\n      PUSH 0\t\t\t\n      PUSH 20\t\t\t\n      DUP3 \t\t\t\n      ADD \t\t\t\n      SWAP1 \t\t\t\n      POP \t\t\t\n      DUP2 \t\t\t\n      DUP2 \t\t\t\n      SUB \t\t\t\n      PUSH 0\t\t\t\n      DUP4 \t\t\t\n      ADD \t\t\t\n      MSTORE \t\t\t\n      PUSH [tag] 405\t\t\t\n      DUP2 \t\t\t\n      PUSH [tag] 236\t\t\t\n      JUMP \t\t\t\n    tag 405\t\t\t\n      JUMPDEST \t\t\t\n      SWAP1 \t\t\t\n      POP \t\t\t\n      SWAP2 \t\t\t\n      SWAP1 \t\t\t\n      POP \t\t\t\n      JUMP \t\t\t\n    tag 237\t\t\t\n      JUMPDEST \t\t\t\n      PUSH 436F6F6C646F776E20746F6F2068696768000000000000000000000000000000\t\t\t\n      PUSH 0\t\t\t\n      DUP3 \t\t\t\n      ADD \t\t\t\n      MSTORE \t\t\t\n      POP \t\t\t\n      JUMP \t\t\t\n    tag 238\t\t\t\n      JUMPDEST \t\t\t\n      PUSH 0\t\t\t\n      PUSH [tag] 408\t\t\t\n      PUSH 11\t\t\t\n      DUP4 \t\t\t\n      PUSH [tag] 224\t\t\t\n      JUMP \t\t\t\n    tag 408\t\t\t\n      JUMPDEST \t\t\t\n      SWAP2 \t\t\t\n      POP \t\t\t\n      PUSH [tag] 409\t\t\t\n      DUP3 \t\t\t\n      PUSH [tag] 237\t\t\t\n      JUMP \t\t\t\n    tag 409\t\t\t\n      JUMPDEST \t\t\t\n      PUSH 20\t\t\t\n      DUP3 \t\t\t\n      ADD \t\t\t\n      SWAP1 \t\t\t\n      POP \t\t\t\n      SWAP2 \t\t\t\n      SWAP1 \t\t\t\n      POP \t\t\t\n      JUMP \t\t\t\n    tag 152\t\t\t\n      JUMPDEST \t\t\t\n      PUSH 0\t\t\t\n      PUSH 20\t\t\t\n      DUP3 \t\t\t\n      ADD \t\t\t\n      SWAP1 \t\t\t\n      POP \t\t\t\n      DUP2 \t\t\t\n      DUP2 \t\t\t\n      SUB \t\t\t\n      PUSH 0\t\t\t\n      DUP4 \t\t\t\n      ADD \t\t\t\n      MSTORE \t\t\t\n      PUSH [tag] 411\t\t\t\n      DUP2 \t\t\t\n      PUSH [tag] 238\t\t\t\n      JUMP \t\t\t\n    tag 411\t\t\t\n      JUMPDEST \t\t\t\n      SWAP1 \t\t\t\n      POP \t\t\t\n      SWAP2 \t\t\t\n      SWAP1 \t\t\t\n      POP \t\t\t\n      JUMP \t\t\t\n    tag 239\t\t\t\n      JUMPDEST \t\t\t\n      PUSH 4261642063616C6C646174610000000000000000000000000000000000000000\t\t\t\n      PUSH 0\t\t\t\n      DUP3 \t\t\t\n      ADD \t\t\t\n      MSTORE \t\t\t\n      POP \t\t\t\n      JUMP \t\t\t\n    tag 240\t\t\t\n      JUMPDEST \t\t\t\n      PUSH 0\t\t\t\n      PUSH [tag] 414\t\t\t\n      PUSH C\t\t\t\n      DUP4 \t\t\t\n      PUSH [tag] 224\t\t\t\n      JUMP \t\t\t\n    tag 414\t\t\t\n      JUMPDEST \t\t\t\n      SWAP2 \t\t\t\n      POP \t\t\t\n      PUSH [tag] 415\t\t\t\n      DUP3 \t\t\t\n      PUSH [tag] 239\t\t\t\n      JUMP \t\t\t\n    tag 415\t\t\t\n      JUMPDEST \t\t\t\n      PUSH 20\t\t\t\n      DUP3 \t\t\t\n      ADD \t\t\t\n      SWAP1 \t\t\t\n      POP \t\t\t\n      SWAP2 \t\t\t\n      SWAP1 \t\t\t\n      POP \t\t\t\n      JUMP \t\t\t\n    tag 163\t\t\t\n      JUMPDEST \t\t\t\n      PUSH 0\t\t\t\n      PUSH 20\t\t\t\n      DUP3 \t\t\t\n      ADD \t\t\t\n      SWAP1 \t\t\t\n      POP \t\t\t\n      DUP2 \t\t\t\n      DUP2 \t\t\t\n      SUB \t\t\t\n      PUSH 0\t\t\t\n      DUP4 \t\t\t\n      ADD \t\t\t\n      MSTORE \t\t\t\n      PUSH [tag] 417\t\t\t\n      DUP2 \t\t\t\n      PUSH [tag] 240\t\t\t\n      JUMP \t\t\t\n    tag 417\t\t\t\n      JUMPDEST \t\t\t\n      SWAP1 \t\t\t\n      POP \t\t\t\n      SWAP2 \t\t\t\n      SWAP1 \t\t\t\n      POP \t\t\t\n      JUMP \t\t\t\n    tag 241\t\t\t\n      JUMPDEST \t\t\t\n      PUSH 0\t\t\t\n      DUP1 \t\t\t\n      REVERT \t\t\t\n    tag 242\t\t\t\n      JUMPDEST \t\t\t\n      PUSH 0\t\t\t\n      DUP1 \t\t\t\n      REVERT \t\t\t\n    tag 165\t\t\t\n      JUMPDEST \t\t\t\n      PUSH 0\t\t\t\n      DUP1 \t\t\t\n      DUP6 \t\t\t\n      DUP6 \t\t\t\n      GT \t\t\t\n      ISZERO \t\t\t\n      PUSH [tag] 421\t\t\t\n      JUMPI \t\t\t\n      PUSH [tag] 422\t\t\t\n      PUSH [tag] 241\t\t\t\n      JUMP \t\t\t\n    tag 422\t\t\t\n      JUMPDEST \t\t\t\n    tag 421\t\t\t\n      JUMPDEST \t\t\t\n      DUP4 \t\t\t\n      DUP7 \t\t\t\n      GT \t\t\t\n      ISZERO \t\t\t\n      PUSH [tag] 423\t\t\t\n      JUMPI \t\t\t\n      PUSH [tag] 424\t\t\t\n      PUSH [tag] 242\t\t\t\n      JUMP \t\t\t\n    tag 424\t\t\t\n      JUMPDEST \t\t\t\n    tag 423\t\t\t\n      JUMPDEST \t\t\t\n      PUSH 1\t\t\t\n      DUP6 \t\t\t\n      MUL \t\t\t\n      DUP4 \t\t\t\n      ADD \t\t\t\n      SWAP2 \t\t\t\n      POP \t\t\t\n      DUP5 \t\t\t\n      DUP7 \t\t\t\n      SUB \t\t\t\n      SWAP1 \t\t\t\n      POP \t\t\t\n      SWAP5 \t\t\t\n      POP \t\t\t\n      SWAP5 \t\t\t\n      SWAP3 \t\t\t\n      POP \t\t\t\n      POP \t\t\t\n      POP \t\t\t\n      JUMP \t\t\t\n    tag 243\t\t\t\n      JUMPDEST \t\t\t\n      PUSH 0\t\t\t\n      DUP1 \t\t\t\n      REVERT \t\t\t\n    tag 244\t\t\t\n      JUMPDEST \t\t\t\n      PUSH 4E487B7100000000000000000000000000000000000000000000000000000000\t\t\t\n      PUSH 0\t\t\t\n      MSTORE \t\t\t\n      PUSH 41\t\t\t\n      PUSH 4\t\t\t\n      MSTORE \t\t\t\n      PUSH 24\t\t\t\n      PUSH 0\t\t\t\n      REVERT \t\t\t\n    tag 245\t\t\t\n      JUMPDEST \t\t\t\n      PUSH [tag] 428\t\t\t\n      DUP3 \t\t\t\n      PUSH [tag] 207\t\t\t\n      JUMP \t\t\t\n    tag 428\t\t\t\n      JUMPDEST \t\t\t\n      DUP2 \t\t\t\n      ADD \t\t\t\n      DUP2 \t\t\t\n      DUP2 \t\t\t\n      LT \t\t\t\n      PUSH FFFFFFFFFFFFFFFF\t\t\t\n      DUP3 \t\t\t\n      GT \t\t\t\n      OR \t\t\t\n      ISZERO \t\t\t\n      PUSH [tag] 429\t\t\t\n      JUMPI \t\t\t\n      PUSH [tag] 430\t\t\t\n      PUSH [tag] 244\t\t\t\n      JUMP \t\t\t\n    tag 430\t\t\t\n      JUMPDEST \t\t\t\n    tag 429\t\t\t\n      JUMPDEST \t\t\t\n      DUP1 \t\t\t\n      PUSH 40\t\t\t\n      MSTORE \t\t\t\n      POP \t\t\t\n      POP \t\t\t\n      POP \t\t\t\n      JUMP \t\t\t\n    tag 246\t\t\t\n      JUMPDEST \t\t\t\n      PUSH 0\t\t\t\n      PUSH [tag] 432\t\t\t\n      PUSH [tag] 197\t\t\t\n      JUMP \t\t\t\n    tag 432\t\t\t\n      JUMPDEST \t\t\t\n      SWAP1 \t\t\t\n      POP \t\t\t\n      PUSH [tag] 433\t\t\t\n      DUP3 \t\t\t\n      DUP3 \t\t\t\n      PUSH [tag] 245\t\t\t\n      JUMP \t\t\t\n    tag 433\t\t\t\n      JUMPDEST \t\t\t\n      SWAP2 \t\t\t\n      SWAP1 \t\t\t\n      POP \t\t\t\n      JUMP \t\t\t\n    tag 247\t\t\t\n      JUMPDEST \t\t\t\n      PUSH 0\t\t\t\n      PUSH FFFFFFFFFFFFFFFF\t\t\t\n      DUP3 \t\t\t\n      GT \t\t\t\n      ISZERO \t\t\t\n      PUSH [tag] 435\t\t\t\n      JUMPI \t\t\t\n      PUSH [tag] 436\t\t\t\n      PUSH [tag] 244\t\t\t\n      JUMP \t\t\t\n    tag 436\t\t\t\n      JUMPDEST \t\t\t\n    tag 435\t\t\t\n      JUMPDEST \t\t\t\n      PUSH [tag] 437\t\t\t\n      DUP3 \t\t\t\n      PUSH [tag] 207\t\t\t\n      JUMP \t\t\t\n    tag 437\t\t\t\n      JUMPDEST \t\t\t\n      SWAP1 \t\t\t\n      POP \t\t\t\n      PUSH 20\t\t\t\n      DUP2 \t\t\t\n      ADD \t\t\t\n      SWAP1 \t\t\t\n      POP \t\t\t\n      SWAP2 \t\t\t\n      SWAP1 \t\t\t\n      POP \t\t\t\n      JUMP \t\t\t\n    tag 248\t\t\t\n      JUMPDEST \t\t\t\n      PUSH 0\t\t\t\n      PUSH [tag] 439\t\t\t\n      PUSH [tag] 440\t\t\t\n      DUP5 \t\t\t\n      PUSH [tag] 247\t\t\t\n      JUMP \t\t\t\n    tag 440\t\t\t\n      JUMPDEST \t\t\t\n      PUSH [tag] 246\t\t\t\n      JUMP \t\t\t\n    tag 439\t\t\t\n      JUMPDEST \t\t\t\n      SWAP1 \t\t\t\n      POP \t\t\t\n      DUP3 \t\t\t\n      DUP2 \t\t\t\n      MSTORE \t\t\t\n      PUSH 20\t\t\t\n      DUP2 \t\t\t\n      ADD \t\t\t\n      DUP5 \t\t\t\n      DUP5 \t\t\t\n      DUP5 \t\t\t\n      ADD \t\t\t\n      GT \t\t\t\n      ISZERO \t\t\t\n      PUSH [tag] 441\t\t\t\n      JUMPI \t\t\t\n      PUSH [tag] 442\t\t\t\n      PUSH [tag] 243\t\t\t\n      JUMP \t\t\t\n    tag 442\t\t\t\n      JUMPDEST \t\t\t\n    tag 441\t\t\t\n      JUMPDEST \t\t\t\n      PUSH [tag] 443\t\t\t\n      DUP5 \t\t\t\n      DUP3 \t\t\t\n      DUP6 \t\t\t\n      PUSH [tag] 229\t\t\t\n      JUMP \t\t\t\n    tag 443\t\t\t\n      JUMPDEST \t\t\t\n      POP \t\t\t\n      SWAP4 \t\t\t\n      SWAP3 \t\t\t\n      POP \t\t\t\n      POP \t\t\t\n      POP \t\t\t\n      JUMP \t\t\t\n    tag 249\t\t\t\n      JUMPDEST \t\t\t\n      PUSH 0\t\t\t\n      DUP3 \t\t\t\n      PUSH 1F\t\t\t\n      DUP4 \t\t\t\n      ADD \t\t\t\n      SLT \t\t\t\n      PUSH [tag] 445\t\t\t\n      JUMPI \t\t\t\n      PUSH [tag] 446\t\t\t\n      PUSH [tag] 200\t\t\t\n      JUMP \t\t\t\n    tag 446\t\t\t\n      JUMPDEST \t\t\t\n    tag 445\t\t\t\n      JUMPDEST \t\t\t\n      DUP2 \t\t\t\n      CALLDATALOAD \t\t\t\n      PUSH [tag] 447\t\t\t\n      DUP5 \t\t\t\n      DUP3 \t\t\t\n      PUSH 20\t\t\t\n      DUP7 \t\t\t\n      ADD \t\t\t\n      PUSH [tag] 248\t\t\t\n      JUMP \t\t\t\n    tag 447\t\t\t\n      JUMPDEST \t\t\t\n      SWAP2 \t\t\t\n      POP \t\t\t\n      POP \t\t\t\n      SWAP3 \t\t\t\n      SWAP2 \t\t\t\n      POP \t\t\t\n      POP \t\t\t\n      JUMP \t\t\t\n    tag 172\t\t\t\n      JUMPDEST \t\t\t\n      PUSH 0\t\t\t\n      PUSH 20\t\t\t\n      DUP3 \t\t\t\n      DUP5 \t\t\t\n      SUB \t\t\t\n      SLT \t\t\t\n      ISZERO \t\t\t\n      PUSH [tag] 449\t\t\t\n      JUMPI \t\t\t\n      PUSH [tag] 450\t\t\t\n      PUSH [tag] 198\t\t\t\n      JUMP \t\t\t\n    tag 450\t\t\t\n      JUMPDEST \t\t\t\n    tag 449\t\t\t\n      JUMPDEST \t\t\t\n      PUSH 0\t\t\t\n      DUP3 \t\t\t\n      ADD \t\t\t\n      CALLDATALOAD \t\t\t\n      PUSH FFFFFFFFFFFFFFFF\t\t\t\n      DUP2 \t\t\t\n      GT \t\t\t\n      ISZERO \t\t\t\n      PUSH [tag] 451\t\t\t\n      JUMPI \t\t\t\n      PUSH [tag] 452\t\t\t\n      PUSH [tag] 199\t\t\t\n      JUMP \t\t\t\n    tag 452\t\t\t\n      JUMPDEST \t\t\t\n    tag 451\t\t\t\n      JUMPDEST \t\t\t\n      PUSH [tag] 453\t\t\t\n      DUP5 \t\t\t\n      DUP3 \t\t\t\n      DUP6 \t\t\t\n      ADD \t\t\t\n      PUSH [tag] 249\t\t\t\n      JUMP \t\t\t\n    tag 453\t\t\t\n      JUMPDEST \t\t\t\n      SWAP2 \t\t\t\n      POP \t\t\t\n      POP \t\t\t\n      SWAP3 \t\t\t\n      SWAP2 \t\t\t\n      POP \t\t\t\n      POP \t\t\t\n      JUMP \t\t\t\n    tag 250\t\t\t\n      JUMPDEST \t\t\t\n      PUSH 4E487B7100000000000000000000000000000000000000000000000000000000\t\t\t\n      PUSH 0\t\t\t\n      MSTORE \t\t\t\n      PUSH 11\t\t\t\n      PUSH 4\t\t\t\n      MSTORE \t\t\t\n      PUSH 24\t\t\t\n      PUSH 0\t\t\t\n      REVERT \t\t\t\n    tag 175\t\t\t\n      JUMPDEST \t\t\t\n      PUSH 0\t\t\t\n      PUSH [tag] 456\t\t\t\n      DUP3 \t\t\t\n      PUSH [tag] 211\t\t\t\n      JUMP \t\t\t\n    tag 456\t\t\t\n      JUMPDEST \t\t\t\n      SWAP2 \t\t\t\n      POP \t\t\t\n      PUSH [tag] 457\t\t\t\n      DUP4 \t\t\t\n      PUSH [tag] 211\t\t\t\n      JUMP \t\t\t\n    tag 457\t\t\t\n      JUMPDEST \t\t\t\n      SWAP3 \t\t\t\n      POP \t\t\t\n      DUP3 \t\t\t\n      DUP3 \t\t\t\n      ADD \t\t\t\n      SWAP1 \t\t\t\n      POP \t\t\t\n      DUP1 \t\t\t\n      DUP3 \t\t\t\n      GT \t\t\t\n      ISZERO \t\t\t\n      PUSH [tag] 458\t\t\t\n      JUMPI \t\t\t\n      PUSH [tag] 459\t\t\t\n      PUSH [tag] 250\t\t\t\n      JUMP \t\t\t\n    tag 459\t\t\t\n      JUMPDEST \t\t\t\n    tag 458\t\t\t\n      JUMPDEST \t\t\t\n      SWAP3 \t\t\t\n      SWAP2 \t\t\t\n      POP \t\t\t\n      POP \t\t\t\n      JUMP \t\t\t\n    tag 251\t\t\t\n      JUMPDEST \t\t\t\n      PUSH 436F6F6C646F776E206163746976650000000000000000000000000000000000\t\t\t\n      PUSH 0\t\t\t\n      DUP3 \t\t\t\n      ADD \t\t\t\n      MSTORE \t\t\t\n      POP \t\t\t\n      JUMP \t\t\t\n    tag 252\t\t\t\n      JUMPDEST \t\t\t\n      PUSH 0\t\t\t\n      PUSH [tag] 462\t\t\t\n      PUSH F\t\t\t\n      DUP4 \t\t\t\n      PUSH [tag] 224\t\t\t\n      JUMP \t\t\t\n    tag 462\t\t\t\n      JUMPDEST \t\t\t\n      SWAP2 \t\t\t\n      POP \t\t\t\n      PUSH [tag] 463\t\t\t\n      DUP3 \t\t\t\n      PUSH [tag] 251\t\t\t\n      JUMP \t\t\t\n    tag 463\t\t\t\n      JUMPDEST \t\t\t\n      PUSH 20\t\t\t\n      DUP3 \t\t\t\n      ADD \t\t\t\n      SWAP1 \t\t\t\n      POP \t\t\t\n      SWAP2 \t\t\t\n      SWAP1 \t\t\t\n      POP \t\t\t\n      JUMP \t\t\t\n    tag 178\t\t\t\n      JUMPDEST \t\t\t\n      PUSH 0\t\t\t\n      PUSH 20\t\t\t\n      DUP3 \t\t\t\n      ADD \t\t\t\n      SWAP1 \t\t\t\n      POP \t\t\t\n      DUP2 \t\t\t\n      DUP2 \t\t\t\n      SUB \t\t\t\n      PUSH 0\t\t\t\n      DUP4 \t\t\t\n      ADD \t\t\t\n      MSTORE \t\t\t\n      PUSH [tag] 465\t\t\t\n      DUP2 \t\t\t\n      PUSH [tag] 252\t\t\t\n      JUMP \t\t\t\n    tag 465\t\t\t\n      JUMPDEST \t\t\t\n      SWAP1 \t\t\t\n      POP \t\t\t\n      SWAP2 \t\t\t\n      SWAP1 \t\t\t\n      POP \t\t\t\n      JUMP \t\t\t\n    tag 182\t\t\t\n      JUMPDEST \t\t\t\n      PUSH 0\t\t\t\n      PUSH 80\t\t\t\n      DUP3 \t\t\t\n      ADD \t\t\t\n      SWAP1 \t\t\t\n      POP \t\t\t\n      PUSH [tag] 467\t\t\t\n      PUSH 0\t\t\t\n      DUP4 \t\t\t\n      ADD \t\t\t\n      DUP9 \t\t\t\n      PUSH [tag] 212\t\t\t\n      JUMP \t\t\t\n    tag 467\t\t\t\n      JUMPDEST \t\t\t\n      PUSH [tag] 468\t\t\t\n      PUSH 20\t\t\t\n      DUP4 \t\t\t\n      ADD \t\t\t\n      DUP8 \t\t\t\n      PUSH [tag] 212\t\t\t\n      JUMP \t\t\t\n    tag 468\t\t\t\n      JUMPDEST \t\t\t\n      DUP2 \t\t\t\n      DUP2 \t\t\t\n      SUB \t\t\t\n      PUSH 40\t\t\t\n      DUP4 \t\t\t\n      ADD \t\t\t\n      MSTORE \t\t\t\n      PUSH [tag] 469\t\t\t\n      DUP2 \t\t\t\n      DUP6 \t\t\t\n      DUP8 \t\t\t\n      PUSH [tag] 230\t\t\t\n      JUMP \t\t\t\n    tag 469\t\t\t\n      JUMPDEST \t\t\t\n      SWAP1 \t\t\t\n      POP \t\t\t\n      PUSH [tag] 470\t\t\t\n      PUSH 60\t\t\t\n      DUP4 \t\t\t\n      ADD \t\t\t\n      DUP5 \t\t\t\n      PUSH [tag] 212\t\t\t\n      JUMP \t\t\t\n    tag 470\t\t\t\n      JUMPDEST \t\t\t\n      SWAP7 \t\t\t\n      SWAP6 \t\t\t\n      POP \t\t\t\n      POP \t\t\t\n      POP \t\t\t\n      POP \t\t\t\n      POP \t\t\t\n      POP \t\t\t\n      JUMP \t\t\t\n    tag 253\t\t\t\n      JUMPDEST \t\t\t\n      PUSH 496E73756666696369656E742062616C616E6365000000000000000000000000\t\t\t\n      PUSH 0\t\t\t\n      DUP3 \t\t\t\n      ADD \t\t\t\n      MSTORE \t\t\t\n      POP \t\t\t\n      JUMP \t\t\t\n    tag 254\t\t\t\n      JUMPDEST \t\t\t\n      PUSH 0\t\t\t\n      PUSH [tag] 473\t\t\t\n      PUSH 14\t\t\t\n      DUP4 \t\t\t\n      PUSH [tag] 224\t\t\t\n      JUMP \t\t\t\n    tag 473\t\t\t\n      JUMPDEST \t\t\t\n      SWAP2 \t\t\t\n      POP \t\t\t\n      PUSH [tag] 474\t\t\t\n      DUP3 \t\t\t\n      PUSH [tag] 253\t\t\t\n      JUMP \t\t\t\n    tag 474\t\t\t\n      JUMPDEST \t\t\t\n      PUSH 20\t\t\t\n      DUP3 \t\t\t\n      ADD \t\t\t\n      SWAP1 \t\t\t\n      POP \t\t\t\n      SWAP2 \t\t\t\n      SWAP1 \t\t\t\n      POP \t\t\t\n      JUMP \t\t\t\n    tag 189\t\t\t\n      JUMPDEST \t\t\t\n      PUSH 0\t\t\t\n      PUSH 20\t\t\t\n      DUP3 \t\t\t\n      ADD \t\t\t\n      SWAP1 \t\t\t\n      POP \t\t\t\n      DUP2 \t\t\t\n      DUP2 \t\t\t\n      SUB \t\t\t\n      PUSH 0\t\t\t\n      DUP4 \t\t\t\n      ADD \t\t\t\n      MSTORE \t\t\t\n      PUSH [tag] 476\t\t\t\n      DUP2 \t\t\t\n      PUSH [tag] 254\t\t\t\n      JUMP \t\t\t\n    tag 476\t\t\t\n      JUMPDEST \t\t\t\n      SWAP1 \t\t\t\n      POP \t\t\t\n      SWAP2 \t\t\t\n      SWAP1 \t\t\t\n      POP \t\t\t\n      JUMP \t\t\t\n    .data\n"
}